{
	"smart_wallet/try_catch.sol": {
		"try_catch": {
			"abi": [
				{
					"inputs": [
						{
							"internalType": "string",
							"name": "",
							"type": "string"
						}
					],
					"name": "not_allowed_error",
					"type": "error"
				},
				{
					"inputs": [],
					"name": "dummy_func",
					"outputs": [],
					"stateMutability": "pure",
					"type": "function"
				}
			],
			"devdoc": {
				"kind": "dev",
				"methods": {},
				"version": 1
			},
			"evm": {
				"assembly": "    /* \"smart_wallet/try_catch.sol\":62:302  contract try_catch... */\n  mstore(0x40, 0x80)\n  callvalue\n  dup1\n  iszero\n  tag_1\n  jumpi\n  0x00\n  dup1\n  revert\ntag_1:\n  pop\n  dataSize(sub_0)\n  dup1\n  dataOffset(sub_0)\n  0x00\n  codecopy\n  0x00\n  return\nstop\n\nsub_0: assembly {\n        /* \"smart_wallet/try_catch.sol\":62:302  contract try_catch... */\n      mstore(0x40, 0x80)\n      callvalue\n      dup1\n      iszero\n      tag_1\n      jumpi\n      0x00\n      dup1\n      revert\n    tag_1:\n      pop\n      jumpi(tag_2, lt(calldatasize, 0x04))\n      shr(0xe0, calldataload(0x00))\n      dup1\n      0x6cd94443\n      eq\n      tag_3\n      jumpi\n    tag_2:\n      0x00\n      dup1\n      revert\n        /* \"smart_wallet/try_catch.sol\":127:299  function dummy_func()public pure... */\n    tag_3:\n      tag_4\n      tag_5\n      jump\t// in\n    tag_4:\n      stop\n    tag_5:\n        /* \"smart_wallet/try_catch.sol\":256:291  not_allowed_error(\"not allowed!!!\") */\n      mload(0x40)\n      0xa43256d800000000000000000000000000000000000000000000000000000000\n      dup2\n      mstore\n      0x04\n      add\n      tag_7\n      swap1\n      tag_8\n      jump\t// in\n    tag_7:\n      mload(0x40)\n      dup1\n      swap2\n      sub\n      swap1\n      revert\n        /* \"#utility.yul\":7:176   */\n    tag_9:\n        /* \"#utility.yul\":91:102   */\n      0x00\n        /* \"#utility.yul\":125:131   */\n      dup3\n        /* \"#utility.yul\":120:123   */\n      dup3\n        /* \"#utility.yul\":113:132   */\n      mstore\n        /* \"#utility.yul\":165:169   */\n      0x20\n        /* \"#utility.yul\":160:163   */\n      dup3\n        /* \"#utility.yul\":156:170   */\n      add\n        /* \"#utility.yul\":141:170   */\n      swap1\n      pop\n        /* \"#utility.yul\":7:176   */\n      swap3\n      swap2\n      pop\n      pop\n      jump\t// out\n        /* \"#utility.yul\":182:346   */\n    tag_10:\n        /* \"#utility.yul\":322:338   */\n      0x6e6f7420616c6c6f776564212121000000000000000000000000000000000000\n        /* \"#utility.yul\":318:319   */\n      0x00\n        /* \"#utility.yul\":310:316   */\n      dup3\n        /* \"#utility.yul\":306:320   */\n      add\n        /* \"#utility.yul\":299:339   */\n      mstore\n        /* \"#utility.yul\":182:346   */\n      pop\n      jump\t// out\n        /* \"#utility.yul\":352:718   */\n    tag_11:\n        /* \"#utility.yul\":494:497   */\n      0x00\n        /* \"#utility.yul\":515:582   */\n      tag_16\n        /* \"#utility.yul\":579:581   */\n      0x0e\n        /* \"#utility.yul\":574:577   */\n      dup4\n        /* \"#utility.yul\":515:582   */\n      tag_9\n      jump\t// in\n    tag_16:\n        /* \"#utility.yul\":508:582   */\n      swap2\n      pop\n        /* \"#utility.yul\":591:684   */\n      tag_17\n        /* \"#utility.yul\":680:683   */\n      dup3\n        /* \"#utility.yul\":591:684   */\n      tag_10\n      jump\t// in\n    tag_17:\n        /* \"#utility.yul\":709:711   */\n      0x20\n        /* \"#utility.yul\":704:707   */\n      dup3\n        /* \"#utility.yul\":700:712   */\n      add\n        /* \"#utility.yul\":693:712   */\n      swap1\n      pop\n        /* \"#utility.yul\":352:718   */\n      swap2\n      swap1\n      pop\n      jump\t// out\n        /* \"#utility.yul\":724:1143   */\n    tag_8:\n        /* \"#utility.yul\":890:894   */\n      0x00\n        /* \"#utility.yul\":928:930   */\n      0x20\n        /* \"#utility.yul\":917:926   */\n      dup3\n        /* \"#utility.yul\":913:931   */\n      add\n        /* \"#utility.yul\":905:931   */\n      swap1\n      pop\n        /* \"#utility.yul\":977:986   */\n      dup2\n        /* \"#utility.yul\":971:975   */\n      dup2\n        /* \"#utility.yul\":967:987   */\n      sub\n        /* \"#utility.yul\":963:964   */\n      0x00\n        /* \"#utility.yul\":952:961   */\n      dup4\n        /* \"#utility.yul\":948:965   */\n      add\n        /* \"#utility.yul\":941:988   */\n      mstore\n        /* \"#utility.yul\":1005:1136   */\n      tag_19\n        /* \"#utility.yul\":1131:1135   */\n      dup2\n        /* \"#utility.yul\":1005:1136   */\n      tag_11\n      jump\t// in\n    tag_19:\n        /* \"#utility.yul\":997:1136   */\n      swap1\n      pop\n        /* \"#utility.yul\":724:1143   */\n      swap2\n      swap1\n      pop\n      jump\t// out\n\n    auxdata: 0xa2646970667358221220765fd4fad2fbf4e743936c8825d8009b6f27205b9f8f0f0784407247d52f0ef164736f6c63430008120033\n}\n",
				"bytecode": {
					"linkReferences": {},
					"object": "608060405234801561001057600080fd5b5061011b806100206000396000f3fe6080604052348015600f57600080fd5b506004361060285760003560e01c80636cd9444314602d575b600080fd5b60336035565b005b6040517fa43256d800000000000000000000000000000000000000000000000000000000815260040160659060c7565b60405180910390fd5b600082825260208201905092915050565b7f6e6f7420616c6c6f776564212121000000000000000000000000000000000000600082015250565b600060b3600e83606e565b915060bc82607f565b602082019050919050565b6000602082019050818103600083015260de8160a8565b905091905056fea2646970667358221220765fd4fad2fbf4e743936c8825d8009b6f27205b9f8f0f0784407247d52f0ef164736f6c63430008120033",
					"opcodes": "PUSH1 0x80 PUSH1 0x40 MSTORE CALLVALUE DUP1 ISZERO PUSH2 0x10 JUMPI PUSH1 0x0 DUP1 REVERT JUMPDEST POP PUSH2 0x11B DUP1 PUSH2 0x20 PUSH1 0x0 CODECOPY PUSH1 0x0 RETURN INVALID PUSH1 0x80 PUSH1 0x40 MSTORE CALLVALUE DUP1 ISZERO PUSH1 0xF JUMPI PUSH1 0x0 DUP1 REVERT JUMPDEST POP PUSH1 0x4 CALLDATASIZE LT PUSH1 0x28 JUMPI PUSH1 0x0 CALLDATALOAD PUSH1 0xE0 SHR DUP1 PUSH4 0x6CD94443 EQ PUSH1 0x2D JUMPI JUMPDEST PUSH1 0x0 DUP1 REVERT JUMPDEST PUSH1 0x33 PUSH1 0x35 JUMP JUMPDEST STOP JUMPDEST PUSH1 0x40 MLOAD PUSH32 0xA43256D800000000000000000000000000000000000000000000000000000000 DUP2 MSTORE PUSH1 0x4 ADD PUSH1 0x65 SWAP1 PUSH1 0xC7 JUMP JUMPDEST PUSH1 0x40 MLOAD DUP1 SWAP2 SUB SWAP1 REVERT JUMPDEST PUSH1 0x0 DUP3 DUP3 MSTORE PUSH1 0x20 DUP3 ADD SWAP1 POP SWAP3 SWAP2 POP POP JUMP JUMPDEST PUSH32 0x6E6F7420616C6C6F776564212121000000000000000000000000000000000000 PUSH1 0x0 DUP3 ADD MSTORE POP JUMP JUMPDEST PUSH1 0x0 PUSH1 0xB3 PUSH1 0xE DUP4 PUSH1 0x6E JUMP JUMPDEST SWAP2 POP PUSH1 0xBC DUP3 PUSH1 0x7F JUMP JUMPDEST PUSH1 0x20 DUP3 ADD SWAP1 POP SWAP2 SWAP1 POP JUMP JUMPDEST PUSH1 0x0 PUSH1 0x20 DUP3 ADD SWAP1 POP DUP2 DUP2 SUB PUSH1 0x0 DUP4 ADD MSTORE PUSH1 0xDE DUP2 PUSH1 0xA8 JUMP JUMPDEST SWAP1 POP SWAP2 SWAP1 POP JUMP INVALID LOG2 PUSH5 0x6970667358 0x22 SLT KECCAK256 PUSH23 0x5FD4FAD2FBF4E743936C8825D8009B6F27205B9F8F0F07 DUP5 BLOCKHASH PUSH19 0x47D52F0EF164736F6C63430008120033000000 "
				},
				"gasEstimates": {
					"creation": {
						"codeDepositCost": "56600",
						"executionCost": "105",
						"totalCost": "56705"
					},
					"external": {
						"dummy_func()": "412"
					}
				},
				"methodIdentifiers": {
					"dummy_func()": "6cd94443"
				}
			},
			"storageLayout": {
				"storage": [],
				"types": null
			},
			"userdoc": {
				"kind": "user",
				"methods": {},
				"version": 1
			}
		}
	}
}