{
	"smart_wallet/mapping.sol": {
		"my_mapping": {
			"abi": [
				{
					"inputs": [
						{
							"internalType": "address",
							"name": "",
							"type": "address"
						}
					],
					"name": "ex_mapping",
					"outputs": [
						{
							"internalType": "uint256",
							"name": "",
							"type": "uint256"
						}
					],
					"stateMutability": "view",
					"type": "function"
				},
				{
					"inputs": [
						{
							"internalType": "address",
							"name": "my_address",
							"type": "address"
						}
					],
					"name": "getbalance",
					"outputs": [
						{
							"internalType": "uint256",
							"name": "",
							"type": "uint256"
						}
					],
					"stateMutability": "view",
					"type": "function"
				},
				{
					"inputs": [
						{
							"internalType": "uint256",
							"name": "",
							"type": "uint256"
						},
						{
							"internalType": "uint256",
							"name": "",
							"type": "uint256"
						}
					],
					"name": "index_mapping",
					"outputs": [
						{
							"internalType": "bool",
							"name": "",
							"type": "bool"
						}
					],
					"stateMutability": "view",
					"type": "function"
				},
				{
					"inputs": [
						{
							"internalType": "uint256",
							"name": "a",
							"type": "uint256"
						},
						{
							"internalType": "uint256",
							"name": "b",
							"type": "uint256"
						},
						{
							"internalType": "bool",
							"name": "valx",
							"type": "bool"
						}
					],
					"name": "set_index_mapping",
					"outputs": [],
					"stateMutability": "nonpayable",
					"type": "function"
				},
				{
					"inputs": [
						{
							"internalType": "uint256",
							"name": "my_val",
							"type": "uint256"
						}
					],
					"name": "set_mapping",
					"outputs": [],
					"stateMutability": "nonpayable",
					"type": "function"
				}
			],
			"devdoc": {
				"kind": "dev",
				"methods": {},
				"version": 1
			},
			"evm": {
				"assembly": "    /* \"smart_wallet/mapping.sol\":62:551  contract my_mapping... */\n  mstore(0x40, 0x80)\n  callvalue\n  dup1\n  iszero\n  tag_1\n  jumpi\n  0x00\n  dup1\n  revert\ntag_1:\n  pop\n  dataSize(sub_0)\n  dup1\n  dataOffset(sub_0)\n  0x00\n  codecopy\n  0x00\n  return\nstop\n\nsub_0: assembly {\n        /* \"smart_wallet/mapping.sol\":62:551  contract my_mapping... */\n      mstore(0x40, 0x80)\n      callvalue\n      dup1\n      iszero\n      tag_1\n      jumpi\n      0x00\n      dup1\n      revert\n    tag_1:\n      pop\n      jumpi(tag_2, lt(calldatasize, 0x04))\n      shr(0xe0, calldataload(0x00))\n      dup1\n      0x23298bc5\n      eq\n      tag_3\n      jumpi\n      dup1\n      0x4af0332d\n      eq\n      tag_4\n      jumpi\n      dup1\n      0x68116177\n      eq\n      tag_5\n      jumpi\n      dup1\n      0x8f959f45\n      eq\n      tag_6\n      jumpi\n      dup1\n      0xeeea227c\n      eq\n      tag_7\n      jumpi\n    tag_2:\n      0x00\n      dup1\n      revert\n        /* \"smart_wallet/mapping.sol\":305:416  function set_index_mapping(uint a, uint b,bool valx)public... */\n    tag_3:\n      tag_8\n      0x04\n      dup1\n      calldatasize\n      sub\n      dup2\n      add\n      swap1\n      tag_9\n      swap2\n      swap1\n      tag_10\n      jump\t// in\n    tag_9:\n      tag_11\n      jump\t// in\n    tag_8:\n      stop\n        /* \"smart_wallet/mapping.sol\":202:295  function set_mapping(uint my_val)public... */\n    tag_4:\n      tag_12\n      0x04\n      dup1\n      calldatasize\n      sub\n      dup2\n      add\n      swap1\n      tag_13\n      swap2\n      swap1\n      tag_14\n      jump\t// in\n    tag_13:\n      tag_15\n      jump\t// in\n    tag_12:\n      stop\n        /* \"smart_wallet/mapping.sol\":426:544  function getbalance(address my_address)public view returns(uint)... */\n    tag_5:\n      tag_16\n      0x04\n      dup1\n      calldatasize\n      sub\n      dup2\n      add\n      swap1\n      tag_17\n      swap2\n      swap1\n      tag_18\n      jump\t// in\n    tag_17:\n      tag_19\n      jump\t// in\n    tag_16:\n      mload(0x40)\n      tag_20\n      swap2\n      swap1\n      tag_21\n      jump\t// in\n    tag_20:\n      mload(0x40)\n      dup1\n      swap2\n      sub\n      swap1\n      return\n        /* \"smart_wallet/mapping.sol\":138:193  mapping(uint=>mapping(uint=>bool)) public index_mapping */\n    tag_6:\n      tag_22\n      0x04\n      dup1\n      calldatasize\n      sub\n      dup2\n      add\n      swap1\n      tag_23\n      swap2\n      swap1\n      tag_24\n      jump\t// in\n    tag_23:\n      tag_25\n      jump\t// in\n    tag_22:\n      mload(0x40)\n      tag_26\n      swap2\n      swap1\n      tag_27\n      jump\t// in\n    tag_26:\n      mload(0x40)\n      dup1\n      swap2\n      sub\n      swap1\n      return\n        /* \"smart_wallet/mapping.sol\":90:129  mapping(address=>uint)public ex_mapping */\n    tag_7:\n      tag_28\n      0x04\n      dup1\n      calldatasize\n      sub\n      dup2\n      add\n      swap1\n      tag_29\n      swap2\n      swap1\n      tag_18\n      jump\t// in\n    tag_29:\n      tag_30\n      jump\t// in\n    tag_28:\n      mload(0x40)\n      tag_31\n      swap2\n      swap1\n      tag_21\n      jump\t// in\n    tag_31:\n      mload(0x40)\n      dup1\n      swap2\n      sub\n      swap1\n      return\n        /* \"smart_wallet/mapping.sol\":305:416  function set_index_mapping(uint a, uint b,bool valx)public... */\n    tag_11:\n        /* \"smart_wallet/mapping.sol\":400:404  valx */\n      dup1\n        /* \"smart_wallet/mapping.sol\":380:393  index_mapping */\n      0x01\n        /* \"smart_wallet/mapping.sol\":380:396  index_mapping[a] */\n      0x00\n        /* \"smart_wallet/mapping.sol\":394:395  a */\n      dup6\n        /* \"smart_wallet/mapping.sol\":380:396  index_mapping[a] */\n      dup2\n      mstore\n      0x20\n      add\n      swap1\n      dup2\n      mstore\n      0x20\n      add\n      0x00\n      keccak256\n        /* \"smart_wallet/mapping.sol\":380:399  index_mapping[a][b] */\n      0x00\n        /* \"smart_wallet/mapping.sol\":397:398  b */\n      dup5\n        /* \"smart_wallet/mapping.sol\":380:399  index_mapping[a][b] */\n      dup2\n      mstore\n      0x20\n      add\n      swap1\n      dup2\n      mstore\n      0x20\n      add\n      0x00\n      keccak256\n      0x00\n        /* \"smart_wallet/mapping.sol\":380:404  index_mapping[a][b]=valx */\n      0x0100\n      exp\n      dup2\n      sload\n      dup2\n      0xff\n      mul\n      not\n      and\n      swap1\n      dup4\n      iszero\n      iszero\n      mul\n      or\n      swap1\n      sstore\n      pop\n        /* \"smart_wallet/mapping.sol\":305:416  function set_index_mapping(uint a, uint b,bool valx)public... */\n      pop\n      pop\n      pop\n      jump\t// out\n        /* \"smart_wallet/mapping.sol\":202:295  function set_mapping(uint my_val)public... */\n    tag_15:\n        /* \"smart_wallet/mapping.sol\":281:287  my_val */\n      dup1\n        /* \"smart_wallet/mapping.sol\":258:268  ex_mapping */\n      0x00\n        /* \"smart_wallet/mapping.sol\":258:280  ex_mapping[msg.sender] */\n      dup1\n        /* \"smart_wallet/mapping.sol\":269:279  msg.sender */\n      caller\n        /* \"smart_wallet/mapping.sol\":258:280  ex_mapping[msg.sender] */\n      0xffffffffffffffffffffffffffffffffffffffff\n      and\n      0xffffffffffffffffffffffffffffffffffffffff\n      and\n      dup2\n      mstore\n      0x20\n      add\n      swap1\n      dup2\n      mstore\n      0x20\n      add\n      0x00\n      keccak256\n        /* \"smart_wallet/mapping.sol\":258:287  ex_mapping[msg.sender]=my_val */\n      dup2\n      swap1\n      sstore\n      pop\n        /* \"smart_wallet/mapping.sol\":202:295  function set_mapping(uint my_val)public... */\n      pop\n      jump\t// out\n        /* \"smart_wallet/mapping.sol\":426:544  function getbalance(address my_address)public view returns(uint)... */\n    tag_19:\n        /* \"smart_wallet/mapping.sol\":485:489  uint */\n      0x00\n        /* \"smart_wallet/mapping.sol\":514:524  ex_mapping */\n      dup1\n        /* \"smart_wallet/mapping.sol\":514:536  ex_mapping[my_address] */\n      0x00\n        /* \"smart_wallet/mapping.sol\":525:535  my_address */\n      dup4\n        /* \"smart_wallet/mapping.sol\":514:536  ex_mapping[my_address] */\n      0xffffffffffffffffffffffffffffffffffffffff\n      and\n      0xffffffffffffffffffffffffffffffffffffffff\n      and\n      dup2\n      mstore\n      0x20\n      add\n      swap1\n      dup2\n      mstore\n      0x20\n      add\n      0x00\n      keccak256\n      sload\n        /* \"smart_wallet/mapping.sol\":507:536  return ex_mapping[my_address] */\n      swap1\n      pop\n        /* \"smart_wallet/mapping.sol\":426:544  function getbalance(address my_address)public view returns(uint)... */\n      swap2\n      swap1\n      pop\n      jump\t// out\n        /* \"smart_wallet/mapping.sol\":138:193  mapping(uint=>mapping(uint=>bool)) public index_mapping */\n    tag_25:\n      mstore(0x20, 0x01)\n      dup2\n      0x00\n      mstore\n      mstore(0x20, keccak256(0x00, 0x40))\n      dup1\n      0x00\n      mstore\n      keccak256(0x00, 0x40)\n      0x00\n      swap2\n      pop\n      swap2\n      pop\n      swap1\n      sload\n      swap1\n      0x0100\n      exp\n      swap1\n      div\n      0xff\n      and\n      dup2\n      jump\t// out\n        /* \"smart_wallet/mapping.sol\":90:129  mapping(address=>uint)public ex_mapping */\n    tag_30:\n      mstore(0x20, 0x00)\n      dup1\n      0x00\n      mstore\n      keccak256(0x00, 0x40)\n      0x00\n      swap2\n      pop\n      swap1\n      pop\n      sload\n      dup2\n      jump\t// out\n        /* \"#utility.yul\":88:205   */\n    tag_36:\n        /* \"#utility.yul\":197:198   */\n      0x00\n        /* \"#utility.yul\":194:195   */\n      dup1\n        /* \"#utility.yul\":187:199   */\n      revert\n        /* \"#utility.yul\":334:411   */\n    tag_38:\n        /* \"#utility.yul\":371:378   */\n      0x00\n        /* \"#utility.yul\":400:405   */\n      dup2\n        /* \"#utility.yul\":389:405   */\n      swap1\n      pop\n        /* \"#utility.yul\":334:411   */\n      swap2\n      swap1\n      pop\n      jump\t// out\n        /* \"#utility.yul\":417:539   */\n    tag_39:\n        /* \"#utility.yul\":490:514   */\n      tag_56\n        /* \"#utility.yul\":508:513   */\n      dup2\n        /* \"#utility.yul\":490:514   */\n      tag_38\n      jump\t// in\n    tag_56:\n        /* \"#utility.yul\":483:488   */\n      dup2\n        /* \"#utility.yul\":480:515   */\n      eq\n        /* \"#utility.yul\":470:533   */\n      tag_57\n      jumpi\n        /* \"#utility.yul\":529:530   */\n      0x00\n        /* \"#utility.yul\":526:527   */\n      dup1\n        /* \"#utility.yul\":519:531   */\n      revert\n        /* \"#utility.yul\":470:533   */\n    tag_57:\n        /* \"#utility.yul\":417:539   */\n      pop\n      jump\t// out\n        /* \"#utility.yul\":545:684   */\n    tag_40:\n        /* \"#utility.yul\":591:596   */\n      0x00\n        /* \"#utility.yul\":629:635   */\n      dup2\n        /* \"#utility.yul\":616:636   */\n      calldataload\n        /* \"#utility.yul\":607:636   */\n      swap1\n      pop\n        /* \"#utility.yul\":645:678   */\n      tag_59\n        /* \"#utility.yul\":672:677   */\n      dup2\n        /* \"#utility.yul\":645:678   */\n      tag_39\n      jump\t// in\n    tag_59:\n        /* \"#utility.yul\":545:684   */\n      swap3\n      swap2\n      pop\n      pop\n      jump\t// out\n        /* \"#utility.yul\":690:780   */\n    tag_41:\n        /* \"#utility.yul\":724:731   */\n      0x00\n        /* \"#utility.yul\":767:772   */\n      dup2\n        /* \"#utility.yul\":760:773   */\n      iszero\n        /* \"#utility.yul\":753:774   */\n      iszero\n        /* \"#utility.yul\":742:774   */\n      swap1\n      pop\n        /* \"#utility.yul\":690:780   */\n      swap2\n      swap1\n      pop\n      jump\t// out\n        /* \"#utility.yul\":786:902   */\n    tag_42:\n        /* \"#utility.yul\":856:877   */\n      tag_62\n        /* \"#utility.yul\":871:876   */\n      dup2\n        /* \"#utility.yul\":856:877   */\n      tag_41\n      jump\t// in\n    tag_62:\n        /* \"#utility.yul\":849:854   */\n      dup2\n        /* \"#utility.yul\":846:878   */\n      eq\n        /* \"#utility.yul\":836:896   */\n      tag_63\n      jumpi\n        /* \"#utility.yul\":892:893   */\n      0x00\n        /* \"#utility.yul\":889:890   */\n      dup1\n        /* \"#utility.yul\":882:894   */\n      revert\n        /* \"#utility.yul\":836:896   */\n    tag_63:\n        /* \"#utility.yul\":786:902   */\n      pop\n      jump\t// out\n        /* \"#utility.yul\":908:1041   */\n    tag_43:\n        /* \"#utility.yul\":951:956   */\n      0x00\n        /* \"#utility.yul\":989:995   */\n      dup2\n        /* \"#utility.yul\":976:996   */\n      calldataload\n        /* \"#utility.yul\":967:996   */\n      swap1\n      pop\n        /* \"#utility.yul\":1005:1035   */\n      tag_65\n        /* \"#utility.yul\":1029:1034   */\n      dup2\n        /* \"#utility.yul\":1005:1035   */\n      tag_42\n      jump\t// in\n    tag_65:\n        /* \"#utility.yul\":908:1041   */\n      swap3\n      swap2\n      pop\n      pop\n      jump\t// out\n        /* \"#utility.yul\":1047:1660   */\n    tag_10:\n        /* \"#utility.yul\":1121:1127   */\n      0x00\n        /* \"#utility.yul\":1129:1135   */\n      dup1\n        /* \"#utility.yul\":1137:1143   */\n      0x00\n        /* \"#utility.yul\":1186:1188   */\n      0x60\n        /* \"#utility.yul\":1174:1183   */\n      dup5\n        /* \"#utility.yul\":1165:1172   */\n      dup7\n        /* \"#utility.yul\":1161:1184   */\n      sub\n        /* \"#utility.yul\":1157:1189   */\n      slt\n        /* \"#utility.yul\":1154:1273   */\n      iszero\n      tag_67\n      jumpi\n        /* \"#utility.yul\":1192:1271   */\n      tag_68\n      tag_36\n      jump\t// in\n    tag_68:\n        /* \"#utility.yul\":1154:1273   */\n    tag_67:\n        /* \"#utility.yul\":1312:1313   */\n      0x00\n        /* \"#utility.yul\":1337:1390   */\n      tag_69\n        /* \"#utility.yul\":1382:1389   */\n      dup7\n        /* \"#utility.yul\":1373:1379   */\n      dup3\n        /* \"#utility.yul\":1362:1371   */\n      dup8\n        /* \"#utility.yul\":1358:1380   */\n      add\n        /* \"#utility.yul\":1337:1390   */\n      tag_40\n      jump\t// in\n    tag_69:\n        /* \"#utility.yul\":1327:1390   */\n      swap4\n      pop\n        /* \"#utility.yul\":1283:1400   */\n      pop\n        /* \"#utility.yul\":1439:1441   */\n      0x20\n        /* \"#utility.yul\":1465:1518   */\n      tag_70\n        /* \"#utility.yul\":1510:1517   */\n      dup7\n        /* \"#utility.yul\":1501:1507   */\n      dup3\n        /* \"#utility.yul\":1490:1499   */\n      dup8\n        /* \"#utility.yul\":1486:1508   */\n      add\n        /* \"#utility.yul\":1465:1518   */\n      tag_40\n      jump\t// in\n    tag_70:\n        /* \"#utility.yul\":1455:1518   */\n      swap3\n      pop\n        /* \"#utility.yul\":1410:1528   */\n      pop\n        /* \"#utility.yul\":1567:1569   */\n      0x40\n        /* \"#utility.yul\":1593:1643   */\n      tag_71\n        /* \"#utility.yul\":1635:1642   */\n      dup7\n        /* \"#utility.yul\":1626:1632   */\n      dup3\n        /* \"#utility.yul\":1615:1624   */\n      dup8\n        /* \"#utility.yul\":1611:1633   */\n      add\n        /* \"#utility.yul\":1593:1643   */\n      tag_43\n      jump\t// in\n    tag_71:\n        /* \"#utility.yul\":1583:1643   */\n      swap2\n      pop\n        /* \"#utility.yul\":1538:1653   */\n      pop\n        /* \"#utility.yul\":1047:1660   */\n      swap3\n      pop\n      swap3\n      pop\n      swap3\n      jump\t// out\n        /* \"#utility.yul\":1666:1995   */\n    tag_14:\n        /* \"#utility.yul\":1725:1731   */\n      0x00\n        /* \"#utility.yul\":1774:1776   */\n      0x20\n        /* \"#utility.yul\":1762:1771   */\n      dup3\n        /* \"#utility.yul\":1753:1760   */\n      dup5\n        /* \"#utility.yul\":1749:1772   */\n      sub\n        /* \"#utility.yul\":1745:1777   */\n      slt\n        /* \"#utility.yul\":1742:1861   */\n      iszero\n      tag_73\n      jumpi\n        /* \"#utility.yul\":1780:1859   */\n      tag_74\n      tag_36\n      jump\t// in\n    tag_74:\n        /* \"#utility.yul\":1742:1861   */\n    tag_73:\n        /* \"#utility.yul\":1900:1901   */\n      0x00\n        /* \"#utility.yul\":1925:1978   */\n      tag_75\n        /* \"#utility.yul\":1970:1977   */\n      dup5\n        /* \"#utility.yul\":1961:1967   */\n      dup3\n        /* \"#utility.yul\":1950:1959   */\n      dup6\n        /* \"#utility.yul\":1946:1968   */\n      add\n        /* \"#utility.yul\":1925:1978   */\n      tag_40\n      jump\t// in\n    tag_75:\n        /* \"#utility.yul\":1915:1978   */\n      swap2\n      pop\n        /* \"#utility.yul\":1871:1988   */\n      pop\n        /* \"#utility.yul\":1666:1995   */\n      swap3\n      swap2\n      pop\n      pop\n      jump\t// out\n        /* \"#utility.yul\":2001:2127   */\n    tag_44:\n        /* \"#utility.yul\":2038:2045   */\n      0x00\n        /* \"#utility.yul\":2078:2120   */\n      0xffffffffffffffffffffffffffffffffffffffff\n        /* \"#utility.yul\":2071:2076   */\n      dup3\n        /* \"#utility.yul\":2067:2121   */\n      and\n        /* \"#utility.yul\":2056:2121   */\n      swap1\n      pop\n        /* \"#utility.yul\":2001:2127   */\n      swap2\n      swap1\n      pop\n      jump\t// out\n        /* \"#utility.yul\":2133:2229   */\n    tag_45:\n        /* \"#utility.yul\":2170:2177   */\n      0x00\n        /* \"#utility.yul\":2199:2223   */\n      tag_78\n        /* \"#utility.yul\":2217:2222   */\n      dup3\n        /* \"#utility.yul\":2199:2223   */\n      tag_44\n      jump\t// in\n    tag_78:\n        /* \"#utility.yul\":2188:2223   */\n      swap1\n      pop\n        /* \"#utility.yul\":2133:2229   */\n      swap2\n      swap1\n      pop\n      jump\t// out\n        /* \"#utility.yul\":2235:2357   */\n    tag_46:\n        /* \"#utility.yul\":2308:2332   */\n      tag_80\n        /* \"#utility.yul\":2326:2331   */\n      dup2\n        /* \"#utility.yul\":2308:2332   */\n      tag_45\n      jump\t// in\n    tag_80:\n        /* \"#utility.yul\":2301:2306   */\n      dup2\n        /* \"#utility.yul\":2298:2333   */\n      eq\n        /* \"#utility.yul\":2288:2351   */\n      tag_81\n      jumpi\n        /* \"#utility.yul\":2347:2348   */\n      0x00\n        /* \"#utility.yul\":2344:2345   */\n      dup1\n        /* \"#utility.yul\":2337:2349   */\n      revert\n        /* \"#utility.yul\":2288:2351   */\n    tag_81:\n        /* \"#utility.yul\":2235:2357   */\n      pop\n      jump\t// out\n        /* \"#utility.yul\":2363:2502   */\n    tag_47:\n        /* \"#utility.yul\":2409:2414   */\n      0x00\n        /* \"#utility.yul\":2447:2453   */\n      dup2\n        /* \"#utility.yul\":2434:2454   */\n      calldataload\n        /* \"#utility.yul\":2425:2454   */\n      swap1\n      pop\n        /* \"#utility.yul\":2463:2496   */\n      tag_83\n        /* \"#utility.yul\":2490:2495   */\n      dup2\n        /* \"#utility.yul\":2463:2496   */\n      tag_46\n      jump\t// in\n    tag_83:\n        /* \"#utility.yul\":2363:2502   */\n      swap3\n      swap2\n      pop\n      pop\n      jump\t// out\n        /* \"#utility.yul\":2508:2837   */\n    tag_18:\n        /* \"#utility.yul\":2567:2573   */\n      0x00\n        /* \"#utility.yul\":2616:2618   */\n      0x20\n        /* \"#utility.yul\":2604:2613   */\n      dup3\n        /* \"#utility.yul\":2595:2602   */\n      dup5\n        /* \"#utility.yul\":2591:2614   */\n      sub\n        /* \"#utility.yul\":2587:2619   */\n      slt\n        /* \"#utility.yul\":2584:2703   */\n      iszero\n      tag_85\n      jumpi\n        /* \"#utility.yul\":2622:2701   */\n      tag_86\n      tag_36\n      jump\t// in\n    tag_86:\n        /* \"#utility.yul\":2584:2703   */\n    tag_85:\n        /* \"#utility.yul\":2742:2743   */\n      0x00\n        /* \"#utility.yul\":2767:2820   */\n      tag_87\n        /* \"#utility.yul\":2812:2819   */\n      dup5\n        /* \"#utility.yul\":2803:2809   */\n      dup3\n        /* \"#utility.yul\":2792:2801   */\n      dup6\n        /* \"#utility.yul\":2788:2810   */\n      add\n        /* \"#utility.yul\":2767:2820   */\n      tag_47\n      jump\t// in\n    tag_87:\n        /* \"#utility.yul\":2757:2820   */\n      swap2\n      pop\n        /* \"#utility.yul\":2713:2830   */\n      pop\n        /* \"#utility.yul\":2508:2837   */\n      swap3\n      swap2\n      pop\n      pop\n      jump\t// out\n        /* \"#utility.yul\":2843:2961   */\n    tag_48:\n        /* \"#utility.yul\":2930:2954   */\n      tag_89\n        /* \"#utility.yul\":2948:2953   */\n      dup2\n        /* \"#utility.yul\":2930:2954   */\n      tag_38\n      jump\t// in\n    tag_89:\n        /* \"#utility.yul\":2925:2928   */\n      dup3\n        /* \"#utility.yul\":2918:2955   */\n      mstore\n        /* \"#utility.yul\":2843:2961   */\n      pop\n      pop\n      jump\t// out\n        /* \"#utility.yul\":2967:3189   */\n    tag_21:\n        /* \"#utility.yul\":3060:3064   */\n      0x00\n        /* \"#utility.yul\":3098:3100   */\n      0x20\n        /* \"#utility.yul\":3087:3096   */\n      dup3\n        /* \"#utility.yul\":3083:3101   */\n      add\n        /* \"#utility.yul\":3075:3101   */\n      swap1\n      pop\n        /* \"#utility.yul\":3111:3182   */\n      tag_91\n        /* \"#utility.yul\":3179:3180   */\n      0x00\n        /* \"#utility.yul\":3168:3177   */\n      dup4\n        /* \"#utility.yul\":3164:3181   */\n      add\n        /* \"#utility.yul\":3155:3161   */\n      dup5\n        /* \"#utility.yul\":3111:3182   */\n      tag_48\n      jump\t// in\n    tag_91:\n        /* \"#utility.yul\":2967:3189   */\n      swap3\n      swap2\n      pop\n      pop\n      jump\t// out\n        /* \"#utility.yul\":3195:3669   */\n    tag_24:\n        /* \"#utility.yul\":3263:3269   */\n      0x00\n        /* \"#utility.yul\":3271:3277   */\n      dup1\n        /* \"#utility.yul\":3320:3322   */\n      0x40\n        /* \"#utility.yul\":3308:3317   */\n      dup4\n        /* \"#utility.yul\":3299:3306   */\n      dup6\n        /* \"#utility.yul\":3295:3318   */\n      sub\n        /* \"#utility.yul\":3291:3323   */\n      slt\n        /* \"#utility.yul\":3288:3407   */\n      iszero\n      tag_93\n      jumpi\n        /* \"#utility.yul\":3326:3405   */\n      tag_94\n      tag_36\n      jump\t// in\n    tag_94:\n        /* \"#utility.yul\":3288:3407   */\n    tag_93:\n        /* \"#utility.yul\":3446:3447   */\n      0x00\n        /* \"#utility.yul\":3471:3524   */\n      tag_95\n        /* \"#utility.yul\":3516:3523   */\n      dup6\n        /* \"#utility.yul\":3507:3513   */\n      dup3\n        /* \"#utility.yul\":3496:3505   */\n      dup7\n        /* \"#utility.yul\":3492:3514   */\n      add\n        /* \"#utility.yul\":3471:3524   */\n      tag_40\n      jump\t// in\n    tag_95:\n        /* \"#utility.yul\":3461:3524   */\n      swap3\n      pop\n        /* \"#utility.yul\":3417:3534   */\n      pop\n        /* \"#utility.yul\":3573:3575   */\n      0x20\n        /* \"#utility.yul\":3599:3652   */\n      tag_96\n        /* \"#utility.yul\":3644:3651   */\n      dup6\n        /* \"#utility.yul\":3635:3641   */\n      dup3\n        /* \"#utility.yul\":3624:3633   */\n      dup7\n        /* \"#utility.yul\":3620:3642   */\n      add\n        /* \"#utility.yul\":3599:3652   */\n      tag_40\n      jump\t// in\n    tag_96:\n        /* \"#utility.yul\":3589:3652   */\n      swap2\n      pop\n        /* \"#utility.yul\":3544:3662   */\n      pop\n        /* \"#utility.yul\":3195:3669   */\n      swap3\n      pop\n      swap3\n      swap1\n      pop\n      jump\t// out\n        /* \"#utility.yul\":3675:3784   */\n    tag_49:\n        /* \"#utility.yul\":3756:3777   */\n      tag_98\n        /* \"#utility.yul\":3771:3776   */\n      dup2\n        /* \"#utility.yul\":3756:3777   */\n      tag_41\n      jump\t// in\n    tag_98:\n        /* \"#utility.yul\":3751:3754   */\n      dup3\n        /* \"#utility.yul\":3744:3778   */\n      mstore\n        /* \"#utility.yul\":3675:3784   */\n      pop\n      pop\n      jump\t// out\n        /* \"#utility.yul\":3790:4000   */\n    tag_27:\n        /* \"#utility.yul\":3877:3881   */\n      0x00\n        /* \"#utility.yul\":3915:3917   */\n      0x20\n        /* \"#utility.yul\":3904:3913   */\n      dup3\n        /* \"#utility.yul\":3900:3918   */\n      add\n        /* \"#utility.yul\":3892:3918   */\n      swap1\n      pop\n        /* \"#utility.yul\":3928:3993   */\n      tag_100\n        /* \"#utility.yul\":3990:3991   */\n      0x00\n        /* \"#utility.yul\":3979:3988   */\n      dup4\n        /* \"#utility.yul\":3975:3992   */\n      add\n        /* \"#utility.yul\":3966:3972   */\n      dup5\n        /* \"#utility.yul\":3928:3993   */\n      tag_49\n      jump\t// in\n    tag_100:\n        /* \"#utility.yul\":3790:4000   */\n      swap3\n      swap2\n      pop\n      pop\n      jump\t// out\n\n    auxdata: 0xa2646970667358221220ed51027939a6a4d7310668c812359d9628ad0ef86d728a4ff35d3ce89907a7c764736f6c63430008120033\n}\n",
				"bytecode": {
					"linkReferences": {},
					"object": "608060405234801561001057600080fd5b50610482806100206000396000f3fe608060405234801561001057600080fd5b50600436106100575760003560e01c806323298bc51461005c5780634af0332d1461007857806368116177146100945780638f959f45146100c4578063eeea227c146100f4575b600080fd5b610076600480360381019061007191906102ad565b610124565b005b610092600480360381019061008d9190610300565b610165565b005b6100ae60048036038101906100a9919061038b565b6101ab565b6040516100bb91906103c7565b60405180910390f35b6100de60048036038101906100d991906103e2565b6101f3565b6040516100eb9190610431565b60405180910390f35b61010e6004803603810190610109919061038b565b610222565b60405161011b91906103c7565b60405180910390f35b8060016000858152602001908152602001600020600084815260200190815260200160002060006101000a81548160ff021916908315150217905550505050565b806000803373ffffffffffffffffffffffffffffffffffffffff1673ffffffffffffffffffffffffffffffffffffffff1681526020019081526020016000208190555050565b60008060008373ffffffffffffffffffffffffffffffffffffffff1673ffffffffffffffffffffffffffffffffffffffff168152602001908152602001600020549050919050565b60016020528160005260406000206020528060005260406000206000915091509054906101000a900460ff1681565b60006020528060005260406000206000915090505481565b600080fd5b6000819050919050565b6102528161023f565b811461025d57600080fd5b50565b60008135905061026f81610249565b92915050565b60008115159050919050565b61028a81610275565b811461029557600080fd5b50565b6000813590506102a781610281565b92915050565b6000806000606084860312156102c6576102c561023a565b5b60006102d486828701610260565b93505060206102e586828701610260565b92505060406102f686828701610298565b9150509250925092565b6000602082840312156103165761031561023a565b5b600061032484828501610260565b91505092915050565b600073ffffffffffffffffffffffffffffffffffffffff82169050919050565b60006103588261032d565b9050919050565b6103688161034d565b811461037357600080fd5b50565b6000813590506103858161035f565b92915050565b6000602082840312156103a1576103a061023a565b5b60006103af84828501610376565b91505092915050565b6103c18161023f565b82525050565b60006020820190506103dc60008301846103b8565b92915050565b600080604083850312156103f9576103f861023a565b5b600061040785828601610260565b925050602061041885828601610260565b9150509250929050565b61042b81610275565b82525050565b60006020820190506104466000830184610422565b9291505056fea2646970667358221220ed51027939a6a4d7310668c812359d9628ad0ef86d728a4ff35d3ce89907a7c764736f6c63430008120033",
					"opcodes": "PUSH1 0x80 PUSH1 0x40 MSTORE CALLVALUE DUP1 ISZERO PUSH2 0x10 JUMPI PUSH1 0x0 DUP1 REVERT JUMPDEST POP PUSH2 0x482 DUP1 PUSH2 0x20 PUSH1 0x0 CODECOPY PUSH1 0x0 RETURN INVALID PUSH1 0x80 PUSH1 0x40 MSTORE CALLVALUE DUP1 ISZERO PUSH2 0x10 JUMPI PUSH1 0x0 DUP1 REVERT JUMPDEST POP PUSH1 0x4 CALLDATASIZE LT PUSH2 0x57 JUMPI PUSH1 0x0 CALLDATALOAD PUSH1 0xE0 SHR DUP1 PUSH4 0x23298BC5 EQ PUSH2 0x5C JUMPI DUP1 PUSH4 0x4AF0332D EQ PUSH2 0x78 JUMPI DUP1 PUSH4 0x68116177 EQ PUSH2 0x94 JUMPI DUP1 PUSH4 0x8F959F45 EQ PUSH2 0xC4 JUMPI DUP1 PUSH4 0xEEEA227C EQ PUSH2 0xF4 JUMPI JUMPDEST PUSH1 0x0 DUP1 REVERT JUMPDEST PUSH2 0x76 PUSH1 0x4 DUP1 CALLDATASIZE SUB DUP2 ADD SWAP1 PUSH2 0x71 SWAP2 SWAP1 PUSH2 0x2AD JUMP JUMPDEST PUSH2 0x124 JUMP JUMPDEST STOP JUMPDEST PUSH2 0x92 PUSH1 0x4 DUP1 CALLDATASIZE SUB DUP2 ADD SWAP1 PUSH2 0x8D SWAP2 SWAP1 PUSH2 0x300 JUMP JUMPDEST PUSH2 0x165 JUMP JUMPDEST STOP JUMPDEST PUSH2 0xAE PUSH1 0x4 DUP1 CALLDATASIZE SUB DUP2 ADD SWAP1 PUSH2 0xA9 SWAP2 SWAP1 PUSH2 0x38B JUMP JUMPDEST PUSH2 0x1AB JUMP JUMPDEST PUSH1 0x40 MLOAD PUSH2 0xBB SWAP2 SWAP1 PUSH2 0x3C7 JUMP JUMPDEST PUSH1 0x40 MLOAD DUP1 SWAP2 SUB SWAP1 RETURN JUMPDEST PUSH2 0xDE PUSH1 0x4 DUP1 CALLDATASIZE SUB DUP2 ADD SWAP1 PUSH2 0xD9 SWAP2 SWAP1 PUSH2 0x3E2 JUMP JUMPDEST PUSH2 0x1F3 JUMP JUMPDEST PUSH1 0x40 MLOAD PUSH2 0xEB SWAP2 SWAP1 PUSH2 0x431 JUMP JUMPDEST PUSH1 0x40 MLOAD DUP1 SWAP2 SUB SWAP1 RETURN JUMPDEST PUSH2 0x10E PUSH1 0x4 DUP1 CALLDATASIZE SUB DUP2 ADD SWAP1 PUSH2 0x109 SWAP2 SWAP1 PUSH2 0x38B JUMP JUMPDEST PUSH2 0x222 JUMP JUMPDEST PUSH1 0x40 MLOAD PUSH2 0x11B SWAP2 SWAP1 PUSH2 0x3C7 JUMP JUMPDEST PUSH1 0x40 MLOAD DUP1 SWAP2 SUB SWAP1 RETURN JUMPDEST DUP1 PUSH1 0x1 PUSH1 0x0 DUP6 DUP2 MSTORE PUSH1 0x20 ADD SWAP1 DUP2 MSTORE PUSH1 0x20 ADD PUSH1 0x0 KECCAK256 PUSH1 0x0 DUP5 DUP2 MSTORE PUSH1 0x20 ADD SWAP1 DUP2 MSTORE PUSH1 0x20 ADD PUSH1 0x0 KECCAK256 PUSH1 0x0 PUSH2 0x100 EXP DUP2 SLOAD DUP2 PUSH1 0xFF MUL NOT AND SWAP1 DUP4 ISZERO ISZERO MUL OR SWAP1 SSTORE POP POP POP POP JUMP JUMPDEST DUP1 PUSH1 0x0 DUP1 CALLER PUSH20 0xFFFFFFFFFFFFFFFFFFFFFFFFFFFFFFFFFFFFFFFF AND PUSH20 0xFFFFFFFFFFFFFFFFFFFFFFFFFFFFFFFFFFFFFFFF AND DUP2 MSTORE PUSH1 0x20 ADD SWAP1 DUP2 MSTORE PUSH1 0x20 ADD PUSH1 0x0 KECCAK256 DUP2 SWAP1 SSTORE POP POP JUMP JUMPDEST PUSH1 0x0 DUP1 PUSH1 0x0 DUP4 PUSH20 0xFFFFFFFFFFFFFFFFFFFFFFFFFFFFFFFFFFFFFFFF AND PUSH20 0xFFFFFFFFFFFFFFFFFFFFFFFFFFFFFFFFFFFFFFFF AND DUP2 MSTORE PUSH1 0x20 ADD SWAP1 DUP2 MSTORE PUSH1 0x20 ADD PUSH1 0x0 KECCAK256 SLOAD SWAP1 POP SWAP2 SWAP1 POP JUMP JUMPDEST PUSH1 0x1 PUSH1 0x20 MSTORE DUP2 PUSH1 0x0 MSTORE PUSH1 0x40 PUSH1 0x0 KECCAK256 PUSH1 0x20 MSTORE DUP1 PUSH1 0x0 MSTORE PUSH1 0x40 PUSH1 0x0 KECCAK256 PUSH1 0x0 SWAP2 POP SWAP2 POP SWAP1 SLOAD SWAP1 PUSH2 0x100 EXP SWAP1 DIV PUSH1 0xFF AND DUP2 JUMP JUMPDEST PUSH1 0x0 PUSH1 0x20 MSTORE DUP1 PUSH1 0x0 MSTORE PUSH1 0x40 PUSH1 0x0 KECCAK256 PUSH1 0x0 SWAP2 POP SWAP1 POP SLOAD DUP2 JUMP JUMPDEST PUSH1 0x0 DUP1 REVERT JUMPDEST PUSH1 0x0 DUP2 SWAP1 POP SWAP2 SWAP1 POP JUMP JUMPDEST PUSH2 0x252 DUP2 PUSH2 0x23F JUMP JUMPDEST DUP2 EQ PUSH2 0x25D JUMPI PUSH1 0x0 DUP1 REVERT JUMPDEST POP JUMP JUMPDEST PUSH1 0x0 DUP2 CALLDATALOAD SWAP1 POP PUSH2 0x26F DUP2 PUSH2 0x249 JUMP JUMPDEST SWAP3 SWAP2 POP POP JUMP JUMPDEST PUSH1 0x0 DUP2 ISZERO ISZERO SWAP1 POP SWAP2 SWAP1 POP JUMP JUMPDEST PUSH2 0x28A DUP2 PUSH2 0x275 JUMP JUMPDEST DUP2 EQ PUSH2 0x295 JUMPI PUSH1 0x0 DUP1 REVERT JUMPDEST POP JUMP JUMPDEST PUSH1 0x0 DUP2 CALLDATALOAD SWAP1 POP PUSH2 0x2A7 DUP2 PUSH2 0x281 JUMP JUMPDEST SWAP3 SWAP2 POP POP JUMP JUMPDEST PUSH1 0x0 DUP1 PUSH1 0x0 PUSH1 0x60 DUP5 DUP7 SUB SLT ISZERO PUSH2 0x2C6 JUMPI PUSH2 0x2C5 PUSH2 0x23A JUMP JUMPDEST JUMPDEST PUSH1 0x0 PUSH2 0x2D4 DUP7 DUP3 DUP8 ADD PUSH2 0x260 JUMP JUMPDEST SWAP4 POP POP PUSH1 0x20 PUSH2 0x2E5 DUP7 DUP3 DUP8 ADD PUSH2 0x260 JUMP JUMPDEST SWAP3 POP POP PUSH1 0x40 PUSH2 0x2F6 DUP7 DUP3 DUP8 ADD PUSH2 0x298 JUMP JUMPDEST SWAP2 POP POP SWAP3 POP SWAP3 POP SWAP3 JUMP JUMPDEST PUSH1 0x0 PUSH1 0x20 DUP3 DUP5 SUB SLT ISZERO PUSH2 0x316 JUMPI PUSH2 0x315 PUSH2 0x23A JUMP JUMPDEST JUMPDEST PUSH1 0x0 PUSH2 0x324 DUP5 DUP3 DUP6 ADD PUSH2 0x260 JUMP JUMPDEST SWAP2 POP POP SWAP3 SWAP2 POP POP JUMP JUMPDEST PUSH1 0x0 PUSH20 0xFFFFFFFFFFFFFFFFFFFFFFFFFFFFFFFFFFFFFFFF DUP3 AND SWAP1 POP SWAP2 SWAP1 POP JUMP JUMPDEST PUSH1 0x0 PUSH2 0x358 DUP3 PUSH2 0x32D JUMP JUMPDEST SWAP1 POP SWAP2 SWAP1 POP JUMP JUMPDEST PUSH2 0x368 DUP2 PUSH2 0x34D JUMP JUMPDEST DUP2 EQ PUSH2 0x373 JUMPI PUSH1 0x0 DUP1 REVERT JUMPDEST POP JUMP JUMPDEST PUSH1 0x0 DUP2 CALLDATALOAD SWAP1 POP PUSH2 0x385 DUP2 PUSH2 0x35F JUMP JUMPDEST SWAP3 SWAP2 POP POP JUMP JUMPDEST PUSH1 0x0 PUSH1 0x20 DUP3 DUP5 SUB SLT ISZERO PUSH2 0x3A1 JUMPI PUSH2 0x3A0 PUSH2 0x23A JUMP JUMPDEST JUMPDEST PUSH1 0x0 PUSH2 0x3AF DUP5 DUP3 DUP6 ADD PUSH2 0x376 JUMP JUMPDEST SWAP2 POP POP SWAP3 SWAP2 POP POP JUMP JUMPDEST PUSH2 0x3C1 DUP2 PUSH2 0x23F JUMP JUMPDEST DUP3 MSTORE POP POP JUMP JUMPDEST PUSH1 0x0 PUSH1 0x20 DUP3 ADD SWAP1 POP PUSH2 0x3DC PUSH1 0x0 DUP4 ADD DUP5 PUSH2 0x3B8 JUMP JUMPDEST SWAP3 SWAP2 POP POP JUMP JUMPDEST PUSH1 0x0 DUP1 PUSH1 0x40 DUP4 DUP6 SUB SLT ISZERO PUSH2 0x3F9 JUMPI PUSH2 0x3F8 PUSH2 0x23A JUMP JUMPDEST JUMPDEST PUSH1 0x0 PUSH2 0x407 DUP6 DUP3 DUP7 ADD PUSH2 0x260 JUMP JUMPDEST SWAP3 POP POP PUSH1 0x20 PUSH2 0x418 DUP6 DUP3 DUP7 ADD PUSH2 0x260 JUMP JUMPDEST SWAP2 POP POP SWAP3 POP SWAP3 SWAP1 POP JUMP JUMPDEST PUSH2 0x42B DUP2 PUSH2 0x275 JUMP JUMPDEST DUP3 MSTORE POP POP JUMP JUMPDEST PUSH1 0x0 PUSH1 0x20 DUP3 ADD SWAP1 POP PUSH2 0x446 PUSH1 0x0 DUP4 ADD DUP5 PUSH2 0x422 JUMP JUMPDEST SWAP3 SWAP2 POP POP JUMP INVALID LOG2 PUSH5 0x6970667358 0x22 SLT KECCAK256 0xED MLOAD MUL PUSH26 0x39A6A4D7310668C812359D9628AD0EF86D728A4FF35D3CE89907 0xA7 0xC7 PUSH5 0x736F6C6343 STOP ADDMOD SLT STOP CALLER "
				},
				"gasEstimates": {
					"creation": {
						"codeDepositCost": "230800",
						"executionCost": "275",
						"totalCost": "231075"
					},
					"external": {
						"ex_mapping(address)": "2880",
						"getbalance(address)": "2863",
						"index_mapping(uint256,uint256)": "infinite",
						"set_index_mapping(uint256,uint256,bool)": "infinite",
						"set_mapping(uint256)": "22609"
					}
				},
				"methodIdentifiers": {
					"ex_mapping(address)": "eeea227c",
					"getbalance(address)": "68116177",
					"index_mapping(uint256,uint256)": "8f959f45",
					"set_index_mapping(uint256,uint256,bool)": "23298bc5",
					"set_mapping(uint256)": "4af0332d"
				}
			},
			"storageLayout": {
				"storage": [
					{
						"astId": 5,
						"contract": "smart_wallet/mapping.sol:my_mapping",
						"label": "ex_mapping",
						"offset": 0,
						"slot": "0",
						"type": "t_mapping(t_address,t_uint256)"
					},
					{
						"astId": 11,
						"contract": "smart_wallet/mapping.sol:my_mapping",
						"label": "index_mapping",
						"offset": 0,
						"slot": "1",
						"type": "t_mapping(t_uint256,t_mapping(t_uint256,t_bool))"
					}
				],
				"types": {
					"t_address": {
						"encoding": "inplace",
						"label": "address",
						"numberOfBytes": "20"
					},
					"t_bool": {
						"encoding": "inplace",
						"label": "bool",
						"numberOfBytes": "1"
					},
					"t_mapping(t_address,t_uint256)": {
						"encoding": "mapping",
						"key": "t_address",
						"label": "mapping(address => uint256)",
						"numberOfBytes": "32",
						"value": "t_uint256"
					},
					"t_mapping(t_uint256,t_bool)": {
						"encoding": "mapping",
						"key": "t_uint256",
						"label": "mapping(uint256 => bool)",
						"numberOfBytes": "32",
						"value": "t_bool"
					},
					"t_mapping(t_uint256,t_mapping(t_uint256,t_bool))": {
						"encoding": "mapping",
						"key": "t_uint256",
						"label": "mapping(uint256 => mapping(uint256 => bool))",
						"numberOfBytes": "32",
						"value": "t_mapping(t_uint256,t_bool)"
					},
					"t_uint256": {
						"encoding": "inplace",
						"label": "uint256",
						"numberOfBytes": "32"
					}
				}
			},
			"userdoc": {
				"kind": "user",
				"methods": {},
				"version": 1
			}
		}
	}
}