{
	"smart_wallet/final_project.sol": {
		"smart_wallet": {
			"abi": [
				{
					"inputs": [],
					"stateMutability": "nonpayable",
					"type": "constructor"
				},
				{
					"inputs": [
						{
							"internalType": "address",
							"name": "",
							"type": "address"
						}
					],
					"name": "allowence",
					"outputs": [
						{
							"internalType": "uint256",
							"name": "",
							"type": "uint256"
						}
					],
					"stateMutability": "view",
					"type": "function"
				},
				{
					"inputs": [],
					"name": "confirmation_from_guardians_for_reset",
					"outputs": [
						{
							"internalType": "uint256",
							"name": "",
							"type": "uint256"
						}
					],
					"stateMutability": "view",
					"type": "function"
				},
				{
					"inputs": [
						{
							"internalType": "address",
							"name": "",
							"type": "address"
						}
					],
					"name": "guardians",
					"outputs": [
						{
							"internalType": "bool",
							"name": "",
							"type": "bool"
						}
					],
					"stateMutability": "view",
					"type": "function"
				},
				{
					"inputs": [
						{
							"internalType": "address",
							"name": "",
							"type": "address"
						}
					],
					"name": "is_allowed_to_send",
					"outputs": [
						{
							"internalType": "bool",
							"name": "",
							"type": "bool"
						}
					],
					"stateMutability": "view",
					"type": "function"
				},
				{
					"inputs": [],
					"name": "owner",
					"outputs": [
						{
							"internalType": "address payable",
							"name": "",
							"type": "address"
						}
					],
					"stateMutability": "view",
					"type": "function"
				},
				{
					"inputs": [
						{
							"internalType": "address payable",
							"name": "_new_owner",
							"type": "address"
						}
					],
					"name": "propose_new_owner",
					"outputs": [],
					"stateMutability": "nonpayable",
					"type": "function"
				},
				{
					"inputs": [
						{
							"internalType": "address",
							"name": "_for",
							"type": "address"
						},
						{
							"internalType": "uint256",
							"name": "_amount",
							"type": "uint256"
						}
					],
					"name": "set_allowence",
					"outputs": [],
					"stateMutability": "nonpayable",
					"type": "function"
				},
				{
					"inputs": [
						{
							"internalType": "address",
							"name": "_guardian",
							"type": "address"
						},
						{
							"internalType": "bool",
							"name": "_isguardian",
							"type": "bool"
						}
					],
					"name": "set_guardian",
					"outputs": [],
					"stateMutability": "nonpayable",
					"type": "function"
				},
				{
					"inputs": [
						{
							"internalType": "address payable",
							"name": "_to",
							"type": "address"
						},
						{
							"internalType": "uint256",
							"name": "_amount",
							"type": "uint256"
						},
						{
							"internalType": "bytes",
							"name": "_payload",
							"type": "bytes"
						}
					],
					"name": "transfer_amount",
					"outputs": [
						{
							"internalType": "bytes",
							"name": "",
							"type": "bytes"
						}
					],
					"stateMutability": "nonpayable",
					"type": "function"
				},
				{
					"stateMutability": "payable",
					"type": "receive"
				}
			],
			"devdoc": {
				"kind": "dev",
				"methods": {},
				"version": 1
			},
			"evm": {
				"assembly": "    /* \"smart_wallet/final_project.sol\":531:3033  contract smart_wallet... */\n  mstore(0x40, 0x80)\n    /* \"smart_wallet/final_project.sol\":996:1059  constructor()... */\n  callvalue\n  dup1\n  iszero\n  tag_1\n  jumpi\n  0x00\n  dup1\n  revert\ntag_1:\n  pop\n    /* \"smart_wallet/final_project.sol\":1040:1050  msg.sender */\n  caller\n    /* \"smart_wallet/final_project.sol\":1026:1031  owner */\n  0x00\n  dup1\n    /* \"smart_wallet/final_project.sol\":1026:1051  owner=payable(msg.sender) */\n  0x0100\n  exp\n  dup2\n  sload\n  dup2\n  0xffffffffffffffffffffffffffffffffffffffff\n  mul\n  not\n  and\n  swap1\n  dup4\n  0xffffffffffffffffffffffffffffffffffffffff\n  and\n  mul\n  or\n  swap1\n  sstore\n  pop\n    /* \"smart_wallet/final_project.sol\":531:3033  contract smart_wallet... */\n  dataSize(sub_0)\n  dup1\n  dataOffset(sub_0)\n  0x00\n  codecopy\n  0x00\n  return\nstop\n\nsub_0: assembly {\n        /* \"smart_wallet/final_project.sol\":531:3033  contract smart_wallet... */\n      mstore(0x40, 0x80)\n      jumpi(tag_1, lt(calldatasize, 0x04))\n      shr(0xe0, calldataload(0x00))\n      dup1\n      0x8da5cb5b\n      gt\n      tag_12\n      jumpi\n      dup1\n      0x8da5cb5b\n      eq\n      tag_7\n      jumpi\n      dup1\n      0x9b0e5b85\n      eq\n      tag_8\n      jumpi\n      dup1\n      0xaef46244\n      eq\n      tag_9\n      jumpi\n      dup1\n      0xde82d380\n      eq\n      tag_10\n      jumpi\n      dup1\n      0xeb375777\n      eq\n      tag_11\n      jumpi\n      jump(tag_2)\n    tag_12:\n      dup1\n      0x0633b14a\n      eq\n      tag_3\n      jumpi\n      dup1\n      0x10adb123\n      eq\n      tag_4\n      jumpi\n      dup1\n      0x2021e808\n      eq\n      tag_5\n      jumpi\n      dup1\n      0x35a06f0a\n      eq\n      tag_6\n      jumpi\n      jump(tag_2)\n    tag_1:\n      jumpi(tag_2, calldatasize)\n      stop\n    tag_2:\n      0x00\n      dup1\n      revert\n        /* \"smart_wallet/final_project.sol\":741:779  mapping(address=>bool)public guardians */\n    tag_3:\n      callvalue\n      dup1\n      iszero\n      tag_15\n      jumpi\n      0x00\n      dup1\n      revert\n    tag_15:\n      pop\n      tag_16\n      0x04\n      dup1\n      calldatasize\n      sub\n      dup2\n      add\n      swap1\n      tag_17\n      swap2\n      swap1\n      tag_18\n      jump\t// in\n    tag_17:\n      tag_19\n      jump\t// in\n    tag_16:\n      mload(0x40)\n      tag_20\n      swap2\n      swap1\n      tag_21\n      jump\t// in\n    tag_20:\n      mload(0x40)\n      dup1\n      swap2\n      sub\n      swap1\n      return\n        /* \"smart_wallet/final_project.sol\":1067:1256  function set_guardian(address _guardian, bool _isguardian)public... */\n    tag_4:\n      callvalue\n      dup1\n      iszero\n      tag_22\n      jumpi\n      0x00\n      dup1\n      revert\n    tag_22:\n      pop\n      tag_23\n      0x04\n      dup1\n      calldatasize\n      sub\n      dup2\n      add\n      swap1\n      tag_24\n      swap2\n      swap1\n      tag_25\n      jump\t// in\n    tag_24:\n      tag_26\n      jump\t// in\n    tag_23:\n      stop\n        /* \"smart_wallet/final_project.sol\":1906:2262  function set_allowence(address _for,uint _amount)public ... */\n    tag_5:\n      callvalue\n      dup1\n      iszero\n      tag_27\n      jumpi\n      0x00\n      dup1\n      revert\n    tag_27:\n      pop\n      tag_28\n      0x04\n      dup1\n      calldatasize\n      sub\n      dup2\n      add\n      swap1\n      tag_29\n      swap2\n      swap1\n      tag_30\n      jump\t// in\n    tag_29:\n      tag_31\n      jump\t// in\n    tag_28:\n      stop\n        /* \"smart_wallet/final_project.sol\":687:734  mapping(address=>bool)public is_allowed_to_send */\n    tag_6:\n      callvalue\n      dup1\n      iszero\n      tag_32\n      jumpi\n      0x00\n      dup1\n      revert\n    tag_32:\n      pop\n      tag_33\n      0x04\n      dup1\n      calldatasize\n      sub\n      dup2\n      add\n      swap1\n      tag_34\n      swap2\n      swap1\n      tag_18\n      jump\t// in\n    tag_34:\n      tag_35\n      jump\t// in\n    tag_33:\n      mload(0x40)\n      tag_36\n      swap2\n      swap1\n      tag_21\n      jump\t// in\n    tag_36:\n      mload(0x40)\n      dup1\n      swap2\n      sub\n      swap1\n      return\n        /* \"smart_wallet/final_project.sol\":561:590  address payable public  owner */\n    tag_7:\n      callvalue\n      dup1\n      iszero\n      tag_37\n      jumpi\n      0x00\n      dup1\n      revert\n    tag_37:\n      pop\n      tag_38\n      tag_39\n      jump\t// in\n    tag_38:\n      mload(0x40)\n      tag_40\n      swap2\n      swap1\n      tag_41\n      jump\t// in\n    tag_40:\n      mload(0x40)\n      dup1\n      swap2\n      sub\n      swap1\n      return\n        /* \"smart_wallet/final_project.sol\":2270:2978  function transfer_amount(address payable _to, uint _amount,bytes memory _payload)public returns(bytes memory)... */\n    tag_8:\n      callvalue\n      dup1\n      iszero\n      tag_42\n      jumpi\n      0x00\n      dup1\n      revert\n    tag_42:\n      pop\n      tag_43\n      0x04\n      dup1\n      calldatasize\n      sub\n      dup2\n      add\n      swap1\n      tag_44\n      swap2\n      swap1\n      tag_45\n      jump\t// in\n    tag_44:\n      tag_46\n      jump\t// in\n    tag_43:\n      mload(0x40)\n      tag_47\n      swap2\n      swap1\n      tag_48\n      jump\t// in\n    tag_47:\n      mload(0x40)\n      dup1\n      swap2\n      sub\n      swap1\n      return\n        /* \"smart_wallet/final_project.sol\":642:680  mapping(address=>uint)public allowence */\n    tag_9:\n      callvalue\n      dup1\n      iszero\n      tag_49\n      jumpi\n      0x00\n      dup1\n      revert\n    tag_49:\n      pop\n      tag_50\n      0x04\n      dup1\n      calldatasize\n      sub\n      dup2\n      add\n      swap1\n      tag_51\n      swap2\n      swap1\n      tag_18\n      jump\t// in\n    tag_51:\n      tag_52\n      jump\t// in\n    tag_50:\n      mload(0x40)\n      tag_53\n      swap2\n      swap1\n      tag_54\n      jump\t// in\n    tag_53:\n      mload(0x40)\n      dup1\n      swap2\n      sub\n      swap1\n      return\n        /* \"smart_wallet/final_project.sol\":1264:1869  function propose_new_owner(address payable _new_owner)public... */\n    tag_10:\n      callvalue\n      dup1\n      iszero\n      tag_55\n      jumpi\n      0x00\n      dup1\n      revert\n    tag_55:\n      pop\n      tag_56\n      0x04\n      dup1\n      calldatasize\n      sub\n      dup2\n      add\n      swap1\n      tag_57\n      swap2\n      swap1\n      tag_58\n      jump\t// in\n    tag_57:\n      tag_59\n      jump\t// in\n    tag_56:\n      stop\n        /* \"smart_wallet/final_project.sol\":927:987  uint public constant confirmation_from_guardians_for_reset=3 */\n    tag_11:\n      callvalue\n      dup1\n      iszero\n      tag_60\n      jumpi\n      0x00\n      dup1\n      revert\n    tag_60:\n      pop\n      tag_61\n      tag_62\n      jump\t// in\n    tag_61:\n      mload(0x40)\n      tag_63\n      swap2\n      swap1\n      tag_54\n      jump\t// in\n    tag_63:\n      mload(0x40)\n      dup1\n      swap2\n      sub\n      swap1\n      return\n        /* \"smart_wallet/final_project.sol\":741:779  mapping(address=>bool)public guardians */\n    tag_19:\n      mstore(0x20, 0x03)\n      dup1\n      0x00\n      mstore\n      keccak256(0x00, 0x40)\n      0x00\n      swap2\n      pop\n      sload\n      swap1\n      0x0100\n      exp\n      swap1\n      div\n      0xff\n      and\n      dup2\n      jump\t// out\n        /* \"smart_wallet/final_project.sol\":1067:1256  function set_guardian(address _guardian, bool _isguardian)public... */\n    tag_26:\n        /* \"smart_wallet/final_project.sol\":1168:1173  owner */\n      0x00\n      dup1\n      sload\n      swap1\n      0x0100\n      exp\n      swap1\n      div\n      0xffffffffffffffffffffffffffffffffffffffff\n      and\n        /* \"smart_wallet/final_project.sol\":1156:1173  msg.sender==owner */\n      0xffffffffffffffffffffffffffffffffffffffff\n      and\n        /* \"smart_wallet/final_project.sol\":1156:1166  msg.sender */\n      caller\n        /* \"smart_wallet/final_project.sol\":1156:1173  msg.sender==owner */\n      0xffffffffffffffffffffffffffffffffffffffff\n      and\n      eq\n        /* \"smart_wallet/final_project.sol\":1148:1205  require(msg.sender==owner,\"you are the owner!!,aborting\") */\n      tag_65\n      jumpi\n      mload(0x40)\n      0x08c379a000000000000000000000000000000000000000000000000000000000\n      dup2\n      mstore\n      0x04\n      add\n      tag_66\n      swap1\n      tag_67\n      jump\t// in\n    tag_66:\n      mload(0x40)\n      dup1\n      swap2\n      sub\n      swap1\n      revert\n    tag_65:\n        /* \"smart_wallet/final_project.sol\":1237:1248  _isguardian */\n      dup1\n        /* \"smart_wallet/final_project.sol\":1216:1225  guardians */\n      0x03\n        /* \"smart_wallet/final_project.sol\":1216:1236  guardians[_guardian] */\n      0x00\n        /* \"smart_wallet/final_project.sol\":1226:1235  _guardian */\n      dup5\n        /* \"smart_wallet/final_project.sol\":1216:1236  guardians[_guardian] */\n      0xffffffffffffffffffffffffffffffffffffffff\n      and\n      0xffffffffffffffffffffffffffffffffffffffff\n      and\n      dup2\n      mstore\n      0x20\n      add\n      swap1\n      dup2\n      mstore\n      0x20\n      add\n      0x00\n      keccak256\n      0x00\n        /* \"smart_wallet/final_project.sol\":1216:1248  guardians[_guardian]=_isguardian */\n      0x0100\n      exp\n      dup2\n      sload\n      dup2\n      0xff\n      mul\n      not\n      and\n      swap1\n      dup4\n      iszero\n      iszero\n      mul\n      or\n      swap1\n      sstore\n      pop\n        /* \"smart_wallet/final_project.sol\":1067:1256  function set_guardian(address _guardian, bool _isguardian)public... */\n      pop\n      pop\n      jump\t// out\n        /* \"smart_wallet/final_project.sol\":1906:2262  function set_allowence(address _for,uint _amount)public ... */\n    tag_31:\n        /* \"smart_wallet/final_project.sol\":1999:2004  owner */\n      0x00\n      dup1\n      sload\n      swap1\n      0x0100\n      exp\n      swap1\n      div\n      0xffffffffffffffffffffffffffffffffffffffff\n      and\n        /* \"smart_wallet/final_project.sol\":1987:2004  msg.sender==owner */\n      0xffffffffffffffffffffffffffffffffffffffff\n      and\n        /* \"smart_wallet/final_project.sol\":1987:1997  msg.sender */\n      caller\n        /* \"smart_wallet/final_project.sol\":1987:2004  msg.sender==owner */\n      0xffffffffffffffffffffffffffffffffffffffff\n      and\n      eq\n        /* \"smart_wallet/final_project.sol\":1979:2040  require(msg.sender==owner,\"you are not the owner!!,aborting\") */\n      tag_69\n      jumpi\n      mload(0x40)\n      0x08c379a000000000000000000000000000000000000000000000000000000000\n      dup2\n      mstore\n      0x04\n      add\n      tag_70\n      swap1\n      tag_71\n      jump\t// in\n    tag_70:\n      mload(0x40)\n      dup1\n      swap2\n      sub\n      swap1\n      revert\n    tag_69:\n        /* \"smart_wallet/final_project.sol\":2073:2080  _amount */\n      dup1\n        /* \"smart_wallet/final_project.sol\":2051:2060  allowence */\n      0x01\n        /* \"smart_wallet/final_project.sol\":2051:2072  allowence[msg.sender] */\n      0x00\n        /* \"smart_wallet/final_project.sol\":2061:2071  msg.sender */\n      caller\n        /* \"smart_wallet/final_project.sol\":2051:2072  allowence[msg.sender] */\n      0xffffffffffffffffffffffffffffffffffffffff\n      and\n      0xffffffffffffffffffffffffffffffffffffffff\n      and\n      dup2\n      mstore\n      0x20\n      add\n      swap1\n      dup2\n      mstore\n      0x20\n      add\n      0x00\n      keccak256\n        /* \"smart_wallet/final_project.sol\":2051:2080  allowence[msg.sender]=_amount */\n      dup2\n      swap1\n      sstore\n      pop\n        /* \"smart_wallet/final_project.sol\":2104:2105  0 */\n      0x00\n        /* \"smart_wallet/final_project.sol\":2096:2103  _amount */\n      dup2\n        /* \"smart_wallet/final_project.sol\":2096:2105  _amount>0 */\n      gt\n        /* \"smart_wallet/final_project.sol\":2093:2255  if(_amount>0)... */\n      iszero\n      tag_72\n      jumpi\n        /* \"smart_wallet/final_project.sol\":2156:2160  true */\n      0x01\n        /* \"smart_wallet/final_project.sol\":2131:2149  is_allowed_to_send */\n      0x02\n        /* \"smart_wallet/final_project.sol\":2131:2155  is_allowed_to_send[_for] */\n      0x00\n        /* \"smart_wallet/final_project.sol\":2150:2154  _for */\n      dup5\n        /* \"smart_wallet/final_project.sol\":2131:2155  is_allowed_to_send[_for] */\n      0xffffffffffffffffffffffffffffffffffffffff\n      and\n      0xffffffffffffffffffffffffffffffffffffffff\n      and\n      dup2\n      mstore\n      0x20\n      add\n      swap1\n      dup2\n      mstore\n      0x20\n      add\n      0x00\n      keccak256\n      0x00\n        /* \"smart_wallet/final_project.sol\":2131:2160  is_allowed_to_send[_for]=true */\n      0x0100\n      exp\n      dup2\n      sload\n      dup2\n      0xff\n      mul\n      not\n      and\n      swap1\n      dup4\n      iszero\n      iszero\n      mul\n      or\n      swap1\n      sstore\n      pop\n        /* \"smart_wallet/final_project.sol\":2093:2255  if(_amount>0)... */\n      jump(tag_73)\n    tag_72:\n        /* \"smart_wallet/final_project.sol\":2238:2243  false */\n      0x00\n        /* \"smart_wallet/final_project.sol\":2213:2231  is_allowed_to_send */\n      0x02\n        /* \"smart_wallet/final_project.sol\":2213:2237  is_allowed_to_send[_for] */\n      0x00\n        /* \"smart_wallet/final_project.sol\":2232:2236  _for */\n      dup5\n        /* \"smart_wallet/final_project.sol\":2213:2237  is_allowed_to_send[_for] */\n      0xffffffffffffffffffffffffffffffffffffffff\n      and\n      0xffffffffffffffffffffffffffffffffffffffff\n      and\n      dup2\n      mstore\n      0x20\n      add\n      swap1\n      dup2\n      mstore\n      0x20\n      add\n      0x00\n      keccak256\n      0x00\n        /* \"smart_wallet/final_project.sol\":2213:2243  is_allowed_to_send[_for]=false */\n      0x0100\n      exp\n      dup2\n      sload\n      dup2\n      0xff\n      mul\n      not\n      and\n      swap1\n      dup4\n      iszero\n      iszero\n      mul\n      or\n      swap1\n      sstore\n      pop\n        /* \"smart_wallet/final_project.sol\":2093:2255  if(_amount>0)... */\n    tag_73:\n        /* \"smart_wallet/final_project.sol\":1906:2262  function set_allowence(address _for,uint _amount)public ... */\n      pop\n      pop\n      jump\t// out\n        /* \"smart_wallet/final_project.sol\":687:734  mapping(address=>bool)public is_allowed_to_send */\n    tag_35:\n      mstore(0x20, 0x02)\n      dup1\n      0x00\n      mstore\n      keccak256(0x00, 0x40)\n      0x00\n      swap2\n      pop\n      sload\n      swap1\n      0x0100\n      exp\n      swap1\n      div\n      0xff\n      and\n      dup2\n      jump\t// out\n        /* \"smart_wallet/final_project.sol\":561:590  address payable public  owner */\n    tag_39:\n      0x00\n      dup1\n      sload\n      swap1\n      0x0100\n      exp\n      swap1\n      div\n      0xffffffffffffffffffffffffffffffffffffffff\n      and\n      dup2\n      jump\t// out\n        /* \"smart_wallet/final_project.sol\":2270:2978  function transfer_amount(address payable _to, uint _amount,bytes memory _payload)public returns(bytes memory)... */\n    tag_46:\n        /* \"smart_wallet/final_project.sol\":2366:2378  bytes memory */\n      0x60\n        /* \"smart_wallet/final_project.sol\":2514:2519  owner */\n      0x00\n      dup1\n      sload\n      swap1\n      0x0100\n      exp\n      swap1\n      div\n      0xffffffffffffffffffffffffffffffffffffffff\n      and\n        /* \"smart_wallet/final_project.sol\":2502:2519  msg.sender!=owner */\n      0xffffffffffffffffffffffffffffffffffffffff\n      and\n        /* \"smart_wallet/final_project.sol\":2502:2512  msg.sender */\n      caller\n        /* \"smart_wallet/final_project.sol\":2502:2519  msg.sender!=owner */\n      0xffffffffffffffffffffffffffffffffffffffff\n      and\n      eq\n        /* \"smart_wallet/final_project.sol\":2499:2788  if(msg.sender!=owner)... */\n      tag_75\n      jumpi\n        /* \"smart_wallet/final_project.sol\":2553:2571  is_allowed_to_send */\n      0x02\n        /* \"smart_wallet/final_project.sol\":2553:2583  is_allowed_to_send[msg.sender] */\n      0x00\n        /* \"smart_wallet/final_project.sol\":2572:2582  msg.sender */\n      caller\n        /* \"smart_wallet/final_project.sol\":2553:2583  is_allowed_to_send[msg.sender] */\n      0xffffffffffffffffffffffffffffffffffffffff\n      and\n      0xffffffffffffffffffffffffffffffffffffffff\n      and\n      dup2\n      mstore\n      0x20\n      add\n      swap1\n      dup2\n      mstore\n      0x20\n      add\n      0x00\n      keccak256\n      0x00\n      swap1\n      sload\n      swap1\n      0x0100\n      exp\n      swap1\n      div\n      0xff\n      and\n        /* \"smart_wallet/final_project.sol\":2545:2659  require(is_allowed_to_send[msg.sender],\"you are not allowed to send anything from this smart contract!,aborting!\") */\n      tag_76\n      jumpi\n      mload(0x40)\n      0x08c379a000000000000000000000000000000000000000000000000000000000\n      dup2\n      mstore\n      0x04\n      add\n      tag_77\n      swap1\n      tag_78\n      jump\t// in\n    tag_77:\n      mload(0x40)\n      dup1\n      swap2\n      sub\n      swap1\n      revert\n    tag_76:\n        /* \"smart_wallet/final_project.sol\":2705:2712  _amount */\n      dup3\n        /* \"smart_wallet/final_project.sol\":2682:2691  allowence */\n      0x01\n        /* \"smart_wallet/final_project.sol\":2682:2703  allowence[msg.sender] */\n      0x00\n        /* \"smart_wallet/final_project.sol\":2692:2702  msg.sender */\n      caller\n        /* \"smart_wallet/final_project.sol\":2682:2703  allowence[msg.sender] */\n      0xffffffffffffffffffffffffffffffffffffffff\n      and\n      0xffffffffffffffffffffffffffffffffffffffff\n      and\n      dup2\n      mstore\n      0x20\n      add\n      swap1\n      dup2\n      mstore\n      0x20\n      add\n      0x00\n      keccak256\n      sload\n        /* \"smart_wallet/final_project.sol\":2682:2712  allowence[msg.sender]>=_amount */\n      lt\n      iszero\n        /* \"smart_wallet/final_project.sol\":2674:2773  require(allowence[msg.sender]>=_amount,\"Cannot able to send more amount than the wallet balence!!\") */\n      tag_79\n      jumpi\n      mload(0x40)\n      0x08c379a000000000000000000000000000000000000000000000000000000000\n      dup2\n      mstore\n      0x04\n      add\n      tag_80\n      swap1\n      tag_81\n      jump\t// in\n    tag_80:\n      mload(0x40)\n      dup1\n      swap2\n      sub\n      swap1\n      revert\n    tag_79:\n        /* \"smart_wallet/final_project.sol\":2499:2788  if(msg.sender!=owner)... */\n    tag_75:\n        /* \"smart_wallet/final_project.sol\":2803:2815  bool success */\n      0x00\n        /* \"smart_wallet/final_project.sol\":2816:2840  bytes memory return_data */\n      dup1\n        /* \"smart_wallet/final_project.sol\":2842:2845  _to */\n      dup6\n        /* \"smart_wallet/final_project.sol\":2842:2850  _to.call */\n      0xffffffffffffffffffffffffffffffffffffffff\n      and\n        /* \"smart_wallet/final_project.sol\":2857:2864  _amount */\n      dup6\n        /* \"smart_wallet/final_project.sol\":2866:2874  _payload */\n      dup6\n        /* \"smart_wallet/final_project.sol\":2842:2875  _to.call{value:_amount}(_payload) */\n      mload(0x40)\n      tag_82\n      swap2\n      swap1\n      tag_83\n      jump\t// in\n    tag_82:\n      0x00\n      mload(0x40)\n      dup1\n      dup4\n      sub\n      dup2\n      dup6\n      dup8\n      gas\n      call\n      swap3\n      pop\n      pop\n      pop\n      returndatasize\n      dup1\n      0x00\n      dup2\n      eq\n      tag_86\n      jumpi\n      mload(0x40)\n      swap2\n      pop\n      and(add(returndatasize, 0x3f), not(0x1f))\n      dup3\n      add\n      0x40\n      mstore\n      returndatasize\n      dup3\n      mstore\n      returndatasize\n      0x00\n      0x20\n      dup5\n      add\n      returndatacopy\n      jump(tag_85)\n    tag_86:\n      0x60\n      swap2\n      pop\n    tag_85:\n      pop\n        /* \"smart_wallet/final_project.sol\":2802:2875  (bool success,bytes memory return_data)=_to.call{value:_amount}(_payload) */\n      swap2\n      pop\n      swap2\n      pop\n        /* \"smart_wallet/final_project.sol\":2894:2901  success */\n      dup2\n        /* \"smart_wallet/final_project.sol\":2886:2939  require(success,\"Aborting, Call was not sucessful!!\") */\n      tag_87\n      jumpi\n      mload(0x40)\n      0x08c379a000000000000000000000000000000000000000000000000000000000\n      dup2\n      mstore\n      0x04\n      add\n      tag_88\n      swap1\n      tag_89\n      jump\t// in\n    tag_88:\n      mload(0x40)\n      dup1\n      swap2\n      sub\n      swap1\n      revert\n    tag_87:\n        /* \"smart_wallet/final_project.sol\":2957:2968  return_data */\n      dup1\n        /* \"smart_wallet/final_project.sol\":2950:2968  return return_data */\n      swap3\n      pop\n      pop\n      pop\n        /* \"smart_wallet/final_project.sol\":2270:2978  function transfer_amount(address payable _to, uint _amount,bytes memory _payload)public returns(bytes memory)... */\n      swap4\n      swap3\n      pop\n      pop\n      pop\n      jump\t// out\n        /* \"smart_wallet/final_project.sol\":642:680  mapping(address=>uint)public allowence */\n    tag_52:\n      mstore(0x20, 0x01)\n      dup1\n      0x00\n      mstore\n      keccak256(0x00, 0x40)\n      0x00\n      swap2\n      pop\n      swap1\n      pop\n      sload\n      dup2\n      jump\t// out\n        /* \"smart_wallet/final_project.sol\":1264:1869  function propose_new_owner(address payable _new_owner)public... */\n    tag_59:\n        /* \"smart_wallet/final_project.sol\":1349:1358  guardians */\n      0x03\n        /* \"smart_wallet/final_project.sol\":1349:1370  guardians[msg.sender] */\n      0x00\n        /* \"smart_wallet/final_project.sol\":1359:1369  msg.sender */\n      caller\n        /* \"smart_wallet/final_project.sol\":1349:1370  guardians[msg.sender] */\n      0xffffffffffffffffffffffffffffffffffffffff\n      and\n      0xffffffffffffffffffffffffffffffffffffffff\n      and\n      dup2\n      mstore\n      0x20\n      add\n      swap1\n      dup2\n      mstore\n      0x20\n      add\n      0x00\n      keccak256\n      0x00\n      swap1\n      sload\n      swap1\n      0x0100\n      exp\n      swap1\n      div\n      0xff\n      and\n        /* \"smart_wallet/final_project.sol\":1341:1413  require(guardians[msg.sender],\"you are not the guardian of this wallet\") */\n      tag_91\n      jumpi\n      mload(0x40)\n      0x08c379a000000000000000000000000000000000000000000000000000000000\n      dup2\n      mstore\n      0x04\n      add\n      tag_92\n      swap1\n      tag_93\n      jump\t// in\n    tag_92:\n      mload(0x40)\n      dup1\n      swap2\n      sub\n      swap1\n      revert\n    tag_91:\n        /* \"smart_wallet/final_project.sol\":1482:1487  false */\n      0x00\n        /* \"smart_wallet/final_project.sol\":1432:1487  next_guardian_voted_bool[_new_owner][msg.sender]==false */\n      iszero\n      iszero\n        /* \"smart_wallet/final_project.sol\":1432:1456  next_guardian_voted_bool */\n      0x05\n        /* \"smart_wallet/final_project.sol\":1432:1468  next_guardian_voted_bool[_new_owner] */\n      0x00\n        /* \"smart_wallet/final_project.sol\":1457:1467  _new_owner */\n      dup4\n        /* \"smart_wallet/final_project.sol\":1432:1468  next_guardian_voted_bool[_new_owner] */\n      0xffffffffffffffffffffffffffffffffffffffff\n      and\n      0xffffffffffffffffffffffffffffffffffffffff\n      and\n      dup2\n      mstore\n      0x20\n      add\n      swap1\n      dup2\n      mstore\n      0x20\n      add\n      0x00\n      keccak256\n        /* \"smart_wallet/final_project.sol\":1432:1480  next_guardian_voted_bool[_new_owner][msg.sender] */\n      0x00\n        /* \"smart_wallet/final_project.sol\":1469:1479  msg.sender */\n      caller\n        /* \"smart_wallet/final_project.sol\":1432:1480  next_guardian_voted_bool[_new_owner][msg.sender] */\n      0xffffffffffffffffffffffffffffffffffffffff\n      and\n      0xffffffffffffffffffffffffffffffffffffffff\n      and\n      dup2\n      mstore\n      0x20\n      add\n      swap1\n      dup2\n      mstore\n      0x20\n      add\n      0x00\n      keccak256\n      0x00\n      swap1\n      sload\n      swap1\n      0x0100\n      exp\n      swap1\n      div\n      0xff\n      and\n        /* \"smart_wallet/final_project.sol\":1432:1487  next_guardian_voted_bool[_new_owner][msg.sender]==false */\n      iszero\n      iszero\n      eq\n        /* \"smart_wallet/final_project.sol\":1424:1520  require(next_guardian_voted_bool[_new_owner][msg.sender]==false,\"you already voted!!, aborting\") */\n      tag_94\n      jumpi\n      mload(0x40)\n      0x08c379a000000000000000000000000000000000000000000000000000000000\n      dup2\n      mstore\n      0x04\n      add\n      tag_95\n      swap1\n      tag_96\n      jump\t// in\n    tag_95:\n      mload(0x40)\n      dup1\n      swap2\n      sub\n      swap1\n      revert\n    tag_94:\n        /* \"smart_wallet/final_project.sol\":1546:1556  next_owner */\n      0x04\n      0x00\n      swap1\n      sload\n      swap1\n      0x0100\n      exp\n      swap1\n      div\n      0xffffffffffffffffffffffffffffffffffffffff\n      and\n        /* \"smart_wallet/final_project.sol\":1534:1556  _new_owner!=next_owner */\n      0xffffffffffffffffffffffffffffffffffffffff\n      and\n        /* \"smart_wallet/final_project.sol\":1534:1544  _new_owner */\n      dup2\n        /* \"smart_wallet/final_project.sol\":1534:1556  _new_owner!=next_owner */\n      0xffffffffffffffffffffffffffffffffffffffff\n      and\n      eq\n        /* \"smart_wallet/final_project.sol\":1531:1653  if(_new_owner!=next_owner)... */\n      tag_97\n      jumpi\n        /* \"smart_wallet/final_project.sol\":1593:1603  _new_owner */\n      dup1\n        /* \"smart_wallet/final_project.sol\":1582:1592  next_owner */\n      0x04\n      0x00\n        /* \"smart_wallet/final_project.sol\":1582:1603  next_owner=_new_owner */\n      0x0100\n      exp\n      dup2\n      sload\n      dup2\n      0xffffffffffffffffffffffffffffffffffffffff\n      mul\n      not\n      and\n      swap1\n      dup4\n      0xffffffffffffffffffffffffffffffffffffffff\n      and\n      mul\n      or\n      swap1\n      sstore\n      pop\n        /* \"smart_wallet/final_project.sol\":1640:1641  0 */\n      0x00\n        /* \"smart_wallet/final_project.sol\":1618:1639  guardians_reset_count */\n      0x06\n        /* \"smart_wallet/final_project.sol\":1618:1641  guardians_reset_count=0 */\n      dup2\n      swap1\n      sstore\n      pop\n        /* \"smart_wallet/final_project.sol\":1531:1653  if(_new_owner!=next_owner)... */\n    tag_97:\n        /* \"smart_wallet/final_project.sol\":1686:1687  1 */\n      0x01\n        /* \"smart_wallet/final_project.sol\":1663:1684  guardians_reset_count */\n      0x06\n      0x00\n        /* \"smart_wallet/final_project.sol\":1663:1687  guardians_reset_count+=1 */\n      dup3\n      dup3\n      sload\n      tag_98\n      swap2\n      swap1\n      tag_99\n      jump\t// in\n    tag_98:\n      swap3\n      pop\n      pop\n      dup2\n      swap1\n      sstore\n      pop\n        /* \"smart_wallet/final_project.sol\":986:987  3 */\n      0x03\n        /* \"smart_wallet/final_project.sol\":1703:1724  guardians_reset_count */\n      sload(0x06)\n        /* \"smart_wallet/final_project.sol\":1703:1763  guardians_reset_count>=confirmation_from_guardians_for_reset */\n      lt\n        /* \"smart_wallet/final_project.sol\":1700:1862  if(guardians_reset_count>=confirmation_from_guardians_for_reset)... */\n      tag_100\n      jumpi\n        /* \"smart_wallet/final_project.sol\":1795:1805  next_owner */\n      0x04\n      0x00\n      swap1\n      sload\n      swap1\n      0x0100\n      exp\n      swap1\n      div\n      0xffffffffffffffffffffffffffffffffffffffff\n      and\n        /* \"smart_wallet/final_project.sol\":1789:1794  owner */\n      0x00\n      dup1\n        /* \"smart_wallet/final_project.sol\":1789:1805  owner=next_owner */\n      0x0100\n      exp\n      dup2\n      sload\n      dup2\n      0xffffffffffffffffffffffffffffffffffffffff\n      mul\n      not\n      and\n      swap1\n      dup4\n      0xffffffffffffffffffffffffffffffffffffffff\n      and\n      mul\n      or\n      swap1\n      sstore\n      pop\n        /* \"smart_wallet/final_project.sol\":1847:1848  0 */\n      0x00\n        /* \"smart_wallet/final_project.sol\":1820:1830  next_owner */\n      0x04\n      0x00\n        /* \"smart_wallet/final_project.sol\":1820:1850  next_owner=payable(address(0)) */\n      0x0100\n      exp\n      dup2\n      sload\n      dup2\n      0xffffffffffffffffffffffffffffffffffffffff\n      mul\n      not\n      and\n      swap1\n      dup4\n      0xffffffffffffffffffffffffffffffffffffffff\n      and\n      mul\n      or\n      swap1\n      sstore\n      pop\n        /* \"smart_wallet/final_project.sol\":1700:1862  if(guardians_reset_count>=confirmation_from_guardians_for_reset)... */\n    tag_100:\n        /* \"smart_wallet/final_project.sol\":1264:1869  function propose_new_owner(address payable _new_owner)public... */\n      pop\n      jump\t// out\n        /* \"smart_wallet/final_project.sol\":927:987  uint public constant confirmation_from_guardians_for_reset=3 */\n    tag_62:\n        /* \"smart_wallet/final_project.sol\":986:987  3 */\n      0x03\n        /* \"smart_wallet/final_project.sol\":927:987  uint public constant confirmation_from_guardians_for_reset=3 */\n      dup2\n      jump\t// out\n        /* \"#utility.yul\":7:82   */\n    tag_101:\n        /* \"#utility.yul\":40:46   */\n      0x00\n        /* \"#utility.yul\":73:75   */\n      0x40\n        /* \"#utility.yul\":67:76   */\n      mload\n        /* \"#utility.yul\":57:76   */\n      swap1\n      pop\n        /* \"#utility.yul\":7:82   */\n      swap1\n      jump\t// out\n        /* \"#utility.yul\":88:205   */\n    tag_102:\n        /* \"#utility.yul\":197:198   */\n      0x00\n        /* \"#utility.yul\":194:195   */\n      dup1\n        /* \"#utility.yul\":187:199   */\n      revert\n        /* \"#utility.yul\":211:328   */\n    tag_103:\n        /* \"#utility.yul\":320:321   */\n      0x00\n        /* \"#utility.yul\":317:318   */\n      dup1\n        /* \"#utility.yul\":310:322   */\n      revert\n        /* \"#utility.yul\":334:460   */\n    tag_104:\n        /* \"#utility.yul\":371:378   */\n      0x00\n        /* \"#utility.yul\":411:453   */\n      0xffffffffffffffffffffffffffffffffffffffff\n        /* \"#utility.yul\":404:409   */\n      dup3\n        /* \"#utility.yul\":400:454   */\n      and\n        /* \"#utility.yul\":389:454   */\n      swap1\n      pop\n        /* \"#utility.yul\":334:460   */\n      swap2\n      swap1\n      pop\n      jump\t// out\n        /* \"#utility.yul\":466:562   */\n    tag_105:\n        /* \"#utility.yul\":503:510   */\n      0x00\n        /* \"#utility.yul\":532:556   */\n      tag_158\n        /* \"#utility.yul\":550:555   */\n      dup3\n        /* \"#utility.yul\":532:556   */\n      tag_104\n      jump\t// in\n    tag_158:\n        /* \"#utility.yul\":521:556   */\n      swap1\n      pop\n        /* \"#utility.yul\":466:562   */\n      swap2\n      swap1\n      pop\n      jump\t// out\n        /* \"#utility.yul\":568:690   */\n    tag_106:\n        /* \"#utility.yul\":641:665   */\n      tag_160\n        /* \"#utility.yul\":659:664   */\n      dup2\n        /* \"#utility.yul\":641:665   */\n      tag_105\n      jump\t// in\n    tag_160:\n        /* \"#utility.yul\":634:639   */\n      dup2\n        /* \"#utility.yul\":631:666   */\n      eq\n        /* \"#utility.yul\":621:684   */\n      tag_161\n      jumpi\n        /* \"#utility.yul\":680:681   */\n      0x00\n        /* \"#utility.yul\":677:678   */\n      dup1\n        /* \"#utility.yul\":670:682   */\n      revert\n        /* \"#utility.yul\":621:684   */\n    tag_161:\n        /* \"#utility.yul\":568:690   */\n      pop\n      jump\t// out\n        /* \"#utility.yul\":696:835   */\n    tag_107:\n        /* \"#utility.yul\":742:747   */\n      0x00\n        /* \"#utility.yul\":780:786   */\n      dup2\n        /* \"#utility.yul\":767:787   */\n      calldataload\n        /* \"#utility.yul\":758:787   */\n      swap1\n      pop\n        /* \"#utility.yul\":796:829   */\n      tag_163\n        /* \"#utility.yul\":823:828   */\n      dup2\n        /* \"#utility.yul\":796:829   */\n      tag_106\n      jump\t// in\n    tag_163:\n        /* \"#utility.yul\":696:835   */\n      swap3\n      swap2\n      pop\n      pop\n      jump\t// out\n        /* \"#utility.yul\":841:1170   */\n    tag_18:\n        /* \"#utility.yul\":900:906   */\n      0x00\n        /* \"#utility.yul\":949:951   */\n      0x20\n        /* \"#utility.yul\":937:946   */\n      dup3\n        /* \"#utility.yul\":928:935   */\n      dup5\n        /* \"#utility.yul\":924:947   */\n      sub\n        /* \"#utility.yul\":920:952   */\n      slt\n        /* \"#utility.yul\":917:1036   */\n      iszero\n      tag_165\n      jumpi\n        /* \"#utility.yul\":955:1034   */\n      tag_166\n      tag_102\n      jump\t// in\n    tag_166:\n        /* \"#utility.yul\":917:1036   */\n    tag_165:\n        /* \"#utility.yul\":1075:1076   */\n      0x00\n        /* \"#utility.yul\":1100:1153   */\n      tag_167\n        /* \"#utility.yul\":1145:1152   */\n      dup5\n        /* \"#utility.yul\":1136:1142   */\n      dup3\n        /* \"#utility.yul\":1125:1134   */\n      dup6\n        /* \"#utility.yul\":1121:1143   */\n      add\n        /* \"#utility.yul\":1100:1153   */\n      tag_107\n      jump\t// in\n    tag_167:\n        /* \"#utility.yul\":1090:1153   */\n      swap2\n      pop\n        /* \"#utility.yul\":1046:1163   */\n      pop\n        /* \"#utility.yul\":841:1170   */\n      swap3\n      swap2\n      pop\n      pop\n      jump\t// out\n        /* \"#utility.yul\":1176:1266   */\n    tag_108:\n        /* \"#utility.yul\":1210:1217   */\n      0x00\n        /* \"#utility.yul\":1253:1258   */\n      dup2\n        /* \"#utility.yul\":1246:1259   */\n      iszero\n        /* \"#utility.yul\":1239:1260   */\n      iszero\n        /* \"#utility.yul\":1228:1260   */\n      swap1\n      pop\n        /* \"#utility.yul\":1176:1266   */\n      swap2\n      swap1\n      pop\n      jump\t// out\n        /* \"#utility.yul\":1272:1381   */\n    tag_109:\n        /* \"#utility.yul\":1353:1374   */\n      tag_170\n        /* \"#utility.yul\":1368:1373   */\n      dup2\n        /* \"#utility.yul\":1353:1374   */\n      tag_108\n      jump\t// in\n    tag_170:\n        /* \"#utility.yul\":1348:1351   */\n      dup3\n        /* \"#utility.yul\":1341:1375   */\n      mstore\n        /* \"#utility.yul\":1272:1381   */\n      pop\n      pop\n      jump\t// out\n        /* \"#utility.yul\":1387:1597   */\n    tag_21:\n        /* \"#utility.yul\":1474:1478   */\n      0x00\n        /* \"#utility.yul\":1512:1514   */\n      0x20\n        /* \"#utility.yul\":1501:1510   */\n      dup3\n        /* \"#utility.yul\":1497:1515   */\n      add\n        /* \"#utility.yul\":1489:1515   */\n      swap1\n      pop\n        /* \"#utility.yul\":1525:1590   */\n      tag_172\n        /* \"#utility.yul\":1587:1588   */\n      0x00\n        /* \"#utility.yul\":1576:1585   */\n      dup4\n        /* \"#utility.yul\":1572:1589   */\n      add\n        /* \"#utility.yul\":1563:1569   */\n      dup5\n        /* \"#utility.yul\":1525:1590   */\n      tag_109\n      jump\t// in\n    tag_172:\n        /* \"#utility.yul\":1387:1597   */\n      swap3\n      swap2\n      pop\n      pop\n      jump\t// out\n        /* \"#utility.yul\":1603:1719   */\n    tag_110:\n        /* \"#utility.yul\":1673:1694   */\n      tag_174\n        /* \"#utility.yul\":1688:1693   */\n      dup2\n        /* \"#utility.yul\":1673:1694   */\n      tag_108\n      jump\t// in\n    tag_174:\n        /* \"#utility.yul\":1666:1671   */\n      dup2\n        /* \"#utility.yul\":1663:1695   */\n      eq\n        /* \"#utility.yul\":1653:1713   */\n      tag_175\n      jumpi\n        /* \"#utility.yul\":1709:1710   */\n      0x00\n        /* \"#utility.yul\":1706:1707   */\n      dup1\n        /* \"#utility.yul\":1699:1711   */\n      revert\n        /* \"#utility.yul\":1653:1713   */\n    tag_175:\n        /* \"#utility.yul\":1603:1719   */\n      pop\n      jump\t// out\n        /* \"#utility.yul\":1725:1858   */\n    tag_111:\n        /* \"#utility.yul\":1768:1773   */\n      0x00\n        /* \"#utility.yul\":1806:1812   */\n      dup2\n        /* \"#utility.yul\":1793:1813   */\n      calldataload\n        /* \"#utility.yul\":1784:1813   */\n      swap1\n      pop\n        /* \"#utility.yul\":1822:1852   */\n      tag_177\n        /* \"#utility.yul\":1846:1851   */\n      dup2\n        /* \"#utility.yul\":1822:1852   */\n      tag_110\n      jump\t// in\n    tag_177:\n        /* \"#utility.yul\":1725:1858   */\n      swap3\n      swap2\n      pop\n      pop\n      jump\t// out\n        /* \"#utility.yul\":1864:2332   */\n    tag_25:\n        /* \"#utility.yul\":1929:1935   */\n      0x00\n        /* \"#utility.yul\":1937:1943   */\n      dup1\n        /* \"#utility.yul\":1986:1988   */\n      0x40\n        /* \"#utility.yul\":1974:1983   */\n      dup4\n        /* \"#utility.yul\":1965:1972   */\n      dup6\n        /* \"#utility.yul\":1961:1984   */\n      sub\n        /* \"#utility.yul\":1957:1989   */\n      slt\n        /* \"#utility.yul\":1954:2073   */\n      iszero\n      tag_179\n      jumpi\n        /* \"#utility.yul\":1992:2071   */\n      tag_180\n      tag_102\n      jump\t// in\n    tag_180:\n        /* \"#utility.yul\":1954:2073   */\n    tag_179:\n        /* \"#utility.yul\":2112:2113   */\n      0x00\n        /* \"#utility.yul\":2137:2190   */\n      tag_181\n        /* \"#utility.yul\":2182:2189   */\n      dup6\n        /* \"#utility.yul\":2173:2179   */\n      dup3\n        /* \"#utility.yul\":2162:2171   */\n      dup7\n        /* \"#utility.yul\":2158:2180   */\n      add\n        /* \"#utility.yul\":2137:2190   */\n      tag_107\n      jump\t// in\n    tag_181:\n        /* \"#utility.yul\":2127:2190   */\n      swap3\n      pop\n        /* \"#utility.yul\":2083:2200   */\n      pop\n        /* \"#utility.yul\":2239:2241   */\n      0x20\n        /* \"#utility.yul\":2265:2315   */\n      tag_182\n        /* \"#utility.yul\":2307:2314   */\n      dup6\n        /* \"#utility.yul\":2298:2304   */\n      dup3\n        /* \"#utility.yul\":2287:2296   */\n      dup7\n        /* \"#utility.yul\":2283:2305   */\n      add\n        /* \"#utility.yul\":2265:2315   */\n      tag_111\n      jump\t// in\n    tag_182:\n        /* \"#utility.yul\":2255:2315   */\n      swap2\n      pop\n        /* \"#utility.yul\":2210:2325   */\n      pop\n        /* \"#utility.yul\":1864:2332   */\n      swap3\n      pop\n      swap3\n      swap1\n      pop\n      jump\t// out\n        /* \"#utility.yul\":2338:2415   */\n    tag_112:\n        /* \"#utility.yul\":2375:2382   */\n      0x00\n        /* \"#utility.yul\":2404:2409   */\n      dup2\n        /* \"#utility.yul\":2393:2409   */\n      swap1\n      pop\n        /* \"#utility.yul\":2338:2415   */\n      swap2\n      swap1\n      pop\n      jump\t// out\n        /* \"#utility.yul\":2421:2543   */\n    tag_113:\n        /* \"#utility.yul\":2494:2518   */\n      tag_185\n        /* \"#utility.yul\":2512:2517   */\n      dup2\n        /* \"#utility.yul\":2494:2518   */\n      tag_112\n      jump\t// in\n    tag_185:\n        /* \"#utility.yul\":2487:2492   */\n      dup2\n        /* \"#utility.yul\":2484:2519   */\n      eq\n        /* \"#utility.yul\":2474:2537   */\n      tag_186\n      jumpi\n        /* \"#utility.yul\":2533:2534   */\n      0x00\n        /* \"#utility.yul\":2530:2531   */\n      dup1\n        /* \"#utility.yul\":2523:2535   */\n      revert\n        /* \"#utility.yul\":2474:2537   */\n    tag_186:\n        /* \"#utility.yul\":2421:2543   */\n      pop\n      jump\t// out\n        /* \"#utility.yul\":2549:2688   */\n    tag_114:\n        /* \"#utility.yul\":2595:2600   */\n      0x00\n        /* \"#utility.yul\":2633:2639   */\n      dup2\n        /* \"#utility.yul\":2620:2640   */\n      calldataload\n        /* \"#utility.yul\":2611:2640   */\n      swap1\n      pop\n        /* \"#utility.yul\":2649:2682   */\n      tag_188\n        /* \"#utility.yul\":2676:2681   */\n      dup2\n        /* \"#utility.yul\":2649:2682   */\n      tag_113\n      jump\t// in\n    tag_188:\n        /* \"#utility.yul\":2549:2688   */\n      swap3\n      swap2\n      pop\n      pop\n      jump\t// out\n        /* \"#utility.yul\":2694:3168   */\n    tag_30:\n        /* \"#utility.yul\":2762:2768   */\n      0x00\n        /* \"#utility.yul\":2770:2776   */\n      dup1\n        /* \"#utility.yul\":2819:2821   */\n      0x40\n        /* \"#utility.yul\":2807:2816   */\n      dup4\n        /* \"#utility.yul\":2798:2805   */\n      dup6\n        /* \"#utility.yul\":2794:2817   */\n      sub\n        /* \"#utility.yul\":2790:2822   */\n      slt\n        /* \"#utility.yul\":2787:2906   */\n      iszero\n      tag_190\n      jumpi\n        /* \"#utility.yul\":2825:2904   */\n      tag_191\n      tag_102\n      jump\t// in\n    tag_191:\n        /* \"#utility.yul\":2787:2906   */\n    tag_190:\n        /* \"#utility.yul\":2945:2946   */\n      0x00\n        /* \"#utility.yul\":2970:3023   */\n      tag_192\n        /* \"#utility.yul\":3015:3022   */\n      dup6\n        /* \"#utility.yul\":3006:3012   */\n      dup3\n        /* \"#utility.yul\":2995:3004   */\n      dup7\n        /* \"#utility.yul\":2991:3013   */\n      add\n        /* \"#utility.yul\":2970:3023   */\n      tag_107\n      jump\t// in\n    tag_192:\n        /* \"#utility.yul\":2960:3023   */\n      swap3\n      pop\n        /* \"#utility.yul\":2916:3033   */\n      pop\n        /* \"#utility.yul\":3072:3074   */\n      0x20\n        /* \"#utility.yul\":3098:3151   */\n      tag_193\n        /* \"#utility.yul\":3143:3150   */\n      dup6\n        /* \"#utility.yul\":3134:3140   */\n      dup3\n        /* \"#utility.yul\":3123:3132   */\n      dup7\n        /* \"#utility.yul\":3119:3141   */\n      add\n        /* \"#utility.yul\":3098:3151   */\n      tag_114\n      jump\t// in\n    tag_193:\n        /* \"#utility.yul\":3088:3151   */\n      swap2\n      pop\n        /* \"#utility.yul\":3043:3161   */\n      pop\n        /* \"#utility.yul\":2694:3168   */\n      swap3\n      pop\n      swap3\n      swap1\n      pop\n      jump\t// out\n        /* \"#utility.yul\":3174:3278   */\n    tag_115:\n        /* \"#utility.yul\":3219:3226   */\n      0x00\n        /* \"#utility.yul\":3248:3272   */\n      tag_195\n        /* \"#utility.yul\":3266:3271   */\n      dup3\n        /* \"#utility.yul\":3248:3272   */\n      tag_104\n      jump\t// in\n    tag_195:\n        /* \"#utility.yul\":3237:3272   */\n      swap1\n      pop\n        /* \"#utility.yul\":3174:3278   */\n      swap2\n      swap1\n      pop\n      jump\t// out\n        /* \"#utility.yul\":3284:3426   */\n    tag_116:\n        /* \"#utility.yul\":3387:3419   */\n      tag_197\n        /* \"#utility.yul\":3413:3418   */\n      dup2\n        /* \"#utility.yul\":3387:3419   */\n      tag_115\n      jump\t// in\n    tag_197:\n        /* \"#utility.yul\":3382:3385   */\n      dup3\n        /* \"#utility.yul\":3375:3420   */\n      mstore\n        /* \"#utility.yul\":3284:3426   */\n      pop\n      pop\n      jump\t// out\n        /* \"#utility.yul\":3432:3686   */\n    tag_41:\n        /* \"#utility.yul\":3541:3545   */\n      0x00\n        /* \"#utility.yul\":3579:3581   */\n      0x20\n        /* \"#utility.yul\":3568:3577   */\n      dup3\n        /* \"#utility.yul\":3564:3582   */\n      add\n        /* \"#utility.yul\":3556:3582   */\n      swap1\n      pop\n        /* \"#utility.yul\":3592:3679   */\n      tag_199\n        /* \"#utility.yul\":3676:3677   */\n      0x00\n        /* \"#utility.yul\":3665:3674   */\n      dup4\n        /* \"#utility.yul\":3661:3678   */\n      add\n        /* \"#utility.yul\":3652:3658   */\n      dup5\n        /* \"#utility.yul\":3592:3679   */\n      tag_116\n      jump\t// in\n    tag_199:\n        /* \"#utility.yul\":3432:3686   */\n      swap3\n      swap2\n      pop\n      pop\n      jump\t// out\n        /* \"#utility.yul\":3692:3830   */\n    tag_117:\n        /* \"#utility.yul\":3773:3805   */\n      tag_201\n        /* \"#utility.yul\":3799:3804   */\n      dup2\n        /* \"#utility.yul\":3773:3805   */\n      tag_115\n      jump\t// in\n    tag_201:\n        /* \"#utility.yul\":3766:3771   */\n      dup2\n        /* \"#utility.yul\":3763:3806   */\n      eq\n        /* \"#utility.yul\":3753:3824   */\n      tag_202\n      jumpi\n        /* \"#utility.yul\":3820:3821   */\n      0x00\n        /* \"#utility.yul\":3817:3818   */\n      dup1\n        /* \"#utility.yul\":3810:3822   */\n      revert\n        /* \"#utility.yul\":3753:3824   */\n    tag_202:\n        /* \"#utility.yul\":3692:3830   */\n      pop\n      jump\t// out\n        /* \"#utility.yul\":3836:3991   */\n    tag_118:\n        /* \"#utility.yul\":3890:3895   */\n      0x00\n        /* \"#utility.yul\":3928:3934   */\n      dup2\n        /* \"#utility.yul\":3915:3935   */\n      calldataload\n        /* \"#utility.yul\":3906:3935   */\n      swap1\n      pop\n        /* \"#utility.yul\":3944:3985   */\n      tag_204\n        /* \"#utility.yul\":3979:3984   */\n      dup2\n        /* \"#utility.yul\":3944:3985   */\n      tag_117\n      jump\t// in\n    tag_204:\n        /* \"#utility.yul\":3836:3991   */\n      swap3\n      swap2\n      pop\n      pop\n      jump\t// out\n        /* \"#utility.yul\":3997:4114   */\n    tag_119:\n        /* \"#utility.yul\":4106:4107   */\n      0x00\n        /* \"#utility.yul\":4103:4104   */\n      dup1\n        /* \"#utility.yul\":4096:4108   */\n      revert\n        /* \"#utility.yul\":4120:4237   */\n    tag_120:\n        /* \"#utility.yul\":4229:4230   */\n      0x00\n        /* \"#utility.yul\":4226:4227   */\n      dup1\n        /* \"#utility.yul\":4219:4231   */\n      revert\n        /* \"#utility.yul\":4243:4345   */\n    tag_121:\n        /* \"#utility.yul\":4284:4290   */\n      0x00\n        /* \"#utility.yul\":4335:4337   */\n      0x1f\n        /* \"#utility.yul\":4331:4338   */\n      not\n        /* \"#utility.yul\":4326:4328   */\n      0x1f\n        /* \"#utility.yul\":4319:4324   */\n      dup4\n        /* \"#utility.yul\":4315:4329   */\n      add\n        /* \"#utility.yul\":4311:4339   */\n      and\n        /* \"#utility.yul\":4301:4339   */\n      swap1\n      pop\n        /* \"#utility.yul\":4243:4345   */\n      swap2\n      swap1\n      pop\n      jump\t// out\n        /* \"#utility.yul\":4351:4531   */\n    tag_122:\n        /* \"#utility.yul\":4399:4476   */\n      0x4e487b7100000000000000000000000000000000000000000000000000000000\n        /* \"#utility.yul\":4396:4397   */\n      0x00\n        /* \"#utility.yul\":4389:4477   */\n      mstore\n        /* \"#utility.yul\":4496:4500   */\n      0x41\n        /* \"#utility.yul\":4493:4494   */\n      0x04\n        /* \"#utility.yul\":4486:4501   */\n      mstore\n        /* \"#utility.yul\":4520:4524   */\n      0x24\n        /* \"#utility.yul\":4517:4518   */\n      0x00\n        /* \"#utility.yul\":4510:4525   */\n      revert\n        /* \"#utility.yul\":4537:4818   */\n    tag_123:\n        /* \"#utility.yul\":4620:4647   */\n      tag_210\n        /* \"#utility.yul\":4642:4646   */\n      dup3\n        /* \"#utility.yul\":4620:4647   */\n      tag_121\n      jump\t// in\n    tag_210:\n        /* \"#utility.yul\":4612:4618   */\n      dup2\n        /* \"#utility.yul\":4608:4648   */\n      add\n        /* \"#utility.yul\":4750:4756   */\n      dup2\n        /* \"#utility.yul\":4738:4748   */\n      dup2\n        /* \"#utility.yul\":4735:4757   */\n      lt\n        /* \"#utility.yul\":4714:4732   */\n      0xffffffffffffffff\n        /* \"#utility.yul\":4702:4712   */\n      dup3\n        /* \"#utility.yul\":4699:4733   */\n      gt\n        /* \"#utility.yul\":4696:4758   */\n      or\n        /* \"#utility.yul\":4693:4781   */\n      iszero\n      tag_211\n      jumpi\n        /* \"#utility.yul\":4761:4779   */\n      tag_212\n      tag_122\n      jump\t// in\n    tag_212:\n        /* \"#utility.yul\":4693:4781   */\n    tag_211:\n        /* \"#utility.yul\":4801:4811   */\n      dup1\n        /* \"#utility.yul\":4797:4799   */\n      0x40\n        /* \"#utility.yul\":4790:4812   */\n      mstore\n        /* \"#utility.yul\":4580:4818   */\n      pop\n        /* \"#utility.yul\":4537:4818   */\n      pop\n      pop\n      jump\t// out\n        /* \"#utility.yul\":4824:4953   */\n    tag_124:\n        /* \"#utility.yul\":4858:4864   */\n      0x00\n        /* \"#utility.yul\":4885:4905   */\n      tag_214\n      tag_101\n      jump\t// in\n    tag_214:\n        /* \"#utility.yul\":4875:4905   */\n      swap1\n      pop\n        /* \"#utility.yul\":4914:4947   */\n      tag_215\n        /* \"#utility.yul\":4942:4946   */\n      dup3\n        /* \"#utility.yul\":4934:4940   */\n      dup3\n        /* \"#utility.yul\":4914:4947   */\n      tag_123\n      jump\t// in\n    tag_215:\n        /* \"#utility.yul\":4824:4953   */\n      swap2\n      swap1\n      pop\n      jump\t// out\n        /* \"#utility.yul\":4959:5266   */\n    tag_125:\n        /* \"#utility.yul\":5020:5024   */\n      0x00\n        /* \"#utility.yul\":5110:5128   */\n      0xffffffffffffffff\n        /* \"#utility.yul\":5102:5108   */\n      dup3\n        /* \"#utility.yul\":5099:5129   */\n      gt\n        /* \"#utility.yul\":5096:5152   */\n      iszero\n      tag_217\n      jumpi\n        /* \"#utility.yul\":5132:5150   */\n      tag_218\n      tag_122\n      jump\t// in\n    tag_218:\n        /* \"#utility.yul\":5096:5152   */\n    tag_217:\n        /* \"#utility.yul\":5170:5199   */\n      tag_219\n        /* \"#utility.yul\":5192:5198   */\n      dup3\n        /* \"#utility.yul\":5170:5199   */\n      tag_121\n      jump\t// in\n    tag_219:\n        /* \"#utility.yul\":5162:5199   */\n      swap1\n      pop\n        /* \"#utility.yul\":5254:5258   */\n      0x20\n        /* \"#utility.yul\":5248:5252   */\n      dup2\n        /* \"#utility.yul\":5244:5259   */\n      add\n        /* \"#utility.yul\":5236:5259   */\n      swap1\n      pop\n        /* \"#utility.yul\":4959:5266   */\n      swap2\n      swap1\n      pop\n      jump\t// out\n        /* \"#utility.yul\":5272:5418   */\n    tag_126:\n        /* \"#utility.yul\":5369:5375   */\n      dup3\n        /* \"#utility.yul\":5364:5367   */\n      dup2\n        /* \"#utility.yul\":5359:5362   */\n      dup4\n        /* \"#utility.yul\":5346:5376   */\n      calldatacopy\n        /* \"#utility.yul\":5410:5411   */\n      0x00\n        /* \"#utility.yul\":5401:5407   */\n      dup4\n        /* \"#utility.yul\":5396:5399   */\n      dup4\n        /* \"#utility.yul\":5392:5408   */\n      add\n        /* \"#utility.yul\":5385:5412   */\n      mstore\n        /* \"#utility.yul\":5272:5418   */\n      pop\n      pop\n      pop\n      jump\t// out\n        /* \"#utility.yul\":5424:5847   */\n    tag_127:\n        /* \"#utility.yul\":5501:5506   */\n      0x00\n        /* \"#utility.yul\":5526:5591   */\n      tag_222\n        /* \"#utility.yul\":5542:5590   */\n      tag_223\n        /* \"#utility.yul\":5583:5589   */\n      dup5\n        /* \"#utility.yul\":5542:5590   */\n      tag_125\n      jump\t// in\n    tag_223:\n        /* \"#utility.yul\":5526:5591   */\n      tag_124\n      jump\t// in\n    tag_222:\n        /* \"#utility.yul\":5517:5591   */\n      swap1\n      pop\n        /* \"#utility.yul\":5614:5620   */\n      dup3\n        /* \"#utility.yul\":5607:5612   */\n      dup2\n        /* \"#utility.yul\":5600:5621   */\n      mstore\n        /* \"#utility.yul\":5652:5656   */\n      0x20\n        /* \"#utility.yul\":5645:5650   */\n      dup2\n        /* \"#utility.yul\":5641:5657   */\n      add\n        /* \"#utility.yul\":5690:5693   */\n      dup5\n        /* \"#utility.yul\":5681:5687   */\n      dup5\n        /* \"#utility.yul\":5676:5679   */\n      dup5\n        /* \"#utility.yul\":5672:5688   */\n      add\n        /* \"#utility.yul\":5669:5694   */\n      gt\n        /* \"#utility.yul\":5666:5778   */\n      iszero\n      tag_224\n      jumpi\n        /* \"#utility.yul\":5697:5776   */\n      tag_225\n      tag_120\n      jump\t// in\n    tag_225:\n        /* \"#utility.yul\":5666:5778   */\n    tag_224:\n        /* \"#utility.yul\":5787:5841   */\n      tag_226\n        /* \"#utility.yul\":5834:5840   */\n      dup5\n        /* \"#utility.yul\":5829:5832   */\n      dup3\n        /* \"#utility.yul\":5824:5827   */\n      dup6\n        /* \"#utility.yul\":5787:5841   */\n      tag_126\n      jump\t// in\n    tag_226:\n        /* \"#utility.yul\":5507:5847   */\n      pop\n        /* \"#utility.yul\":5424:5847   */\n      swap4\n      swap3\n      pop\n      pop\n      pop\n      jump\t// out\n        /* \"#utility.yul\":5866:6204   */\n    tag_128:\n        /* \"#utility.yul\":5921:5926   */\n      0x00\n        /* \"#utility.yul\":5970:5973   */\n      dup3\n        /* \"#utility.yul\":5963:5967   */\n      0x1f\n        /* \"#utility.yul\":5955:5961   */\n      dup4\n        /* \"#utility.yul\":5951:5968   */\n      add\n        /* \"#utility.yul\":5947:5974   */\n      slt\n        /* \"#utility.yul\":5937:6059   */\n      tag_228\n      jumpi\n        /* \"#utility.yul\":5978:6057   */\n      tag_229\n      tag_119\n      jump\t// in\n    tag_229:\n        /* \"#utility.yul\":5937:6059   */\n    tag_228:\n        /* \"#utility.yul\":6095:6101   */\n      dup2\n        /* \"#utility.yul\":6082:6102   */\n      calldataload\n        /* \"#utility.yul\":6120:6198   */\n      tag_230\n        /* \"#utility.yul\":6194:6197   */\n      dup5\n        /* \"#utility.yul\":6186:6192   */\n      dup3\n        /* \"#utility.yul\":6179:6183   */\n      0x20\n        /* \"#utility.yul\":6171:6177   */\n      dup7\n        /* \"#utility.yul\":6167:6184   */\n      add\n        /* \"#utility.yul\":6120:6198   */\n      tag_127\n      jump\t// in\n    tag_230:\n        /* \"#utility.yul\":6111:6198   */\n      swap2\n      pop\n        /* \"#utility.yul\":5927:6204   */\n      pop\n        /* \"#utility.yul\":5866:6204   */\n      swap3\n      swap2\n      pop\n      pop\n      jump\t// out\n        /* \"#utility.yul\":6210:7023   */\n    tag_45:\n        /* \"#utility.yul\":6304:6310   */\n      0x00\n        /* \"#utility.yul\":6312:6318   */\n      dup1\n        /* \"#utility.yul\":6320:6326   */\n      0x00\n        /* \"#utility.yul\":6369:6371   */\n      0x60\n        /* \"#utility.yul\":6357:6366   */\n      dup5\n        /* \"#utility.yul\":6348:6355   */\n      dup7\n        /* \"#utility.yul\":6344:6367   */\n      sub\n        /* \"#utility.yul\":6340:6372   */\n      slt\n        /* \"#utility.yul\":6337:6456   */\n      iszero\n      tag_232\n      jumpi\n        /* \"#utility.yul\":6375:6454   */\n      tag_233\n      tag_102\n      jump\t// in\n    tag_233:\n        /* \"#utility.yul\":6337:6456   */\n    tag_232:\n        /* \"#utility.yul\":6495:6496   */\n      0x00\n        /* \"#utility.yul\":6520:6581   */\n      tag_234\n        /* \"#utility.yul\":6573:6580   */\n      dup7\n        /* \"#utility.yul\":6564:6570   */\n      dup3\n        /* \"#utility.yul\":6553:6562   */\n      dup8\n        /* \"#utility.yul\":6549:6571   */\n      add\n        /* \"#utility.yul\":6520:6581   */\n      tag_118\n      jump\t// in\n    tag_234:\n        /* \"#utility.yul\":6510:6581   */\n      swap4\n      pop\n        /* \"#utility.yul\":6466:6591   */\n      pop\n        /* \"#utility.yul\":6630:6632   */\n      0x20\n        /* \"#utility.yul\":6656:6709   */\n      tag_235\n        /* \"#utility.yul\":6701:6708   */\n      dup7\n        /* \"#utility.yul\":6692:6698   */\n      dup3\n        /* \"#utility.yul\":6681:6690   */\n      dup8\n        /* \"#utility.yul\":6677:6699   */\n      add\n        /* \"#utility.yul\":6656:6709   */\n      tag_114\n      jump\t// in\n    tag_235:\n        /* \"#utility.yul\":6646:6709   */\n      swap3\n      pop\n        /* \"#utility.yul\":6601:6719   */\n      pop\n        /* \"#utility.yul\":6786:6788   */\n      0x40\n        /* \"#utility.yul\":6775:6784   */\n      dup5\n        /* \"#utility.yul\":6771:6789   */\n      add\n        /* \"#utility.yul\":6758:6790   */\n      calldataload\n        /* \"#utility.yul\":6817:6835   */\n      0xffffffffffffffff\n        /* \"#utility.yul\":6809:6815   */\n      dup2\n        /* \"#utility.yul\":6806:6836   */\n      gt\n        /* \"#utility.yul\":6803:6920   */\n      iszero\n      tag_236\n      jumpi\n        /* \"#utility.yul\":6839:6918   */\n      tag_237\n      tag_103\n      jump\t// in\n    tag_237:\n        /* \"#utility.yul\":6803:6920   */\n    tag_236:\n        /* \"#utility.yul\":6944:7006   */\n      tag_238\n        /* \"#utility.yul\":6998:7005   */\n      dup7\n        /* \"#utility.yul\":6989:6995   */\n      dup3\n        /* \"#utility.yul\":6978:6987   */\n      dup8\n        /* \"#utility.yul\":6974:6996   */\n      add\n        /* \"#utility.yul\":6944:7006   */\n      tag_128\n      jump\t// in\n    tag_238:\n        /* \"#utility.yul\":6934:7006   */\n      swap2\n      pop\n        /* \"#utility.yul\":6729:7016   */\n      pop\n        /* \"#utility.yul\":6210:7023   */\n      swap3\n      pop\n      swap3\n      pop\n      swap3\n      jump\t// out\n        /* \"#utility.yul\":7029:7127   */\n    tag_129:\n        /* \"#utility.yul\":7080:7086   */\n      0x00\n        /* \"#utility.yul\":7114:7119   */\n      dup2\n        /* \"#utility.yul\":7108:7120   */\n      mload\n        /* \"#utility.yul\":7098:7120   */\n      swap1\n      pop\n        /* \"#utility.yul\":7029:7127   */\n      swap2\n      swap1\n      pop\n      jump\t// out\n        /* \"#utility.yul\":7133:7301   */\n    tag_130:\n        /* \"#utility.yul\":7216:7227   */\n      0x00\n        /* \"#utility.yul\":7250:7256   */\n      dup3\n        /* \"#utility.yul\":7245:7248   */\n      dup3\n        /* \"#utility.yul\":7238:7257   */\n      mstore\n        /* \"#utility.yul\":7290:7294   */\n      0x20\n        /* \"#utility.yul\":7285:7288   */\n      dup3\n        /* \"#utility.yul\":7281:7295   */\n      add\n        /* \"#utility.yul\":7266:7295   */\n      swap1\n      pop\n        /* \"#utility.yul\":7133:7301   */\n      swap3\n      swap2\n      pop\n      pop\n      jump\t// out\n        /* \"#utility.yul\":7307:7553   */\n    tag_131:\n        /* \"#utility.yul\":7388:7389   */\n      0x00\n        /* \"#utility.yul\":7398:7511   */\n    tag_242:\n        /* \"#utility.yul\":7412:7418   */\n      dup4\n        /* \"#utility.yul\":7409:7410   */\n      dup2\n        /* \"#utility.yul\":7406:7419   */\n      lt\n        /* \"#utility.yul\":7398:7511   */\n      iszero\n      tag_244\n      jumpi\n        /* \"#utility.yul\":7497:7498   */\n      dup1\n        /* \"#utility.yul\":7492:7495   */\n      dup3\n        /* \"#utility.yul\":7488:7499   */\n      add\n        /* \"#utility.yul\":7482:7500   */\n      mload\n        /* \"#utility.yul\":7478:7479   */\n      dup2\n        /* \"#utility.yul\":7473:7476   */\n      dup5\n        /* \"#utility.yul\":7469:7480   */\n      add\n        /* \"#utility.yul\":7462:7501   */\n      mstore\n        /* \"#utility.yul\":7434:7436   */\n      0x20\n        /* \"#utility.yul\":7431:7432   */\n      dup2\n        /* \"#utility.yul\":7427:7437   */\n      add\n        /* \"#utility.yul\":7422:7437   */\n      swap1\n      pop\n        /* \"#utility.yul\":7398:7511   */\n      jump(tag_242)\n    tag_244:\n        /* \"#utility.yul\":7545:7546   */\n      0x00\n        /* \"#utility.yul\":7536:7542   */\n      dup5\n        /* \"#utility.yul\":7531:7534   */\n      dup5\n        /* \"#utility.yul\":7527:7543   */\n      add\n        /* \"#utility.yul\":7520:7547   */\n      mstore\n        /* \"#utility.yul\":7369:7553   */\n      pop\n        /* \"#utility.yul\":7307:7553   */\n      pop\n      pop\n      pop\n      jump\t// out\n        /* \"#utility.yul\":7559:7932   */\n    tag_132:\n        /* \"#utility.yul\":7645:7648   */\n      0x00\n        /* \"#utility.yul\":7673:7711   */\n      tag_246\n        /* \"#utility.yul\":7705:7710   */\n      dup3\n        /* \"#utility.yul\":7673:7711   */\n      tag_129\n      jump\t// in\n    tag_246:\n        /* \"#utility.yul\":7727:7797   */\n      tag_247\n        /* \"#utility.yul\":7790:7796   */\n      dup2\n        /* \"#utility.yul\":7785:7788   */\n      dup6\n        /* \"#utility.yul\":7727:7797   */\n      tag_130\n      jump\t// in\n    tag_247:\n        /* \"#utility.yul\":7720:7797   */\n      swap4\n      pop\n        /* \"#utility.yul\":7806:7871   */\n      tag_248\n        /* \"#utility.yul\":7864:7870   */\n      dup2\n        /* \"#utility.yul\":7859:7862   */\n      dup6\n        /* \"#utility.yul\":7852:7856   */\n      0x20\n        /* \"#utility.yul\":7845:7850   */\n      dup7\n        /* \"#utility.yul\":7841:7857   */\n      add\n        /* \"#utility.yul\":7806:7871   */\n      tag_131\n      jump\t// in\n    tag_248:\n        /* \"#utility.yul\":7896:7925   */\n      tag_249\n        /* \"#utility.yul\":7918:7924   */\n      dup2\n        /* \"#utility.yul\":7896:7925   */\n      tag_121\n      jump\t// in\n    tag_249:\n        /* \"#utility.yul\":7891:7894   */\n      dup5\n        /* \"#utility.yul\":7887:7926   */\n      add\n        /* \"#utility.yul\":7880:7926   */\n      swap2\n      pop\n        /* \"#utility.yul\":7649:7932   */\n      pop\n        /* \"#utility.yul\":7559:7932   */\n      swap3\n      swap2\n      pop\n      pop\n      jump\t// out\n        /* \"#utility.yul\":7938:8247   */\n    tag_48:\n        /* \"#utility.yul\":8049:8053   */\n      0x00\n        /* \"#utility.yul\":8087:8089   */\n      0x20\n        /* \"#utility.yul\":8076:8085   */\n      dup3\n        /* \"#utility.yul\":8072:8090   */\n      add\n        /* \"#utility.yul\":8064:8090   */\n      swap1\n      pop\n        /* \"#utility.yul\":8136:8145   */\n      dup2\n        /* \"#utility.yul\":8130:8134   */\n      dup2\n        /* \"#utility.yul\":8126:8146   */\n      sub\n        /* \"#utility.yul\":8122:8123   */\n      0x00\n        /* \"#utility.yul\":8111:8120   */\n      dup4\n        /* \"#utility.yul\":8107:8124   */\n      add\n        /* \"#utility.yul\":8100:8147   */\n      mstore\n        /* \"#utility.yul\":8164:8240   */\n      tag_251\n        /* \"#utility.yul\":8235:8239   */\n      dup2\n        /* \"#utility.yul\":8226:8232   */\n      dup5\n        /* \"#utility.yul\":8164:8240   */\n      tag_132\n      jump\t// in\n    tag_251:\n        /* \"#utility.yul\":8156:8240   */\n      swap1\n      pop\n        /* \"#utility.yul\":7938:8247   */\n      swap3\n      swap2\n      pop\n      pop\n      jump\t// out\n        /* \"#utility.yul\":8253:8371   */\n    tag_133:\n        /* \"#utility.yul\":8340:8364   */\n      tag_253\n        /* \"#utility.yul\":8358:8363   */\n      dup2\n        /* \"#utility.yul\":8340:8364   */\n      tag_112\n      jump\t// in\n    tag_253:\n        /* \"#utility.yul\":8335:8338   */\n      dup3\n        /* \"#utility.yul\":8328:8365   */\n      mstore\n        /* \"#utility.yul\":8253:8371   */\n      pop\n      pop\n      jump\t// out\n        /* \"#utility.yul\":8377:8599   */\n    tag_54:\n        /* \"#utility.yul\":8470:8474   */\n      0x00\n        /* \"#utility.yul\":8508:8510   */\n      0x20\n        /* \"#utility.yul\":8497:8506   */\n      dup3\n        /* \"#utility.yul\":8493:8511   */\n      add\n        /* \"#utility.yul\":8485:8511   */\n      swap1\n      pop\n        /* \"#utility.yul\":8521:8592   */\n      tag_255\n        /* \"#utility.yul\":8589:8590   */\n      0x00\n        /* \"#utility.yul\":8578:8587   */\n      dup4\n        /* \"#utility.yul\":8574:8591   */\n      add\n        /* \"#utility.yul\":8565:8571   */\n      dup5\n        /* \"#utility.yul\":8521:8592   */\n      tag_133\n      jump\t// in\n    tag_255:\n        /* \"#utility.yul\":8377:8599   */\n      swap3\n      swap2\n      pop\n      pop\n      jump\t// out\n        /* \"#utility.yul\":8605:8950   */\n    tag_58:\n        /* \"#utility.yul\":8672:8678   */\n      0x00\n        /* \"#utility.yul\":8721:8723   */\n      0x20\n        /* \"#utility.yul\":8709:8718   */\n      dup3\n        /* \"#utility.yul\":8700:8707   */\n      dup5\n        /* \"#utility.yul\":8696:8719   */\n      sub\n        /* \"#utility.yul\":8692:8724   */\n      slt\n        /* \"#utility.yul\":8689:8808   */\n      iszero\n      tag_257\n      jumpi\n        /* \"#utility.yul\":8727:8806   */\n      tag_258\n      tag_102\n      jump\t// in\n    tag_258:\n        /* \"#utility.yul\":8689:8808   */\n    tag_257:\n        /* \"#utility.yul\":8847:8848   */\n      0x00\n        /* \"#utility.yul\":8872:8933   */\n      tag_259\n        /* \"#utility.yul\":8925:8932   */\n      dup5\n        /* \"#utility.yul\":8916:8922   */\n      dup3\n        /* \"#utility.yul\":8905:8914   */\n      dup6\n        /* \"#utility.yul\":8901:8923   */\n      add\n        /* \"#utility.yul\":8872:8933   */\n      tag_118\n      jump\t// in\n    tag_259:\n        /* \"#utility.yul\":8862:8933   */\n      swap2\n      pop\n        /* \"#utility.yul\":8818:8943   */\n      pop\n        /* \"#utility.yul\":8605:8950   */\n      swap3\n      swap2\n      pop\n      pop\n      jump\t// out\n        /* \"#utility.yul\":8956:9125   */\n    tag_134:\n        /* \"#utility.yul\":9040:9051   */\n      0x00\n        /* \"#utility.yul\":9074:9080   */\n      dup3\n        /* \"#utility.yul\":9069:9072   */\n      dup3\n        /* \"#utility.yul\":9062:9081   */\n      mstore\n        /* \"#utility.yul\":9114:9118   */\n      0x20\n        /* \"#utility.yul\":9109:9112   */\n      dup3\n        /* \"#utility.yul\":9105:9119   */\n      add\n        /* \"#utility.yul\":9090:9119   */\n      swap1\n      pop\n        /* \"#utility.yul\":8956:9125   */\n      swap3\n      swap2\n      pop\n      pop\n      jump\t// out\n        /* \"#utility.yul\":9131:9309   */\n    tag_135:\n        /* \"#utility.yul\":9271:9301   */\n      0x796f752061726520746865206f776e657221212c61626f7274696e6700000000\n        /* \"#utility.yul\":9267:9268   */\n      0x00\n        /* \"#utility.yul\":9259:9265   */\n      dup3\n        /* \"#utility.yul\":9255:9269   */\n      add\n        /* \"#utility.yul\":9248:9302   */\n      mstore\n        /* \"#utility.yul\":9131:9309   */\n      pop\n      jump\t// out\n        /* \"#utility.yul\":9315:9681   */\n    tag_136:\n        /* \"#utility.yul\":9457:9460   */\n      0x00\n        /* \"#utility.yul\":9478:9545   */\n      tag_263\n        /* \"#utility.yul\":9542:9544   */\n      0x1c\n        /* \"#utility.yul\":9537:9540   */\n      dup4\n        /* \"#utility.yul\":9478:9545   */\n      tag_134\n      jump\t// in\n    tag_263:\n        /* \"#utility.yul\":9471:9545   */\n      swap2\n      pop\n        /* \"#utility.yul\":9554:9647   */\n      tag_264\n        /* \"#utility.yul\":9643:9646   */\n      dup3\n        /* \"#utility.yul\":9554:9647   */\n      tag_135\n      jump\t// in\n    tag_264:\n        /* \"#utility.yul\":9672:9674   */\n      0x20\n        /* \"#utility.yul\":9667:9670   */\n      dup3\n        /* \"#utility.yul\":9663:9675   */\n      add\n        /* \"#utility.yul\":9656:9675   */\n      swap1\n      pop\n        /* \"#utility.yul\":9315:9681   */\n      swap2\n      swap1\n      pop\n      jump\t// out\n        /* \"#utility.yul\":9687:10106   */\n    tag_67:\n        /* \"#utility.yul\":9853:9857   */\n      0x00\n        /* \"#utility.yul\":9891:9893   */\n      0x20\n        /* \"#utility.yul\":9880:9889   */\n      dup3\n        /* \"#utility.yul\":9876:9894   */\n      add\n        /* \"#utility.yul\":9868:9894   */\n      swap1\n      pop\n        /* \"#utility.yul\":9940:9949   */\n      dup2\n        /* \"#utility.yul\":9934:9938   */\n      dup2\n        /* \"#utility.yul\":9930:9950   */\n      sub\n        /* \"#utility.yul\":9926:9927   */\n      0x00\n        /* \"#utility.yul\":9915:9924   */\n      dup4\n        /* \"#utility.yul\":9911:9928   */\n      add\n        /* \"#utility.yul\":9904:9951   */\n      mstore\n        /* \"#utility.yul\":9968:10099   */\n      tag_266\n        /* \"#utility.yul\":10094:10098   */\n      dup2\n        /* \"#utility.yul\":9968:10099   */\n      tag_136\n      jump\t// in\n    tag_266:\n        /* \"#utility.yul\":9960:10099   */\n      swap1\n      pop\n        /* \"#utility.yul\":9687:10106   */\n      swap2\n      swap1\n      pop\n      jump\t// out\n        /* \"#utility.yul\":10112:10294   */\n    tag_137:\n        /* \"#utility.yul\":10252:10286   */\n      0x796f7520617265206e6f7420746865206f776e657221212c61626f7274696e67\n        /* \"#utility.yul\":10248:10249   */\n      0x00\n        /* \"#utility.yul\":10240:10246   */\n      dup3\n        /* \"#utility.yul\":10236:10250   */\n      add\n        /* \"#utility.yul\":10229:10287   */\n      mstore\n        /* \"#utility.yul\":10112:10294   */\n      pop\n      jump\t// out\n        /* \"#utility.yul\":10300:10666   */\n    tag_138:\n        /* \"#utility.yul\":10442:10445   */\n      0x00\n        /* \"#utility.yul\":10463:10530   */\n      tag_269\n        /* \"#utility.yul\":10527:10529   */\n      0x20\n        /* \"#utility.yul\":10522:10525   */\n      dup4\n        /* \"#utility.yul\":10463:10530   */\n      tag_134\n      jump\t// in\n    tag_269:\n        /* \"#utility.yul\":10456:10530   */\n      swap2\n      pop\n        /* \"#utility.yul\":10539:10632   */\n      tag_270\n        /* \"#utility.yul\":10628:10631   */\n      dup3\n        /* \"#utility.yul\":10539:10632   */\n      tag_137\n      jump\t// in\n    tag_270:\n        /* \"#utility.yul\":10657:10659   */\n      0x20\n        /* \"#utility.yul\":10652:10655   */\n      dup3\n        /* \"#utility.yul\":10648:10660   */\n      add\n        /* \"#utility.yul\":10641:10660   */\n      swap1\n      pop\n        /* \"#utility.yul\":10300:10666   */\n      swap2\n      swap1\n      pop\n      jump\t// out\n        /* \"#utility.yul\":10672:11091   */\n    tag_71:\n        /* \"#utility.yul\":10838:10842   */\n      0x00\n        /* \"#utility.yul\":10876:10878   */\n      0x20\n        /* \"#utility.yul\":10865:10874   */\n      dup3\n        /* \"#utility.yul\":10861:10879   */\n      add\n        /* \"#utility.yul\":10853:10879   */\n      swap1\n      pop\n        /* \"#utility.yul\":10925:10934   */\n      dup2\n        /* \"#utility.yul\":10919:10923   */\n      dup2\n        /* \"#utility.yul\":10915:10935   */\n      sub\n        /* \"#utility.yul\":10911:10912   */\n      0x00\n        /* \"#utility.yul\":10900:10909   */\n      dup4\n        /* \"#utility.yul\":10896:10913   */\n      add\n        /* \"#utility.yul\":10889:10936   */\n      mstore\n        /* \"#utility.yul\":10953:11084   */\n      tag_272\n        /* \"#utility.yul\":11079:11083   */\n      dup2\n        /* \"#utility.yul\":10953:11084   */\n      tag_138\n      jump\t// in\n    tag_272:\n        /* \"#utility.yul\":10945:11084   */\n      swap1\n      pop\n        /* \"#utility.yul\":10672:11091   */\n      swap2\n      swap1\n      pop\n      jump\t// out\n        /* \"#utility.yul\":11097:11393   */\n    tag_139:\n        /* \"#utility.yul\":11237:11271   */\n      0x796f7520617265206e6f7420616c6c6f77656420746f2073656e6420616e7974\n        /* \"#utility.yul\":11233:11234   */\n      0x00\n        /* \"#utility.yul\":11225:11231   */\n      dup3\n        /* \"#utility.yul\":11221:11235   */\n      add\n        /* \"#utility.yul\":11214:11272   */\n      mstore\n        /* \"#utility.yul\":11306:11340   */\n      0x68696e672066726f6d207468697320736d61727420636f6e7472616374212c61\n        /* \"#utility.yul\":11301:11303   */\n      0x20\n        /* \"#utility.yul\":11293:11299   */\n      dup3\n        /* \"#utility.yul\":11289:11304   */\n      add\n        /* \"#utility.yul\":11282:11341   */\n      mstore\n        /* \"#utility.yul\":11375:11385   */\n      0x626f7274696e6721000000000000000000000000000000000000000000000000\n        /* \"#utility.yul\":11370:11372   */\n      0x40\n        /* \"#utility.yul\":11362:11368   */\n      dup3\n        /* \"#utility.yul\":11358:11373   */\n      add\n        /* \"#utility.yul\":11351:11386   */\n      mstore\n        /* \"#utility.yul\":11097:11393   */\n      pop\n      jump\t// out\n        /* \"#utility.yul\":11399:11765   */\n    tag_140:\n        /* \"#utility.yul\":11541:11544   */\n      0x00\n        /* \"#utility.yul\":11562:11629   */\n      tag_275\n        /* \"#utility.yul\":11626:11628   */\n      0x48\n        /* \"#utility.yul\":11621:11624   */\n      dup4\n        /* \"#utility.yul\":11562:11629   */\n      tag_134\n      jump\t// in\n    tag_275:\n        /* \"#utility.yul\":11555:11629   */\n      swap2\n      pop\n        /* \"#utility.yul\":11638:11731   */\n      tag_276\n        /* \"#utility.yul\":11727:11730   */\n      dup3\n        /* \"#utility.yul\":11638:11731   */\n      tag_139\n      jump\t// in\n    tag_276:\n        /* \"#utility.yul\":11756:11758   */\n      0x60\n        /* \"#utility.yul\":11751:11754   */\n      dup3\n        /* \"#utility.yul\":11747:11759   */\n      add\n        /* \"#utility.yul\":11740:11759   */\n      swap1\n      pop\n        /* \"#utility.yul\":11399:11765   */\n      swap2\n      swap1\n      pop\n      jump\t// out\n        /* \"#utility.yul\":11771:12190   */\n    tag_78:\n        /* \"#utility.yul\":11937:11941   */\n      0x00\n        /* \"#utility.yul\":11975:11977   */\n      0x20\n        /* \"#utility.yul\":11964:11973   */\n      dup3\n        /* \"#utility.yul\":11960:11978   */\n      add\n        /* \"#utility.yul\":11952:11978   */\n      swap1\n      pop\n        /* \"#utility.yul\":12024:12033   */\n      dup2\n        /* \"#utility.yul\":12018:12022   */\n      dup2\n        /* \"#utility.yul\":12014:12034   */\n      sub\n        /* \"#utility.yul\":12010:12011   */\n      0x00\n        /* \"#utility.yul\":11999:12008   */\n      dup4\n        /* \"#utility.yul\":11995:12012   */\n      add\n        /* \"#utility.yul\":11988:12035   */\n      mstore\n        /* \"#utility.yul\":12052:12183   */\n      tag_278\n        /* \"#utility.yul\":12178:12182   */\n      dup2\n        /* \"#utility.yul\":12052:12183   */\n      tag_140\n      jump\t// in\n    tag_278:\n        /* \"#utility.yul\":12044:12183   */\n      swap1\n      pop\n        /* \"#utility.yul\":11771:12190   */\n      swap2\n      swap1\n      pop\n      jump\t// out\n        /* \"#utility.yul\":12196:12440   */\n    tag_141:\n        /* \"#utility.yul\":12336:12370   */\n      0x43616e6e6f742061626c6520746f2073656e64206d6f726520616d6f756e7420\n        /* \"#utility.yul\":12332:12333   */\n      0x00\n        /* \"#utility.yul\":12324:12330   */\n      dup3\n        /* \"#utility.yul\":12320:12334   */\n      add\n        /* \"#utility.yul\":12313:12371   */\n      mstore\n        /* \"#utility.yul\":12405:12432   */\n      0x7468616e207468652077616c6c65742062616c656e6365212100000000000000\n        /* \"#utility.yul\":12400:12402   */\n      0x20\n        /* \"#utility.yul\":12392:12398   */\n      dup3\n        /* \"#utility.yul\":12388:12403   */\n      add\n        /* \"#utility.yul\":12381:12433   */\n      mstore\n        /* \"#utility.yul\":12196:12440   */\n      pop\n      jump\t// out\n        /* \"#utility.yul\":12446:12812   */\n    tag_142:\n        /* \"#utility.yul\":12588:12591   */\n      0x00\n        /* \"#utility.yul\":12609:12676   */\n      tag_281\n        /* \"#utility.yul\":12673:12675   */\n      0x39\n        /* \"#utility.yul\":12668:12671   */\n      dup4\n        /* \"#utility.yul\":12609:12676   */\n      tag_134\n      jump\t// in\n    tag_281:\n        /* \"#utility.yul\":12602:12676   */\n      swap2\n      pop\n        /* \"#utility.yul\":12685:12778   */\n      tag_282\n        /* \"#utility.yul\":12774:12777   */\n      dup3\n        /* \"#utility.yul\":12685:12778   */\n      tag_141\n      jump\t// in\n    tag_282:\n        /* \"#utility.yul\":12803:12805   */\n      0x40\n        /* \"#utility.yul\":12798:12801   */\n      dup3\n        /* \"#utility.yul\":12794:12806   */\n      add\n        /* \"#utility.yul\":12787:12806   */\n      swap1\n      pop\n        /* \"#utility.yul\":12446:12812   */\n      swap2\n      swap1\n      pop\n      jump\t// out\n        /* \"#utility.yul\":12818:13237   */\n    tag_81:\n        /* \"#utility.yul\":12984:12988   */\n      0x00\n        /* \"#utility.yul\":13022:13024   */\n      0x20\n        /* \"#utility.yul\":13011:13020   */\n      dup3\n        /* \"#utility.yul\":13007:13025   */\n      add\n        /* \"#utility.yul\":12999:13025   */\n      swap1\n      pop\n        /* \"#utility.yul\":13071:13080   */\n      dup2\n        /* \"#utility.yul\":13065:13069   */\n      dup2\n        /* \"#utility.yul\":13061:13081   */\n      sub\n        /* \"#utility.yul\":13057:13058   */\n      0x00\n        /* \"#utility.yul\":13046:13055   */\n      dup4\n        /* \"#utility.yul\":13042:13059   */\n      add\n        /* \"#utility.yul\":13035:13082   */\n      mstore\n        /* \"#utility.yul\":13099:13230   */\n      tag_284\n        /* \"#utility.yul\":13225:13229   */\n      dup2\n        /* \"#utility.yul\":13099:13230   */\n      tag_142\n      jump\t// in\n    tag_284:\n        /* \"#utility.yul\":13091:13230   */\n      swap1\n      pop\n        /* \"#utility.yul\":12818:13237   */\n      swap2\n      swap1\n      pop\n      jump\t// out\n        /* \"#utility.yul\":13243:13390   */\n    tag_143:\n        /* \"#utility.yul\":13344:13355   */\n      0x00\n        /* \"#utility.yul\":13381:13384   */\n      dup2\n        /* \"#utility.yul\":13366:13384   */\n      swap1\n      pop\n        /* \"#utility.yul\":13243:13390   */\n      swap3\n      swap2\n      pop\n      pop\n      jump\t// out\n        /* \"#utility.yul\":13396:13782   */\n    tag_144:\n        /* \"#utility.yul\":13500:13503   */\n      0x00\n        /* \"#utility.yul\":13528:13566   */\n      tag_287\n        /* \"#utility.yul\":13560:13565   */\n      dup3\n        /* \"#utility.yul\":13528:13566   */\n      tag_129\n      jump\t// in\n    tag_287:\n        /* \"#utility.yul\":13582:13670   */\n      tag_288\n        /* \"#utility.yul\":13663:13669   */\n      dup2\n        /* \"#utility.yul\":13658:13661   */\n      dup6\n        /* \"#utility.yul\":13582:13670   */\n      tag_143\n      jump\t// in\n    tag_288:\n        /* \"#utility.yul\":13575:13670   */\n      swap4\n      pop\n        /* \"#utility.yul\":13679:13744   */\n      tag_289\n        /* \"#utility.yul\":13737:13743   */\n      dup2\n        /* \"#utility.yul\":13732:13735   */\n      dup6\n        /* \"#utility.yul\":13725:13729   */\n      0x20\n        /* \"#utility.yul\":13718:13723   */\n      dup7\n        /* \"#utility.yul\":13714:13730   */\n      add\n        /* \"#utility.yul\":13679:13744   */\n      tag_131\n      jump\t// in\n    tag_289:\n        /* \"#utility.yul\":13769:13775   */\n      dup1\n        /* \"#utility.yul\":13764:13767   */\n      dup5\n        /* \"#utility.yul\":13760:13776   */\n      add\n        /* \"#utility.yul\":13753:13776   */\n      swap2\n      pop\n        /* \"#utility.yul\":13504:13782   */\n      pop\n        /* \"#utility.yul\":13396:13782   */\n      swap3\n      swap2\n      pop\n      pop\n      jump\t// out\n        /* \"#utility.yul\":13788:14059   */\n    tag_83:\n        /* \"#utility.yul\":13918:13921   */\n      0x00\n        /* \"#utility.yul\":13940:14033   */\n      tag_291\n        /* \"#utility.yul\":14029:14032   */\n      dup3\n        /* \"#utility.yul\":14020:14026   */\n      dup5\n        /* \"#utility.yul\":13940:14033   */\n      tag_144\n      jump\t// in\n    tag_291:\n        /* \"#utility.yul\":13933:14033   */\n      swap2\n      pop\n        /* \"#utility.yul\":14050:14053   */\n      dup2\n        /* \"#utility.yul\":14043:14053   */\n      swap1\n      pop\n        /* \"#utility.yul\":13788:14059   */\n      swap3\n      swap2\n      pop\n      pop\n      jump\t// out\n        /* \"#utility.yul\":14065:14286   */\n    tag_145:\n        /* \"#utility.yul\":14205:14239   */\n      0x41626f7274696e672c2043616c6c20776173206e6f742073756365737366756c\n        /* \"#utility.yul\":14201:14202   */\n      0x00\n        /* \"#utility.yul\":14193:14199   */\n      dup3\n        /* \"#utility.yul\":14189:14203   */\n      add\n        /* \"#utility.yul\":14182:14240   */\n      mstore\n        /* \"#utility.yul\":14274:14278   */\n      0x2121000000000000000000000000000000000000000000000000000000000000\n        /* \"#utility.yul\":14269:14271   */\n      0x20\n        /* \"#utility.yul\":14261:14267   */\n      dup3\n        /* \"#utility.yul\":14257:14272   */\n      add\n        /* \"#utility.yul\":14250:14279   */\n      mstore\n        /* \"#utility.yul\":14065:14286   */\n      pop\n      jump\t// out\n        /* \"#utility.yul\":14292:14658   */\n    tag_146:\n        /* \"#utility.yul\":14434:14437   */\n      0x00\n        /* \"#utility.yul\":14455:14522   */\n      tag_294\n        /* \"#utility.yul\":14519:14521   */\n      0x22\n        /* \"#utility.yul\":14514:14517   */\n      dup4\n        /* \"#utility.yul\":14455:14522   */\n      tag_134\n      jump\t// in\n    tag_294:\n        /* \"#utility.yul\":14448:14522   */\n      swap2\n      pop\n        /* \"#utility.yul\":14531:14624   */\n      tag_295\n        /* \"#utility.yul\":14620:14623   */\n      dup3\n        /* \"#utility.yul\":14531:14624   */\n      tag_145\n      jump\t// in\n    tag_295:\n        /* \"#utility.yul\":14649:14651   */\n      0x40\n        /* \"#utility.yul\":14644:14647   */\n      dup3\n        /* \"#utility.yul\":14640:14652   */\n      add\n        /* \"#utility.yul\":14633:14652   */\n      swap1\n      pop\n        /* \"#utility.yul\":14292:14658   */\n      swap2\n      swap1\n      pop\n      jump\t// out\n        /* \"#utility.yul\":14664:15083   */\n    tag_89:\n        /* \"#utility.yul\":14830:14834   */\n      0x00\n        /* \"#utility.yul\":14868:14870   */\n      0x20\n        /* \"#utility.yul\":14857:14866   */\n      dup3\n        /* \"#utility.yul\":14853:14871   */\n      add\n        /* \"#utility.yul\":14845:14871   */\n      swap1\n      pop\n        /* \"#utility.yul\":14917:14926   */\n      dup2\n        /* \"#utility.yul\":14911:14915   */\n      dup2\n        /* \"#utility.yul\":14907:14927   */\n      sub\n        /* \"#utility.yul\":14903:14904   */\n      0x00\n        /* \"#utility.yul\":14892:14901   */\n      dup4\n        /* \"#utility.yul\":14888:14905   */\n      add\n        /* \"#utility.yul\":14881:14928   */\n      mstore\n        /* \"#utility.yul\":14945:15076   */\n      tag_297\n        /* \"#utility.yul\":15071:15075   */\n      dup2\n        /* \"#utility.yul\":14945:15076   */\n      tag_146\n      jump\t// in\n    tag_297:\n        /* \"#utility.yul\":14937:15076   */\n      swap1\n      pop\n        /* \"#utility.yul\":14664:15083   */\n      swap2\n      swap1\n      pop\n      jump\t// out\n        /* \"#utility.yul\":15089:15315   */\n    tag_147:\n        /* \"#utility.yul\":15229:15263   */\n      0x796f7520617265206e6f742074686520677561726469616e206f662074686973\n        /* \"#utility.yul\":15225:15226   */\n      0x00\n        /* \"#utility.yul\":15217:15223   */\n      dup3\n        /* \"#utility.yul\":15213:15227   */\n      add\n        /* \"#utility.yul\":15206:15264   */\n      mstore\n        /* \"#utility.yul\":15298:15307   */\n      0x2077616c6c657400000000000000000000000000000000000000000000000000\n        /* \"#utility.yul\":15293:15295   */\n      0x20\n        /* \"#utility.yul\":15285:15291   */\n      dup3\n        /* \"#utility.yul\":15281:15296   */\n      add\n        /* \"#utility.yul\":15274:15308   */\n      mstore\n        /* \"#utility.yul\":15089:15315   */\n      pop\n      jump\t// out\n        /* \"#utility.yul\":15321:15687   */\n    tag_148:\n        /* \"#utility.yul\":15463:15466   */\n      0x00\n        /* \"#utility.yul\":15484:15551   */\n      tag_300\n        /* \"#utility.yul\":15548:15550   */\n      0x27\n        /* \"#utility.yul\":15543:15546   */\n      dup4\n        /* \"#utility.yul\":15484:15551   */\n      tag_134\n      jump\t// in\n    tag_300:\n        /* \"#utility.yul\":15477:15551   */\n      swap2\n      pop\n        /* \"#utility.yul\":15560:15653   */\n      tag_301\n        /* \"#utility.yul\":15649:15652   */\n      dup3\n        /* \"#utility.yul\":15560:15653   */\n      tag_147\n      jump\t// in\n    tag_301:\n        /* \"#utility.yul\":15678:15680   */\n      0x40\n        /* \"#utility.yul\":15673:15676   */\n      dup3\n        /* \"#utility.yul\":15669:15681   */\n      add\n        /* \"#utility.yul\":15662:15681   */\n      swap1\n      pop\n        /* \"#utility.yul\":15321:15687   */\n      swap2\n      swap1\n      pop\n      jump\t// out\n        /* \"#utility.yul\":15693:16112   */\n    tag_93:\n        /* \"#utility.yul\":15859:15863   */\n      0x00\n        /* \"#utility.yul\":15897:15899   */\n      0x20\n        /* \"#utility.yul\":15886:15895   */\n      dup3\n        /* \"#utility.yul\":15882:15900   */\n      add\n        /* \"#utility.yul\":15874:15900   */\n      swap1\n      pop\n        /* \"#utility.yul\":15946:15955   */\n      dup2\n        /* \"#utility.yul\":15940:15944   */\n      dup2\n        /* \"#utility.yul\":15936:15956   */\n      sub\n        /* \"#utility.yul\":15932:15933   */\n      0x00\n        /* \"#utility.yul\":15921:15930   */\n      dup4\n        /* \"#utility.yul\":15917:15934   */\n      add\n        /* \"#utility.yul\":15910:15957   */\n      mstore\n        /* \"#utility.yul\":15974:16105   */\n      tag_303\n        /* \"#utility.yul\":16100:16104   */\n      dup2\n        /* \"#utility.yul\":15974:16105   */\n      tag_148\n      jump\t// in\n    tag_303:\n        /* \"#utility.yul\":15966:16105   */\n      swap1\n      pop\n        /* \"#utility.yul\":15693:16112   */\n      swap2\n      swap1\n      pop\n      jump\t// out\n        /* \"#utility.yul\":16118:16297   */\n    tag_149:\n        /* \"#utility.yul\":16258:16289   */\n      0x796f7520616c726561647920766f74656421212c2061626f7274696e67000000\n        /* \"#utility.yul\":16254:16255   */\n      0x00\n        /* \"#utility.yul\":16246:16252   */\n      dup3\n        /* \"#utility.yul\":16242:16256   */\n      add\n        /* \"#utility.yul\":16235:16290   */\n      mstore\n        /* \"#utility.yul\":16118:16297   */\n      pop\n      jump\t// out\n        /* \"#utility.yul\":16303:16669   */\n    tag_150:\n        /* \"#utility.yul\":16445:16448   */\n      0x00\n        /* \"#utility.yul\":16466:16533   */\n      tag_306\n        /* \"#utility.yul\":16530:16532   */\n      0x1d\n        /* \"#utility.yul\":16525:16528   */\n      dup4\n        /* \"#utility.yul\":16466:16533   */\n      tag_134\n      jump\t// in\n    tag_306:\n        /* \"#utility.yul\":16459:16533   */\n      swap2\n      pop\n        /* \"#utility.yul\":16542:16635   */\n      tag_307\n        /* \"#utility.yul\":16631:16634   */\n      dup3\n        /* \"#utility.yul\":16542:16635   */\n      tag_149\n      jump\t// in\n    tag_307:\n        /* \"#utility.yul\":16660:16662   */\n      0x20\n        /* \"#utility.yul\":16655:16658   */\n      dup3\n        /* \"#utility.yul\":16651:16663   */\n      add\n        /* \"#utility.yul\":16644:16663   */\n      swap1\n      pop\n        /* \"#utility.yul\":16303:16669   */\n      swap2\n      swap1\n      pop\n      jump\t// out\n        /* \"#utility.yul\":16675:17094   */\n    tag_96:\n        /* \"#utility.yul\":16841:16845   */\n      0x00\n        /* \"#utility.yul\":16879:16881   */\n      0x20\n        /* \"#utility.yul\":16868:16877   */\n      dup3\n        /* \"#utility.yul\":16864:16882   */\n      add\n        /* \"#utility.yul\":16856:16882   */\n      swap1\n      pop\n        /* \"#utility.yul\":16928:16937   */\n      dup2\n        /* \"#utility.yul\":16922:16926   */\n      dup2\n        /* \"#utility.yul\":16918:16938   */\n      sub\n        /* \"#utility.yul\":16914:16915   */\n      0x00\n        /* \"#utility.yul\":16903:16912   */\n      dup4\n        /* \"#utility.yul\":16899:16916   */\n      add\n        /* \"#utility.yul\":16892:16939   */\n      mstore\n        /* \"#utility.yul\":16956:17087   */\n      tag_309\n        /* \"#utility.yul\":17082:17086   */\n      dup2\n        /* \"#utility.yul\":16956:17087   */\n      tag_150\n      jump\t// in\n    tag_309:\n        /* \"#utility.yul\":16948:17087   */\n      swap1\n      pop\n        /* \"#utility.yul\":16675:17094   */\n      swap2\n      swap1\n      pop\n      jump\t// out\n        /* \"#utility.yul\":17100:17280   */\n    tag_151:\n        /* \"#utility.yul\":17148:17225   */\n      0x4e487b7100000000000000000000000000000000000000000000000000000000\n        /* \"#utility.yul\":17145:17146   */\n      0x00\n        /* \"#utility.yul\":17138:17226   */\n      mstore\n        /* \"#utility.yul\":17245:17249   */\n      0x11\n        /* \"#utility.yul\":17242:17243   */\n      0x04\n        /* \"#utility.yul\":17235:17250   */\n      mstore\n        /* \"#utility.yul\":17269:17273   */\n      0x24\n        /* \"#utility.yul\":17266:17267   */\n      0x00\n        /* \"#utility.yul\":17259:17274   */\n      revert\n        /* \"#utility.yul\":17286:17477   */\n    tag_99:\n        /* \"#utility.yul\":17326:17329   */\n      0x00\n        /* \"#utility.yul\":17345:17365   */\n      tag_312\n        /* \"#utility.yul\":17363:17364   */\n      dup3\n        /* \"#utility.yul\":17345:17365   */\n      tag_112\n      jump\t// in\n    tag_312:\n        /* \"#utility.yul\":17340:17365   */\n      swap2\n      pop\n        /* \"#utility.yul\":17379:17399   */\n      tag_313\n        /* \"#utility.yul\":17397:17398   */\n      dup4\n        /* \"#utility.yul\":17379:17399   */\n      tag_112\n      jump\t// in\n    tag_313:\n        /* \"#utility.yul\":17374:17399   */\n      swap3\n      pop\n        /* \"#utility.yul\":17422:17423   */\n      dup3\n        /* \"#utility.yul\":17419:17420   */\n      dup3\n        /* \"#utility.yul\":17415:17424   */\n      add\n        /* \"#utility.yul\":17408:17424   */\n      swap1\n      pop\n        /* \"#utility.yul\":17443:17446   */\n      dup1\n        /* \"#utility.yul\":17440:17441   */\n      dup3\n        /* \"#utility.yul\":17437:17447   */\n      gt\n        /* \"#utility.yul\":17434:17470   */\n      iszero\n      tag_314\n      jumpi\n        /* \"#utility.yul\":17450:17468   */\n      tag_315\n      tag_151\n      jump\t// in\n    tag_315:\n        /* \"#utility.yul\":17434:17470   */\n    tag_314:\n        /* \"#utility.yul\":17286:17477   */\n      swap3\n      swap2\n      pop\n      pop\n      jump\t// out\n\n    auxdata: 0xa2646970667358221220c6f0815bdc4bb723f33dec09d9dcd37edbc051067f091f2f1945b6250780724964736f6c63430008100033\n}\n",
				"bytecode": {
					"linkReferences": {},
					"object": "608060405234801561001057600080fd5b50336000806101000a81548173ffffffffffffffffffffffffffffffffffffffff021916908373ffffffffffffffffffffffffffffffffffffffff1602179055506113bc806100606000396000f3fe60806040526004361061008a5760003560e01c80638da5cb5b116100595780638da5cb5b146101625780639b0e5b851461018d578063aef46244146101ca578063de82d38014610207578063eb3757771461023057610091565b80630633b14a1461009657806310adb123146100d35780632021e808146100fc57806335a06f0a1461012557610091565b3661009157005b600080fd5b3480156100a257600080fd5b506100bd60048036038101906100b89190610ab3565b61025b565b6040516100ca9190610afb565b60405180910390f35b3480156100df57600080fd5b506100fa60048036038101906100f59190610b42565b61027b565b005b34801561010857600080fd5b50610123600480360381019061011e9190610bb8565b610364565b005b34801561013157600080fd5b5061014c60048036038101906101479190610ab3565b6104f9565b6040516101599190610afb565b60405180910390f35b34801561016e57600080fd5b50610177610519565b6040516101849190610c19565b60405180910390f35b34801561019957600080fd5b506101b460048036038101906101af9190610da6565b61053d565b6040516101c19190610e94565b60405180910390f35b3480156101d657600080fd5b506101f160048036038101906101ec9190610ab3565b61075d565b6040516101fe9190610ec5565b60405180910390f35b34801561021357600080fd5b5061022e60048036038101906102299190610ee0565b610775565b005b34801561023c57600080fd5b50610245610a3c565b6040516102529190610ec5565b60405180910390f35b60036020528060005260406000206000915054906101000a900460ff1681565b60008054906101000a900473ffffffffffffffffffffffffffffffffffffffff1673ffffffffffffffffffffffffffffffffffffffff163373ffffffffffffffffffffffffffffffffffffffff1614610309576040517f08c379a000000000000000000000000000000000000000000000000000000000815260040161030090610f6a565b60405180910390fd5b80600360008473ffffffffffffffffffffffffffffffffffffffff1673ffffffffffffffffffffffffffffffffffffffff16815260200190815260200160002060006101000a81548160ff0219169083151502179055505050565b60008054906101000a900473ffffffffffffffffffffffffffffffffffffffff1673ffffffffffffffffffffffffffffffffffffffff163373ffffffffffffffffffffffffffffffffffffffff16146103f2576040517f08c379a00000000000000000000000000000000000000000000000000000000081526004016103e990610fd6565b60405180910390fd5b80600160003373ffffffffffffffffffffffffffffffffffffffff1673ffffffffffffffffffffffffffffffffffffffff16815260200190815260200160002081905550600081111561049c576001600260008473ffffffffffffffffffffffffffffffffffffffff1673ffffffffffffffffffffffffffffffffffffffff16815260200190815260200160002060006101000a81548160ff0219169083151502179055506104f5565b6000600260008473ffffffffffffffffffffffffffffffffffffffff1673ffffffffffffffffffffffffffffffffffffffff16815260200190815260200160002060006101000a81548160ff0219169083151502179055505b5050565b60026020528060005260406000206000915054906101000a900460ff1681565b60008054906101000a900473ffffffffffffffffffffffffffffffffffffffff1681565b606060008054906101000a900473ffffffffffffffffffffffffffffffffffffffff1673ffffffffffffffffffffffffffffffffffffffff163373ffffffffffffffffffffffffffffffffffffffff16146106a157600260003373ffffffffffffffffffffffffffffffffffffffff1673ffffffffffffffffffffffffffffffffffffffff16815260200190815260200160002060009054906101000a900460ff1661061e576040517f08c379a00000000000000000000000000000000000000000000000000000000081526004016106159061108e565b60405180910390fd5b82600160003373ffffffffffffffffffffffffffffffffffffffff1673ffffffffffffffffffffffffffffffffffffffff1681526020019081526020016000205410156106a0576040517f08c379a000000000000000000000000000000000000000000000000000000000815260040161069790611120565b60405180910390fd5b5b6000808573ffffffffffffffffffffffffffffffffffffffff1685856040516106ca919061117c565b60006040518083038185875af1925050503d8060008114610707576040519150601f19603f3d011682016040523d82523d6000602084013e61070c565b606091505b509150915081610751576040517f08c379a000000000000000000000000000000000000000000000000000000000815260040161074890611205565b60405180910390fd5b80925050509392505050565b60016020528060005260406000206000915090505481565b600360003373ffffffffffffffffffffffffffffffffffffffff1673ffffffffffffffffffffffffffffffffffffffff16815260200190815260200160002060009054906101000a900460ff16610801576040517f08c379a00000000000000000000000000000000000000000000000000000000081526004016107f890611297565b60405180910390fd5b60001515600560008373ffffffffffffffffffffffffffffffffffffffff1673ffffffffffffffffffffffffffffffffffffffff16815260200190815260200160002060003373ffffffffffffffffffffffffffffffffffffffff1673ffffffffffffffffffffffffffffffffffffffff16815260200190815260200160002060009054906101000a900460ff161515146108d1576040517f08c379a00000000000000000000000000000000000000000000000000000000081526004016108c890611303565b60405180910390fd5b600460009054906101000a900473ffffffffffffffffffffffffffffffffffffffff1673ffffffffffffffffffffffffffffffffffffffff168173ffffffffffffffffffffffffffffffffffffffff16146109705780600460006101000a81548173ffffffffffffffffffffffffffffffffffffffff021916908373ffffffffffffffffffffffffffffffffffffffff16021790555060006006819055505b6001600660008282546109839190611352565b92505081905550600360065410610a3957600460009054906101000a900473ffffffffffffffffffffffffffffffffffffffff166000806101000a81548173ffffffffffffffffffffffffffffffffffffffff021916908373ffffffffffffffffffffffffffffffffffffffff1602179055506000600460006101000a81548173ffffffffffffffffffffffffffffffffffffffff021916908373ffffffffffffffffffffffffffffffffffffffff1602179055505b50565b600381565b6000604051905090565b600080fd5b600080fd5b600073ffffffffffffffffffffffffffffffffffffffff82169050919050565b6000610a8082610a55565b9050919050565b610a9081610a75565b8114610a9b57600080fd5b50565b600081359050610aad81610a87565b92915050565b600060208284031215610ac957610ac8610a4b565b5b6000610ad784828501610a9e565b91505092915050565b60008115159050919050565b610af581610ae0565b82525050565b6000602082019050610b106000830184610aec565b92915050565b610b1f81610ae0565b8114610b2a57600080fd5b50565b600081359050610b3c81610b16565b92915050565b60008060408385031215610b5957610b58610a4b565b5b6000610b6785828601610a9e565b9250506020610b7885828601610b2d565b9150509250929050565b6000819050919050565b610b9581610b82565b8114610ba057600080fd5b50565b600081359050610bb281610b8c565b92915050565b60008060408385031215610bcf57610bce610a4b565b5b6000610bdd85828601610a9e565b9250506020610bee85828601610ba3565b9150509250929050565b6000610c0382610a55565b9050919050565b610c1381610bf8565b82525050565b6000602082019050610c2e6000830184610c0a565b92915050565b610c3d81610bf8565b8114610c4857600080fd5b50565b600081359050610c5a81610c34565b92915050565b600080fd5b600080fd5b6000601f19601f8301169050919050565b7f4e487b7100000000000000000000000000000000000000000000000000000000600052604160045260246000fd5b610cb382610c6a565b810181811067ffffffffffffffff82111715610cd257610cd1610c7b565b5b80604052505050565b6000610ce5610a41565b9050610cf18282610caa565b919050565b600067ffffffffffffffff821115610d1157610d10610c7b565b5b610d1a82610c6a565b9050602081019050919050565b82818337600083830152505050565b6000610d49610d4484610cf6565b610cdb565b905082815260208101848484011115610d6557610d64610c65565b5b610d70848285610d27565b509392505050565b600082601f830112610d8d57610d8c610c60565b5b8135610d9d848260208601610d36565b91505092915050565b600080600060608486031215610dbf57610dbe610a4b565b5b6000610dcd86828701610c4b565b9350506020610dde86828701610ba3565b925050604084013567ffffffffffffffff811115610dff57610dfe610a50565b5b610e0b86828701610d78565b9150509250925092565b600081519050919050565b600082825260208201905092915050565b60005b83811015610e4f578082015181840152602081019050610e34565b60008484015250505050565b6000610e6682610e15565b610e708185610e20565b9350610e80818560208601610e31565b610e8981610c6a565b840191505092915050565b60006020820190508181036000830152610eae8184610e5b565b905092915050565b610ebf81610b82565b82525050565b6000602082019050610eda6000830184610eb6565b92915050565b600060208284031215610ef657610ef5610a4b565b5b6000610f0484828501610c4b565b91505092915050565b600082825260208201905092915050565b7f796f752061726520746865206f776e657221212c61626f7274696e6700000000600082015250565b6000610f54601c83610f0d565b9150610f5f82610f1e565b602082019050919050565b60006020820190508181036000830152610f8381610f47565b9050919050565b7f796f7520617265206e6f7420746865206f776e657221212c61626f7274696e67600082015250565b6000610fc0602083610f0d565b9150610fcb82610f8a565b602082019050919050565b60006020820190508181036000830152610fef81610fb3565b9050919050565b7f796f7520617265206e6f7420616c6c6f77656420746f2073656e6420616e797460008201527f68696e672066726f6d207468697320736d61727420636f6e7472616374212c6160208201527f626f7274696e6721000000000000000000000000000000000000000000000000604082015250565b6000611078604883610f0d565b915061108382610ff6565b606082019050919050565b600060208201905081810360008301526110a78161106b565b9050919050565b7f43616e6e6f742061626c6520746f2073656e64206d6f726520616d6f756e742060008201527f7468616e207468652077616c6c65742062616c656e6365212100000000000000602082015250565b600061110a603983610f0d565b9150611115826110ae565b604082019050919050565b60006020820190508181036000830152611139816110fd565b9050919050565b600081905092915050565b600061115682610e15565b6111608185611140565b9350611170818560208601610e31565b80840191505092915050565b6000611188828461114b565b915081905092915050565b7f41626f7274696e672c2043616c6c20776173206e6f742073756365737366756c60008201527f2121000000000000000000000000000000000000000000000000000000000000602082015250565b60006111ef602283610f0d565b91506111fa82611193565b604082019050919050565b6000602082019050818103600083015261121e816111e2565b9050919050565b7f796f7520617265206e6f742074686520677561726469616e206f66207468697360008201527f2077616c6c657400000000000000000000000000000000000000000000000000602082015250565b6000611281602783610f0d565b915061128c82611225565b604082019050919050565b600060208201905081810360008301526112b081611274565b9050919050565b7f796f7520616c726561647920766f74656421212c2061626f7274696e67000000600082015250565b60006112ed601d83610f0d565b91506112f8826112b7565b602082019050919050565b6000602082019050818103600083015261131c816112e0565b9050919050565b7f4e487b7100000000000000000000000000000000000000000000000000000000600052601160045260246000fd5b600061135d82610b82565b915061136883610b82565b92508282019050808211156113805761137f611323565b5b9291505056fea2646970667358221220c6f0815bdc4bb723f33dec09d9dcd37edbc051067f091f2f1945b6250780724964736f6c63430008100033",
					"opcodes": "PUSH1 0x80 PUSH1 0x40 MSTORE CALLVALUE DUP1 ISZERO PUSH2 0x10 JUMPI PUSH1 0x0 DUP1 REVERT JUMPDEST POP CALLER PUSH1 0x0 DUP1 PUSH2 0x100 EXP DUP2 SLOAD DUP2 PUSH20 0xFFFFFFFFFFFFFFFFFFFFFFFFFFFFFFFFFFFFFFFF MUL NOT AND SWAP1 DUP4 PUSH20 0xFFFFFFFFFFFFFFFFFFFFFFFFFFFFFFFFFFFFFFFF AND MUL OR SWAP1 SSTORE POP PUSH2 0x13BC DUP1 PUSH2 0x60 PUSH1 0x0 CODECOPY PUSH1 0x0 RETURN INVALID PUSH1 0x80 PUSH1 0x40 MSTORE PUSH1 0x4 CALLDATASIZE LT PUSH2 0x8A JUMPI PUSH1 0x0 CALLDATALOAD PUSH1 0xE0 SHR DUP1 PUSH4 0x8DA5CB5B GT PUSH2 0x59 JUMPI DUP1 PUSH4 0x8DA5CB5B EQ PUSH2 0x162 JUMPI DUP1 PUSH4 0x9B0E5B85 EQ PUSH2 0x18D JUMPI DUP1 PUSH4 0xAEF46244 EQ PUSH2 0x1CA JUMPI DUP1 PUSH4 0xDE82D380 EQ PUSH2 0x207 JUMPI DUP1 PUSH4 0xEB375777 EQ PUSH2 0x230 JUMPI PUSH2 0x91 JUMP JUMPDEST DUP1 PUSH4 0x633B14A EQ PUSH2 0x96 JUMPI DUP1 PUSH4 0x10ADB123 EQ PUSH2 0xD3 JUMPI DUP1 PUSH4 0x2021E808 EQ PUSH2 0xFC JUMPI DUP1 PUSH4 0x35A06F0A EQ PUSH2 0x125 JUMPI PUSH2 0x91 JUMP JUMPDEST CALLDATASIZE PUSH2 0x91 JUMPI STOP JUMPDEST PUSH1 0x0 DUP1 REVERT JUMPDEST CALLVALUE DUP1 ISZERO PUSH2 0xA2 JUMPI PUSH1 0x0 DUP1 REVERT JUMPDEST POP PUSH2 0xBD PUSH1 0x4 DUP1 CALLDATASIZE SUB DUP2 ADD SWAP1 PUSH2 0xB8 SWAP2 SWAP1 PUSH2 0xAB3 JUMP JUMPDEST PUSH2 0x25B JUMP JUMPDEST PUSH1 0x40 MLOAD PUSH2 0xCA SWAP2 SWAP1 PUSH2 0xAFB JUMP JUMPDEST PUSH1 0x40 MLOAD DUP1 SWAP2 SUB SWAP1 RETURN JUMPDEST CALLVALUE DUP1 ISZERO PUSH2 0xDF JUMPI PUSH1 0x0 DUP1 REVERT JUMPDEST POP PUSH2 0xFA PUSH1 0x4 DUP1 CALLDATASIZE SUB DUP2 ADD SWAP1 PUSH2 0xF5 SWAP2 SWAP1 PUSH2 0xB42 JUMP JUMPDEST PUSH2 0x27B JUMP JUMPDEST STOP JUMPDEST CALLVALUE DUP1 ISZERO PUSH2 0x108 JUMPI PUSH1 0x0 DUP1 REVERT JUMPDEST POP PUSH2 0x123 PUSH1 0x4 DUP1 CALLDATASIZE SUB DUP2 ADD SWAP1 PUSH2 0x11E SWAP2 SWAP1 PUSH2 0xBB8 JUMP JUMPDEST PUSH2 0x364 JUMP JUMPDEST STOP JUMPDEST CALLVALUE DUP1 ISZERO PUSH2 0x131 JUMPI PUSH1 0x0 DUP1 REVERT JUMPDEST POP PUSH2 0x14C PUSH1 0x4 DUP1 CALLDATASIZE SUB DUP2 ADD SWAP1 PUSH2 0x147 SWAP2 SWAP1 PUSH2 0xAB3 JUMP JUMPDEST PUSH2 0x4F9 JUMP JUMPDEST PUSH1 0x40 MLOAD PUSH2 0x159 SWAP2 SWAP1 PUSH2 0xAFB JUMP JUMPDEST PUSH1 0x40 MLOAD DUP1 SWAP2 SUB SWAP1 RETURN JUMPDEST CALLVALUE DUP1 ISZERO PUSH2 0x16E JUMPI PUSH1 0x0 DUP1 REVERT JUMPDEST POP PUSH2 0x177 PUSH2 0x519 JUMP JUMPDEST PUSH1 0x40 MLOAD PUSH2 0x184 SWAP2 SWAP1 PUSH2 0xC19 JUMP JUMPDEST PUSH1 0x40 MLOAD DUP1 SWAP2 SUB SWAP1 RETURN JUMPDEST CALLVALUE DUP1 ISZERO PUSH2 0x199 JUMPI PUSH1 0x0 DUP1 REVERT JUMPDEST POP PUSH2 0x1B4 PUSH1 0x4 DUP1 CALLDATASIZE SUB DUP2 ADD SWAP1 PUSH2 0x1AF SWAP2 SWAP1 PUSH2 0xDA6 JUMP JUMPDEST PUSH2 0x53D JUMP JUMPDEST PUSH1 0x40 MLOAD PUSH2 0x1C1 SWAP2 SWAP1 PUSH2 0xE94 JUMP JUMPDEST PUSH1 0x40 MLOAD DUP1 SWAP2 SUB SWAP1 RETURN JUMPDEST CALLVALUE DUP1 ISZERO PUSH2 0x1D6 JUMPI PUSH1 0x0 DUP1 REVERT JUMPDEST POP PUSH2 0x1F1 PUSH1 0x4 DUP1 CALLDATASIZE SUB DUP2 ADD SWAP1 PUSH2 0x1EC SWAP2 SWAP1 PUSH2 0xAB3 JUMP JUMPDEST PUSH2 0x75D JUMP JUMPDEST PUSH1 0x40 MLOAD PUSH2 0x1FE SWAP2 SWAP1 PUSH2 0xEC5 JUMP JUMPDEST PUSH1 0x40 MLOAD DUP1 SWAP2 SUB SWAP1 RETURN JUMPDEST CALLVALUE DUP1 ISZERO PUSH2 0x213 JUMPI PUSH1 0x0 DUP1 REVERT JUMPDEST POP PUSH2 0x22E PUSH1 0x4 DUP1 CALLDATASIZE SUB DUP2 ADD SWAP1 PUSH2 0x229 SWAP2 SWAP1 PUSH2 0xEE0 JUMP JUMPDEST PUSH2 0x775 JUMP JUMPDEST STOP JUMPDEST CALLVALUE DUP1 ISZERO PUSH2 0x23C JUMPI PUSH1 0x0 DUP1 REVERT JUMPDEST POP PUSH2 0x245 PUSH2 0xA3C JUMP JUMPDEST PUSH1 0x40 MLOAD PUSH2 0x252 SWAP2 SWAP1 PUSH2 0xEC5 JUMP JUMPDEST PUSH1 0x40 MLOAD DUP1 SWAP2 SUB SWAP1 RETURN JUMPDEST PUSH1 0x3 PUSH1 0x20 MSTORE DUP1 PUSH1 0x0 MSTORE PUSH1 0x40 PUSH1 0x0 KECCAK256 PUSH1 0x0 SWAP2 POP SLOAD SWAP1 PUSH2 0x100 EXP SWAP1 DIV PUSH1 0xFF AND DUP2 JUMP JUMPDEST PUSH1 0x0 DUP1 SLOAD SWAP1 PUSH2 0x100 EXP SWAP1 DIV PUSH20 0xFFFFFFFFFFFFFFFFFFFFFFFFFFFFFFFFFFFFFFFF AND PUSH20 0xFFFFFFFFFFFFFFFFFFFFFFFFFFFFFFFFFFFFFFFF AND CALLER PUSH20 0xFFFFFFFFFFFFFFFFFFFFFFFFFFFFFFFFFFFFFFFF AND EQ PUSH2 0x309 JUMPI PUSH1 0x40 MLOAD PUSH32 0x8C379A000000000000000000000000000000000000000000000000000000000 DUP2 MSTORE PUSH1 0x4 ADD PUSH2 0x300 SWAP1 PUSH2 0xF6A JUMP JUMPDEST PUSH1 0x40 MLOAD DUP1 SWAP2 SUB SWAP1 REVERT JUMPDEST DUP1 PUSH1 0x3 PUSH1 0x0 DUP5 PUSH20 0xFFFFFFFFFFFFFFFFFFFFFFFFFFFFFFFFFFFFFFFF AND PUSH20 0xFFFFFFFFFFFFFFFFFFFFFFFFFFFFFFFFFFFFFFFF AND DUP2 MSTORE PUSH1 0x20 ADD SWAP1 DUP2 MSTORE PUSH1 0x20 ADD PUSH1 0x0 KECCAK256 PUSH1 0x0 PUSH2 0x100 EXP DUP2 SLOAD DUP2 PUSH1 0xFF MUL NOT AND SWAP1 DUP4 ISZERO ISZERO MUL OR SWAP1 SSTORE POP POP POP JUMP JUMPDEST PUSH1 0x0 DUP1 SLOAD SWAP1 PUSH2 0x100 EXP SWAP1 DIV PUSH20 0xFFFFFFFFFFFFFFFFFFFFFFFFFFFFFFFFFFFFFFFF AND PUSH20 0xFFFFFFFFFFFFFFFFFFFFFFFFFFFFFFFFFFFFFFFF AND CALLER PUSH20 0xFFFFFFFFFFFFFFFFFFFFFFFFFFFFFFFFFFFFFFFF AND EQ PUSH2 0x3F2 JUMPI PUSH1 0x40 MLOAD PUSH32 0x8C379A000000000000000000000000000000000000000000000000000000000 DUP2 MSTORE PUSH1 0x4 ADD PUSH2 0x3E9 SWAP1 PUSH2 0xFD6 JUMP JUMPDEST PUSH1 0x40 MLOAD DUP1 SWAP2 SUB SWAP1 REVERT JUMPDEST DUP1 PUSH1 0x1 PUSH1 0x0 CALLER PUSH20 0xFFFFFFFFFFFFFFFFFFFFFFFFFFFFFFFFFFFFFFFF AND PUSH20 0xFFFFFFFFFFFFFFFFFFFFFFFFFFFFFFFFFFFFFFFF AND DUP2 MSTORE PUSH1 0x20 ADD SWAP1 DUP2 MSTORE PUSH1 0x20 ADD PUSH1 0x0 KECCAK256 DUP2 SWAP1 SSTORE POP PUSH1 0x0 DUP2 GT ISZERO PUSH2 0x49C JUMPI PUSH1 0x1 PUSH1 0x2 PUSH1 0x0 DUP5 PUSH20 0xFFFFFFFFFFFFFFFFFFFFFFFFFFFFFFFFFFFFFFFF AND PUSH20 0xFFFFFFFFFFFFFFFFFFFFFFFFFFFFFFFFFFFFFFFF AND DUP2 MSTORE PUSH1 0x20 ADD SWAP1 DUP2 MSTORE PUSH1 0x20 ADD PUSH1 0x0 KECCAK256 PUSH1 0x0 PUSH2 0x100 EXP DUP2 SLOAD DUP2 PUSH1 0xFF MUL NOT AND SWAP1 DUP4 ISZERO ISZERO MUL OR SWAP1 SSTORE POP PUSH2 0x4F5 JUMP JUMPDEST PUSH1 0x0 PUSH1 0x2 PUSH1 0x0 DUP5 PUSH20 0xFFFFFFFFFFFFFFFFFFFFFFFFFFFFFFFFFFFFFFFF AND PUSH20 0xFFFFFFFFFFFFFFFFFFFFFFFFFFFFFFFFFFFFFFFF AND DUP2 MSTORE PUSH1 0x20 ADD SWAP1 DUP2 MSTORE PUSH1 0x20 ADD PUSH1 0x0 KECCAK256 PUSH1 0x0 PUSH2 0x100 EXP DUP2 SLOAD DUP2 PUSH1 0xFF MUL NOT AND SWAP1 DUP4 ISZERO ISZERO MUL OR SWAP1 SSTORE POP JUMPDEST POP POP JUMP JUMPDEST PUSH1 0x2 PUSH1 0x20 MSTORE DUP1 PUSH1 0x0 MSTORE PUSH1 0x40 PUSH1 0x0 KECCAK256 PUSH1 0x0 SWAP2 POP SLOAD SWAP1 PUSH2 0x100 EXP SWAP1 DIV PUSH1 0xFF AND DUP2 JUMP JUMPDEST PUSH1 0x0 DUP1 SLOAD SWAP1 PUSH2 0x100 EXP SWAP1 DIV PUSH20 0xFFFFFFFFFFFFFFFFFFFFFFFFFFFFFFFFFFFFFFFF AND DUP2 JUMP JUMPDEST PUSH1 0x60 PUSH1 0x0 DUP1 SLOAD SWAP1 PUSH2 0x100 EXP SWAP1 DIV PUSH20 0xFFFFFFFFFFFFFFFFFFFFFFFFFFFFFFFFFFFFFFFF AND PUSH20 0xFFFFFFFFFFFFFFFFFFFFFFFFFFFFFFFFFFFFFFFF AND CALLER PUSH20 0xFFFFFFFFFFFFFFFFFFFFFFFFFFFFFFFFFFFFFFFF AND EQ PUSH2 0x6A1 JUMPI PUSH1 0x2 PUSH1 0x0 CALLER PUSH20 0xFFFFFFFFFFFFFFFFFFFFFFFFFFFFFFFFFFFFFFFF AND PUSH20 0xFFFFFFFFFFFFFFFFFFFFFFFFFFFFFFFFFFFFFFFF AND DUP2 MSTORE PUSH1 0x20 ADD SWAP1 DUP2 MSTORE PUSH1 0x20 ADD PUSH1 0x0 KECCAK256 PUSH1 0x0 SWAP1 SLOAD SWAP1 PUSH2 0x100 EXP SWAP1 DIV PUSH1 0xFF AND PUSH2 0x61E JUMPI PUSH1 0x40 MLOAD PUSH32 0x8C379A000000000000000000000000000000000000000000000000000000000 DUP2 MSTORE PUSH1 0x4 ADD PUSH2 0x615 SWAP1 PUSH2 0x108E JUMP JUMPDEST PUSH1 0x40 MLOAD DUP1 SWAP2 SUB SWAP1 REVERT JUMPDEST DUP3 PUSH1 0x1 PUSH1 0x0 CALLER PUSH20 0xFFFFFFFFFFFFFFFFFFFFFFFFFFFFFFFFFFFFFFFF AND PUSH20 0xFFFFFFFFFFFFFFFFFFFFFFFFFFFFFFFFFFFFFFFF AND DUP2 MSTORE PUSH1 0x20 ADD SWAP1 DUP2 MSTORE PUSH1 0x20 ADD PUSH1 0x0 KECCAK256 SLOAD LT ISZERO PUSH2 0x6A0 JUMPI PUSH1 0x40 MLOAD PUSH32 0x8C379A000000000000000000000000000000000000000000000000000000000 DUP2 MSTORE PUSH1 0x4 ADD PUSH2 0x697 SWAP1 PUSH2 0x1120 JUMP JUMPDEST PUSH1 0x40 MLOAD DUP1 SWAP2 SUB SWAP1 REVERT JUMPDEST JUMPDEST PUSH1 0x0 DUP1 DUP6 PUSH20 0xFFFFFFFFFFFFFFFFFFFFFFFFFFFFFFFFFFFFFFFF AND DUP6 DUP6 PUSH1 0x40 MLOAD PUSH2 0x6CA SWAP2 SWAP1 PUSH2 0x117C JUMP JUMPDEST PUSH1 0x0 PUSH1 0x40 MLOAD DUP1 DUP4 SUB DUP2 DUP6 DUP8 GAS CALL SWAP3 POP POP POP RETURNDATASIZE DUP1 PUSH1 0x0 DUP2 EQ PUSH2 0x707 JUMPI PUSH1 0x40 MLOAD SWAP2 POP PUSH1 0x1F NOT PUSH1 0x3F RETURNDATASIZE ADD AND DUP3 ADD PUSH1 0x40 MSTORE RETURNDATASIZE DUP3 MSTORE RETURNDATASIZE PUSH1 0x0 PUSH1 0x20 DUP5 ADD RETURNDATACOPY PUSH2 0x70C JUMP JUMPDEST PUSH1 0x60 SWAP2 POP JUMPDEST POP SWAP2 POP SWAP2 POP DUP2 PUSH2 0x751 JUMPI PUSH1 0x40 MLOAD PUSH32 0x8C379A000000000000000000000000000000000000000000000000000000000 DUP2 MSTORE PUSH1 0x4 ADD PUSH2 0x748 SWAP1 PUSH2 0x1205 JUMP JUMPDEST PUSH1 0x40 MLOAD DUP1 SWAP2 SUB SWAP1 REVERT JUMPDEST DUP1 SWAP3 POP POP POP SWAP4 SWAP3 POP POP POP JUMP JUMPDEST PUSH1 0x1 PUSH1 0x20 MSTORE DUP1 PUSH1 0x0 MSTORE PUSH1 0x40 PUSH1 0x0 KECCAK256 PUSH1 0x0 SWAP2 POP SWAP1 POP SLOAD DUP2 JUMP JUMPDEST PUSH1 0x3 PUSH1 0x0 CALLER PUSH20 0xFFFFFFFFFFFFFFFFFFFFFFFFFFFFFFFFFFFFFFFF AND PUSH20 0xFFFFFFFFFFFFFFFFFFFFFFFFFFFFFFFFFFFFFFFF AND DUP2 MSTORE PUSH1 0x20 ADD SWAP1 DUP2 MSTORE PUSH1 0x20 ADD PUSH1 0x0 KECCAK256 PUSH1 0x0 SWAP1 SLOAD SWAP1 PUSH2 0x100 EXP SWAP1 DIV PUSH1 0xFF AND PUSH2 0x801 JUMPI PUSH1 0x40 MLOAD PUSH32 0x8C379A000000000000000000000000000000000000000000000000000000000 DUP2 MSTORE PUSH1 0x4 ADD PUSH2 0x7F8 SWAP1 PUSH2 0x1297 JUMP JUMPDEST PUSH1 0x40 MLOAD DUP1 SWAP2 SUB SWAP1 REVERT JUMPDEST PUSH1 0x0 ISZERO ISZERO PUSH1 0x5 PUSH1 0x0 DUP4 PUSH20 0xFFFFFFFFFFFFFFFFFFFFFFFFFFFFFFFFFFFFFFFF AND PUSH20 0xFFFFFFFFFFFFFFFFFFFFFFFFFFFFFFFFFFFFFFFF AND DUP2 MSTORE PUSH1 0x20 ADD SWAP1 DUP2 MSTORE PUSH1 0x20 ADD PUSH1 0x0 KECCAK256 PUSH1 0x0 CALLER PUSH20 0xFFFFFFFFFFFFFFFFFFFFFFFFFFFFFFFFFFFFFFFF AND PUSH20 0xFFFFFFFFFFFFFFFFFFFFFFFFFFFFFFFFFFFFFFFF AND DUP2 MSTORE PUSH1 0x20 ADD SWAP1 DUP2 MSTORE PUSH1 0x20 ADD PUSH1 0x0 KECCAK256 PUSH1 0x0 SWAP1 SLOAD SWAP1 PUSH2 0x100 EXP SWAP1 DIV PUSH1 0xFF AND ISZERO ISZERO EQ PUSH2 0x8D1 JUMPI PUSH1 0x40 MLOAD PUSH32 0x8C379A000000000000000000000000000000000000000000000000000000000 DUP2 MSTORE PUSH1 0x4 ADD PUSH2 0x8C8 SWAP1 PUSH2 0x1303 JUMP JUMPDEST PUSH1 0x40 MLOAD DUP1 SWAP2 SUB SWAP1 REVERT JUMPDEST PUSH1 0x4 PUSH1 0x0 SWAP1 SLOAD SWAP1 PUSH2 0x100 EXP SWAP1 DIV PUSH20 0xFFFFFFFFFFFFFFFFFFFFFFFFFFFFFFFFFFFFFFFF AND PUSH20 0xFFFFFFFFFFFFFFFFFFFFFFFFFFFFFFFFFFFFFFFF AND DUP2 PUSH20 0xFFFFFFFFFFFFFFFFFFFFFFFFFFFFFFFFFFFFFFFF AND EQ PUSH2 0x970 JUMPI DUP1 PUSH1 0x4 PUSH1 0x0 PUSH2 0x100 EXP DUP2 SLOAD DUP2 PUSH20 0xFFFFFFFFFFFFFFFFFFFFFFFFFFFFFFFFFFFFFFFF MUL NOT AND SWAP1 DUP4 PUSH20 0xFFFFFFFFFFFFFFFFFFFFFFFFFFFFFFFFFFFFFFFF AND MUL OR SWAP1 SSTORE POP PUSH1 0x0 PUSH1 0x6 DUP2 SWAP1 SSTORE POP JUMPDEST PUSH1 0x1 PUSH1 0x6 PUSH1 0x0 DUP3 DUP3 SLOAD PUSH2 0x983 SWAP2 SWAP1 PUSH2 0x1352 JUMP JUMPDEST SWAP3 POP POP DUP2 SWAP1 SSTORE POP PUSH1 0x3 PUSH1 0x6 SLOAD LT PUSH2 0xA39 JUMPI PUSH1 0x4 PUSH1 0x0 SWAP1 SLOAD SWAP1 PUSH2 0x100 EXP SWAP1 DIV PUSH20 0xFFFFFFFFFFFFFFFFFFFFFFFFFFFFFFFFFFFFFFFF AND PUSH1 0x0 DUP1 PUSH2 0x100 EXP DUP2 SLOAD DUP2 PUSH20 0xFFFFFFFFFFFFFFFFFFFFFFFFFFFFFFFFFFFFFFFF MUL NOT AND SWAP1 DUP4 PUSH20 0xFFFFFFFFFFFFFFFFFFFFFFFFFFFFFFFFFFFFFFFF AND MUL OR SWAP1 SSTORE POP PUSH1 0x0 PUSH1 0x4 PUSH1 0x0 PUSH2 0x100 EXP DUP2 SLOAD DUP2 PUSH20 0xFFFFFFFFFFFFFFFFFFFFFFFFFFFFFFFFFFFFFFFF MUL NOT AND SWAP1 DUP4 PUSH20 0xFFFFFFFFFFFFFFFFFFFFFFFFFFFFFFFFFFFFFFFF AND MUL OR SWAP1 SSTORE POP JUMPDEST POP JUMP JUMPDEST PUSH1 0x3 DUP2 JUMP JUMPDEST PUSH1 0x0 PUSH1 0x40 MLOAD SWAP1 POP SWAP1 JUMP JUMPDEST PUSH1 0x0 DUP1 REVERT JUMPDEST PUSH1 0x0 DUP1 REVERT JUMPDEST PUSH1 0x0 PUSH20 0xFFFFFFFFFFFFFFFFFFFFFFFFFFFFFFFFFFFFFFFF DUP3 AND SWAP1 POP SWAP2 SWAP1 POP JUMP JUMPDEST PUSH1 0x0 PUSH2 0xA80 DUP3 PUSH2 0xA55 JUMP JUMPDEST SWAP1 POP SWAP2 SWAP1 POP JUMP JUMPDEST PUSH2 0xA90 DUP2 PUSH2 0xA75 JUMP JUMPDEST DUP2 EQ PUSH2 0xA9B JUMPI PUSH1 0x0 DUP1 REVERT JUMPDEST POP JUMP JUMPDEST PUSH1 0x0 DUP2 CALLDATALOAD SWAP1 POP PUSH2 0xAAD DUP2 PUSH2 0xA87 JUMP JUMPDEST SWAP3 SWAP2 POP POP JUMP JUMPDEST PUSH1 0x0 PUSH1 0x20 DUP3 DUP5 SUB SLT ISZERO PUSH2 0xAC9 JUMPI PUSH2 0xAC8 PUSH2 0xA4B JUMP JUMPDEST JUMPDEST PUSH1 0x0 PUSH2 0xAD7 DUP5 DUP3 DUP6 ADD PUSH2 0xA9E JUMP JUMPDEST SWAP2 POP POP SWAP3 SWAP2 POP POP JUMP JUMPDEST PUSH1 0x0 DUP2 ISZERO ISZERO SWAP1 POP SWAP2 SWAP1 POP JUMP JUMPDEST PUSH2 0xAF5 DUP2 PUSH2 0xAE0 JUMP JUMPDEST DUP3 MSTORE POP POP JUMP JUMPDEST PUSH1 0x0 PUSH1 0x20 DUP3 ADD SWAP1 POP PUSH2 0xB10 PUSH1 0x0 DUP4 ADD DUP5 PUSH2 0xAEC JUMP JUMPDEST SWAP3 SWAP2 POP POP JUMP JUMPDEST PUSH2 0xB1F DUP2 PUSH2 0xAE0 JUMP JUMPDEST DUP2 EQ PUSH2 0xB2A JUMPI PUSH1 0x0 DUP1 REVERT JUMPDEST POP JUMP JUMPDEST PUSH1 0x0 DUP2 CALLDATALOAD SWAP1 POP PUSH2 0xB3C DUP2 PUSH2 0xB16 JUMP JUMPDEST SWAP3 SWAP2 POP POP JUMP JUMPDEST PUSH1 0x0 DUP1 PUSH1 0x40 DUP4 DUP6 SUB SLT ISZERO PUSH2 0xB59 JUMPI PUSH2 0xB58 PUSH2 0xA4B JUMP JUMPDEST JUMPDEST PUSH1 0x0 PUSH2 0xB67 DUP6 DUP3 DUP7 ADD PUSH2 0xA9E JUMP JUMPDEST SWAP3 POP POP PUSH1 0x20 PUSH2 0xB78 DUP6 DUP3 DUP7 ADD PUSH2 0xB2D JUMP JUMPDEST SWAP2 POP POP SWAP3 POP SWAP3 SWAP1 POP JUMP JUMPDEST PUSH1 0x0 DUP2 SWAP1 POP SWAP2 SWAP1 POP JUMP JUMPDEST PUSH2 0xB95 DUP2 PUSH2 0xB82 JUMP JUMPDEST DUP2 EQ PUSH2 0xBA0 JUMPI PUSH1 0x0 DUP1 REVERT JUMPDEST POP JUMP JUMPDEST PUSH1 0x0 DUP2 CALLDATALOAD SWAP1 POP PUSH2 0xBB2 DUP2 PUSH2 0xB8C JUMP JUMPDEST SWAP3 SWAP2 POP POP JUMP JUMPDEST PUSH1 0x0 DUP1 PUSH1 0x40 DUP4 DUP6 SUB SLT ISZERO PUSH2 0xBCF JUMPI PUSH2 0xBCE PUSH2 0xA4B JUMP JUMPDEST JUMPDEST PUSH1 0x0 PUSH2 0xBDD DUP6 DUP3 DUP7 ADD PUSH2 0xA9E JUMP JUMPDEST SWAP3 POP POP PUSH1 0x20 PUSH2 0xBEE DUP6 DUP3 DUP7 ADD PUSH2 0xBA3 JUMP JUMPDEST SWAP2 POP POP SWAP3 POP SWAP3 SWAP1 POP JUMP JUMPDEST PUSH1 0x0 PUSH2 0xC03 DUP3 PUSH2 0xA55 JUMP JUMPDEST SWAP1 POP SWAP2 SWAP1 POP JUMP JUMPDEST PUSH2 0xC13 DUP2 PUSH2 0xBF8 JUMP JUMPDEST DUP3 MSTORE POP POP JUMP JUMPDEST PUSH1 0x0 PUSH1 0x20 DUP3 ADD SWAP1 POP PUSH2 0xC2E PUSH1 0x0 DUP4 ADD DUP5 PUSH2 0xC0A JUMP JUMPDEST SWAP3 SWAP2 POP POP JUMP JUMPDEST PUSH2 0xC3D DUP2 PUSH2 0xBF8 JUMP JUMPDEST DUP2 EQ PUSH2 0xC48 JUMPI PUSH1 0x0 DUP1 REVERT JUMPDEST POP JUMP JUMPDEST PUSH1 0x0 DUP2 CALLDATALOAD SWAP1 POP PUSH2 0xC5A DUP2 PUSH2 0xC34 JUMP JUMPDEST SWAP3 SWAP2 POP POP JUMP JUMPDEST PUSH1 0x0 DUP1 REVERT JUMPDEST PUSH1 0x0 DUP1 REVERT JUMPDEST PUSH1 0x0 PUSH1 0x1F NOT PUSH1 0x1F DUP4 ADD AND SWAP1 POP SWAP2 SWAP1 POP JUMP JUMPDEST PUSH32 0x4E487B7100000000000000000000000000000000000000000000000000000000 PUSH1 0x0 MSTORE PUSH1 0x41 PUSH1 0x4 MSTORE PUSH1 0x24 PUSH1 0x0 REVERT JUMPDEST PUSH2 0xCB3 DUP3 PUSH2 0xC6A JUMP JUMPDEST DUP2 ADD DUP2 DUP2 LT PUSH8 0xFFFFFFFFFFFFFFFF DUP3 GT OR ISZERO PUSH2 0xCD2 JUMPI PUSH2 0xCD1 PUSH2 0xC7B JUMP JUMPDEST JUMPDEST DUP1 PUSH1 0x40 MSTORE POP POP POP JUMP JUMPDEST PUSH1 0x0 PUSH2 0xCE5 PUSH2 0xA41 JUMP JUMPDEST SWAP1 POP PUSH2 0xCF1 DUP3 DUP3 PUSH2 0xCAA JUMP JUMPDEST SWAP2 SWAP1 POP JUMP JUMPDEST PUSH1 0x0 PUSH8 0xFFFFFFFFFFFFFFFF DUP3 GT ISZERO PUSH2 0xD11 JUMPI PUSH2 0xD10 PUSH2 0xC7B JUMP JUMPDEST JUMPDEST PUSH2 0xD1A DUP3 PUSH2 0xC6A JUMP JUMPDEST SWAP1 POP PUSH1 0x20 DUP2 ADD SWAP1 POP SWAP2 SWAP1 POP JUMP JUMPDEST DUP3 DUP2 DUP4 CALLDATACOPY PUSH1 0x0 DUP4 DUP4 ADD MSTORE POP POP POP JUMP JUMPDEST PUSH1 0x0 PUSH2 0xD49 PUSH2 0xD44 DUP5 PUSH2 0xCF6 JUMP JUMPDEST PUSH2 0xCDB JUMP JUMPDEST SWAP1 POP DUP3 DUP2 MSTORE PUSH1 0x20 DUP2 ADD DUP5 DUP5 DUP5 ADD GT ISZERO PUSH2 0xD65 JUMPI PUSH2 0xD64 PUSH2 0xC65 JUMP JUMPDEST JUMPDEST PUSH2 0xD70 DUP5 DUP3 DUP6 PUSH2 0xD27 JUMP JUMPDEST POP SWAP4 SWAP3 POP POP POP JUMP JUMPDEST PUSH1 0x0 DUP3 PUSH1 0x1F DUP4 ADD SLT PUSH2 0xD8D JUMPI PUSH2 0xD8C PUSH2 0xC60 JUMP JUMPDEST JUMPDEST DUP2 CALLDATALOAD PUSH2 0xD9D DUP5 DUP3 PUSH1 0x20 DUP7 ADD PUSH2 0xD36 JUMP JUMPDEST SWAP2 POP POP SWAP3 SWAP2 POP POP JUMP JUMPDEST PUSH1 0x0 DUP1 PUSH1 0x0 PUSH1 0x60 DUP5 DUP7 SUB SLT ISZERO PUSH2 0xDBF JUMPI PUSH2 0xDBE PUSH2 0xA4B JUMP JUMPDEST JUMPDEST PUSH1 0x0 PUSH2 0xDCD DUP7 DUP3 DUP8 ADD PUSH2 0xC4B JUMP JUMPDEST SWAP4 POP POP PUSH1 0x20 PUSH2 0xDDE DUP7 DUP3 DUP8 ADD PUSH2 0xBA3 JUMP JUMPDEST SWAP3 POP POP PUSH1 0x40 DUP5 ADD CALLDATALOAD PUSH8 0xFFFFFFFFFFFFFFFF DUP2 GT ISZERO PUSH2 0xDFF JUMPI PUSH2 0xDFE PUSH2 0xA50 JUMP JUMPDEST JUMPDEST PUSH2 0xE0B DUP7 DUP3 DUP8 ADD PUSH2 0xD78 JUMP JUMPDEST SWAP2 POP POP SWAP3 POP SWAP3 POP SWAP3 JUMP JUMPDEST PUSH1 0x0 DUP2 MLOAD SWAP1 POP SWAP2 SWAP1 POP JUMP JUMPDEST PUSH1 0x0 DUP3 DUP3 MSTORE PUSH1 0x20 DUP3 ADD SWAP1 POP SWAP3 SWAP2 POP POP JUMP JUMPDEST PUSH1 0x0 JUMPDEST DUP4 DUP2 LT ISZERO PUSH2 0xE4F JUMPI DUP1 DUP3 ADD MLOAD DUP2 DUP5 ADD MSTORE PUSH1 0x20 DUP2 ADD SWAP1 POP PUSH2 0xE34 JUMP JUMPDEST PUSH1 0x0 DUP5 DUP5 ADD MSTORE POP POP POP POP JUMP JUMPDEST PUSH1 0x0 PUSH2 0xE66 DUP3 PUSH2 0xE15 JUMP JUMPDEST PUSH2 0xE70 DUP2 DUP6 PUSH2 0xE20 JUMP JUMPDEST SWAP4 POP PUSH2 0xE80 DUP2 DUP6 PUSH1 0x20 DUP7 ADD PUSH2 0xE31 JUMP JUMPDEST PUSH2 0xE89 DUP2 PUSH2 0xC6A JUMP JUMPDEST DUP5 ADD SWAP2 POP POP SWAP3 SWAP2 POP POP JUMP JUMPDEST PUSH1 0x0 PUSH1 0x20 DUP3 ADD SWAP1 POP DUP2 DUP2 SUB PUSH1 0x0 DUP4 ADD MSTORE PUSH2 0xEAE DUP2 DUP5 PUSH2 0xE5B JUMP JUMPDEST SWAP1 POP SWAP3 SWAP2 POP POP JUMP JUMPDEST PUSH2 0xEBF DUP2 PUSH2 0xB82 JUMP JUMPDEST DUP3 MSTORE POP POP JUMP JUMPDEST PUSH1 0x0 PUSH1 0x20 DUP3 ADD SWAP1 POP PUSH2 0xEDA PUSH1 0x0 DUP4 ADD DUP5 PUSH2 0xEB6 JUMP JUMPDEST SWAP3 SWAP2 POP POP JUMP JUMPDEST PUSH1 0x0 PUSH1 0x20 DUP3 DUP5 SUB SLT ISZERO PUSH2 0xEF6 JUMPI PUSH2 0xEF5 PUSH2 0xA4B JUMP JUMPDEST JUMPDEST PUSH1 0x0 PUSH2 0xF04 DUP5 DUP3 DUP6 ADD PUSH2 0xC4B JUMP JUMPDEST SWAP2 POP POP SWAP3 SWAP2 POP POP JUMP JUMPDEST PUSH1 0x0 DUP3 DUP3 MSTORE PUSH1 0x20 DUP3 ADD SWAP1 POP SWAP3 SWAP2 POP POP JUMP JUMPDEST PUSH32 0x796F752061726520746865206F776E657221212C61626F7274696E6700000000 PUSH1 0x0 DUP3 ADD MSTORE POP JUMP JUMPDEST PUSH1 0x0 PUSH2 0xF54 PUSH1 0x1C DUP4 PUSH2 0xF0D JUMP JUMPDEST SWAP2 POP PUSH2 0xF5F DUP3 PUSH2 0xF1E JUMP JUMPDEST PUSH1 0x20 DUP3 ADD SWAP1 POP SWAP2 SWAP1 POP JUMP JUMPDEST PUSH1 0x0 PUSH1 0x20 DUP3 ADD SWAP1 POP DUP2 DUP2 SUB PUSH1 0x0 DUP4 ADD MSTORE PUSH2 0xF83 DUP2 PUSH2 0xF47 JUMP JUMPDEST SWAP1 POP SWAP2 SWAP1 POP JUMP JUMPDEST PUSH32 0x796F7520617265206E6F7420746865206F776E657221212C61626F7274696E67 PUSH1 0x0 DUP3 ADD MSTORE POP JUMP JUMPDEST PUSH1 0x0 PUSH2 0xFC0 PUSH1 0x20 DUP4 PUSH2 0xF0D JUMP JUMPDEST SWAP2 POP PUSH2 0xFCB DUP3 PUSH2 0xF8A JUMP JUMPDEST PUSH1 0x20 DUP3 ADD SWAP1 POP SWAP2 SWAP1 POP JUMP JUMPDEST PUSH1 0x0 PUSH1 0x20 DUP3 ADD SWAP1 POP DUP2 DUP2 SUB PUSH1 0x0 DUP4 ADD MSTORE PUSH2 0xFEF DUP2 PUSH2 0xFB3 JUMP JUMPDEST SWAP1 POP SWAP2 SWAP1 POP JUMP JUMPDEST PUSH32 0x796F7520617265206E6F7420616C6C6F77656420746F2073656E6420616E7974 PUSH1 0x0 DUP3 ADD MSTORE PUSH32 0x68696E672066726F6D207468697320736D61727420636F6E7472616374212C61 PUSH1 0x20 DUP3 ADD MSTORE PUSH32 0x626F7274696E6721000000000000000000000000000000000000000000000000 PUSH1 0x40 DUP3 ADD MSTORE POP JUMP JUMPDEST PUSH1 0x0 PUSH2 0x1078 PUSH1 0x48 DUP4 PUSH2 0xF0D JUMP JUMPDEST SWAP2 POP PUSH2 0x1083 DUP3 PUSH2 0xFF6 JUMP JUMPDEST PUSH1 0x60 DUP3 ADD SWAP1 POP SWAP2 SWAP1 POP JUMP JUMPDEST PUSH1 0x0 PUSH1 0x20 DUP3 ADD SWAP1 POP DUP2 DUP2 SUB PUSH1 0x0 DUP4 ADD MSTORE PUSH2 0x10A7 DUP2 PUSH2 0x106B JUMP JUMPDEST SWAP1 POP SWAP2 SWAP1 POP JUMP JUMPDEST PUSH32 0x43616E6E6F742061626C6520746F2073656E64206D6F726520616D6F756E7420 PUSH1 0x0 DUP3 ADD MSTORE PUSH32 0x7468616E207468652077616C6C65742062616C656E6365212100000000000000 PUSH1 0x20 DUP3 ADD MSTORE POP JUMP JUMPDEST PUSH1 0x0 PUSH2 0x110A PUSH1 0x39 DUP4 PUSH2 0xF0D JUMP JUMPDEST SWAP2 POP PUSH2 0x1115 DUP3 PUSH2 0x10AE JUMP JUMPDEST PUSH1 0x40 DUP3 ADD SWAP1 POP SWAP2 SWAP1 POP JUMP JUMPDEST PUSH1 0x0 PUSH1 0x20 DUP3 ADD SWAP1 POP DUP2 DUP2 SUB PUSH1 0x0 DUP4 ADD MSTORE PUSH2 0x1139 DUP2 PUSH2 0x10FD JUMP JUMPDEST SWAP1 POP SWAP2 SWAP1 POP JUMP JUMPDEST PUSH1 0x0 DUP2 SWAP1 POP SWAP3 SWAP2 POP POP JUMP JUMPDEST PUSH1 0x0 PUSH2 0x1156 DUP3 PUSH2 0xE15 JUMP JUMPDEST PUSH2 0x1160 DUP2 DUP6 PUSH2 0x1140 JUMP JUMPDEST SWAP4 POP PUSH2 0x1170 DUP2 DUP6 PUSH1 0x20 DUP7 ADD PUSH2 0xE31 JUMP JUMPDEST DUP1 DUP5 ADD SWAP2 POP POP SWAP3 SWAP2 POP POP JUMP JUMPDEST PUSH1 0x0 PUSH2 0x1188 DUP3 DUP5 PUSH2 0x114B JUMP JUMPDEST SWAP2 POP DUP2 SWAP1 POP SWAP3 SWAP2 POP POP JUMP JUMPDEST PUSH32 0x41626F7274696E672C2043616C6C20776173206E6F742073756365737366756C PUSH1 0x0 DUP3 ADD MSTORE PUSH32 0x2121000000000000000000000000000000000000000000000000000000000000 PUSH1 0x20 DUP3 ADD MSTORE POP JUMP JUMPDEST PUSH1 0x0 PUSH2 0x11EF PUSH1 0x22 DUP4 PUSH2 0xF0D JUMP JUMPDEST SWAP2 POP PUSH2 0x11FA DUP3 PUSH2 0x1193 JUMP JUMPDEST PUSH1 0x40 DUP3 ADD SWAP1 POP SWAP2 SWAP1 POP JUMP JUMPDEST PUSH1 0x0 PUSH1 0x20 DUP3 ADD SWAP1 POP DUP2 DUP2 SUB PUSH1 0x0 DUP4 ADD MSTORE PUSH2 0x121E DUP2 PUSH2 0x11E2 JUMP JUMPDEST SWAP1 POP SWAP2 SWAP1 POP JUMP JUMPDEST PUSH32 0x796F7520617265206E6F742074686520677561726469616E206F662074686973 PUSH1 0x0 DUP3 ADD MSTORE PUSH32 0x2077616C6C657400000000000000000000000000000000000000000000000000 PUSH1 0x20 DUP3 ADD MSTORE POP JUMP JUMPDEST PUSH1 0x0 PUSH2 0x1281 PUSH1 0x27 DUP4 PUSH2 0xF0D JUMP JUMPDEST SWAP2 POP PUSH2 0x128C DUP3 PUSH2 0x1225 JUMP JUMPDEST PUSH1 0x40 DUP3 ADD SWAP1 POP SWAP2 SWAP1 POP JUMP JUMPDEST PUSH1 0x0 PUSH1 0x20 DUP3 ADD SWAP1 POP DUP2 DUP2 SUB PUSH1 0x0 DUP4 ADD MSTORE PUSH2 0x12B0 DUP2 PUSH2 0x1274 JUMP JUMPDEST SWAP1 POP SWAP2 SWAP1 POP JUMP JUMPDEST PUSH32 0x796F7520616C726561647920766F74656421212C2061626F7274696E67000000 PUSH1 0x0 DUP3 ADD MSTORE POP JUMP JUMPDEST PUSH1 0x0 PUSH2 0x12ED PUSH1 0x1D DUP4 PUSH2 0xF0D JUMP JUMPDEST SWAP2 POP PUSH2 0x12F8 DUP3 PUSH2 0x12B7 JUMP JUMPDEST PUSH1 0x20 DUP3 ADD SWAP1 POP SWAP2 SWAP1 POP JUMP JUMPDEST PUSH1 0x0 PUSH1 0x20 DUP3 ADD SWAP1 POP DUP2 DUP2 SUB PUSH1 0x0 DUP4 ADD MSTORE PUSH2 0x131C DUP2 PUSH2 0x12E0 JUMP JUMPDEST SWAP1 POP SWAP2 SWAP1 POP JUMP JUMPDEST PUSH32 0x4E487B7100000000000000000000000000000000000000000000000000000000 PUSH1 0x0 MSTORE PUSH1 0x11 PUSH1 0x4 MSTORE PUSH1 0x24 PUSH1 0x0 REVERT JUMPDEST PUSH1 0x0 PUSH2 0x135D DUP3 PUSH2 0xB82 JUMP JUMPDEST SWAP2 POP PUSH2 0x1368 DUP4 PUSH2 0xB82 JUMP JUMPDEST SWAP3 POP DUP3 DUP3 ADD SWAP1 POP DUP1 DUP3 GT ISZERO PUSH2 0x1380 JUMPI PUSH2 0x137F PUSH2 0x1323 JUMP JUMPDEST JUMPDEST SWAP3 SWAP2 POP POP JUMP INVALID LOG2 PUSH5 0x6970667358 0x22 SLT KECCAK256 0xC6 CREATE DUP2 JUMPDEST 0xDC 0x4B 0xB7 0x23 RETURN RETURNDATASIZE 0xEC MULMOD 0xD9 0xDC 0xD3 PUSH31 0xDBC051067F091F2F1945B6250780724964736F6C6343000810003300000000 "
				},
				"gasEstimates": {
					"creation": {
						"codeDepositCost": "1010400",
						"executionCost": "25313",
						"totalCost": "1035713"
					},
					"external": {
						"allowence(address)": "2858",
						"confirmation_from_guardians_for_reset()": "417",
						"guardians(address)": "2846",
						"is_allowed_to_send(address)": "2912",
						"owner()": "2511",
						"propose_new_owner(address)": "infinite",
						"set_allowence(address,uint256)": "49437",
						"set_guardian(address,bool)": "27181",
						"transfer_amount(address,uint256,bytes)": "infinite"
					}
				},
				"methodIdentifiers": {
					"allowence(address)": "aef46244",
					"confirmation_from_guardians_for_reset()": "eb375777",
					"guardians(address)": "0633b14a",
					"is_allowed_to_send(address)": "35a06f0a",
					"owner()": "8da5cb5b",
					"propose_new_owner(address)": "de82d380",
					"set_allowence(address,uint256)": "2021e808",
					"set_guardian(address,bool)": "10adb123",
					"transfer_amount(address,uint256,bytes)": "9b0e5b85"
				}
			},
			"storageLayout": {
				"storage": [
					{
						"astId": 20,
						"contract": "smart_wallet/final_project.sol:smart_wallet",
						"label": "owner",
						"offset": 0,
						"slot": "0",
						"type": "t_address_payable"
					},
					{
						"astId": 24,
						"contract": "smart_wallet/final_project.sol:smart_wallet",
						"label": "allowence",
						"offset": 0,
						"slot": "1",
						"type": "t_mapping(t_address,t_uint256)"
					},
					{
						"astId": 28,
						"contract": "smart_wallet/final_project.sol:smart_wallet",
						"label": "is_allowed_to_send",
						"offset": 0,
						"slot": "2",
						"type": "t_mapping(t_address,t_bool)"
					},
					{
						"astId": 32,
						"contract": "smart_wallet/final_project.sol:smart_wallet",
						"label": "guardians",
						"offset": 0,
						"slot": "3",
						"type": "t_mapping(t_address,t_bool)"
					},
					{
						"astId": 34,
						"contract": "smart_wallet/final_project.sol:smart_wallet",
						"label": "next_owner",
						"offset": 0,
						"slot": "4",
						"type": "t_address_payable"
					},
					{
						"astId": 40,
						"contract": "smart_wallet/final_project.sol:smart_wallet",
						"label": "next_guardian_voted_bool",
						"offset": 0,
						"slot": "5",
						"type": "t_mapping(t_address,t_mapping(t_address,t_bool))"
					},
					{
						"astId": 42,
						"contract": "smart_wallet/final_project.sol:smart_wallet",
						"label": "guardians_reset_count",
						"offset": 0,
						"slot": "6",
						"type": "t_uint256"
					}
				],
				"types": {
					"t_address": {
						"encoding": "inplace",
						"label": "address",
						"numberOfBytes": "20"
					},
					"t_address_payable": {
						"encoding": "inplace",
						"label": "address payable",
						"numberOfBytes": "20"
					},
					"t_bool": {
						"encoding": "inplace",
						"label": "bool",
						"numberOfBytes": "1"
					},
					"t_mapping(t_address,t_bool)": {
						"encoding": "mapping",
						"key": "t_address",
						"label": "mapping(address => bool)",
						"numberOfBytes": "32",
						"value": "t_bool"
					},
					"t_mapping(t_address,t_mapping(t_address,t_bool))": {
						"encoding": "mapping",
						"key": "t_address",
						"label": "mapping(address => mapping(address => bool))",
						"numberOfBytes": "32",
						"value": "t_mapping(t_address,t_bool)"
					},
					"t_mapping(t_address,t_uint256)": {
						"encoding": "mapping",
						"key": "t_address",
						"label": "mapping(address => uint256)",
						"numberOfBytes": "32",
						"value": "t_uint256"
					},
					"t_uint256": {
						"encoding": "inplace",
						"label": "uint256",
						"numberOfBytes": "32"
					}
				}
			},
			"userdoc": {
				"kind": "user",
				"methods": {},
				"version": 1
			}
		}
	}
}