{
	"basics/messenger.sol": {
		"messenger_contracr": {
			"abi": [
				{
					"inputs": [],
					"name": "counter",
					"outputs": [
						{
							"internalType": "uint256",
							"name": "",
							"type": "uint256"
						}
					],
					"stateMutability": "view",
					"type": "function"
				},
				{
					"inputs": [],
					"name": "my_message",
					"outputs": [
						{
							"internalType": "string",
							"name": "",
							"type": "string"
						}
					],
					"stateMutability": "view",
					"type": "function"
				},
				{
					"inputs": [
						{
							"internalType": "string",
							"name": "entered_string",
							"type": "string"
						}
					],
					"name": "update_message",
					"outputs": [],
					"stateMutability": "nonpayable",
					"type": "function"
				}
			],
			"devdoc": {
				"kind": "dev",
				"methods": {},
				"version": 1
			},
			"evm": {
				"assembly": "    /* \"basics/messenger.sol\":61:464  contract messenger_contracr... */\n  mstore(0x40, 0x80)\n    /* \"basics/messenger.sol\":145:155  msg.sender */\n  caller\n    /* \"basics/messenger.sol\":123:155  address private owner=msg.sender */\n  0x01\n  exp(0x0100, 0x00)\n  dup2\n  sload\n  dup2\n  0xffffffffffffffffffffffffffffffffffffffff\n  mul\n  not\n  and\n  swap1\n  dup4\n  0xffffffffffffffffffffffffffffffffffffffff\n  and\n  mul\n  or\n  swap1\n  sstore\n  pop\n    /* \"basics/messenger.sol\":61:464  contract messenger_contracr... */\n  callvalue\n  dup1\n  iszero\n  tag_1\n  jumpi\n  0x00\n  dup1\n  revert\ntag_1:\n  pop\n  dataSize(sub_0)\n  dup1\n  dataOffset(sub_0)\n  0x00\n  codecopy\n  0x00\n  return\nstop\n\nsub_0: assembly {\n        /* \"basics/messenger.sol\":61:464  contract messenger_contracr... */\n      mstore(0x40, 0x80)\n      callvalue\n      dup1\n      iszero\n      tag_1\n      jumpi\n      0x00\n      dup1\n      revert\n    tag_1:\n      pop\n      jumpi(tag_2, lt(calldatasize, 0x04))\n      shr(0xe0, calldataload(0x00))\n      dup1\n      0x61bc221a\n      eq\n      tag_3\n      jumpi\n      dup1\n      0x775e215b\n      eq\n      tag_4\n      jumpi\n      dup1\n      0x9d56998d\n      eq\n      tag_5\n      jumpi\n    tag_2:\n      0x00\n      dup1\n      revert\n        /* \"basics/messenger.sol\":97:116  uint public counter */\n    tag_3:\n      tag_6\n      tag_7\n      jump\t// in\n    tag_6:\n      mload(0x40)\n      tag_8\n      swap2\n      swap1\n      tag_9\n      jump\t// in\n    tag_8:\n      mload(0x40)\n      dup1\n      swap2\n      sub\n      swap1\n      return\n        /* \"basics/messenger.sol\":271:461  function update_message(string memory entered_string)public... */\n    tag_4:\n      tag_10\n      0x04\n      dup1\n      calldatasize\n      sub\n      dup2\n      add\n      swap1\n      tag_11\n      swap2\n      swap1\n      tag_12\n      jump\t// in\n    tag_11:\n      tag_13\n      jump\t// in\n    tag_10:\n      stop\n        /* \"basics/messenger.sol\":238:262  string public my_message */\n    tag_5:\n      tag_14\n      tag_15\n      jump\t// in\n    tag_14:\n      mload(0x40)\n      tag_16\n      swap2\n      swap1\n      tag_17\n      jump\t// in\n    tag_16:\n      mload(0x40)\n      dup1\n      swap2\n      sub\n      swap1\n      return\n        /* \"basics/messenger.sol\":97:116  uint public counter */\n    tag_7:\n      sload(0x00)\n      dup2\n      jump\t// out\n        /* \"basics/messenger.sol\":271:461  function update_message(string memory entered_string)public... */\n    tag_13:\n        /* \"basics/messenger.sol\":362:367  owner */\n      0x01\n      0x00\n      swap1\n      sload\n      swap1\n      0x0100\n      exp\n      swap1\n      div\n      0xffffffffffffffffffffffffffffffffffffffff\n      and\n        /* \"basics/messenger.sol\":350:367  msg.sender==owner */\n      0xffffffffffffffffffffffffffffffffffffffff\n      and\n        /* \"basics/messenger.sol\":350:360  msg.sender */\n      caller\n        /* \"basics/messenger.sol\":350:367  msg.sender==owner */\n      0xffffffffffffffffffffffffffffffffffffffff\n      and\n      sub\n        /* \"basics/messenger.sol\":347:454  if(msg.sender==owner)... */\n      tag_19\n      jumpi\n        /* \"basics/messenger.sol\":404:418  entered_string */\n      dup1\n        /* \"basics/messenger.sol\":393:403  my_message */\n      0x02\n        /* \"basics/messenger.sol\":393:418  my_message=entered_string */\n      swap1\n      dup2\n      tag_20\n      swap2\n      swap1\n      tag_21\n      jump\t// in\n    tag_20:\n      pop\n        /* \"basics/messenger.sol\":433:440  counter */\n      0x00\n      dup1\n        /* \"basics/messenger.sol\":433:442  counter++ */\n      dup2\n      sload\n      dup1\n      swap3\n      swap2\n      swap1\n      tag_22\n      swap1\n      tag_23\n      jump\t// in\n    tag_22:\n      swap2\n      swap1\n      pop\n      sstore\n      pop\n        /* \"basics/messenger.sol\":347:454  if(msg.sender==owner)... */\n    tag_19:\n        /* \"basics/messenger.sol\":271:461  function update_message(string memory entered_string)public... */\n      pop\n      jump\t// out\n        /* \"basics/messenger.sol\":238:262  string public my_message */\n    tag_15:\n      0x02\n      dup1\n      sload\n      tag_24\n      swap1\n      tag_25\n      jump\t// in\n    tag_24:\n      dup1\n      0x1f\n      add\n      0x20\n      dup1\n      swap2\n      div\n      mul\n      0x20\n      add\n      mload(0x40)\n      swap1\n      dup2\n      add\n      0x40\n      mstore\n      dup1\n      swap3\n      swap2\n      swap1\n      dup2\n      dup2\n      mstore\n      0x20\n      add\n      dup3\n      dup1\n      sload\n      tag_26\n      swap1\n      tag_25\n      jump\t// in\n    tag_26:\n      dup1\n      iszero\n      tag_27\n      jumpi\n      dup1\n      0x1f\n      lt\n      tag_28\n      jumpi\n      0x0100\n      dup1\n      dup4\n      sload\n      div\n      mul\n      dup4\n      mstore\n      swap2\n      0x20\n      add\n      swap2\n      jump(tag_27)\n    tag_28:\n      dup3\n      add\n      swap2\n      swap1\n      0x00\n      mstore\n      keccak256(0x00, 0x20)\n      swap1\n    tag_29:\n      dup2\n      sload\n      dup2\n      mstore\n      swap1\n      0x01\n      add\n      swap1\n      0x20\n      add\n      dup1\n      dup4\n      gt\n      tag_29\n      jumpi\n      dup3\n      swap1\n      sub\n      0x1f\n      and\n      dup3\n      add\n      swap2\n    tag_27:\n      pop\n      pop\n      pop\n      pop\n      pop\n      dup2\n      jump\t// out\n        /* \"#utility.yul\":7:84   */\n    tag_30:\n        /* \"#utility.yul\":44:51   */\n      0x00\n        /* \"#utility.yul\":73:78   */\n      dup2\n        /* \"#utility.yul\":62:78   */\n      swap1\n      pop\n        /* \"#utility.yul\":7:84   */\n      swap2\n      swap1\n      pop\n      jump\t// out\n        /* \"#utility.yul\":90:208   */\n    tag_31:\n        /* \"#utility.yul\":177:201   */\n      tag_69\n        /* \"#utility.yul\":195:200   */\n      dup2\n        /* \"#utility.yul\":177:201   */\n      tag_30\n      jump\t// in\n    tag_69:\n        /* \"#utility.yul\":172:175   */\n      dup3\n        /* \"#utility.yul\":165:202   */\n      mstore\n        /* \"#utility.yul\":90:208   */\n      pop\n      pop\n      jump\t// out\n        /* \"#utility.yul\":214:436   */\n    tag_9:\n        /* \"#utility.yul\":307:311   */\n      0x00\n        /* \"#utility.yul\":345:347   */\n      0x20\n        /* \"#utility.yul\":334:343   */\n      dup3\n        /* \"#utility.yul\":330:348   */\n      add\n        /* \"#utility.yul\":322:348   */\n      swap1\n      pop\n        /* \"#utility.yul\":358:429   */\n      tag_71\n        /* \"#utility.yul\":426:427   */\n      0x00\n        /* \"#utility.yul\":415:424   */\n      dup4\n        /* \"#utility.yul\":411:428   */\n      add\n        /* \"#utility.yul\":402:408   */\n      dup5\n        /* \"#utility.yul\":358:429   */\n      tag_31\n      jump\t// in\n    tag_71:\n        /* \"#utility.yul\":214:436   */\n      swap3\n      swap2\n      pop\n      pop\n      jump\t// out\n        /* \"#utility.yul\":442:517   */\n    tag_32:\n        /* \"#utility.yul\":475:481   */\n      0x00\n        /* \"#utility.yul\":508:510   */\n      0x40\n        /* \"#utility.yul\":502:511   */\n      mload\n        /* \"#utility.yul\":492:511   */\n      swap1\n      pop\n        /* \"#utility.yul\":442:517   */\n      swap1\n      jump\t// out\n        /* \"#utility.yul\":523:640   */\n    tag_33:\n        /* \"#utility.yul\":632:633   */\n      0x00\n        /* \"#utility.yul\":629:630   */\n      dup1\n        /* \"#utility.yul\":622:634   */\n      revert\n        /* \"#utility.yul\":646:763   */\n    tag_34:\n        /* \"#utility.yul\":755:756   */\n      0x00\n        /* \"#utility.yul\":752:753   */\n      dup1\n        /* \"#utility.yul\":745:757   */\n      revert\n        /* \"#utility.yul\":769:886   */\n    tag_35:\n        /* \"#utility.yul\":878:879   */\n      0x00\n        /* \"#utility.yul\":875:876   */\n      dup1\n        /* \"#utility.yul\":868:880   */\n      revert\n        /* \"#utility.yul\":892:1009   */\n    tag_36:\n        /* \"#utility.yul\":1001:1002   */\n      0x00\n        /* \"#utility.yul\":998:999   */\n      dup1\n        /* \"#utility.yul\":991:1003   */\n      revert\n        /* \"#utility.yul\":1015:1117   */\n    tag_37:\n        /* \"#utility.yul\":1056:1062   */\n      0x00\n        /* \"#utility.yul\":1107:1109   */\n      0x1f\n        /* \"#utility.yul\":1103:1110   */\n      not\n        /* \"#utility.yul\":1098:1100   */\n      0x1f\n        /* \"#utility.yul\":1091:1096   */\n      dup4\n        /* \"#utility.yul\":1087:1101   */\n      add\n        /* \"#utility.yul\":1083:1111   */\n      and\n        /* \"#utility.yul\":1073:1111   */\n      swap1\n      pop\n        /* \"#utility.yul\":1015:1117   */\n      swap2\n      swap1\n      pop\n      jump\t// out\n        /* \"#utility.yul\":1123:1303   */\n    tag_38:\n        /* \"#utility.yul\":1171:1248   */\n      0x4e487b7100000000000000000000000000000000000000000000000000000000\n        /* \"#utility.yul\":1168:1169   */\n      0x00\n        /* \"#utility.yul\":1161:1249   */\n      mstore\n        /* \"#utility.yul\":1268:1272   */\n      0x41\n        /* \"#utility.yul\":1265:1266   */\n      0x04\n        /* \"#utility.yul\":1258:1273   */\n      mstore\n        /* \"#utility.yul\":1292:1296   */\n      0x24\n        /* \"#utility.yul\":1289:1290   */\n      0x00\n        /* \"#utility.yul\":1282:1297   */\n      revert\n        /* \"#utility.yul\":1309:1590   */\n    tag_39:\n        /* \"#utility.yul\":1392:1419   */\n      tag_80\n        /* \"#utility.yul\":1414:1418   */\n      dup3\n        /* \"#utility.yul\":1392:1419   */\n      tag_37\n      jump\t// in\n    tag_80:\n        /* \"#utility.yul\":1384:1390   */\n      dup2\n        /* \"#utility.yul\":1380:1420   */\n      add\n        /* \"#utility.yul\":1522:1528   */\n      dup2\n        /* \"#utility.yul\":1510:1520   */\n      dup2\n        /* \"#utility.yul\":1507:1529   */\n      lt\n        /* \"#utility.yul\":1486:1504   */\n      0xffffffffffffffff\n        /* \"#utility.yul\":1474:1484   */\n      dup3\n        /* \"#utility.yul\":1471:1505   */\n      gt\n        /* \"#utility.yul\":1468:1530   */\n      or\n        /* \"#utility.yul\":1465:1553   */\n      iszero\n      tag_81\n      jumpi\n        /* \"#utility.yul\":1533:1551   */\n      tag_82\n      tag_38\n      jump\t// in\n    tag_82:\n        /* \"#utility.yul\":1465:1553   */\n    tag_81:\n        /* \"#utility.yul\":1573:1583   */\n      dup1\n        /* \"#utility.yul\":1569:1571   */\n      0x40\n        /* \"#utility.yul\":1562:1584   */\n      mstore\n        /* \"#utility.yul\":1352:1590   */\n      pop\n        /* \"#utility.yul\":1309:1590   */\n      pop\n      pop\n      jump\t// out\n        /* \"#utility.yul\":1596:1725   */\n    tag_40:\n        /* \"#utility.yul\":1630:1636   */\n      0x00\n        /* \"#utility.yul\":1657:1677   */\n      tag_84\n      tag_32\n      jump\t// in\n    tag_84:\n        /* \"#utility.yul\":1647:1677   */\n      swap1\n      pop\n        /* \"#utility.yul\":1686:1719   */\n      tag_85\n        /* \"#utility.yul\":1714:1718   */\n      dup3\n        /* \"#utility.yul\":1706:1712   */\n      dup3\n        /* \"#utility.yul\":1686:1719   */\n      tag_39\n      jump\t// in\n    tag_85:\n        /* \"#utility.yul\":1596:1725   */\n      swap2\n      swap1\n      pop\n      jump\t// out\n        /* \"#utility.yul\":1731:2039   */\n    tag_41:\n        /* \"#utility.yul\":1793:1797   */\n      0x00\n        /* \"#utility.yul\":1883:1901   */\n      0xffffffffffffffff\n        /* \"#utility.yul\":1875:1881   */\n      dup3\n        /* \"#utility.yul\":1872:1902   */\n      gt\n        /* \"#utility.yul\":1869:1925   */\n      iszero\n      tag_87\n      jumpi\n        /* \"#utility.yul\":1905:1923   */\n      tag_88\n      tag_38\n      jump\t// in\n    tag_88:\n        /* \"#utility.yul\":1869:1925   */\n    tag_87:\n        /* \"#utility.yul\":1943:1972   */\n      tag_89\n        /* \"#utility.yul\":1965:1971   */\n      dup3\n        /* \"#utility.yul\":1943:1972   */\n      tag_37\n      jump\t// in\n    tag_89:\n        /* \"#utility.yul\":1935:1972   */\n      swap1\n      pop\n        /* \"#utility.yul\":2027:2031   */\n      0x20\n        /* \"#utility.yul\":2021:2025   */\n      dup2\n        /* \"#utility.yul\":2017:2032   */\n      add\n        /* \"#utility.yul\":2009:2032   */\n      swap1\n      pop\n        /* \"#utility.yul\":1731:2039   */\n      swap2\n      swap1\n      pop\n      jump\t// out\n        /* \"#utility.yul\":2045:2199   */\n    tag_42:\n        /* \"#utility.yul\":2129:2135   */\n      dup3\n        /* \"#utility.yul\":2124:2127   */\n      dup2\n        /* \"#utility.yul\":2119:2122   */\n      dup4\n        /* \"#utility.yul\":2106:2136   */\n      calldatacopy\n        /* \"#utility.yul\":2191:2192   */\n      0x00\n        /* \"#utility.yul\":2182:2188   */\n      dup4\n        /* \"#utility.yul\":2177:2180   */\n      dup4\n        /* \"#utility.yul\":2173:2189   */\n      add\n        /* \"#utility.yul\":2166:2193   */\n      mstore\n        /* \"#utility.yul\":2045:2199   */\n      pop\n      pop\n      pop\n      jump\t// out\n        /* \"#utility.yul\":2205:2617   */\n    tag_43:\n        /* \"#utility.yul\":2283:2288   */\n      0x00\n        /* \"#utility.yul\":2308:2374   */\n      tag_92\n        /* \"#utility.yul\":2324:2373   */\n      tag_93\n        /* \"#utility.yul\":2366:2372   */\n      dup5\n        /* \"#utility.yul\":2324:2373   */\n      tag_41\n      jump\t// in\n    tag_93:\n        /* \"#utility.yul\":2308:2374   */\n      tag_40\n      jump\t// in\n    tag_92:\n        /* \"#utility.yul\":2299:2374   */\n      swap1\n      pop\n        /* \"#utility.yul\":2397:2403   */\n      dup3\n        /* \"#utility.yul\":2390:2395   */\n      dup2\n        /* \"#utility.yul\":2383:2404   */\n      mstore\n        /* \"#utility.yul\":2435:2439   */\n      0x20\n        /* \"#utility.yul\":2428:2433   */\n      dup2\n        /* \"#utility.yul\":2424:2440   */\n      add\n        /* \"#utility.yul\":2473:2476   */\n      dup5\n        /* \"#utility.yul\":2464:2470   */\n      dup5\n        /* \"#utility.yul\":2459:2462   */\n      dup5\n        /* \"#utility.yul\":2455:2471   */\n      add\n        /* \"#utility.yul\":2452:2477   */\n      gt\n        /* \"#utility.yul\":2449:2561   */\n      iszero\n      tag_94\n      jumpi\n        /* \"#utility.yul\":2480:2559   */\n      tag_95\n      tag_36\n      jump\t// in\n    tag_95:\n        /* \"#utility.yul\":2449:2561   */\n    tag_94:\n        /* \"#utility.yul\":2570:2611   */\n      tag_96\n        /* \"#utility.yul\":2604:2610   */\n      dup5\n        /* \"#utility.yul\":2599:2602   */\n      dup3\n        /* \"#utility.yul\":2594:2597   */\n      dup6\n        /* \"#utility.yul\":2570:2611   */\n      tag_42\n      jump\t// in\n    tag_96:\n        /* \"#utility.yul\":2289:2617   */\n      pop\n        /* \"#utility.yul\":2205:2617   */\n      swap4\n      swap3\n      pop\n      pop\n      pop\n      jump\t// out\n        /* \"#utility.yul\":2637:2977   */\n    tag_44:\n        /* \"#utility.yul\":2693:2698   */\n      0x00\n        /* \"#utility.yul\":2742:2745   */\n      dup3\n        /* \"#utility.yul\":2735:2739   */\n      0x1f\n        /* \"#utility.yul\":2727:2733   */\n      dup4\n        /* \"#utility.yul\":2723:2740   */\n      add\n        /* \"#utility.yul\":2719:2746   */\n      slt\n        /* \"#utility.yul\":2709:2831   */\n      tag_98\n      jumpi\n        /* \"#utility.yul\":2750:2829   */\n      tag_99\n      tag_35\n      jump\t// in\n    tag_99:\n        /* \"#utility.yul\":2709:2831   */\n    tag_98:\n        /* \"#utility.yul\":2867:2873   */\n      dup2\n        /* \"#utility.yul\":2854:2874   */\n      calldataload\n        /* \"#utility.yul\":2892:2971   */\n      tag_100\n        /* \"#utility.yul\":2967:2970   */\n      dup5\n        /* \"#utility.yul\":2959:2965   */\n      dup3\n        /* \"#utility.yul\":2952:2956   */\n      0x20\n        /* \"#utility.yul\":2944:2950   */\n      dup7\n        /* \"#utility.yul\":2940:2957   */\n      add\n        /* \"#utility.yul\":2892:2971   */\n      tag_43\n      jump\t// in\n    tag_100:\n        /* \"#utility.yul\":2883:2971   */\n      swap2\n      pop\n        /* \"#utility.yul\":2699:2977   */\n      pop\n        /* \"#utility.yul\":2637:2977   */\n      swap3\n      swap2\n      pop\n      pop\n      jump\t// out\n        /* \"#utility.yul\":2983:3492   */\n    tag_12:\n        /* \"#utility.yul\":3052:3058   */\n      0x00\n        /* \"#utility.yul\":3101:3103   */\n      0x20\n        /* \"#utility.yul\":3089:3098   */\n      dup3\n        /* \"#utility.yul\":3080:3087   */\n      dup5\n        /* \"#utility.yul\":3076:3099   */\n      sub\n        /* \"#utility.yul\":3072:3104   */\n      slt\n        /* \"#utility.yul\":3069:3188   */\n      iszero\n      tag_102\n      jumpi\n        /* \"#utility.yul\":3107:3186   */\n      tag_103\n      tag_33\n      jump\t// in\n    tag_103:\n        /* \"#utility.yul\":3069:3188   */\n    tag_102:\n        /* \"#utility.yul\":3255:3256   */\n      0x00\n        /* \"#utility.yul\":3244:3253   */\n      dup3\n        /* \"#utility.yul\":3240:3257   */\n      add\n        /* \"#utility.yul\":3227:3258   */\n      calldataload\n        /* \"#utility.yul\":3285:3303   */\n      0xffffffffffffffff\n        /* \"#utility.yul\":3277:3283   */\n      dup2\n        /* \"#utility.yul\":3274:3304   */\n      gt\n        /* \"#utility.yul\":3271:3388   */\n      iszero\n      tag_104\n      jumpi\n        /* \"#utility.yul\":3307:3386   */\n      tag_105\n      tag_34\n      jump\t// in\n    tag_105:\n        /* \"#utility.yul\":3271:3388   */\n    tag_104:\n        /* \"#utility.yul\":3412:3475   */\n      tag_106\n        /* \"#utility.yul\":3467:3474   */\n      dup5\n        /* \"#utility.yul\":3458:3464   */\n      dup3\n        /* \"#utility.yul\":3447:3456   */\n      dup6\n        /* \"#utility.yul\":3443:3465   */\n      add\n        /* \"#utility.yul\":3412:3475   */\n      tag_44\n      jump\t// in\n    tag_106:\n        /* \"#utility.yul\":3402:3475   */\n      swap2\n      pop\n        /* \"#utility.yul\":3198:3485   */\n      pop\n        /* \"#utility.yul\":2983:3492   */\n      swap3\n      swap2\n      pop\n      pop\n      jump\t// out\n        /* \"#utility.yul\":3498:3597   */\n    tag_45:\n        /* \"#utility.yul\":3550:3556   */\n      0x00\n        /* \"#utility.yul\":3584:3589   */\n      dup2\n        /* \"#utility.yul\":3578:3590   */\n      mload\n        /* \"#utility.yul\":3568:3590   */\n      swap1\n      pop\n        /* \"#utility.yul\":3498:3597   */\n      swap2\n      swap1\n      pop\n      jump\t// out\n        /* \"#utility.yul\":3603:3772   */\n    tag_46:\n        /* \"#utility.yul\":3687:3698   */\n      0x00\n        /* \"#utility.yul\":3721:3727   */\n      dup3\n        /* \"#utility.yul\":3716:3719   */\n      dup3\n        /* \"#utility.yul\":3709:3728   */\n      mstore\n        /* \"#utility.yul\":3761:3765   */\n      0x20\n        /* \"#utility.yul\":3756:3759   */\n      dup3\n        /* \"#utility.yul\":3752:3766   */\n      add\n        /* \"#utility.yul\":3737:3766   */\n      swap1\n      pop\n        /* \"#utility.yul\":3603:3772   */\n      swap3\n      swap2\n      pop\n      pop\n      jump\t// out\n        /* \"#utility.yul\":3778:4085   */\n    tag_47:\n        /* \"#utility.yul\":3846:3847   */\n      0x00\n        /* \"#utility.yul\":3856:3969   */\n    tag_110:\n        /* \"#utility.yul\":3870:3876   */\n      dup4\n        /* \"#utility.yul\":3867:3868   */\n      dup2\n        /* \"#utility.yul\":3864:3877   */\n      lt\n        /* \"#utility.yul\":3856:3969   */\n      iszero\n      tag_112\n      jumpi\n        /* \"#utility.yul\":3955:3956   */\n      dup1\n        /* \"#utility.yul\":3950:3953   */\n      dup3\n        /* \"#utility.yul\":3946:3957   */\n      add\n        /* \"#utility.yul\":3940:3958   */\n      mload\n        /* \"#utility.yul\":3936:3937   */\n      dup2\n        /* \"#utility.yul\":3931:3934   */\n      dup5\n        /* \"#utility.yul\":3927:3938   */\n      add\n        /* \"#utility.yul\":3920:3959   */\n      mstore\n        /* \"#utility.yul\":3892:3894   */\n      0x20\n        /* \"#utility.yul\":3889:3890   */\n      dup2\n        /* \"#utility.yul\":3885:3895   */\n      add\n        /* \"#utility.yul\":3880:3895   */\n      swap1\n      pop\n        /* \"#utility.yul\":3856:3969   */\n      jump(tag_110)\n    tag_112:\n        /* \"#utility.yul\":3987:3993   */\n      dup4\n        /* \"#utility.yul\":3984:3985   */\n      dup2\n        /* \"#utility.yul\":3981:3994   */\n      gt\n        /* \"#utility.yul\":3978:4079   */\n      iszero\n      tag_113\n      jumpi\n        /* \"#utility.yul\":4067:4068   */\n      0x00\n        /* \"#utility.yul\":4058:4064   */\n      dup5\n        /* \"#utility.yul\":4053:4056   */\n      dup5\n        /* \"#utility.yul\":4049:4065   */\n      add\n        /* \"#utility.yul\":4042:4069   */\n      mstore\n        /* \"#utility.yul\":3978:4079   */\n    tag_113:\n        /* \"#utility.yul\":3827:4085   */\n      pop\n        /* \"#utility.yul\":3778:4085   */\n      pop\n      pop\n      pop\n      jump\t// out\n        /* \"#utility.yul\":4091:4455   */\n    tag_48:\n        /* \"#utility.yul\":4179:4182   */\n      0x00\n        /* \"#utility.yul\":4207:4246   */\n      tag_115\n        /* \"#utility.yul\":4240:4245   */\n      dup3\n        /* \"#utility.yul\":4207:4246   */\n      tag_45\n      jump\t// in\n    tag_115:\n        /* \"#utility.yul\":4262:4333   */\n      tag_116\n        /* \"#utility.yul\":4326:4332   */\n      dup2\n        /* \"#utility.yul\":4321:4324   */\n      dup6\n        /* \"#utility.yul\":4262:4333   */\n      tag_46\n      jump\t// in\n    tag_116:\n        /* \"#utility.yul\":4255:4333   */\n      swap4\n      pop\n        /* \"#utility.yul\":4342:4394   */\n      tag_117\n        /* \"#utility.yul\":4387:4393   */\n      dup2\n        /* \"#utility.yul\":4382:4385   */\n      dup6\n        /* \"#utility.yul\":4375:4379   */\n      0x20\n        /* \"#utility.yul\":4368:4373   */\n      dup7\n        /* \"#utility.yul\":4364:4380   */\n      add\n        /* \"#utility.yul\":4342:4394   */\n      tag_47\n      jump\t// in\n    tag_117:\n        /* \"#utility.yul\":4419:4448   */\n      tag_118\n        /* \"#utility.yul\":4441:4447   */\n      dup2\n        /* \"#utility.yul\":4419:4448   */\n      tag_37\n      jump\t// in\n    tag_118:\n        /* \"#utility.yul\":4414:4417   */\n      dup5\n        /* \"#utility.yul\":4410:4449   */\n      add\n        /* \"#utility.yul\":4403:4449   */\n      swap2\n      pop\n        /* \"#utility.yul\":4183:4455   */\n      pop\n        /* \"#utility.yul\":4091:4455   */\n      swap3\n      swap2\n      pop\n      pop\n      jump\t// out\n        /* \"#utility.yul\":4461:4774   */\n    tag_17:\n        /* \"#utility.yul\":4574:4578   */\n      0x00\n        /* \"#utility.yul\":4612:4614   */\n      0x20\n        /* \"#utility.yul\":4601:4610   */\n      dup3\n        /* \"#utility.yul\":4597:4615   */\n      add\n        /* \"#utility.yul\":4589:4615   */\n      swap1\n      pop\n        /* \"#utility.yul\":4661:4670   */\n      dup2\n        /* \"#utility.yul\":4655:4659   */\n      dup2\n        /* \"#utility.yul\":4651:4671   */\n      sub\n        /* \"#utility.yul\":4647:4648   */\n      0x00\n        /* \"#utility.yul\":4636:4645   */\n      dup4\n        /* \"#utility.yul\":4632:4649   */\n      add\n        /* \"#utility.yul\":4625:4672   */\n      mstore\n        /* \"#utility.yul\":4689:4767   */\n      tag_120\n        /* \"#utility.yul\":4762:4766   */\n      dup2\n        /* \"#utility.yul\":4753:4759   */\n      dup5\n        /* \"#utility.yul\":4689:4767   */\n      tag_48\n      jump\t// in\n    tag_120:\n        /* \"#utility.yul\":4681:4767   */\n      swap1\n      pop\n        /* \"#utility.yul\":4461:4774   */\n      swap3\n      swap2\n      pop\n      pop\n      jump\t// out\n        /* \"#utility.yul\":4780:4960   */\n    tag_49:\n        /* \"#utility.yul\":4828:4905   */\n      0x4e487b7100000000000000000000000000000000000000000000000000000000\n        /* \"#utility.yul\":4825:4826   */\n      0x00\n        /* \"#utility.yul\":4818:4906   */\n      mstore\n        /* \"#utility.yul\":4925:4929   */\n      0x22\n        /* \"#utility.yul\":4922:4923   */\n      0x04\n        /* \"#utility.yul\":4915:4930   */\n      mstore\n        /* \"#utility.yul\":4949:4953   */\n      0x24\n        /* \"#utility.yul\":4946:4947   */\n      0x00\n        /* \"#utility.yul\":4939:4954   */\n      revert\n        /* \"#utility.yul\":4966:5286   */\n    tag_25:\n        /* \"#utility.yul\":5010:5016   */\n      0x00\n        /* \"#utility.yul\":5047:5048   */\n      0x02\n        /* \"#utility.yul\":5041:5045   */\n      dup3\n        /* \"#utility.yul\":5037:5049   */\n      div\n        /* \"#utility.yul\":5027:5049   */\n      swap1\n      pop\n        /* \"#utility.yul\":5094:5095   */\n      0x01\n        /* \"#utility.yul\":5088:5092   */\n      dup3\n        /* \"#utility.yul\":5084:5096   */\n      and\n        /* \"#utility.yul\":5115:5133   */\n      dup1\n        /* \"#utility.yul\":5105:5186   */\n      tag_123\n      jumpi\n        /* \"#utility.yul\":5171:5175   */\n      0x7f\n        /* \"#utility.yul\":5163:5169   */\n      dup3\n        /* \"#utility.yul\":5159:5176   */\n      and\n        /* \"#utility.yul\":5149:5176   */\n      swap2\n      pop\n        /* \"#utility.yul\":5105:5186   */\n    tag_123:\n        /* \"#utility.yul\":5233:5235   */\n      0x20\n        /* \"#utility.yul\":5225:5231   */\n      dup3\n        /* \"#utility.yul\":5222:5236   */\n      lt\n        /* \"#utility.yul\":5202:5220   */\n      dup2\n        /* \"#utility.yul\":5199:5237   */\n      sub\n        /* \"#utility.yul\":5196:5280   */\n      tag_124\n      jumpi\n        /* \"#utility.yul\":5252:5270   */\n      tag_125\n      tag_49\n      jump\t// in\n    tag_125:\n        /* \"#utility.yul\":5196:5280   */\n    tag_124:\n        /* \"#utility.yul\":5017:5286   */\n      pop\n        /* \"#utility.yul\":4966:5286   */\n      swap2\n      swap1\n      pop\n      jump\t// out\n        /* \"#utility.yul\":5292:5433   */\n    tag_50:\n        /* \"#utility.yul\":5341:5345   */\n      0x00\n        /* \"#utility.yul\":5364:5367   */\n      dup2\n        /* \"#utility.yul\":5356:5367   */\n      swap1\n      pop\n        /* \"#utility.yul\":5387:5390   */\n      dup2\n        /* \"#utility.yul\":5384:5385   */\n      0x00\n        /* \"#utility.yul\":5377:5391   */\n      mstore\n        /* \"#utility.yul\":5421:5425   */\n      0x20\n        /* \"#utility.yul\":5418:5419   */\n      0x00\n        /* \"#utility.yul\":5408:5426   */\n      keccak256\n        /* \"#utility.yul\":5400:5426   */\n      swap1\n      pop\n        /* \"#utility.yul\":5292:5433   */\n      swap2\n      swap1\n      pop\n      jump\t// out\n        /* \"#utility.yul\":5439:5532   */\n    tag_51:\n        /* \"#utility.yul\":5476:5482   */\n      0x00\n        /* \"#utility.yul\":5523:5525   */\n      0x20\n        /* \"#utility.yul\":5518:5520   */\n      0x1f\n        /* \"#utility.yul\":5511:5516   */\n      dup4\n        /* \"#utility.yul\":5507:5521   */\n      add\n        /* \"#utility.yul\":5503:5526   */\n      div\n        /* \"#utility.yul\":5493:5526   */\n      swap1\n      pop\n        /* \"#utility.yul\":5439:5532   */\n      swap2\n      swap1\n      pop\n      jump\t// out\n        /* \"#utility.yul\":5538:5645   */\n    tag_52:\n        /* \"#utility.yul\":5582:5590   */\n      0x00\n        /* \"#utility.yul\":5632:5637   */\n      dup3\n        /* \"#utility.yul\":5626:5630   */\n      dup3\n        /* \"#utility.yul\":5622:5638   */\n      shl\n        /* \"#utility.yul\":5601:5638   */\n      swap1\n      pop\n        /* \"#utility.yul\":5538:5645   */\n      swap3\n      swap2\n      pop\n      pop\n      jump\t// out\n        /* \"#utility.yul\":5651:6044   */\n    tag_53:\n        /* \"#utility.yul\":5720:5726   */\n      0x00\n        /* \"#utility.yul\":5770:5771   */\n      0x08\n        /* \"#utility.yul\":5758:5768   */\n      dup4\n        /* \"#utility.yul\":5754:5772   */\n      mul\n        /* \"#utility.yul\":5793:5890   */\n      tag_130\n        /* \"#utility.yul\":5823:5889   */\n      0xffffffffffffffffffffffffffffffffffffffffffffffffffffffffffffffff\n        /* \"#utility.yul\":5812:5821   */\n      dup3\n        /* \"#utility.yul\":5793:5890   */\n      tag_52\n      jump\t// in\n    tag_130:\n        /* \"#utility.yul\":5911:5950   */\n      tag_131\n        /* \"#utility.yul\":5941:5949   */\n      dup7\n        /* \"#utility.yul\":5930:5939   */\n      dup4\n        /* \"#utility.yul\":5911:5950   */\n      tag_52\n      jump\t// in\n    tag_131:\n        /* \"#utility.yul\":5899:5950   */\n      swap6\n      pop\n        /* \"#utility.yul\":5983:5987   */\n      dup1\n        /* \"#utility.yul\":5979:5988   */\n      not\n        /* \"#utility.yul\":5972:5977   */\n      dup5\n        /* \"#utility.yul\":5968:5989   */\n      and\n        /* \"#utility.yul\":5959:5989   */\n      swap4\n      pop\n        /* \"#utility.yul\":6032:6036   */\n      dup1\n        /* \"#utility.yul\":6022:6030   */\n      dup7\n        /* \"#utility.yul\":6018:6037   */\n      and\n        /* \"#utility.yul\":6011:6016   */\n      dup5\n        /* \"#utility.yul\":6008:6038   */\n      or\n        /* \"#utility.yul\":5998:6038   */\n      swap3\n      pop\n        /* \"#utility.yul\":5727:6044   */\n      pop\n      pop\n        /* \"#utility.yul\":5651:6044   */\n      swap4\n      swap3\n      pop\n      pop\n      pop\n      jump\t// out\n        /* \"#utility.yul\":6050:6110   */\n    tag_54:\n        /* \"#utility.yul\":6078:6081   */\n      0x00\n        /* \"#utility.yul\":6099:6104   */\n      dup2\n        /* \"#utility.yul\":6092:6104   */\n      swap1\n      pop\n        /* \"#utility.yul\":6050:6110   */\n      swap2\n      swap1\n      pop\n      jump\t// out\n        /* \"#utility.yul\":6116:6258   */\n    tag_55:\n        /* \"#utility.yul\":6166:6175   */\n      0x00\n        /* \"#utility.yul\":6199:6252   */\n      tag_134\n        /* \"#utility.yul\":6217:6251   */\n      tag_135\n        /* \"#utility.yul\":6226:6250   */\n      tag_136\n        /* \"#utility.yul\":6244:6249   */\n      dup5\n        /* \"#utility.yul\":6226:6250   */\n      tag_30\n      jump\t// in\n    tag_136:\n        /* \"#utility.yul\":6217:6251   */\n      tag_54\n      jump\t// in\n    tag_135:\n        /* \"#utility.yul\":6199:6252   */\n      tag_30\n      jump\t// in\n    tag_134:\n        /* \"#utility.yul\":6186:6252   */\n      swap1\n      pop\n        /* \"#utility.yul\":6116:6258   */\n      swap2\n      swap1\n      pop\n      jump\t// out\n        /* \"#utility.yul\":6264:6339   */\n    tag_56:\n        /* \"#utility.yul\":6307:6310   */\n      0x00\n        /* \"#utility.yul\":6328:6333   */\n      dup2\n        /* \"#utility.yul\":6321:6333   */\n      swap1\n      pop\n        /* \"#utility.yul\":6264:6339   */\n      swap2\n      swap1\n      pop\n      jump\t// out\n        /* \"#utility.yul\":6345:6614   */\n    tag_57:\n        /* \"#utility.yul\":6455:6494   */\n      tag_139\n        /* \"#utility.yul\":6486:6493   */\n      dup4\n        /* \"#utility.yul\":6455:6494   */\n      tag_55\n      jump\t// in\n    tag_139:\n        /* \"#utility.yul\":6516:6607   */\n      tag_140\n        /* \"#utility.yul\":6565:6606   */\n      tag_141\n        /* \"#utility.yul\":6589:6605   */\n      dup3\n        /* \"#utility.yul\":6565:6606   */\n      tag_56\n      jump\t// in\n    tag_141:\n        /* \"#utility.yul\":6557:6563   */\n      dup5\n        /* \"#utility.yul\":6550:6554   */\n      dup5\n        /* \"#utility.yul\":6544:6555   */\n      sload\n        /* \"#utility.yul\":6516:6607   */\n      tag_53\n      jump\t// in\n    tag_140:\n        /* \"#utility.yul\":6510:6514   */\n      dup3\n        /* \"#utility.yul\":6503:6608   */\n      sstore\n        /* \"#utility.yul\":6421:6614   */\n      pop\n        /* \"#utility.yul\":6345:6614   */\n      pop\n      pop\n      pop\n      jump\t// out\n        /* \"#utility.yul\":6620:6693   */\n    tag_58:\n        /* \"#utility.yul\":6665:6668   */\n      0x00\n        /* \"#utility.yul\":6620:6693   */\n      swap1\n      jump\t// out\n        /* \"#utility.yul\":6699:6888   */\n    tag_59:\n        /* \"#utility.yul\":6776:6808   */\n      tag_144\n      tag_58\n      jump\t// in\n    tag_144:\n        /* \"#utility.yul\":6817:6882   */\n      tag_145\n        /* \"#utility.yul\":6875:6881   */\n      dup2\n        /* \"#utility.yul\":6867:6873   */\n      dup5\n        /* \"#utility.yul\":6861:6865   */\n      dup5\n        /* \"#utility.yul\":6817:6882   */\n      tag_57\n      jump\t// in\n    tag_145:\n        /* \"#utility.yul\":6752:6888   */\n      pop\n        /* \"#utility.yul\":6699:6888   */\n      pop\n      pop\n      jump\t// out\n        /* \"#utility.yul\":6894:7080   */\n    tag_60:\n        /* \"#utility.yul\":6954:7074   */\n    tag_147:\n        /* \"#utility.yul\":6971:6974   */\n      dup2\n        /* \"#utility.yul\":6964:6969   */\n      dup2\n        /* \"#utility.yul\":6961:6975   */\n      lt\n        /* \"#utility.yul\":6954:7074   */\n      iszero\n      tag_149\n      jumpi\n        /* \"#utility.yul\":7025:7064   */\n      tag_150\n        /* \"#utility.yul\":7062:7063   */\n      0x00\n        /* \"#utility.yul\":7055:7060   */\n      dup3\n        /* \"#utility.yul\":7025:7064   */\n      tag_59\n      jump\t// in\n    tag_150:\n        /* \"#utility.yul\":6998:6999   */\n      0x01\n        /* \"#utility.yul\":6991:6996   */\n      dup2\n        /* \"#utility.yul\":6987:7000   */\n      add\n        /* \"#utility.yul\":6978:7000   */\n      swap1\n      pop\n        /* \"#utility.yul\":6954:7074   */\n      jump(tag_147)\n    tag_149:\n        /* \"#utility.yul\":6894:7080   */\n      pop\n      pop\n      jump\t// out\n        /* \"#utility.yul\":7086:7629   */\n    tag_61:\n        /* \"#utility.yul\":7187:7189   */\n      0x1f\n        /* \"#utility.yul\":7182:7185   */\n      dup3\n        /* \"#utility.yul\":7179:7190   */\n      gt\n        /* \"#utility.yul\":7176:7622   */\n      iszero\n      tag_152\n      jumpi\n        /* \"#utility.yul\":7221:7259   */\n      tag_153\n        /* \"#utility.yul\":7253:7258   */\n      dup2\n        /* \"#utility.yul\":7221:7259   */\n      tag_50\n      jump\t// in\n    tag_153:\n        /* \"#utility.yul\":7305:7334   */\n      tag_154\n        /* \"#utility.yul\":7323:7333   */\n      dup5\n        /* \"#utility.yul\":7305:7334   */\n      tag_51\n      jump\t// in\n    tag_154:\n        /* \"#utility.yul\":7295:7303   */\n      dup2\n        /* \"#utility.yul\":7291:7335   */\n      add\n        /* \"#utility.yul\":7488:7490   */\n      0x20\n        /* \"#utility.yul\":7476:7486   */\n      dup6\n        /* \"#utility.yul\":7473:7491   */\n      lt\n        /* \"#utility.yul\":7470:7519   */\n      iszero\n      tag_155\n      jumpi\n        /* \"#utility.yul\":7509:7517   */\n      dup2\n        /* \"#utility.yul\":7494:7517   */\n      swap1\n      pop\n        /* \"#utility.yul\":7470:7519   */\n    tag_155:\n        /* \"#utility.yul\":7532:7612   */\n      tag_156\n        /* \"#utility.yul\":7588:7610   */\n      tag_157\n        /* \"#utility.yul\":7606:7609   */\n      dup6\n        /* \"#utility.yul\":7588:7610   */\n      tag_51\n      jump\t// in\n    tag_157:\n        /* \"#utility.yul\":7578:7586   */\n      dup4\n        /* \"#utility.yul\":7574:7611   */\n      add\n        /* \"#utility.yul\":7561:7572   */\n      dup3\n        /* \"#utility.yul\":7532:7612   */\n      tag_60\n      jump\t// in\n    tag_156:\n        /* \"#utility.yul\":7191:7622   */\n      pop\n      pop\n        /* \"#utility.yul\":7176:7622   */\n    tag_152:\n        /* \"#utility.yul\":7086:7629   */\n      pop\n      pop\n      pop\n      jump\t// out\n        /* \"#utility.yul\":7635:7752   */\n    tag_62:\n        /* \"#utility.yul\":7689:7697   */\n      0x00\n        /* \"#utility.yul\":7739:7744   */\n      dup3\n        /* \"#utility.yul\":7733:7737   */\n      dup3\n        /* \"#utility.yul\":7729:7745   */\n      shr\n        /* \"#utility.yul\":7708:7745   */\n      swap1\n      pop\n        /* \"#utility.yul\":7635:7752   */\n      swap3\n      swap2\n      pop\n      pop\n      jump\t// out\n        /* \"#utility.yul\":7758:7927   */\n    tag_63:\n        /* \"#utility.yul\":7802:7808   */\n      0x00\n        /* \"#utility.yul\":7835:7886   */\n      tag_160\n        /* \"#utility.yul\":7883:7884   */\n      0x00\n        /* \"#utility.yul\":7879:7885   */\n      not\n        /* \"#utility.yul\":7871:7876   */\n      dup5\n        /* \"#utility.yul\":7868:7869   */\n      0x08\n        /* \"#utility.yul\":7864:7877   */\n      mul\n        /* \"#utility.yul\":7835:7886   */\n      tag_62\n      jump\t// in\n    tag_160:\n        /* \"#utility.yul\":7831:7887   */\n      not\n        /* \"#utility.yul\":7916:7920   */\n      dup1\n        /* \"#utility.yul\":7910:7914   */\n      dup4\n        /* \"#utility.yul\":7906:7921   */\n      and\n        /* \"#utility.yul\":7896:7921   */\n      swap2\n      pop\n        /* \"#utility.yul\":7809:7927   */\n      pop\n        /* \"#utility.yul\":7758:7927   */\n      swap3\n      swap2\n      pop\n      pop\n      jump\t// out\n        /* \"#utility.yul\":7932:8227   */\n    tag_64:\n        /* \"#utility.yul\":8008:8012   */\n      0x00\n        /* \"#utility.yul\":8154:8183   */\n      tag_162\n        /* \"#utility.yul\":8179:8182   */\n      dup4\n        /* \"#utility.yul\":8173:8177   */\n      dup4\n        /* \"#utility.yul\":8154:8183   */\n      tag_63\n      jump\t// in\n    tag_162:\n        /* \"#utility.yul\":8146:8183   */\n      swap2\n      pop\n        /* \"#utility.yul\":8216:8219   */\n      dup3\n        /* \"#utility.yul\":8213:8214   */\n      0x02\n        /* \"#utility.yul\":8209:8220   */\n      mul\n        /* \"#utility.yul\":8203:8207   */\n      dup3\n        /* \"#utility.yul\":8200:8221   */\n      or\n        /* \"#utility.yul\":8192:8221   */\n      swap1\n      pop\n        /* \"#utility.yul\":7932:8227   */\n      swap3\n      swap2\n      pop\n      pop\n      jump\t// out\n        /* \"#utility.yul\":8232:9627   */\n    tag_21:\n        /* \"#utility.yul\":8349:8386   */\n      tag_164\n        /* \"#utility.yul\":8382:8385   */\n      dup3\n        /* \"#utility.yul\":8349:8386   */\n      tag_45\n      jump\t// in\n    tag_164:\n        /* \"#utility.yul\":8451:8469   */\n      0xffffffffffffffff\n        /* \"#utility.yul\":8443:8449   */\n      dup2\n        /* \"#utility.yul\":8440:8470   */\n      gt\n        /* \"#utility.yul\":8437:8493   */\n      iszero\n      tag_165\n      jumpi\n        /* \"#utility.yul\":8473:8491   */\n      tag_166\n      tag_38\n      jump\t// in\n    tag_166:\n        /* \"#utility.yul\":8437:8493   */\n    tag_165:\n        /* \"#utility.yul\":8517:8555   */\n      tag_167\n        /* \"#utility.yul\":8549:8553   */\n      dup3\n        /* \"#utility.yul\":8543:8554   */\n      sload\n        /* \"#utility.yul\":8517:8555   */\n      tag_25\n      jump\t// in\n    tag_167:\n        /* \"#utility.yul\":8602:8669   */\n      tag_168\n        /* \"#utility.yul\":8662:8668   */\n      dup3\n        /* \"#utility.yul\":8654:8660   */\n      dup3\n        /* \"#utility.yul\":8648:8652   */\n      dup6\n        /* \"#utility.yul\":8602:8669   */\n      tag_61\n      jump\t// in\n    tag_168:\n        /* \"#utility.yul\":8696:8697   */\n      0x00\n        /* \"#utility.yul\":8720:8724   */\n      0x20\n        /* \"#utility.yul\":8707:8724   */\n      swap1\n      pop\n        /* \"#utility.yul\":8752:8754   */\n      0x1f\n        /* \"#utility.yul\":8744:8750   */\n      dup4\n        /* \"#utility.yul\":8741:8755   */\n      gt\n        /* \"#utility.yul\":8769:8770   */\n      0x01\n        /* \"#utility.yul\":8764:9382   */\n      dup2\n      eq\n      tag_170\n      jumpi\n        /* \"#utility.yul\":9426:9427   */\n      0x00\n        /* \"#utility.yul\":9443:9449   */\n      dup5\n        /* \"#utility.yul\":9440:9517   */\n      iszero\n      tag_171\n      jumpi\n        /* \"#utility.yul\":9492:9501   */\n      dup3\n        /* \"#utility.yul\":9487:9490   */\n      dup8\n        /* \"#utility.yul\":9483:9502   */\n      add\n        /* \"#utility.yul\":9477:9503   */\n      mload\n        /* \"#utility.yul\":9468:9503   */\n      swap1\n      pop\n        /* \"#utility.yul\":9440:9517   */\n    tag_171:\n        /* \"#utility.yul\":9543:9610   */\n      tag_172\n        /* \"#utility.yul\":9603:9609   */\n      dup6\n        /* \"#utility.yul\":9596:9601   */\n      dup3\n        /* \"#utility.yul\":9543:9610   */\n      tag_64\n      jump\t// in\n    tag_172:\n        /* \"#utility.yul\":9537:9541   */\n      dup7\n        /* \"#utility.yul\":9530:9611   */\n      sstore\n        /* \"#utility.yul\":9399:9621   */\n      pop\n        /* \"#utility.yul\":8734:9621   */\n      jump(tag_169)\n        /* \"#utility.yul\":8764:9382   */\n    tag_170:\n        /* \"#utility.yul\":8816:8820   */\n      0x1f\n        /* \"#utility.yul\":8812:8821   */\n      not\n        /* \"#utility.yul\":8804:8810   */\n      dup5\n        /* \"#utility.yul\":8800:8822   */\n      and\n        /* \"#utility.yul\":8850:8887   */\n      tag_173\n        /* \"#utility.yul\":8882:8886   */\n      dup7\n        /* \"#utility.yul\":8850:8887   */\n      tag_50\n      jump\t// in\n    tag_173:\n        /* \"#utility.yul\":8909:8910   */\n      0x00\n        /* \"#utility.yul\":8923:9131   */\n    tag_174:\n        /* \"#utility.yul\":8937:8944   */\n      dup3\n        /* \"#utility.yul\":8934:8935   */\n      dup2\n        /* \"#utility.yul\":8931:8945   */\n      lt\n        /* \"#utility.yul\":8923:9131   */\n      iszero\n      tag_176\n      jumpi\n        /* \"#utility.yul\":9016:9025   */\n      dup5\n        /* \"#utility.yul\":9011:9014   */\n      dup10\n        /* \"#utility.yul\":9007:9026   */\n      add\n        /* \"#utility.yul\":9001:9027   */\n      mload\n        /* \"#utility.yul\":8993:8999   */\n      dup3\n        /* \"#utility.yul\":8986:9028   */\n      sstore\n        /* \"#utility.yul\":9067:9068   */\n      0x01\n        /* \"#utility.yul\":9059:9065   */\n      dup3\n        /* \"#utility.yul\":9055:9069   */\n      add\n        /* \"#utility.yul\":9045:9069   */\n      swap2\n      pop\n        /* \"#utility.yul\":9114:9116   */\n      0x20\n        /* \"#utility.yul\":9103:9112   */\n      dup6\n        /* \"#utility.yul\":9099:9117   */\n      add\n        /* \"#utility.yul\":9086:9117   */\n      swap5\n      pop\n        /* \"#utility.yul\":8960:8964   */\n      0x20\n        /* \"#utility.yul\":8957:8958   */\n      dup2\n        /* \"#utility.yul\":8953:8965   */\n      add\n        /* \"#utility.yul\":8948:8965   */\n      swap1\n      pop\n        /* \"#utility.yul\":8923:9131   */\n      jump(tag_174)\n    tag_176:\n        /* \"#utility.yul\":9159:9165   */\n      dup7\n        /* \"#utility.yul\":9150:9157   */\n      dup4\n        /* \"#utility.yul\":9147:9166   */\n      lt\n        /* \"#utility.yul\":9144:9323   */\n      iszero\n      tag_177\n      jumpi\n        /* \"#utility.yul\":9217:9226   */\n      dup5\n        /* \"#utility.yul\":9212:9215   */\n      dup10\n        /* \"#utility.yul\":9208:9227   */\n      add\n        /* \"#utility.yul\":9202:9228   */\n      mload\n        /* \"#utility.yul\":9260:9308   */\n      tag_178\n        /* \"#utility.yul\":9302:9306   */\n      0x1f\n        /* \"#utility.yul\":9294:9300   */\n      dup10\n        /* \"#utility.yul\":9290:9307   */\n      and\n        /* \"#utility.yul\":9279:9288   */\n      dup3\n        /* \"#utility.yul\":9260:9308   */\n      tag_63\n      jump\t// in\n    tag_178:\n        /* \"#utility.yul\":9252:9258   */\n      dup4\n        /* \"#utility.yul\":9245:9309   */\n      sstore\n        /* \"#utility.yul\":9167:9323   */\n      pop\n        /* \"#utility.yul\":9144:9323   */\n    tag_177:\n        /* \"#utility.yul\":9369:9370   */\n      0x01\n        /* \"#utility.yul\":9365:9366   */\n      0x02\n        /* \"#utility.yul\":9357:9363   */\n      dup9\n        /* \"#utility.yul\":9353:9367   */\n      mul\n        /* \"#utility.yul\":9349:9371   */\n      add\n        /* \"#utility.yul\":9343:9347   */\n      dup9\n        /* \"#utility.yul\":9336:9372   */\n      sstore\n        /* \"#utility.yul\":8771:9382   */\n      pop\n      pop\n      pop\n        /* \"#utility.yul\":8734:9621   */\n    tag_169:\n      pop\n        /* \"#utility.yul\":8324:9627   */\n      pop\n      pop\n      pop\n        /* \"#utility.yul\":8232:9627   */\n      pop\n      pop\n      jump\t// out\n        /* \"#utility.yul\":9633:9813   */\n    tag_65:\n        /* \"#utility.yul\":9681:9758   */\n      0x4e487b7100000000000000000000000000000000000000000000000000000000\n        /* \"#utility.yul\":9678:9679   */\n      0x00\n        /* \"#utility.yul\":9671:9759   */\n      mstore\n        /* \"#utility.yul\":9778:9782   */\n      0x11\n        /* \"#utility.yul\":9775:9776   */\n      0x04\n        /* \"#utility.yul\":9768:9783   */\n      mstore\n        /* \"#utility.yul\":9802:9806   */\n      0x24\n        /* \"#utility.yul\":9799:9800   */\n      0x00\n        /* \"#utility.yul\":9792:9807   */\n      revert\n        /* \"#utility.yul\":9819:10052   */\n    tag_23:\n        /* \"#utility.yul\":9858:9861   */\n      0x00\n        /* \"#utility.yul\":9881:9905   */\n      tag_181\n        /* \"#utility.yul\":9899:9904   */\n      dup3\n        /* \"#utility.yul\":9881:9905   */\n      tag_30\n      jump\t// in\n    tag_181:\n        /* \"#utility.yul\":9872:9905   */\n      swap2\n      pop\n        /* \"#utility.yul\":9927:9993   */\n      0xffffffffffffffffffffffffffffffffffffffffffffffffffffffffffffffff\n        /* \"#utility.yul\":9920:9925   */\n      dup3\n        /* \"#utility.yul\":9917:9994   */\n      sub\n        /* \"#utility.yul\":9914:10017   */\n      tag_182\n      jumpi\n        /* \"#utility.yul\":9997:10015   */\n      tag_183\n      tag_65\n      jump\t// in\n    tag_183:\n        /* \"#utility.yul\":9914:10017   */\n    tag_182:\n        /* \"#utility.yul\":10044:10045   */\n      0x01\n        /* \"#utility.yul\":10037:10042   */\n      dup3\n        /* \"#utility.yul\":10033:10046   */\n      add\n        /* \"#utility.yul\":10026:10046   */\n      swap1\n      pop\n        /* \"#utility.yul\":9819:10052   */\n      swap2\n      swap1\n      pop\n      jump\t// out\n\n    auxdata: 0xa26469706673582212203301b6dbe0effc52002daecb0623aba68dd3279aea5e6185867fd9312bb6302f64736f6c634300080f0033\n}\n",
				"bytecode": {
					"linkReferences": {},
					"object": "608060405233600160006101000a81548173ffffffffffffffffffffffffffffffffffffffff021916908373ffffffffffffffffffffffffffffffffffffffff16021790555034801561005157600080fd5b506107be806100616000396000f3fe608060405234801561001057600080fd5b50600436106100415760003560e01c806361bc221a14610046578063775e215b146100645780639d56998d14610080575b600080fd5b61004e61009e565b60405161005b91906101cb565b60405180910390f35b61007e60048036038101906100799190610340565b6100a4565b005b610088610124565b6040516100959190610411565b60405180910390f35b60005481565b600160009054906101000a900473ffffffffffffffffffffffffffffffffffffffff1673ffffffffffffffffffffffffffffffffffffffff163373ffffffffffffffffffffffffffffffffffffffff1603610121578060029081610108919061063f565b5060008081548092919061011b90610740565b91905055505b50565b6002805461013190610462565b80601f016020809104026020016040519081016040528092919081815260200182805461015d90610462565b80156101aa5780601f1061017f576101008083540402835291602001916101aa565b820191906000526020600020905b81548152906001019060200180831161018d57829003601f168201915b505050505081565b6000819050919050565b6101c5816101b2565b82525050565b60006020820190506101e060008301846101bc565b92915050565b6000604051905090565b600080fd5b600080fd5b600080fd5b600080fd5b6000601f19601f8301169050919050565b7f4e487b7100000000000000000000000000000000000000000000000000000000600052604160045260246000fd5b61024d82610204565b810181811067ffffffffffffffff8211171561026c5761026b610215565b5b80604052505050565b600061027f6101e6565b905061028b8282610244565b919050565b600067ffffffffffffffff8211156102ab576102aa610215565b5b6102b482610204565b9050602081019050919050565b82818337600083830152505050565b60006102e36102de84610290565b610275565b9050828152602081018484840111156102ff576102fe6101ff565b5b61030a8482856102c1565b509392505050565b600082601f830112610327576103266101fa565b5b81356103378482602086016102d0565b91505092915050565b600060208284031215610356576103556101f0565b5b600082013567ffffffffffffffff811115610374576103736101f5565b5b61038084828501610312565b91505092915050565b600081519050919050565b600082825260208201905092915050565b60005b838110156103c35780820151818401526020810190506103a8565b838111156103d2576000848401525b50505050565b60006103e382610389565b6103ed8185610394565b93506103fd8185602086016103a5565b61040681610204565b840191505092915050565b6000602082019050818103600083015261042b81846103d8565b905092915050565b7f4e487b7100000000000000000000000000000000000000000000000000000000600052602260045260246000fd5b6000600282049050600182168061047a57607f821691505b60208210810361048d5761048c610433565b5b50919050565b60008190508160005260206000209050919050565b60006020601f8301049050919050565b600082821b905092915050565b6000600883026104f57fffffffffffffffffffffffffffffffffffffffffffffffffffffffffffffffff826104b8565b6104ff86836104b8565b95508019841693508086168417925050509392505050565b6000819050919050565b600061053c610537610532846101b2565b610517565b6101b2565b9050919050565b6000819050919050565b61055683610521565b61056a61056282610543565b8484546104c5565b825550505050565b600090565b61057f610572565b61058a81848461054d565b505050565b5b818110156105ae576105a3600082610577565b600181019050610590565b5050565b601f8211156105f3576105c481610493565b6105cd846104a8565b810160208510156105dc578190505b6105f06105e8856104a8565b83018261058f565b50505b505050565b600082821c905092915050565b6000610616600019846008026105f8565b1980831691505092915050565b600061062f8383610605565b9150826002028217905092915050565b61064882610389565b67ffffffffffffffff81111561066157610660610215565b5b61066b8254610462565b6106768282856105b2565b600060209050601f8311600181146106a95760008415610697578287015190505b6106a18582610623565b865550610709565b601f1984166106b786610493565b60005b828110156106df578489015182556001820191506020850194506020810190506106ba565b868310156106fc57848901516106f8601f891682610605565b8355505b6001600288020188555050505b505050505050565b7f4e487b7100000000000000000000000000000000000000000000000000000000600052601160045260246000fd5b600061074b826101b2565b91507fffffffffffffffffffffffffffffffffffffffffffffffffffffffffffffffff820361077d5761077c610711565b5b60018201905091905056fea26469706673582212203301b6dbe0effc52002daecb0623aba68dd3279aea5e6185867fd9312bb6302f64736f6c634300080f0033",
					"opcodes": "PUSH1 0x80 PUSH1 0x40 MSTORE CALLER PUSH1 0x1 PUSH1 0x0 PUSH2 0x100 EXP DUP2 SLOAD DUP2 PUSH20 0xFFFFFFFFFFFFFFFFFFFFFFFFFFFFFFFFFFFFFFFF MUL NOT AND SWAP1 DUP4 PUSH20 0xFFFFFFFFFFFFFFFFFFFFFFFFFFFFFFFFFFFFFFFF AND MUL OR SWAP1 SSTORE POP CALLVALUE DUP1 ISZERO PUSH2 0x51 JUMPI PUSH1 0x0 DUP1 REVERT JUMPDEST POP PUSH2 0x7BE DUP1 PUSH2 0x61 PUSH1 0x0 CODECOPY PUSH1 0x0 RETURN INVALID PUSH1 0x80 PUSH1 0x40 MSTORE CALLVALUE DUP1 ISZERO PUSH2 0x10 JUMPI PUSH1 0x0 DUP1 REVERT JUMPDEST POP PUSH1 0x4 CALLDATASIZE LT PUSH2 0x41 JUMPI PUSH1 0x0 CALLDATALOAD PUSH1 0xE0 SHR DUP1 PUSH4 0x61BC221A EQ PUSH2 0x46 JUMPI DUP1 PUSH4 0x775E215B EQ PUSH2 0x64 JUMPI DUP1 PUSH4 0x9D56998D EQ PUSH2 0x80 JUMPI JUMPDEST PUSH1 0x0 DUP1 REVERT JUMPDEST PUSH2 0x4E PUSH2 0x9E JUMP JUMPDEST PUSH1 0x40 MLOAD PUSH2 0x5B SWAP2 SWAP1 PUSH2 0x1CB JUMP JUMPDEST PUSH1 0x40 MLOAD DUP1 SWAP2 SUB SWAP1 RETURN JUMPDEST PUSH2 0x7E PUSH1 0x4 DUP1 CALLDATASIZE SUB DUP2 ADD SWAP1 PUSH2 0x79 SWAP2 SWAP1 PUSH2 0x340 JUMP JUMPDEST PUSH2 0xA4 JUMP JUMPDEST STOP JUMPDEST PUSH2 0x88 PUSH2 0x124 JUMP JUMPDEST PUSH1 0x40 MLOAD PUSH2 0x95 SWAP2 SWAP1 PUSH2 0x411 JUMP JUMPDEST PUSH1 0x40 MLOAD DUP1 SWAP2 SUB SWAP1 RETURN JUMPDEST PUSH1 0x0 SLOAD DUP2 JUMP JUMPDEST PUSH1 0x1 PUSH1 0x0 SWAP1 SLOAD SWAP1 PUSH2 0x100 EXP SWAP1 DIV PUSH20 0xFFFFFFFFFFFFFFFFFFFFFFFFFFFFFFFFFFFFFFFF AND PUSH20 0xFFFFFFFFFFFFFFFFFFFFFFFFFFFFFFFFFFFFFFFF AND CALLER PUSH20 0xFFFFFFFFFFFFFFFFFFFFFFFFFFFFFFFFFFFFFFFF AND SUB PUSH2 0x121 JUMPI DUP1 PUSH1 0x2 SWAP1 DUP2 PUSH2 0x108 SWAP2 SWAP1 PUSH2 0x63F JUMP JUMPDEST POP PUSH1 0x0 DUP1 DUP2 SLOAD DUP1 SWAP3 SWAP2 SWAP1 PUSH2 0x11B SWAP1 PUSH2 0x740 JUMP JUMPDEST SWAP2 SWAP1 POP SSTORE POP JUMPDEST POP JUMP JUMPDEST PUSH1 0x2 DUP1 SLOAD PUSH2 0x131 SWAP1 PUSH2 0x462 JUMP JUMPDEST DUP1 PUSH1 0x1F ADD PUSH1 0x20 DUP1 SWAP2 DIV MUL PUSH1 0x20 ADD PUSH1 0x40 MLOAD SWAP1 DUP2 ADD PUSH1 0x40 MSTORE DUP1 SWAP3 SWAP2 SWAP1 DUP2 DUP2 MSTORE PUSH1 0x20 ADD DUP3 DUP1 SLOAD PUSH2 0x15D SWAP1 PUSH2 0x462 JUMP JUMPDEST DUP1 ISZERO PUSH2 0x1AA JUMPI DUP1 PUSH1 0x1F LT PUSH2 0x17F JUMPI PUSH2 0x100 DUP1 DUP4 SLOAD DIV MUL DUP4 MSTORE SWAP2 PUSH1 0x20 ADD SWAP2 PUSH2 0x1AA JUMP JUMPDEST DUP3 ADD SWAP2 SWAP1 PUSH1 0x0 MSTORE PUSH1 0x20 PUSH1 0x0 KECCAK256 SWAP1 JUMPDEST DUP2 SLOAD DUP2 MSTORE SWAP1 PUSH1 0x1 ADD SWAP1 PUSH1 0x20 ADD DUP1 DUP4 GT PUSH2 0x18D JUMPI DUP3 SWAP1 SUB PUSH1 0x1F AND DUP3 ADD SWAP2 JUMPDEST POP POP POP POP POP DUP2 JUMP JUMPDEST PUSH1 0x0 DUP2 SWAP1 POP SWAP2 SWAP1 POP JUMP JUMPDEST PUSH2 0x1C5 DUP2 PUSH2 0x1B2 JUMP JUMPDEST DUP3 MSTORE POP POP JUMP JUMPDEST PUSH1 0x0 PUSH1 0x20 DUP3 ADD SWAP1 POP PUSH2 0x1E0 PUSH1 0x0 DUP4 ADD DUP5 PUSH2 0x1BC JUMP JUMPDEST SWAP3 SWAP2 POP POP JUMP JUMPDEST PUSH1 0x0 PUSH1 0x40 MLOAD SWAP1 POP SWAP1 JUMP JUMPDEST PUSH1 0x0 DUP1 REVERT JUMPDEST PUSH1 0x0 DUP1 REVERT JUMPDEST PUSH1 0x0 DUP1 REVERT JUMPDEST PUSH1 0x0 DUP1 REVERT JUMPDEST PUSH1 0x0 PUSH1 0x1F NOT PUSH1 0x1F DUP4 ADD AND SWAP1 POP SWAP2 SWAP1 POP JUMP JUMPDEST PUSH32 0x4E487B7100000000000000000000000000000000000000000000000000000000 PUSH1 0x0 MSTORE PUSH1 0x41 PUSH1 0x4 MSTORE PUSH1 0x24 PUSH1 0x0 REVERT JUMPDEST PUSH2 0x24D DUP3 PUSH2 0x204 JUMP JUMPDEST DUP2 ADD DUP2 DUP2 LT PUSH8 0xFFFFFFFFFFFFFFFF DUP3 GT OR ISZERO PUSH2 0x26C JUMPI PUSH2 0x26B PUSH2 0x215 JUMP JUMPDEST JUMPDEST DUP1 PUSH1 0x40 MSTORE POP POP POP JUMP JUMPDEST PUSH1 0x0 PUSH2 0x27F PUSH2 0x1E6 JUMP JUMPDEST SWAP1 POP PUSH2 0x28B DUP3 DUP3 PUSH2 0x244 JUMP JUMPDEST SWAP2 SWAP1 POP JUMP JUMPDEST PUSH1 0x0 PUSH8 0xFFFFFFFFFFFFFFFF DUP3 GT ISZERO PUSH2 0x2AB JUMPI PUSH2 0x2AA PUSH2 0x215 JUMP JUMPDEST JUMPDEST PUSH2 0x2B4 DUP3 PUSH2 0x204 JUMP JUMPDEST SWAP1 POP PUSH1 0x20 DUP2 ADD SWAP1 POP SWAP2 SWAP1 POP JUMP JUMPDEST DUP3 DUP2 DUP4 CALLDATACOPY PUSH1 0x0 DUP4 DUP4 ADD MSTORE POP POP POP JUMP JUMPDEST PUSH1 0x0 PUSH2 0x2E3 PUSH2 0x2DE DUP5 PUSH2 0x290 JUMP JUMPDEST PUSH2 0x275 JUMP JUMPDEST SWAP1 POP DUP3 DUP2 MSTORE PUSH1 0x20 DUP2 ADD DUP5 DUP5 DUP5 ADD GT ISZERO PUSH2 0x2FF JUMPI PUSH2 0x2FE PUSH2 0x1FF JUMP JUMPDEST JUMPDEST PUSH2 0x30A DUP5 DUP3 DUP6 PUSH2 0x2C1 JUMP JUMPDEST POP SWAP4 SWAP3 POP POP POP JUMP JUMPDEST PUSH1 0x0 DUP3 PUSH1 0x1F DUP4 ADD SLT PUSH2 0x327 JUMPI PUSH2 0x326 PUSH2 0x1FA JUMP JUMPDEST JUMPDEST DUP2 CALLDATALOAD PUSH2 0x337 DUP5 DUP3 PUSH1 0x20 DUP7 ADD PUSH2 0x2D0 JUMP JUMPDEST SWAP2 POP POP SWAP3 SWAP2 POP POP JUMP JUMPDEST PUSH1 0x0 PUSH1 0x20 DUP3 DUP5 SUB SLT ISZERO PUSH2 0x356 JUMPI PUSH2 0x355 PUSH2 0x1F0 JUMP JUMPDEST JUMPDEST PUSH1 0x0 DUP3 ADD CALLDATALOAD PUSH8 0xFFFFFFFFFFFFFFFF DUP2 GT ISZERO PUSH2 0x374 JUMPI PUSH2 0x373 PUSH2 0x1F5 JUMP JUMPDEST JUMPDEST PUSH2 0x380 DUP5 DUP3 DUP6 ADD PUSH2 0x312 JUMP JUMPDEST SWAP2 POP POP SWAP3 SWAP2 POP POP JUMP JUMPDEST PUSH1 0x0 DUP2 MLOAD SWAP1 POP SWAP2 SWAP1 POP JUMP JUMPDEST PUSH1 0x0 DUP3 DUP3 MSTORE PUSH1 0x20 DUP3 ADD SWAP1 POP SWAP3 SWAP2 POP POP JUMP JUMPDEST PUSH1 0x0 JUMPDEST DUP4 DUP2 LT ISZERO PUSH2 0x3C3 JUMPI DUP1 DUP3 ADD MLOAD DUP2 DUP5 ADD MSTORE PUSH1 0x20 DUP2 ADD SWAP1 POP PUSH2 0x3A8 JUMP JUMPDEST DUP4 DUP2 GT ISZERO PUSH2 0x3D2 JUMPI PUSH1 0x0 DUP5 DUP5 ADD MSTORE JUMPDEST POP POP POP POP JUMP JUMPDEST PUSH1 0x0 PUSH2 0x3E3 DUP3 PUSH2 0x389 JUMP JUMPDEST PUSH2 0x3ED DUP2 DUP6 PUSH2 0x394 JUMP JUMPDEST SWAP4 POP PUSH2 0x3FD DUP2 DUP6 PUSH1 0x20 DUP7 ADD PUSH2 0x3A5 JUMP JUMPDEST PUSH2 0x406 DUP2 PUSH2 0x204 JUMP JUMPDEST DUP5 ADD SWAP2 POP POP SWAP3 SWAP2 POP POP JUMP JUMPDEST PUSH1 0x0 PUSH1 0x20 DUP3 ADD SWAP1 POP DUP2 DUP2 SUB PUSH1 0x0 DUP4 ADD MSTORE PUSH2 0x42B DUP2 DUP5 PUSH2 0x3D8 JUMP JUMPDEST SWAP1 POP SWAP3 SWAP2 POP POP JUMP JUMPDEST PUSH32 0x4E487B7100000000000000000000000000000000000000000000000000000000 PUSH1 0x0 MSTORE PUSH1 0x22 PUSH1 0x4 MSTORE PUSH1 0x24 PUSH1 0x0 REVERT JUMPDEST PUSH1 0x0 PUSH1 0x2 DUP3 DIV SWAP1 POP PUSH1 0x1 DUP3 AND DUP1 PUSH2 0x47A JUMPI PUSH1 0x7F DUP3 AND SWAP2 POP JUMPDEST PUSH1 0x20 DUP3 LT DUP2 SUB PUSH2 0x48D JUMPI PUSH2 0x48C PUSH2 0x433 JUMP JUMPDEST JUMPDEST POP SWAP2 SWAP1 POP JUMP JUMPDEST PUSH1 0x0 DUP2 SWAP1 POP DUP2 PUSH1 0x0 MSTORE PUSH1 0x20 PUSH1 0x0 KECCAK256 SWAP1 POP SWAP2 SWAP1 POP JUMP JUMPDEST PUSH1 0x0 PUSH1 0x20 PUSH1 0x1F DUP4 ADD DIV SWAP1 POP SWAP2 SWAP1 POP JUMP JUMPDEST PUSH1 0x0 DUP3 DUP3 SHL SWAP1 POP SWAP3 SWAP2 POP POP JUMP JUMPDEST PUSH1 0x0 PUSH1 0x8 DUP4 MUL PUSH2 0x4F5 PUSH32 0xFFFFFFFFFFFFFFFFFFFFFFFFFFFFFFFFFFFFFFFFFFFFFFFFFFFFFFFFFFFFFFFF DUP3 PUSH2 0x4B8 JUMP JUMPDEST PUSH2 0x4FF DUP7 DUP4 PUSH2 0x4B8 JUMP JUMPDEST SWAP6 POP DUP1 NOT DUP5 AND SWAP4 POP DUP1 DUP7 AND DUP5 OR SWAP3 POP POP POP SWAP4 SWAP3 POP POP POP JUMP JUMPDEST PUSH1 0x0 DUP2 SWAP1 POP SWAP2 SWAP1 POP JUMP JUMPDEST PUSH1 0x0 PUSH2 0x53C PUSH2 0x537 PUSH2 0x532 DUP5 PUSH2 0x1B2 JUMP JUMPDEST PUSH2 0x517 JUMP JUMPDEST PUSH2 0x1B2 JUMP JUMPDEST SWAP1 POP SWAP2 SWAP1 POP JUMP JUMPDEST PUSH1 0x0 DUP2 SWAP1 POP SWAP2 SWAP1 POP JUMP JUMPDEST PUSH2 0x556 DUP4 PUSH2 0x521 JUMP JUMPDEST PUSH2 0x56A PUSH2 0x562 DUP3 PUSH2 0x543 JUMP JUMPDEST DUP5 DUP5 SLOAD PUSH2 0x4C5 JUMP JUMPDEST DUP3 SSTORE POP POP POP POP JUMP JUMPDEST PUSH1 0x0 SWAP1 JUMP JUMPDEST PUSH2 0x57F PUSH2 0x572 JUMP JUMPDEST PUSH2 0x58A DUP2 DUP5 DUP5 PUSH2 0x54D JUMP JUMPDEST POP POP POP JUMP JUMPDEST JUMPDEST DUP2 DUP2 LT ISZERO PUSH2 0x5AE JUMPI PUSH2 0x5A3 PUSH1 0x0 DUP3 PUSH2 0x577 JUMP JUMPDEST PUSH1 0x1 DUP2 ADD SWAP1 POP PUSH2 0x590 JUMP JUMPDEST POP POP JUMP JUMPDEST PUSH1 0x1F DUP3 GT ISZERO PUSH2 0x5F3 JUMPI PUSH2 0x5C4 DUP2 PUSH2 0x493 JUMP JUMPDEST PUSH2 0x5CD DUP5 PUSH2 0x4A8 JUMP JUMPDEST DUP2 ADD PUSH1 0x20 DUP6 LT ISZERO PUSH2 0x5DC JUMPI DUP2 SWAP1 POP JUMPDEST PUSH2 0x5F0 PUSH2 0x5E8 DUP6 PUSH2 0x4A8 JUMP JUMPDEST DUP4 ADD DUP3 PUSH2 0x58F JUMP JUMPDEST POP POP JUMPDEST POP POP POP JUMP JUMPDEST PUSH1 0x0 DUP3 DUP3 SHR SWAP1 POP SWAP3 SWAP2 POP POP JUMP JUMPDEST PUSH1 0x0 PUSH2 0x616 PUSH1 0x0 NOT DUP5 PUSH1 0x8 MUL PUSH2 0x5F8 JUMP JUMPDEST NOT DUP1 DUP4 AND SWAP2 POP POP SWAP3 SWAP2 POP POP JUMP JUMPDEST PUSH1 0x0 PUSH2 0x62F DUP4 DUP4 PUSH2 0x605 JUMP JUMPDEST SWAP2 POP DUP3 PUSH1 0x2 MUL DUP3 OR SWAP1 POP SWAP3 SWAP2 POP POP JUMP JUMPDEST PUSH2 0x648 DUP3 PUSH2 0x389 JUMP JUMPDEST PUSH8 0xFFFFFFFFFFFFFFFF DUP2 GT ISZERO PUSH2 0x661 JUMPI PUSH2 0x660 PUSH2 0x215 JUMP JUMPDEST JUMPDEST PUSH2 0x66B DUP3 SLOAD PUSH2 0x462 JUMP JUMPDEST PUSH2 0x676 DUP3 DUP3 DUP6 PUSH2 0x5B2 JUMP JUMPDEST PUSH1 0x0 PUSH1 0x20 SWAP1 POP PUSH1 0x1F DUP4 GT PUSH1 0x1 DUP2 EQ PUSH2 0x6A9 JUMPI PUSH1 0x0 DUP5 ISZERO PUSH2 0x697 JUMPI DUP3 DUP8 ADD MLOAD SWAP1 POP JUMPDEST PUSH2 0x6A1 DUP6 DUP3 PUSH2 0x623 JUMP JUMPDEST DUP7 SSTORE POP PUSH2 0x709 JUMP JUMPDEST PUSH1 0x1F NOT DUP5 AND PUSH2 0x6B7 DUP7 PUSH2 0x493 JUMP JUMPDEST PUSH1 0x0 JUMPDEST DUP3 DUP2 LT ISZERO PUSH2 0x6DF JUMPI DUP5 DUP10 ADD MLOAD DUP3 SSTORE PUSH1 0x1 DUP3 ADD SWAP2 POP PUSH1 0x20 DUP6 ADD SWAP5 POP PUSH1 0x20 DUP2 ADD SWAP1 POP PUSH2 0x6BA JUMP JUMPDEST DUP7 DUP4 LT ISZERO PUSH2 0x6FC JUMPI DUP5 DUP10 ADD MLOAD PUSH2 0x6F8 PUSH1 0x1F DUP10 AND DUP3 PUSH2 0x605 JUMP JUMPDEST DUP4 SSTORE POP JUMPDEST PUSH1 0x1 PUSH1 0x2 DUP9 MUL ADD DUP9 SSTORE POP POP POP JUMPDEST POP POP POP POP POP POP JUMP JUMPDEST PUSH32 0x4E487B7100000000000000000000000000000000000000000000000000000000 PUSH1 0x0 MSTORE PUSH1 0x11 PUSH1 0x4 MSTORE PUSH1 0x24 PUSH1 0x0 REVERT JUMPDEST PUSH1 0x0 PUSH2 0x74B DUP3 PUSH2 0x1B2 JUMP JUMPDEST SWAP2 POP PUSH32 0xFFFFFFFFFFFFFFFFFFFFFFFFFFFFFFFFFFFFFFFFFFFFFFFFFFFFFFFFFFFFFFFF DUP3 SUB PUSH2 0x77D JUMPI PUSH2 0x77C PUSH2 0x711 JUMP JUMPDEST JUMPDEST PUSH1 0x1 DUP3 ADD SWAP1 POP SWAP2 SWAP1 POP JUMP INVALID LOG2 PUSH5 0x6970667358 0x22 SLT KECCAK256 CALLER ADD 0xB6 0xDB 0xE0 0xEF 0xFC MSTORE STOP 0x2D 0xAE 0xCB MOD 0x23 0xAB 0xA6 DUP14 0xD3 0x27 SWAP11 0xEA 0x5E PUSH2 0x8586 PUSH32 0xD9312BB6302F64736F6C634300080F0033000000000000000000000000000000 "
				},
				"gasEstimates": {
					"creation": {
						"codeDepositCost": "396400",
						"executionCost": "24696",
						"totalCost": "421096"
					},
					"external": {
						"counter()": "2407",
						"my_message()": "infinite",
						"update_message(string)": "infinite"
					}
				},
				"methodIdentifiers": {
					"counter()": "61bc221a",
					"my_message()": "9d56998d",
					"update_message(string)": "775e215b"
				}
			},
			"storageLayout": {
				"storage": [
					{
						"astId": 3,
						"contract": "basics/messenger.sol:messenger_contracr",
						"label": "counter",
						"offset": 0,
						"slot": "0",
						"type": "t_uint256"
					},
					{
						"astId": 7,
						"contract": "basics/messenger.sol:messenger_contracr",
						"label": "owner",
						"offset": 0,
						"slot": "1",
						"type": "t_address"
					},
					{
						"astId": 9,
						"contract": "basics/messenger.sol:messenger_contracr",
						"label": "my_message",
						"offset": 0,
						"slot": "2",
						"type": "t_string_storage"
					}
				],
				"types": {
					"t_address": {
						"encoding": "inplace",
						"label": "address",
						"numberOfBytes": "20"
					},
					"t_string_storage": {
						"encoding": "bytes",
						"label": "string",
						"numberOfBytes": "32"
					},
					"t_uint256": {
						"encoding": "inplace",
						"label": "uint256",
						"numberOfBytes": "32"
					}
				}
			},
			"userdoc": {
				"kind": "user",
				"methods": {},
				"version": 1
			}
		}
	}
}