{
	"basics/int_rollover.sol": {
		"uint_contract": {
			"abi": [
				{
					"inputs": [],
					"name": "inc_dec",
					"outputs": [],
					"stateMutability": "nonpayable",
					"type": "function"
				},
				{
					"inputs": [],
					"name": "int_var",
					"outputs": [
						{
							"internalType": "uint256",
							"name": "",
							"type": "uint256"
						}
					],
					"stateMutability": "view",
					"type": "function"
				},
				{
					"inputs": [
						{
							"internalType": "uint256",
							"name": "uint_var_f",
							"type": "uint256"
						}
					],
					"name": "set_uint",
					"outputs": [],
					"stateMutability": "nonpayable",
					"type": "function"
				},
				{
					"inputs": [],
					"name": "uint64_var",
					"outputs": [
						{
							"internalType": "uint16",
							"name": "",
							"type": "uint16"
						}
					],
					"stateMutability": "view",
					"type": "function"
				},
				{
					"inputs": [],
					"name": "uint_var",
					"outputs": [
						{
							"internalType": "uint256",
							"name": "",
							"type": "uint256"
						}
					],
					"stateMutability": "view",
					"type": "function"
				}
			],
			"devdoc": {
				"kind": "dev",
				"methods": {},
				"version": 1
			},
			"evm": {
				"assembly": "    /* \"basics/int_rollover.sol\":62:408  contract uint_contract... */\n  mstore(0x40, 0x80)\n    /* \"basics/int_rollover.sol\":165:168  301 */\n  0x012d\n    /* \"basics/int_rollover.sol\":140:168  uint16 public uint64_var=301 */\n  0x01\n  exp(0x0100, 0x00)\n  dup2\n  sload\n  dup2\n  0xffff\n  mul\n  not\n  and\n  swap1\n  dup4\n  0xffff\n  and\n  mul\n  or\n  swap1\n  sstore\n  pop\n    /* \"basics/int_rollover.sol\":197:198  0 */\n  0x00\n    /* \"basics/int_rollover.sol\":177:198  uint public int_var=0 */\n  0x02\n  sstore\n    /* \"basics/int_rollover.sol\":62:408  contract uint_contract... */\n  callvalue\n  dup1\n  iszero\n  tag_1\n  jumpi\n  0x00\n  dup1\n  revert\ntag_1:\n  pop\n  dataSize(sub_0)\n  dup1\n  dataOffset(sub_0)\n  0x00\n  codecopy\n  0x00\n  return\nstop\n\nsub_0: assembly {\n        /* \"basics/int_rollover.sol\":62:408  contract uint_contract... */\n      mstore(0x40, 0x80)\n      callvalue\n      dup1\n      iszero\n      tag_1\n      jumpi\n      0x00\n      dup1\n      revert\n    tag_1:\n      pop\n      jumpi(tag_2, lt(calldatasize, 0x04))\n      shr(0xe0, calldataload(0x00))\n      dup1\n      0x2a3db8b2\n      eq\n      tag_3\n      jumpi\n      dup1\n      0x7f932896\n      eq\n      tag_4\n      jumpi\n      dup1\n      0x9dd3576f\n      eq\n      tag_5\n      jumpi\n      dup1\n      0xaa91543e\n      eq\n      tag_6\n      jumpi\n      dup1\n      0xc1e5e025\n      eq\n      tag_7\n      jumpi\n    tag_2:\n      0x00\n      dup1\n      revert\n        /* \"basics/int_rollover.sol\":177:198  uint public int_var=0 */\n    tag_3:\n      tag_8\n      tag_9\n      jump\t// in\n    tag_8:\n      mload(0x40)\n      tag_10\n      swap2\n      swap1\n      tag_11\n      jump\t// in\n    tag_10:\n      mload(0x40)\n      dup1\n      swap2\n      sub\n      swap1\n      return\n        /* \"basics/int_rollover.sol\":140:168  uint16 public uint64_var=301 */\n    tag_4:\n      tag_12\n      tag_13\n      jump\t// in\n    tag_12:\n      mload(0x40)\n      tag_14\n      swap2\n      swap1\n      tag_15\n      jump\t// in\n    tag_14:\n      mload(0x40)\n      dup1\n      swap2\n      sub\n      swap1\n      return\n        /* \"basics/int_rollover.sol\":93:116  uint256 public uint_var */\n    tag_5:\n      tag_16\n      tag_17\n      jump\t// in\n    tag_16:\n      mload(0x40)\n      tag_18\n      swap2\n      swap1\n      tag_11\n      jump\t// in\n    tag_18:\n      mload(0x40)\n      dup1\n      swap2\n      sub\n      swap1\n      return\n        /* \"basics/int_rollover.sol\":230:314  function set_uint(uint uint_var_f)public... */\n    tag_6:\n      tag_19\n      0x04\n      dup1\n      calldatasize\n      sub\n      dup2\n      add\n      swap1\n      tag_20\n      swap2\n      swap1\n      tag_21\n      jump\t// in\n    tag_20:\n      tag_22\n      jump\t// in\n    tag_19:\n      stop\n        /* \"basics/int_rollover.sol\":322:403  function inc_dec()public... */\n    tag_7:\n      tag_23\n      tag_24\n      jump\t// in\n    tag_23:\n      stop\n        /* \"basics/int_rollover.sol\":177:198  uint public int_var=0 */\n    tag_9:\n      sload(0x02)\n      dup2\n      jump\t// out\n        /* \"basics/int_rollover.sol\":140:168  uint16 public uint64_var=301 */\n    tag_13:\n      0x01\n      0x00\n      swap1\n      sload\n      swap1\n      0x0100\n      exp\n      swap1\n      div\n      0xffff\n      and\n      dup2\n      jump\t// out\n        /* \"basics/int_rollover.sol\":93:116  uint256 public uint_var */\n    tag_17:\n      sload(0x00)\n      dup2\n      jump\t// out\n        /* \"basics/int_rollover.sol\":230:314  function set_uint(uint uint_var_f)public... */\n    tag_22:\n        /* \"basics/int_rollover.sol\":296:306  uint_var_f */\n      dup1\n        /* \"basics/int_rollover.sol\":287:295  uint_var */\n      0x00\n        /* \"basics/int_rollover.sol\":287:306  uint_var=uint_var_f */\n      dup2\n      swap1\n      sstore\n      pop\n        /* \"basics/int_rollover.sol\":230:314  function set_uint(uint uint_var_f)public... */\n      pop\n      jump\t// out\n        /* \"basics/int_rollover.sol\":322:403  function inc_dec()public... */\n    tag_24:\n        /* \"basics/int_rollover.sol\":363:373  uint64_var */\n      0x01\n      0x00\n        /* \"basics/int_rollover.sol\":363:375  uint64_var++ */\n      dup2\n      dup2\n      swap1\n      sload\n      swap1\n      0x0100\n      exp\n      swap1\n      div\n      0xffff\n      and\n      dup1\n      swap3\n      swap2\n      swap1\n      tag_27\n      swap1\n      tag_28\n      jump\t// in\n    tag_27:\n      swap2\n      swap1\n      0x0100\n      exp\n      dup2\n      sload\n      dup2\n      0xffff\n      mul\n      not\n      and\n      swap1\n      dup4\n      0xffff\n      and\n      mul\n      or\n      swap1\n      sstore\n      pop\n      pop\n        /* \"basics/int_rollover.sol\":386:393  int_var */\n      0x02\n      0x00\n        /* \"basics/int_rollover.sol\":386:395  int_var-- */\n      dup2\n      sload\n      dup1\n      swap3\n      swap2\n      swap1\n      tag_29\n      swap1\n      tag_30\n      jump\t// in\n    tag_29:\n      swap2\n      swap1\n      pop\n      sstore\n      pop\n        /* \"basics/int_rollover.sol\":322:403  function inc_dec()public... */\n      jump\t// out\n        /* \"#utility.yul\":7:84   */\n    tag_31:\n        /* \"#utility.yul\":44:51   */\n      0x00\n        /* \"#utility.yul\":73:78   */\n      dup2\n        /* \"#utility.yul\":62:78   */\n      swap1\n      pop\n        /* \"#utility.yul\":7:84   */\n      swap2\n      swap1\n      pop\n      jump\t// out\n        /* \"#utility.yul\":90:208   */\n    tag_32:\n        /* \"#utility.yul\":177:201   */\n      tag_44\n        /* \"#utility.yul\":195:200   */\n      dup2\n        /* \"#utility.yul\":177:201   */\n      tag_31\n      jump\t// in\n    tag_44:\n        /* \"#utility.yul\":172:175   */\n      dup3\n        /* \"#utility.yul\":165:202   */\n      mstore\n        /* \"#utility.yul\":90:208   */\n      pop\n      pop\n      jump\t// out\n        /* \"#utility.yul\":214:436   */\n    tag_11:\n        /* \"#utility.yul\":307:311   */\n      0x00\n        /* \"#utility.yul\":345:347   */\n      0x20\n        /* \"#utility.yul\":334:343   */\n      dup3\n        /* \"#utility.yul\":330:348   */\n      add\n        /* \"#utility.yul\":322:348   */\n      swap1\n      pop\n        /* \"#utility.yul\":358:429   */\n      tag_46\n        /* \"#utility.yul\":426:427   */\n      0x00\n        /* \"#utility.yul\":415:424   */\n      dup4\n        /* \"#utility.yul\":411:428   */\n      add\n        /* \"#utility.yul\":402:408   */\n      dup5\n        /* \"#utility.yul\":358:429   */\n      tag_32\n      jump\t// in\n    tag_46:\n        /* \"#utility.yul\":214:436   */\n      swap3\n      swap2\n      pop\n      pop\n      jump\t// out\n        /* \"#utility.yul\":442:531   */\n    tag_33:\n        /* \"#utility.yul\":478:485   */\n      0x00\n        /* \"#utility.yul\":518:524   */\n      0xffff\n        /* \"#utility.yul\":511:516   */\n      dup3\n        /* \"#utility.yul\":507:525   */\n      and\n        /* \"#utility.yul\":496:525   */\n      swap1\n      pop\n        /* \"#utility.yul\":442:531   */\n      swap2\n      swap1\n      pop\n      jump\t// out\n        /* \"#utility.yul\":537:652   */\n    tag_34:\n        /* \"#utility.yul\":622:645   */\n      tag_49\n        /* \"#utility.yul\":639:644   */\n      dup2\n        /* \"#utility.yul\":622:645   */\n      tag_33\n      jump\t// in\n    tag_49:\n        /* \"#utility.yul\":617:620   */\n      dup3\n        /* \"#utility.yul\":610:646   */\n      mstore\n        /* \"#utility.yul\":537:652   */\n      pop\n      pop\n      jump\t// out\n        /* \"#utility.yul\":658:876   */\n    tag_15:\n        /* \"#utility.yul\":749:753   */\n      0x00\n        /* \"#utility.yul\":787:789   */\n      0x20\n        /* \"#utility.yul\":776:785   */\n      dup3\n        /* \"#utility.yul\":772:790   */\n      add\n        /* \"#utility.yul\":764:790   */\n      swap1\n      pop\n        /* \"#utility.yul\":800:869   */\n      tag_51\n        /* \"#utility.yul\":866:867   */\n      0x00\n        /* \"#utility.yul\":855:864   */\n      dup4\n        /* \"#utility.yul\":851:868   */\n      add\n        /* \"#utility.yul\":842:848   */\n      dup5\n        /* \"#utility.yul\":800:869   */\n      tag_34\n      jump\t// in\n    tag_51:\n        /* \"#utility.yul\":658:876   */\n      swap3\n      swap2\n      pop\n      pop\n      jump\t// out\n        /* \"#utility.yul\":963:1080   */\n    tag_36:\n        /* \"#utility.yul\":1072:1073   */\n      0x00\n        /* \"#utility.yul\":1069:1070   */\n      dup1\n        /* \"#utility.yul\":1062:1074   */\n      revert\n        /* \"#utility.yul\":1209:1331   */\n    tag_38:\n        /* \"#utility.yul\":1282:1306   */\n      tag_56\n        /* \"#utility.yul\":1300:1305   */\n      dup2\n        /* \"#utility.yul\":1282:1306   */\n      tag_31\n      jump\t// in\n    tag_56:\n        /* \"#utility.yul\":1275:1280   */\n      dup2\n        /* \"#utility.yul\":1272:1307   */\n      eq\n        /* \"#utility.yul\":1262:1325   */\n      tag_57\n      jumpi\n        /* \"#utility.yul\":1321:1322   */\n      0x00\n        /* \"#utility.yul\":1318:1319   */\n      dup1\n        /* \"#utility.yul\":1311:1323   */\n      revert\n        /* \"#utility.yul\":1262:1325   */\n    tag_57:\n        /* \"#utility.yul\":1209:1331   */\n      pop\n      jump\t// out\n        /* \"#utility.yul\":1337:1476   */\n    tag_39:\n        /* \"#utility.yul\":1383:1388   */\n      0x00\n        /* \"#utility.yul\":1421:1427   */\n      dup2\n        /* \"#utility.yul\":1408:1428   */\n      calldataload\n        /* \"#utility.yul\":1399:1428   */\n      swap1\n      pop\n        /* \"#utility.yul\":1437:1470   */\n      tag_59\n        /* \"#utility.yul\":1464:1469   */\n      dup2\n        /* \"#utility.yul\":1437:1470   */\n      tag_38\n      jump\t// in\n    tag_59:\n        /* \"#utility.yul\":1337:1476   */\n      swap3\n      swap2\n      pop\n      pop\n      jump\t// out\n        /* \"#utility.yul\":1482:1811   */\n    tag_21:\n        /* \"#utility.yul\":1541:1547   */\n      0x00\n        /* \"#utility.yul\":1590:1592   */\n      0x20\n        /* \"#utility.yul\":1578:1587   */\n      dup3\n        /* \"#utility.yul\":1569:1576   */\n      dup5\n        /* \"#utility.yul\":1565:1588   */\n      sub\n        /* \"#utility.yul\":1561:1593   */\n      slt\n        /* \"#utility.yul\":1558:1677   */\n      iszero\n      tag_61\n      jumpi\n        /* \"#utility.yul\":1596:1675   */\n      tag_62\n      tag_36\n      jump\t// in\n    tag_62:\n        /* \"#utility.yul\":1558:1677   */\n    tag_61:\n        /* \"#utility.yul\":1716:1717   */\n      0x00\n        /* \"#utility.yul\":1741:1794   */\n      tag_63\n        /* \"#utility.yul\":1786:1793   */\n      dup5\n        /* \"#utility.yul\":1777:1783   */\n      dup3\n        /* \"#utility.yul\":1766:1775   */\n      dup6\n        /* \"#utility.yul\":1762:1784   */\n      add\n        /* \"#utility.yul\":1741:1794   */\n      tag_39\n      jump\t// in\n    tag_63:\n        /* \"#utility.yul\":1731:1794   */\n      swap2\n      pop\n        /* \"#utility.yul\":1687:1804   */\n      pop\n        /* \"#utility.yul\":1482:1811   */\n      swap3\n      swap2\n      pop\n      pop\n      jump\t// out\n        /* \"#utility.yul\":1817:1997   */\n    tag_40:\n        /* \"#utility.yul\":1865:1942   */\n      0x4e487b7100000000000000000000000000000000000000000000000000000000\n        /* \"#utility.yul\":1862:1863   */\n      0x00\n        /* \"#utility.yul\":1855:1943   */\n      mstore\n        /* \"#utility.yul\":1962:1966   */\n      0x11\n        /* \"#utility.yul\":1959:1960   */\n      0x04\n        /* \"#utility.yul\":1952:1967   */\n      mstore\n        /* \"#utility.yul\":1986:1990   */\n      0x24\n        /* \"#utility.yul\":1983:1984   */\n      0x00\n        /* \"#utility.yul\":1976:1991   */\n      revert\n        /* \"#utility.yul\":2003:2174   */\n    tag_28:\n        /* \"#utility.yul\":2041:2044   */\n      0x00\n        /* \"#utility.yul\":2064:2087   */\n      tag_66\n        /* \"#utility.yul\":2081:2086   */\n      dup3\n        /* \"#utility.yul\":2064:2087   */\n      tag_33\n      jump\t// in\n    tag_66:\n        /* \"#utility.yul\":2055:2087   */\n      swap2\n      pop\n        /* \"#utility.yul\":2109:2115   */\n      0xffff\n        /* \"#utility.yul\":2102:2107   */\n      dup3\n        /* \"#utility.yul\":2099:2116   */\n      sub\n        /* \"#utility.yul\":2096:2139   */\n      tag_67\n      jumpi\n        /* \"#utility.yul\":2119:2137   */\n      tag_68\n      tag_40\n      jump\t// in\n    tag_68:\n        /* \"#utility.yul\":2096:2139   */\n    tag_67:\n        /* \"#utility.yul\":2166:2167   */\n      0x01\n        /* \"#utility.yul\":2159:2164   */\n      dup3\n        /* \"#utility.yul\":2155:2168   */\n      add\n        /* \"#utility.yul\":2148:2168   */\n      swap1\n      pop\n        /* \"#utility.yul\":2003:2174   */\n      swap2\n      swap1\n      pop\n      jump\t// out\n        /* \"#utility.yul\":2180:2351   */\n    tag_30:\n        /* \"#utility.yul\":2219:2222   */\n      0x00\n        /* \"#utility.yul\":2242:2266   */\n      tag_70\n        /* \"#utility.yul\":2260:2265   */\n      dup3\n        /* \"#utility.yul\":2242:2266   */\n      tag_31\n      jump\t// in\n    tag_70:\n        /* \"#utility.yul\":2233:2266   */\n      swap2\n      pop\n        /* \"#utility.yul\":2288:2292   */\n      0x00\n        /* \"#utility.yul\":2281:2286   */\n      dup3\n        /* \"#utility.yul\":2278:2293   */\n      sub\n        /* \"#utility.yul\":2275:2316   */\n      tag_71\n      jumpi\n        /* \"#utility.yul\":2296:2314   */\n      tag_72\n      tag_40\n      jump\t// in\n    tag_72:\n        /* \"#utility.yul\":2275:2316   */\n    tag_71:\n        /* \"#utility.yul\":2343:2344   */\n      0x01\n        /* \"#utility.yul\":2336:2341   */\n      dup3\n        /* \"#utility.yul\":2332:2345   */\n      sub\n        /* \"#utility.yul\":2325:2345   */\n      swap1\n      pop\n        /* \"#utility.yul\":2180:2351   */\n      swap2\n      swap1\n      pop\n      jump\t// out\n\n    auxdata: 0xa2646970667358221220208a48031dd90202e738399d9f0460a417a5222111c1535f663e343c2c74071664736f6c63430008120033\n}\n",
				"bytecode": {
					"linkReferences": {},
					"object": "608060405261012d600160006101000a81548161ffff021916908361ffff160217905550600060025534801561003457600080fd5b506102dd806100446000396000f3fe608060405234801561001057600080fd5b50600436106100575760003560e01c80632a3db8b21461005c5780637f9328961461007a5780639dd3576f14610098578063aa91543e146100b6578063c1e5e025146100d2575b600080fd5b6100646100dc565b6040516100719190610174565b60405180910390f35b6100826100e2565b60405161008f91906101ac565b60405180910390f35b6100a06100f6565b6040516100ad9190610174565b60405180910390f35b6100d060048036038101906100cb91906101f8565b6100fc565b005b6100da610106565b005b60025481565b600160009054906101000a900461ffff1681565b60005481565b8060008190555050565b6001600081819054906101000a900461ffff168092919061012690610254565b91906101000a81548161ffff021916908361ffff16021790555050600260008154809291906101549061027e565b9190505550565b6000819050919050565b61016e8161015b565b82525050565b60006020820190506101896000830184610165565b92915050565b600061ffff82169050919050565b6101a68161018f565b82525050565b60006020820190506101c1600083018461019d565b92915050565b600080fd5b6101d58161015b565b81146101e057600080fd5b50565b6000813590506101f2816101cc565b92915050565b60006020828403121561020e5761020d6101c7565b5b600061021c848285016101e3565b91505092915050565b7f4e487b7100000000000000000000000000000000000000000000000000000000600052601160045260246000fd5b600061025f8261018f565b915061ffff820361027357610272610225565b5b600182019050919050565b60006102898261015b565b91506000820361029c5761029b610225565b5b60018203905091905056fea2646970667358221220208a48031dd90202e738399d9f0460a417a5222111c1535f663e343c2c74071664736f6c63430008120033",
					"opcodes": "PUSH1 0x80 PUSH1 0x40 MSTORE PUSH2 0x12D PUSH1 0x1 PUSH1 0x0 PUSH2 0x100 EXP DUP2 SLOAD DUP2 PUSH2 0xFFFF MUL NOT AND SWAP1 DUP4 PUSH2 0xFFFF AND MUL OR SWAP1 SSTORE POP PUSH1 0x0 PUSH1 0x2 SSTORE CALLVALUE DUP1 ISZERO PUSH2 0x34 JUMPI PUSH1 0x0 DUP1 REVERT JUMPDEST POP PUSH2 0x2DD DUP1 PUSH2 0x44 PUSH1 0x0 CODECOPY PUSH1 0x0 RETURN INVALID PUSH1 0x80 PUSH1 0x40 MSTORE CALLVALUE DUP1 ISZERO PUSH2 0x10 JUMPI PUSH1 0x0 DUP1 REVERT JUMPDEST POP PUSH1 0x4 CALLDATASIZE LT PUSH2 0x57 JUMPI PUSH1 0x0 CALLDATALOAD PUSH1 0xE0 SHR DUP1 PUSH4 0x2A3DB8B2 EQ PUSH2 0x5C JUMPI DUP1 PUSH4 0x7F932896 EQ PUSH2 0x7A JUMPI DUP1 PUSH4 0x9DD3576F EQ PUSH2 0x98 JUMPI DUP1 PUSH4 0xAA91543E EQ PUSH2 0xB6 JUMPI DUP1 PUSH4 0xC1E5E025 EQ PUSH2 0xD2 JUMPI JUMPDEST PUSH1 0x0 DUP1 REVERT JUMPDEST PUSH2 0x64 PUSH2 0xDC JUMP JUMPDEST PUSH1 0x40 MLOAD PUSH2 0x71 SWAP2 SWAP1 PUSH2 0x174 JUMP JUMPDEST PUSH1 0x40 MLOAD DUP1 SWAP2 SUB SWAP1 RETURN JUMPDEST PUSH2 0x82 PUSH2 0xE2 JUMP JUMPDEST PUSH1 0x40 MLOAD PUSH2 0x8F SWAP2 SWAP1 PUSH2 0x1AC JUMP JUMPDEST PUSH1 0x40 MLOAD DUP1 SWAP2 SUB SWAP1 RETURN JUMPDEST PUSH2 0xA0 PUSH2 0xF6 JUMP JUMPDEST PUSH1 0x40 MLOAD PUSH2 0xAD SWAP2 SWAP1 PUSH2 0x174 JUMP JUMPDEST PUSH1 0x40 MLOAD DUP1 SWAP2 SUB SWAP1 RETURN JUMPDEST PUSH2 0xD0 PUSH1 0x4 DUP1 CALLDATASIZE SUB DUP2 ADD SWAP1 PUSH2 0xCB SWAP2 SWAP1 PUSH2 0x1F8 JUMP JUMPDEST PUSH2 0xFC JUMP JUMPDEST STOP JUMPDEST PUSH2 0xDA PUSH2 0x106 JUMP JUMPDEST STOP JUMPDEST PUSH1 0x2 SLOAD DUP2 JUMP JUMPDEST PUSH1 0x1 PUSH1 0x0 SWAP1 SLOAD SWAP1 PUSH2 0x100 EXP SWAP1 DIV PUSH2 0xFFFF AND DUP2 JUMP JUMPDEST PUSH1 0x0 SLOAD DUP2 JUMP JUMPDEST DUP1 PUSH1 0x0 DUP2 SWAP1 SSTORE POP POP JUMP JUMPDEST PUSH1 0x1 PUSH1 0x0 DUP2 DUP2 SWAP1 SLOAD SWAP1 PUSH2 0x100 EXP SWAP1 DIV PUSH2 0xFFFF AND DUP1 SWAP3 SWAP2 SWAP1 PUSH2 0x126 SWAP1 PUSH2 0x254 JUMP JUMPDEST SWAP2 SWAP1 PUSH2 0x100 EXP DUP2 SLOAD DUP2 PUSH2 0xFFFF MUL NOT AND SWAP1 DUP4 PUSH2 0xFFFF AND MUL OR SWAP1 SSTORE POP POP PUSH1 0x2 PUSH1 0x0 DUP2 SLOAD DUP1 SWAP3 SWAP2 SWAP1 PUSH2 0x154 SWAP1 PUSH2 0x27E JUMP JUMPDEST SWAP2 SWAP1 POP SSTORE POP JUMP JUMPDEST PUSH1 0x0 DUP2 SWAP1 POP SWAP2 SWAP1 POP JUMP JUMPDEST PUSH2 0x16E DUP2 PUSH2 0x15B JUMP JUMPDEST DUP3 MSTORE POP POP JUMP JUMPDEST PUSH1 0x0 PUSH1 0x20 DUP3 ADD SWAP1 POP PUSH2 0x189 PUSH1 0x0 DUP4 ADD DUP5 PUSH2 0x165 JUMP JUMPDEST SWAP3 SWAP2 POP POP JUMP JUMPDEST PUSH1 0x0 PUSH2 0xFFFF DUP3 AND SWAP1 POP SWAP2 SWAP1 POP JUMP JUMPDEST PUSH2 0x1A6 DUP2 PUSH2 0x18F JUMP JUMPDEST DUP3 MSTORE POP POP JUMP JUMPDEST PUSH1 0x0 PUSH1 0x20 DUP3 ADD SWAP1 POP PUSH2 0x1C1 PUSH1 0x0 DUP4 ADD DUP5 PUSH2 0x19D JUMP JUMPDEST SWAP3 SWAP2 POP POP JUMP JUMPDEST PUSH1 0x0 DUP1 REVERT JUMPDEST PUSH2 0x1D5 DUP2 PUSH2 0x15B JUMP JUMPDEST DUP2 EQ PUSH2 0x1E0 JUMPI PUSH1 0x0 DUP1 REVERT JUMPDEST POP JUMP JUMPDEST PUSH1 0x0 DUP2 CALLDATALOAD SWAP1 POP PUSH2 0x1F2 DUP2 PUSH2 0x1CC JUMP JUMPDEST SWAP3 SWAP2 POP POP JUMP JUMPDEST PUSH1 0x0 PUSH1 0x20 DUP3 DUP5 SUB SLT ISZERO PUSH2 0x20E JUMPI PUSH2 0x20D PUSH2 0x1C7 JUMP JUMPDEST JUMPDEST PUSH1 0x0 PUSH2 0x21C DUP5 DUP3 DUP6 ADD PUSH2 0x1E3 JUMP JUMPDEST SWAP2 POP POP SWAP3 SWAP2 POP POP JUMP JUMPDEST PUSH32 0x4E487B7100000000000000000000000000000000000000000000000000000000 PUSH1 0x0 MSTORE PUSH1 0x11 PUSH1 0x4 MSTORE PUSH1 0x24 PUSH1 0x0 REVERT JUMPDEST PUSH1 0x0 PUSH2 0x25F DUP3 PUSH2 0x18F JUMP JUMPDEST SWAP2 POP PUSH2 0xFFFF DUP3 SUB PUSH2 0x273 JUMPI PUSH2 0x272 PUSH2 0x225 JUMP JUMPDEST JUMPDEST PUSH1 0x1 DUP3 ADD SWAP1 POP SWAP2 SWAP1 POP JUMP JUMPDEST PUSH1 0x0 PUSH2 0x289 DUP3 PUSH2 0x15B JUMP JUMPDEST SWAP2 POP PUSH1 0x0 DUP3 SUB PUSH2 0x29C JUMPI PUSH2 0x29B PUSH2 0x225 JUMP JUMPDEST JUMPDEST PUSH1 0x1 DUP3 SUB SWAP1 POP SWAP2 SWAP1 POP JUMP INVALID LOG2 PUSH5 0x6970667358 0x22 SLT KECCAK256 KECCAK256 DUP11 BASEFEE SUB SAR 0xD9 MUL MUL 0xE7 CODESIZE CODECOPY SWAP14 SWAP16 DIV PUSH1 0xA4 OR 0xA5 0x22 0x21 GT 0xC1 MSTORE8 0x5F PUSH7 0x3E343C2C740716 PUSH5 0x736F6C6343 STOP ADDMOD SLT STOP CALLER "
				},
				"gasEstimates": {
					"creation": {
						"codeDepositCost": "146600",
						"executionCost": "29463",
						"totalCost": "176063"
					},
					"external": {
						"inc_dec()": "51122",
						"int_var()": "2407",
						"set_uint(uint256)": "22564",
						"uint64_var()": "2471",
						"uint_var()": "2451"
					}
				},
				"methodIdentifiers": {
					"inc_dec()": "c1e5e025",
					"int_var()": "2a3db8b2",
					"set_uint(uint256)": "aa91543e",
					"uint64_var()": "7f932896",
					"uint_var()": "9dd3576f"
				}
			},
			"storageLayout": {
				"storage": [
					{
						"astId": 3,
						"contract": "basics/int_rollover.sol:uint_contract",
						"label": "uint_var",
						"offset": 0,
						"slot": "0",
						"type": "t_uint256"
					},
					{
						"astId": 6,
						"contract": "basics/int_rollover.sol:uint_contract",
						"label": "uint64_var",
						"offset": 0,
						"slot": "1",
						"type": "t_uint16"
					},
					{
						"astId": 9,
						"contract": "basics/int_rollover.sol:uint_contract",
						"label": "int_var",
						"offset": 0,
						"slot": "2",
						"type": "t_uint256"
					}
				],
				"types": {
					"t_uint16": {
						"encoding": "inplace",
						"label": "uint16",
						"numberOfBytes": "2"
					},
					"t_uint256": {
						"encoding": "inplace",
						"label": "uint256",
						"numberOfBytes": "32"
					}
				}
			},
			"userdoc": {
				"kind": "user",
				"methods": {},
				"version": 1
			}
		}
	}
}