{
	"basics/uint.sol": {
		"uint_contract": {
			"abi": [
				{
					"inputs": [],
					"name": "inc_dec",
					"outputs": [],
					"stateMutability": "nonpayable",
					"type": "function"
				},
				{
					"inputs": [],
					"name": "int_var",
					"outputs": [
						{
							"internalType": "int256",
							"name": "",
							"type": "int256"
						}
					],
					"stateMutability": "view",
					"type": "function"
				},
				{
					"inputs": [
						{
							"internalType": "uint256",
							"name": "uint_var_f",
							"type": "uint256"
						}
					],
					"name": "set_uint",
					"outputs": [],
					"stateMutability": "nonpayable",
					"type": "function"
				},
				{
					"inputs": [],
					"name": "uint64_var",
					"outputs": [
						{
							"internalType": "uint16",
							"name": "",
							"type": "uint16"
						}
					],
					"stateMutability": "view",
					"type": "function"
				},
				{
					"inputs": [],
					"name": "uint_var",
					"outputs": [
						{
							"internalType": "uint256",
							"name": "",
							"type": "uint256"
						}
					],
					"stateMutability": "view",
					"type": "function"
				}
			],
			"devdoc": {
				"kind": "dev",
				"methods": {},
				"version": 1
			},
			"evm": {
				"assembly": "    /* \"basics/uint.sol\":62:416  contract uint_contract... */\n  mstore(0x40, 0x80)\n    /* \"basics/uint.sol\":117:123  516162 */\n  0x07e042\n    /* \"basics/uint.sol\":93:123  uint256 public uint_var=516162 */\n  0x00\n  sstore\n    /* \"basics/uint.sol\":172:175  301 */\n  0x012d\n    /* \"basics/uint.sol\":147:175  uint16 public uint64_var=301 */\n  0x01\n  exp(0x0100, 0x00)\n  dup2\n  sload\n  dup2\n  0xffff\n  mul\n  not\n  and\n  swap1\n  dup4\n  0xffff\n  and\n  mul\n  or\n  swap1\n  sstore\n  pop\n    /* \"basics/uint.sol\":203:206  -21 */\n  0xffffffffffffffffffffffffffffffffffffffffffffffffffffffffffffffeb\n    /* \"basics/uint.sol\":184:206  int public int_var=-21 */\n  0x02\n  sstore\n    /* \"basics/uint.sol\":62:416  contract uint_contract... */\n  callvalue\n  dup1\n  iszero\n  tag_1\n  jumpi\n  0x00\n  dup1\n  revert\ntag_1:\n  pop\n  dataSize(sub_0)\n  dup1\n  dataOffset(sub_0)\n  0x00\n  codecopy\n  0x00\n  return\nstop\n\nsub_0: assembly {\n        /* \"basics/uint.sol\":62:416  contract uint_contract... */\n      mstore(0x40, 0x80)\n      callvalue\n      dup1\n      iszero\n      tag_1\n      jumpi\n      0x00\n      dup1\n      revert\n    tag_1:\n      pop\n      jumpi(tag_2, lt(calldatasize, 0x04))\n      shr(0xe0, calldataload(0x00))\n      dup1\n      0x2a3db8b2\n      eq\n      tag_3\n      jumpi\n      dup1\n      0x7f932896\n      eq\n      tag_4\n      jumpi\n      dup1\n      0x9dd3576f\n      eq\n      tag_5\n      jumpi\n      dup1\n      0xaa91543e\n      eq\n      tag_6\n      jumpi\n      dup1\n      0xc1e5e025\n      eq\n      tag_7\n      jumpi\n    tag_2:\n      0x00\n      dup1\n      revert\n        /* \"basics/uint.sol\":184:206  int public int_var=-21 */\n    tag_3:\n      tag_8\n      tag_9\n      jump\t// in\n    tag_8:\n      mload(0x40)\n      tag_10\n      swap2\n      swap1\n      tag_11\n      jump\t// in\n    tag_10:\n      mload(0x40)\n      dup1\n      swap2\n      sub\n      swap1\n      return\n        /* \"basics/uint.sol\":147:175  uint16 public uint64_var=301 */\n    tag_4:\n      tag_12\n      tag_13\n      jump\t// in\n    tag_12:\n      mload(0x40)\n      tag_14\n      swap2\n      swap1\n      tag_15\n      jump\t// in\n    tag_14:\n      mload(0x40)\n      dup1\n      swap2\n      sub\n      swap1\n      return\n        /* \"basics/uint.sol\":93:123  uint256 public uint_var=516162 */\n    tag_5:\n      tag_16\n      tag_17\n      jump\t// in\n    tag_16:\n      mload(0x40)\n      tag_18\n      swap2\n      swap1\n      tag_19\n      jump\t// in\n    tag_18:\n      mload(0x40)\n      dup1\n      swap2\n      sub\n      swap1\n      return\n        /* \"basics/uint.sol\":238:322  function set_uint(uint uint_var_f)public... */\n    tag_6:\n      tag_20\n      0x04\n      dup1\n      calldatasize\n      sub\n      dup2\n      add\n      swap1\n      tag_21\n      swap2\n      swap1\n      tag_22\n      jump\t// in\n    tag_21:\n      tag_23\n      jump\t// in\n    tag_20:\n      stop\n        /* \"basics/uint.sol\":330:411  function inc_dec()public... */\n    tag_7:\n      tag_24\n      tag_25\n      jump\t// in\n    tag_24:\n      stop\n        /* \"basics/uint.sol\":184:206  int public int_var=-21 */\n    tag_9:\n      sload(0x02)\n      dup2\n      jump\t// out\n        /* \"basics/uint.sol\":147:175  uint16 public uint64_var=301 */\n    tag_13:\n      0x01\n      0x00\n      swap1\n      sload\n      swap1\n      0x0100\n      exp\n      swap1\n      div\n      0xffff\n      and\n      dup2\n      jump\t// out\n        /* \"basics/uint.sol\":93:123  uint256 public uint_var=516162 */\n    tag_17:\n      sload(0x00)\n      dup2\n      jump\t// out\n        /* \"basics/uint.sol\":238:322  function set_uint(uint uint_var_f)public... */\n    tag_23:\n        /* \"basics/uint.sol\":304:314  uint_var_f */\n      dup1\n        /* \"basics/uint.sol\":295:303  uint_var */\n      0x00\n        /* \"basics/uint.sol\":295:314  uint_var=uint_var_f */\n      dup2\n      swap1\n      sstore\n      pop\n        /* \"basics/uint.sol\":238:322  function set_uint(uint uint_var_f)public... */\n      pop\n      jump\t// out\n        /* \"basics/uint.sol\":330:411  function inc_dec()public... */\n    tag_25:\n        /* \"basics/uint.sol\":371:381  uint64_var */\n      0x01\n      0x00\n        /* \"basics/uint.sol\":371:383  uint64_var++ */\n      dup2\n      dup2\n      swap1\n      sload\n      swap1\n      0x0100\n      exp\n      swap1\n      div\n      0xffff\n      and\n      dup1\n      swap3\n      swap2\n      swap1\n      tag_28\n      swap1\n      tag_29\n      jump\t// in\n    tag_28:\n      swap2\n      swap1\n      0x0100\n      exp\n      dup2\n      sload\n      dup2\n      0xffff\n      mul\n      not\n      and\n      swap1\n      dup4\n      0xffff\n      and\n      mul\n      or\n      swap1\n      sstore\n      pop\n      pop\n        /* \"basics/uint.sol\":394:401  int_var */\n      0x02\n      0x00\n        /* \"basics/uint.sol\":394:403  int_var-- */\n      dup2\n      sload\n      dup1\n      swap3\n      swap2\n      swap1\n      tag_30\n      swap1\n      tag_31\n      jump\t// in\n    tag_30:\n      swap2\n      swap1\n      pop\n      sstore\n      pop\n        /* \"basics/uint.sol\":330:411  function inc_dec()public... */\n      jump\t// out\n        /* \"#utility.yul\":7:83   */\n    tag_32:\n        /* \"#utility.yul\":43:50   */\n      0x00\n        /* \"#utility.yul\":72:77   */\n      dup2\n        /* \"#utility.yul\":61:77   */\n      swap1\n      pop\n        /* \"#utility.yul\":7:83   */\n      swap2\n      swap1\n      pop\n      jump\t// out\n        /* \"#utility.yul\":89:204   */\n    tag_33:\n        /* \"#utility.yul\":174:197   */\n      tag_47\n        /* \"#utility.yul\":191:196   */\n      dup2\n        /* \"#utility.yul\":174:197   */\n      tag_32\n      jump\t// in\n    tag_47:\n        /* \"#utility.yul\":169:172   */\n      dup3\n        /* \"#utility.yul\":162:198   */\n      mstore\n        /* \"#utility.yul\":89:204   */\n      pop\n      pop\n      jump\t// out\n        /* \"#utility.yul\":210:428   */\n    tag_11:\n        /* \"#utility.yul\":301:305   */\n      0x00\n        /* \"#utility.yul\":339:341   */\n      0x20\n        /* \"#utility.yul\":328:337   */\n      dup3\n        /* \"#utility.yul\":324:342   */\n      add\n        /* \"#utility.yul\":316:342   */\n      swap1\n      pop\n        /* \"#utility.yul\":352:421   */\n      tag_49\n        /* \"#utility.yul\":418:419   */\n      0x00\n        /* \"#utility.yul\":407:416   */\n      dup4\n        /* \"#utility.yul\":403:420   */\n      add\n        /* \"#utility.yul\":394:400   */\n      dup5\n        /* \"#utility.yul\":352:421   */\n      tag_33\n      jump\t// in\n    tag_49:\n        /* \"#utility.yul\":210:428   */\n      swap3\n      swap2\n      pop\n      pop\n      jump\t// out\n        /* \"#utility.yul\":434:523   */\n    tag_34:\n        /* \"#utility.yul\":470:477   */\n      0x00\n        /* \"#utility.yul\":510:516   */\n      0xffff\n        /* \"#utility.yul\":503:508   */\n      dup3\n        /* \"#utility.yul\":499:517   */\n      and\n        /* \"#utility.yul\":488:517   */\n      swap1\n      pop\n        /* \"#utility.yul\":434:523   */\n      swap2\n      swap1\n      pop\n      jump\t// out\n        /* \"#utility.yul\":529:644   */\n    tag_35:\n        /* \"#utility.yul\":614:637   */\n      tag_52\n        /* \"#utility.yul\":631:636   */\n      dup2\n        /* \"#utility.yul\":614:637   */\n      tag_34\n      jump\t// in\n    tag_52:\n        /* \"#utility.yul\":609:612   */\n      dup3\n        /* \"#utility.yul\":602:638   */\n      mstore\n        /* \"#utility.yul\":529:644   */\n      pop\n      pop\n      jump\t// out\n        /* \"#utility.yul\":650:868   */\n    tag_15:\n        /* \"#utility.yul\":741:745   */\n      0x00\n        /* \"#utility.yul\":779:781   */\n      0x20\n        /* \"#utility.yul\":768:777   */\n      dup3\n        /* \"#utility.yul\":764:782   */\n      add\n        /* \"#utility.yul\":756:782   */\n      swap1\n      pop\n        /* \"#utility.yul\":792:861   */\n      tag_54\n        /* \"#utility.yul\":858:859   */\n      0x00\n        /* \"#utility.yul\":847:856   */\n      dup4\n        /* \"#utility.yul\":843:860   */\n      add\n        /* \"#utility.yul\":834:840   */\n      dup5\n        /* \"#utility.yul\":792:861   */\n      tag_35\n      jump\t// in\n    tag_54:\n        /* \"#utility.yul\":650:868   */\n      swap3\n      swap2\n      pop\n      pop\n      jump\t// out\n        /* \"#utility.yul\":874:951   */\n    tag_36:\n        /* \"#utility.yul\":911:918   */\n      0x00\n        /* \"#utility.yul\":940:945   */\n      dup2\n        /* \"#utility.yul\":929:945   */\n      swap1\n      pop\n        /* \"#utility.yul\":874:951   */\n      swap2\n      swap1\n      pop\n      jump\t// out\n        /* \"#utility.yul\":957:1075   */\n    tag_37:\n        /* \"#utility.yul\":1044:1068   */\n      tag_57\n        /* \"#utility.yul\":1062:1067   */\n      dup2\n        /* \"#utility.yul\":1044:1068   */\n      tag_36\n      jump\t// in\n    tag_57:\n        /* \"#utility.yul\":1039:1042   */\n      dup3\n        /* \"#utility.yul\":1032:1069   */\n      mstore\n        /* \"#utility.yul\":957:1075   */\n      pop\n      pop\n      jump\t// out\n        /* \"#utility.yul\":1081:1303   */\n    tag_19:\n        /* \"#utility.yul\":1174:1178   */\n      0x00\n        /* \"#utility.yul\":1212:1214   */\n      0x20\n        /* \"#utility.yul\":1201:1210   */\n      dup3\n        /* \"#utility.yul\":1197:1215   */\n      add\n        /* \"#utility.yul\":1189:1215   */\n      swap1\n      pop\n        /* \"#utility.yul\":1225:1296   */\n      tag_59\n        /* \"#utility.yul\":1293:1294   */\n      0x00\n        /* \"#utility.yul\":1282:1291   */\n      dup4\n        /* \"#utility.yul\":1278:1295   */\n      add\n        /* \"#utility.yul\":1269:1275   */\n      dup5\n        /* \"#utility.yul\":1225:1296   */\n      tag_37\n      jump\t// in\n    tag_59:\n        /* \"#utility.yul\":1081:1303   */\n      swap3\n      swap2\n      pop\n      pop\n      jump\t// out\n        /* \"#utility.yul\":1390:1507   */\n    tag_39:\n        /* \"#utility.yul\":1499:1500   */\n      0x00\n        /* \"#utility.yul\":1496:1497   */\n      dup1\n        /* \"#utility.yul\":1489:1501   */\n      revert\n        /* \"#utility.yul\":1636:1758   */\n    tag_41:\n        /* \"#utility.yul\":1709:1733   */\n      tag_64\n        /* \"#utility.yul\":1727:1732   */\n      dup2\n        /* \"#utility.yul\":1709:1733   */\n      tag_36\n      jump\t// in\n    tag_64:\n        /* \"#utility.yul\":1702:1707   */\n      dup2\n        /* \"#utility.yul\":1699:1734   */\n      eq\n        /* \"#utility.yul\":1689:1752   */\n      tag_65\n      jumpi\n        /* \"#utility.yul\":1748:1749   */\n      0x00\n        /* \"#utility.yul\":1745:1746   */\n      dup1\n        /* \"#utility.yul\":1738:1750   */\n      revert\n        /* \"#utility.yul\":1689:1752   */\n    tag_65:\n        /* \"#utility.yul\":1636:1758   */\n      pop\n      jump\t// out\n        /* \"#utility.yul\":1764:1903   */\n    tag_42:\n        /* \"#utility.yul\":1810:1815   */\n      0x00\n        /* \"#utility.yul\":1848:1854   */\n      dup2\n        /* \"#utility.yul\":1835:1855   */\n      calldataload\n        /* \"#utility.yul\":1826:1855   */\n      swap1\n      pop\n        /* \"#utility.yul\":1864:1897   */\n      tag_67\n        /* \"#utility.yul\":1891:1896   */\n      dup2\n        /* \"#utility.yul\":1864:1897   */\n      tag_41\n      jump\t// in\n    tag_67:\n        /* \"#utility.yul\":1764:1903   */\n      swap3\n      swap2\n      pop\n      pop\n      jump\t// out\n        /* \"#utility.yul\":1909:2238   */\n    tag_22:\n        /* \"#utility.yul\":1968:1974   */\n      0x00\n        /* \"#utility.yul\":2017:2019   */\n      0x20\n        /* \"#utility.yul\":2005:2014   */\n      dup3\n        /* \"#utility.yul\":1996:2003   */\n      dup5\n        /* \"#utility.yul\":1992:2015   */\n      sub\n        /* \"#utility.yul\":1988:2020   */\n      slt\n        /* \"#utility.yul\":1985:2104   */\n      iszero\n      tag_69\n      jumpi\n        /* \"#utility.yul\":2023:2102   */\n      tag_70\n      tag_39\n      jump\t// in\n    tag_70:\n        /* \"#utility.yul\":1985:2104   */\n    tag_69:\n        /* \"#utility.yul\":2143:2144   */\n      0x00\n        /* \"#utility.yul\":2168:2221   */\n      tag_71\n        /* \"#utility.yul\":2213:2220   */\n      dup5\n        /* \"#utility.yul\":2204:2210   */\n      dup3\n        /* \"#utility.yul\":2193:2202   */\n      dup6\n        /* \"#utility.yul\":2189:2211   */\n      add\n        /* \"#utility.yul\":2168:2221   */\n      tag_42\n      jump\t// in\n    tag_71:\n        /* \"#utility.yul\":2158:2221   */\n      swap2\n      pop\n        /* \"#utility.yul\":2114:2231   */\n      pop\n        /* \"#utility.yul\":1909:2238   */\n      swap3\n      swap2\n      pop\n      pop\n      jump\t// out\n        /* \"#utility.yul\":2244:2424   */\n    tag_43:\n        /* \"#utility.yul\":2292:2369   */\n      0x4e487b7100000000000000000000000000000000000000000000000000000000\n        /* \"#utility.yul\":2289:2290   */\n      0x00\n        /* \"#utility.yul\":2282:2370   */\n      mstore\n        /* \"#utility.yul\":2389:2393   */\n      0x11\n        /* \"#utility.yul\":2386:2387   */\n      0x04\n        /* \"#utility.yul\":2379:2394   */\n      mstore\n        /* \"#utility.yul\":2413:2417   */\n      0x24\n        /* \"#utility.yul\":2410:2411   */\n      0x00\n        /* \"#utility.yul\":2403:2418   */\n      revert\n        /* \"#utility.yul\":2430:2601   */\n    tag_29:\n        /* \"#utility.yul\":2468:2471   */\n      0x00\n        /* \"#utility.yul\":2491:2514   */\n      tag_74\n        /* \"#utility.yul\":2508:2513   */\n      dup3\n        /* \"#utility.yul\":2491:2514   */\n      tag_34\n      jump\t// in\n    tag_74:\n        /* \"#utility.yul\":2482:2514   */\n      swap2\n      pop\n        /* \"#utility.yul\":2536:2542   */\n      0xffff\n        /* \"#utility.yul\":2529:2534   */\n      dup3\n        /* \"#utility.yul\":2526:2543   */\n      sub\n        /* \"#utility.yul\":2523:2566   */\n      tag_75\n      jumpi\n        /* \"#utility.yul\":2546:2564   */\n      tag_76\n      tag_43\n      jump\t// in\n    tag_76:\n        /* \"#utility.yul\":2523:2566   */\n    tag_75:\n        /* \"#utility.yul\":2593:2594   */\n      0x01\n        /* \"#utility.yul\":2586:2591   */\n      dup3\n        /* \"#utility.yul\":2582:2595   */\n      add\n        /* \"#utility.yul\":2575:2595   */\n      swap1\n      pop\n        /* \"#utility.yul\":2430:2601   */\n      swap2\n      swap1\n      pop\n      jump\t// out\n        /* \"#utility.yul\":2607:2838   */\n    tag_31:\n        /* \"#utility.yul\":2645:2648   */\n      0x00\n        /* \"#utility.yul\":2668:2691   */\n      tag_78\n        /* \"#utility.yul\":2685:2690   */\n      dup3\n        /* \"#utility.yul\":2668:2691   */\n      tag_32\n      jump\t// in\n    tag_78:\n        /* \"#utility.yul\":2659:2691   */\n      swap2\n      pop\n        /* \"#utility.yul\":2713:2779   */\n      0x8000000000000000000000000000000000000000000000000000000000000000\n        /* \"#utility.yul\":2706:2711   */\n      dup3\n        /* \"#utility.yul\":2703:2780   */\n      sub\n        /* \"#utility.yul\":2700:2803   */\n      tag_79\n      jumpi\n        /* \"#utility.yul\":2783:2801   */\n      tag_80\n      tag_43\n      jump\t// in\n    tag_80:\n        /* \"#utility.yul\":2700:2803   */\n    tag_79:\n        /* \"#utility.yul\":2830:2831   */\n      0x01\n        /* \"#utility.yul\":2823:2828   */\n      dup3\n        /* \"#utility.yul\":2819:2832   */\n      sub\n        /* \"#utility.yul\":2812:2832   */\n      swap1\n      pop\n        /* \"#utility.yul\":2607:2838   */\n      swap2\n      swap1\n      pop\n      jump\t// out\n\n    auxdata: 0xa2646970667358221220c48a3377f140aecdef9662c6f72fc982e96e60e3ce1a67382ee209995bb46b8764736f6c63430008120033\n}\n",
				"bytecode": {
					"linkReferences": {},
					"object": "60806040526207e04260005561012d600160006101000a81548161ffff021916908361ffff1602179055507fffffffffffffffffffffffffffffffffffffffffffffffffffffffffffffffeb60025534801561005a57600080fd5b506103308061006a6000396000f3fe608060405234801561001057600080fd5b50600436106100575760003560e01c80632a3db8b21461005c5780637f9328961461007a5780639dd3576f14610098578063aa91543e146100b6578063c1e5e025146100d2575b600080fd5b6100646100dc565b6040516100719190610174565b60405180910390f35b6100826100e2565b60405161008f91906101ac565b60405180910390f35b6100a06100f6565b6040516100ad91906101e0565b60405180910390f35b6100d060048036038101906100cb919061022c565b6100fc565b005b6100da610106565b005b60025481565b600160009054906101000a900461ffff1681565b60005481565b8060008190555050565b6001600081819054906101000a900461ffff168092919061012690610288565b91906101000a81548161ffff021916908361ffff1602179055505060026000815480929190610154906102b2565b9190505550565b6000819050919050565b61016e8161015b565b82525050565b60006020820190506101896000830184610165565b92915050565b600061ffff82169050919050565b6101a68161018f565b82525050565b60006020820190506101c1600083018461019d565b92915050565b6000819050919050565b6101da816101c7565b82525050565b60006020820190506101f560008301846101d1565b92915050565b600080fd5b610209816101c7565b811461021457600080fd5b50565b60008135905061022681610200565b92915050565b600060208284031215610242576102416101fb565b5b600061025084828501610217565b91505092915050565b7f4e487b7100000000000000000000000000000000000000000000000000000000600052601160045260246000fd5b60006102938261018f565b915061ffff82036102a7576102a6610259565b5b600182019050919050565b60006102bd8261015b565b91507f800000000000000000000000000000000000000000000000000000000000000082036102ef576102ee610259565b5b60018203905091905056fea2646970667358221220c48a3377f140aecdef9662c6f72fc982e96e60e3ce1a67382ee209995bb46b8764736f6c63430008120033",
					"opcodes": "PUSH1 0x80 PUSH1 0x40 MSTORE PUSH3 0x7E042 PUSH1 0x0 SSTORE PUSH2 0x12D PUSH1 0x1 PUSH1 0x0 PUSH2 0x100 EXP DUP2 SLOAD DUP2 PUSH2 0xFFFF MUL NOT AND SWAP1 DUP4 PUSH2 0xFFFF AND MUL OR SWAP1 SSTORE POP PUSH32 0xFFFFFFFFFFFFFFFFFFFFFFFFFFFFFFFFFFFFFFFFFFFFFFFFFFFFFFFFFFFFFFEB PUSH1 0x2 SSTORE CALLVALUE DUP1 ISZERO PUSH2 0x5A JUMPI PUSH1 0x0 DUP1 REVERT JUMPDEST POP PUSH2 0x330 DUP1 PUSH2 0x6A PUSH1 0x0 CODECOPY PUSH1 0x0 RETURN INVALID PUSH1 0x80 PUSH1 0x40 MSTORE CALLVALUE DUP1 ISZERO PUSH2 0x10 JUMPI PUSH1 0x0 DUP1 REVERT JUMPDEST POP PUSH1 0x4 CALLDATASIZE LT PUSH2 0x57 JUMPI PUSH1 0x0 CALLDATALOAD PUSH1 0xE0 SHR DUP1 PUSH4 0x2A3DB8B2 EQ PUSH2 0x5C JUMPI DUP1 PUSH4 0x7F932896 EQ PUSH2 0x7A JUMPI DUP1 PUSH4 0x9DD3576F EQ PUSH2 0x98 JUMPI DUP1 PUSH4 0xAA91543E EQ PUSH2 0xB6 JUMPI DUP1 PUSH4 0xC1E5E025 EQ PUSH2 0xD2 JUMPI JUMPDEST PUSH1 0x0 DUP1 REVERT JUMPDEST PUSH2 0x64 PUSH2 0xDC JUMP JUMPDEST PUSH1 0x40 MLOAD PUSH2 0x71 SWAP2 SWAP1 PUSH2 0x174 JUMP JUMPDEST PUSH1 0x40 MLOAD DUP1 SWAP2 SUB SWAP1 RETURN JUMPDEST PUSH2 0x82 PUSH2 0xE2 JUMP JUMPDEST PUSH1 0x40 MLOAD PUSH2 0x8F SWAP2 SWAP1 PUSH2 0x1AC JUMP JUMPDEST PUSH1 0x40 MLOAD DUP1 SWAP2 SUB SWAP1 RETURN JUMPDEST PUSH2 0xA0 PUSH2 0xF6 JUMP JUMPDEST PUSH1 0x40 MLOAD PUSH2 0xAD SWAP2 SWAP1 PUSH2 0x1E0 JUMP JUMPDEST PUSH1 0x40 MLOAD DUP1 SWAP2 SUB SWAP1 RETURN JUMPDEST PUSH2 0xD0 PUSH1 0x4 DUP1 CALLDATASIZE SUB DUP2 ADD SWAP1 PUSH2 0xCB SWAP2 SWAP1 PUSH2 0x22C JUMP JUMPDEST PUSH2 0xFC JUMP JUMPDEST STOP JUMPDEST PUSH2 0xDA PUSH2 0x106 JUMP JUMPDEST STOP JUMPDEST PUSH1 0x2 SLOAD DUP2 JUMP JUMPDEST PUSH1 0x1 PUSH1 0x0 SWAP1 SLOAD SWAP1 PUSH2 0x100 EXP SWAP1 DIV PUSH2 0xFFFF AND DUP2 JUMP JUMPDEST PUSH1 0x0 SLOAD DUP2 JUMP JUMPDEST DUP1 PUSH1 0x0 DUP2 SWAP1 SSTORE POP POP JUMP JUMPDEST PUSH1 0x1 PUSH1 0x0 DUP2 DUP2 SWAP1 SLOAD SWAP1 PUSH2 0x100 EXP SWAP1 DIV PUSH2 0xFFFF AND DUP1 SWAP3 SWAP2 SWAP1 PUSH2 0x126 SWAP1 PUSH2 0x288 JUMP JUMPDEST SWAP2 SWAP1 PUSH2 0x100 EXP DUP2 SLOAD DUP2 PUSH2 0xFFFF MUL NOT AND SWAP1 DUP4 PUSH2 0xFFFF AND MUL OR SWAP1 SSTORE POP POP PUSH1 0x2 PUSH1 0x0 DUP2 SLOAD DUP1 SWAP3 SWAP2 SWAP1 PUSH2 0x154 SWAP1 PUSH2 0x2B2 JUMP JUMPDEST SWAP2 SWAP1 POP SSTORE POP JUMP JUMPDEST PUSH1 0x0 DUP2 SWAP1 POP SWAP2 SWAP1 POP JUMP JUMPDEST PUSH2 0x16E DUP2 PUSH2 0x15B JUMP JUMPDEST DUP3 MSTORE POP POP JUMP JUMPDEST PUSH1 0x0 PUSH1 0x20 DUP3 ADD SWAP1 POP PUSH2 0x189 PUSH1 0x0 DUP4 ADD DUP5 PUSH2 0x165 JUMP JUMPDEST SWAP3 SWAP2 POP POP JUMP JUMPDEST PUSH1 0x0 PUSH2 0xFFFF DUP3 AND SWAP1 POP SWAP2 SWAP1 POP JUMP JUMPDEST PUSH2 0x1A6 DUP2 PUSH2 0x18F JUMP JUMPDEST DUP3 MSTORE POP POP JUMP JUMPDEST PUSH1 0x0 PUSH1 0x20 DUP3 ADD SWAP1 POP PUSH2 0x1C1 PUSH1 0x0 DUP4 ADD DUP5 PUSH2 0x19D JUMP JUMPDEST SWAP3 SWAP2 POP POP JUMP JUMPDEST PUSH1 0x0 DUP2 SWAP1 POP SWAP2 SWAP1 POP JUMP JUMPDEST PUSH2 0x1DA DUP2 PUSH2 0x1C7 JUMP JUMPDEST DUP3 MSTORE POP POP JUMP JUMPDEST PUSH1 0x0 PUSH1 0x20 DUP3 ADD SWAP1 POP PUSH2 0x1F5 PUSH1 0x0 DUP4 ADD DUP5 PUSH2 0x1D1 JUMP JUMPDEST SWAP3 SWAP2 POP POP JUMP JUMPDEST PUSH1 0x0 DUP1 REVERT JUMPDEST PUSH2 0x209 DUP2 PUSH2 0x1C7 JUMP JUMPDEST DUP2 EQ PUSH2 0x214 JUMPI PUSH1 0x0 DUP1 REVERT JUMPDEST POP JUMP JUMPDEST PUSH1 0x0 DUP2 CALLDATALOAD SWAP1 POP PUSH2 0x226 DUP2 PUSH2 0x200 JUMP JUMPDEST SWAP3 SWAP2 POP POP JUMP JUMPDEST PUSH1 0x0 PUSH1 0x20 DUP3 DUP5 SUB SLT ISZERO PUSH2 0x242 JUMPI PUSH2 0x241 PUSH2 0x1FB JUMP JUMPDEST JUMPDEST PUSH1 0x0 PUSH2 0x250 DUP5 DUP3 DUP6 ADD PUSH2 0x217 JUMP JUMPDEST SWAP2 POP POP SWAP3 SWAP2 POP POP JUMP JUMPDEST PUSH32 0x4E487B7100000000000000000000000000000000000000000000000000000000 PUSH1 0x0 MSTORE PUSH1 0x11 PUSH1 0x4 MSTORE PUSH1 0x24 PUSH1 0x0 REVERT JUMPDEST PUSH1 0x0 PUSH2 0x293 DUP3 PUSH2 0x18F JUMP JUMPDEST SWAP2 POP PUSH2 0xFFFF DUP3 SUB PUSH2 0x2A7 JUMPI PUSH2 0x2A6 PUSH2 0x259 JUMP JUMPDEST JUMPDEST PUSH1 0x1 DUP3 ADD SWAP1 POP SWAP2 SWAP1 POP JUMP JUMPDEST PUSH1 0x0 PUSH2 0x2BD DUP3 PUSH2 0x15B JUMP JUMPDEST SWAP2 POP PUSH32 0x8000000000000000000000000000000000000000000000000000000000000000 DUP3 SUB PUSH2 0x2EF JUMPI PUSH2 0x2EE PUSH2 0x259 JUMP JUMPDEST JUMPDEST PUSH1 0x1 DUP3 SUB SWAP1 POP SWAP2 SWAP1 POP JUMP INVALID LOG2 PUSH5 0x6970667358 0x22 SLT KECCAK256 0xC4 DUP11 CALLER PUSH24 0xF140AECDEF9662C6F72FC982E96E60E3CE1A67382EE20999 JUMPDEST 0xB4 PUSH12 0x8764736F6C63430008120033 "
				},
				"gasEstimates": {
					"creation": {
						"codeDepositCost": "163200",
						"executionCost": "68687",
						"totalCost": "231887"
					},
					"external": {
						"inc_dec()": "51122",
						"int_var()": "2407",
						"set_uint(uint256)": "22564",
						"uint64_var()": "2471",
						"uint_var()": "2451"
					}
				},
				"methodIdentifiers": {
					"inc_dec()": "c1e5e025",
					"int_var()": "2a3db8b2",
					"set_uint(uint256)": "aa91543e",
					"uint64_var()": "7f932896",
					"uint_var()": "9dd3576f"
				}
			},
			"storageLayout": {
				"storage": [
					{
						"astId": 4,
						"contract": "basics/uint.sol:uint_contract",
						"label": "uint_var",
						"offset": 0,
						"slot": "0",
						"type": "t_uint256"
					},
					{
						"astId": 7,
						"contract": "basics/uint.sol:uint_contract",
						"label": "uint64_var",
						"offset": 0,
						"slot": "1",
						"type": "t_uint16"
					},
					{
						"astId": 11,
						"contract": "basics/uint.sol:uint_contract",
						"label": "int_var",
						"offset": 0,
						"slot": "2",
						"type": "t_int256"
					}
				],
				"types": {
					"t_int256": {
						"encoding": "inplace",
						"label": "int256",
						"numberOfBytes": "32"
					},
					"t_uint16": {
						"encoding": "inplace",
						"label": "uint16",
						"numberOfBytes": "2"
					},
					"t_uint256": {
						"encoding": "inplace",
						"label": "uint256",
						"numberOfBytes": "32"
					}
				}
			},
			"userdoc": {
				"kind": "user",
				"methods": {},
				"version": 1
			}
		}
	}
}