{
	"basics/strings.sol": {
		"string_contract": {
			"abi": [
				{
					"inputs": [
						{
							"internalType": "string",
							"name": "my1_str",
							"type": "string"
						}
					],
					"name": "cmp_str",
					"outputs": [
						{
							"internalType": "bool",
							"name": "",
							"type": "bool"
						}
					],
					"stateMutability": "view",
					"type": "function"
				},
				{
					"inputs": [
						{
							"internalType": "string",
							"name": "my_str",
							"type": "string"
						}
					],
					"name": "str_func",
					"outputs": [],
					"stateMutability": "nonpayable",
					"type": "function"
				},
				{
					"inputs": [],
					"name": "str_var",
					"outputs": [
						{
							"internalType": "string",
							"name": "",
							"type": "string"
						}
					],
					"stateMutability": "view",
					"type": "function"
				}
			],
			"devdoc": {
				"kind": "dev",
				"methods": {},
				"version": 1
			},
			"evm": {
				"assembly": "    /* \"basics/strings.sol\":62:580  contract string_contract... */\n  mstore(0x40, 0x80)\n    /* \"basics/strings.sol\":95:130  string public str_var=\"meta_miners\" */\n  mload(0x40)\n  dup1\n  0x40\n  add\n  0x40\n  mstore\n  dup1\n  0x0b\n  dup2\n  mstore\n  0x20\n  add\n  0x6d6574615f6d696e657273000000000000000000000000000000000000000000\n  dup2\n  mstore\n  pop\n  0x00\n  swap1\n  dup2\n  tag_1\n  swap2\n  swap1\n  tag_2\n  jump\t// in\ntag_1:\n  pop\n    /* \"basics/strings.sol\":62:580  contract string_contract... */\n  callvalue\n  dup1\n  iszero\n  tag_3\n  jumpi\n  0x00\n  dup1\n  revert\ntag_3:\n  pop\n  jump(tag_4)\n    /* \"#utility.yul\":7:106   */\ntag_5:\n    /* \"#utility.yul\":59:65   */\n  0x00\n    /* \"#utility.yul\":93:98   */\n  dup2\n    /* \"#utility.yul\":87:99   */\n  mload\n    /* \"#utility.yul\":77:99   */\n  swap1\n  pop\n    /* \"#utility.yul\":7:106   */\n  swap2\n  swap1\n  pop\n  jump\t// out\n    /* \"#utility.yul\":112:292   */\ntag_6:\n    /* \"#utility.yul\":160:237   */\n  0x4e487b7100000000000000000000000000000000000000000000000000000000\n    /* \"#utility.yul\":157:158   */\n  0x00\n    /* \"#utility.yul\":150:238   */\n  mstore\n    /* \"#utility.yul\":257:261   */\n  0x41\n    /* \"#utility.yul\":254:255   */\n  0x04\n    /* \"#utility.yul\":247:262   */\n  mstore\n    /* \"#utility.yul\":281:285   */\n  0x24\n    /* \"#utility.yul\":278:279   */\n  0x00\n    /* \"#utility.yul\":271:286   */\n  revert\n    /* \"#utility.yul\":298:478   */\ntag_7:\n    /* \"#utility.yul\":346:423   */\n  0x4e487b7100000000000000000000000000000000000000000000000000000000\n    /* \"#utility.yul\":343:344   */\n  0x00\n    /* \"#utility.yul\":336:424   */\n  mstore\n    /* \"#utility.yul\":443:447   */\n  0x22\n    /* \"#utility.yul\":440:441   */\n  0x04\n    /* \"#utility.yul\":433:448   */\n  mstore\n    /* \"#utility.yul\":467:471   */\n  0x24\n    /* \"#utility.yul\":464:465   */\n  0x00\n    /* \"#utility.yul\":457:472   */\n  revert\n    /* \"#utility.yul\":484:804   */\ntag_8:\n    /* \"#utility.yul\":528:534   */\n  0x00\n    /* \"#utility.yul\":565:566   */\n  0x02\n    /* \"#utility.yul\":559:563   */\n  dup3\n    /* \"#utility.yul\":555:567   */\n  div\n    /* \"#utility.yul\":545:567   */\n  swap1\n  pop\n    /* \"#utility.yul\":612:613   */\n  0x01\n    /* \"#utility.yul\":606:610   */\n  dup3\n    /* \"#utility.yul\":602:614   */\n  and\n    /* \"#utility.yul\":633:651   */\n  dup1\n    /* \"#utility.yul\":623:704   */\n  tag_30\n  jumpi\n    /* \"#utility.yul\":689:693   */\n  0x7f\n    /* \"#utility.yul\":681:687   */\n  dup3\n    /* \"#utility.yul\":677:694   */\n  and\n    /* \"#utility.yul\":667:694   */\n  swap2\n  pop\n    /* \"#utility.yul\":623:704   */\ntag_30:\n    /* \"#utility.yul\":751:753   */\n  0x20\n    /* \"#utility.yul\":743:749   */\n  dup3\n    /* \"#utility.yul\":740:754   */\n  lt\n    /* \"#utility.yul\":720:738   */\n  dup2\n    /* \"#utility.yul\":717:755   */\n  sub\n    /* \"#utility.yul\":714:798   */\n  tag_31\n  jumpi\n    /* \"#utility.yul\":770:788   */\n  tag_32\n  tag_7\n  jump\t// in\ntag_32:\n    /* \"#utility.yul\":714:798   */\ntag_31:\n    /* \"#utility.yul\":535:804   */\n  pop\n    /* \"#utility.yul\":484:804   */\n  swap2\n  swap1\n  pop\n  jump\t// out\n    /* \"#utility.yul\":810:951   */\ntag_9:\n    /* \"#utility.yul\":859:863   */\n  0x00\n    /* \"#utility.yul\":882:885   */\n  dup2\n    /* \"#utility.yul\":874:885   */\n  swap1\n  pop\n    /* \"#utility.yul\":905:908   */\n  dup2\n    /* \"#utility.yul\":902:903   */\n  0x00\n    /* \"#utility.yul\":895:909   */\n  mstore\n    /* \"#utility.yul\":939:943   */\n  0x20\n    /* \"#utility.yul\":936:937   */\n  0x00\n    /* \"#utility.yul\":926:944   */\n  keccak256\n    /* \"#utility.yul\":918:944   */\n  swap1\n  pop\n    /* \"#utility.yul\":810:951   */\n  swap2\n  swap1\n  pop\n  jump\t// out\n    /* \"#utility.yul\":957:1050   */\ntag_10:\n    /* \"#utility.yul\":994:1000   */\n  0x00\n    /* \"#utility.yul\":1041:1043   */\n  0x20\n    /* \"#utility.yul\":1036:1038   */\n  0x1f\n    /* \"#utility.yul\":1029:1034   */\n  dup4\n    /* \"#utility.yul\":1025:1039   */\n  add\n    /* \"#utility.yul\":1021:1044   */\n  div\n    /* \"#utility.yul\":1011:1044   */\n  swap1\n  pop\n    /* \"#utility.yul\":957:1050   */\n  swap2\n  swap1\n  pop\n  jump\t// out\n    /* \"#utility.yul\":1056:1163   */\ntag_11:\n    /* \"#utility.yul\":1100:1108   */\n  0x00\n    /* \"#utility.yul\":1150:1155   */\n  dup3\n    /* \"#utility.yul\":1144:1148   */\n  dup3\n    /* \"#utility.yul\":1140:1156   */\n  shl\n    /* \"#utility.yul\":1119:1156   */\n  swap1\n  pop\n    /* \"#utility.yul\":1056:1163   */\n  swap3\n  swap2\n  pop\n  pop\n  jump\t// out\n    /* \"#utility.yul\":1169:1562   */\ntag_12:\n    /* \"#utility.yul\":1238:1244   */\n  0x00\n    /* \"#utility.yul\":1288:1289   */\n  0x08\n    /* \"#utility.yul\":1276:1286   */\n  dup4\n    /* \"#utility.yul\":1272:1290   */\n  mul\n    /* \"#utility.yul\":1311:1408   */\n  tag_37\n    /* \"#utility.yul\":1341:1407   */\n  0xffffffffffffffffffffffffffffffffffffffffffffffffffffffffffffffff\n    /* \"#utility.yul\":1330:1339   */\n  dup3\n    /* \"#utility.yul\":1311:1408   */\n  tag_11\n  jump\t// in\ntag_37:\n    /* \"#utility.yul\":1429:1468   */\n  tag_38\n    /* \"#utility.yul\":1459:1467   */\n  dup7\n    /* \"#utility.yul\":1448:1457   */\n  dup4\n    /* \"#utility.yul\":1429:1468   */\n  tag_11\n  jump\t// in\ntag_38:\n    /* \"#utility.yul\":1417:1468   */\n  swap6\n  pop\n    /* \"#utility.yul\":1501:1505   */\n  dup1\n    /* \"#utility.yul\":1497:1506   */\n  not\n    /* \"#utility.yul\":1490:1495   */\n  dup5\n    /* \"#utility.yul\":1486:1507   */\n  and\n    /* \"#utility.yul\":1477:1507   */\n  swap4\n  pop\n    /* \"#utility.yul\":1550:1554   */\n  dup1\n    /* \"#utility.yul\":1540:1548   */\n  dup7\n    /* \"#utility.yul\":1536:1555   */\n  and\n    /* \"#utility.yul\":1529:1534   */\n  dup5\n    /* \"#utility.yul\":1526:1556   */\n  or\n    /* \"#utility.yul\":1516:1556   */\n  swap3\n  pop\n    /* \"#utility.yul\":1245:1562   */\n  pop\n  pop\n    /* \"#utility.yul\":1169:1562   */\n  swap4\n  swap3\n  pop\n  pop\n  pop\n  jump\t// out\n    /* \"#utility.yul\":1568:1645   */\ntag_13:\n    /* \"#utility.yul\":1605:1612   */\n  0x00\n    /* \"#utility.yul\":1634:1639   */\n  dup2\n    /* \"#utility.yul\":1623:1639   */\n  swap1\n  pop\n    /* \"#utility.yul\":1568:1645   */\n  swap2\n  swap1\n  pop\n  jump\t// out\n    /* \"#utility.yul\":1651:1711   */\ntag_14:\n    /* \"#utility.yul\":1679:1682   */\n  0x00\n    /* \"#utility.yul\":1700:1705   */\n  dup2\n    /* \"#utility.yul\":1693:1705   */\n  swap1\n  pop\n    /* \"#utility.yul\":1651:1711   */\n  swap2\n  swap1\n  pop\n  jump\t// out\n    /* \"#utility.yul\":1717:1859   */\ntag_15:\n    /* \"#utility.yul\":1767:1776   */\n  0x00\n    /* \"#utility.yul\":1800:1853   */\n  tag_42\n    /* \"#utility.yul\":1818:1852   */\n  tag_43\n    /* \"#utility.yul\":1827:1851   */\n  tag_44\n    /* \"#utility.yul\":1845:1850   */\n  dup5\n    /* \"#utility.yul\":1827:1851   */\n  tag_13\n  jump\t// in\ntag_44:\n    /* \"#utility.yul\":1818:1852   */\n  tag_14\n  jump\t// in\ntag_43:\n    /* \"#utility.yul\":1800:1853   */\n  tag_13\n  jump\t// in\ntag_42:\n    /* \"#utility.yul\":1787:1853   */\n  swap1\n  pop\n    /* \"#utility.yul\":1717:1859   */\n  swap2\n  swap1\n  pop\n  jump\t// out\n    /* \"#utility.yul\":1865:1940   */\ntag_16:\n    /* \"#utility.yul\":1908:1911   */\n  0x00\n    /* \"#utility.yul\":1929:1934   */\n  dup2\n    /* \"#utility.yul\":1922:1934   */\n  swap1\n  pop\n    /* \"#utility.yul\":1865:1940   */\n  swap2\n  swap1\n  pop\n  jump\t// out\n    /* \"#utility.yul\":1946:2215   */\ntag_17:\n    /* \"#utility.yul\":2056:2095   */\n  tag_47\n    /* \"#utility.yul\":2087:2094   */\n  dup4\n    /* \"#utility.yul\":2056:2095   */\n  tag_15\n  jump\t// in\ntag_47:\n    /* \"#utility.yul\":2117:2208   */\n  tag_48\n    /* \"#utility.yul\":2166:2207   */\n  tag_49\n    /* \"#utility.yul\":2190:2206   */\n  dup3\n    /* \"#utility.yul\":2166:2207   */\n  tag_16\n  jump\t// in\ntag_49:\n    /* \"#utility.yul\":2158:2164   */\n  dup5\n    /* \"#utility.yul\":2151:2155   */\n  dup5\n    /* \"#utility.yul\":2145:2156   */\n  sload\n    /* \"#utility.yul\":2117:2208   */\n  tag_12\n  jump\t// in\ntag_48:\n    /* \"#utility.yul\":2111:2115   */\n  dup3\n    /* \"#utility.yul\":2104:2209   */\n  sstore\n    /* \"#utility.yul\":2022:2215   */\n  pop\n    /* \"#utility.yul\":1946:2215   */\n  pop\n  pop\n  pop\n  jump\t// out\n    /* \"#utility.yul\":2221:2294   */\ntag_18:\n    /* \"#utility.yul\":2266:2269   */\n  0x00\n    /* \"#utility.yul\":2221:2294   */\n  swap1\n  jump\t// out\n    /* \"#utility.yul\":2300:2489   */\ntag_19:\n    /* \"#utility.yul\":2377:2409   */\n  tag_52\n  tag_18\n  jump\t// in\ntag_52:\n    /* \"#utility.yul\":2418:2483   */\n  tag_53\n    /* \"#utility.yul\":2476:2482   */\n  dup2\n    /* \"#utility.yul\":2468:2474   */\n  dup5\n    /* \"#utility.yul\":2462:2466   */\n  dup5\n    /* \"#utility.yul\":2418:2483   */\n  tag_17\n  jump\t// in\ntag_53:\n    /* \"#utility.yul\":2353:2489   */\n  pop\n    /* \"#utility.yul\":2300:2489   */\n  pop\n  pop\n  jump\t// out\n    /* \"#utility.yul\":2495:2681   */\ntag_20:\n    /* \"#utility.yul\":2555:2675   */\ntag_55:\n    /* \"#utility.yul\":2572:2575   */\n  dup2\n    /* \"#utility.yul\":2565:2570   */\n  dup2\n    /* \"#utility.yul\":2562:2576   */\n  lt\n    /* \"#utility.yul\":2555:2675   */\n  iszero\n  tag_57\n  jumpi\n    /* \"#utility.yul\":2626:2665   */\n  tag_58\n    /* \"#utility.yul\":2663:2664   */\n  0x00\n    /* \"#utility.yul\":2656:2661   */\n  dup3\n    /* \"#utility.yul\":2626:2665   */\n  tag_19\n  jump\t// in\ntag_58:\n    /* \"#utility.yul\":2599:2600   */\n  0x01\n    /* \"#utility.yul\":2592:2597   */\n  dup2\n    /* \"#utility.yul\":2588:2601   */\n  add\n    /* \"#utility.yul\":2579:2601   */\n  swap1\n  pop\n    /* \"#utility.yul\":2555:2675   */\n  jump(tag_55)\ntag_57:\n    /* \"#utility.yul\":2495:2681   */\n  pop\n  pop\n  jump\t// out\n    /* \"#utility.yul\":2687:3230   */\ntag_21:\n    /* \"#utility.yul\":2788:2790   */\n  0x1f\n    /* \"#utility.yul\":2783:2786   */\n  dup3\n    /* \"#utility.yul\":2780:2791   */\n  gt\n    /* \"#utility.yul\":2777:3223   */\n  iszero\n  tag_60\n  jumpi\n    /* \"#utility.yul\":2822:2860   */\n  tag_61\n    /* \"#utility.yul\":2854:2859   */\n  dup2\n    /* \"#utility.yul\":2822:2860   */\n  tag_9\n  jump\t// in\ntag_61:\n    /* \"#utility.yul\":2906:2935   */\n  tag_62\n    /* \"#utility.yul\":2924:2934   */\n  dup5\n    /* \"#utility.yul\":2906:2935   */\n  tag_10\n  jump\t// in\ntag_62:\n    /* \"#utility.yul\":2896:2904   */\n  dup2\n    /* \"#utility.yul\":2892:2936   */\n  add\n    /* \"#utility.yul\":3089:3091   */\n  0x20\n    /* \"#utility.yul\":3077:3087   */\n  dup6\n    /* \"#utility.yul\":3074:3092   */\n  lt\n    /* \"#utility.yul\":3071:3120   */\n  iszero\n  tag_63\n  jumpi\n    /* \"#utility.yul\":3110:3118   */\n  dup2\n    /* \"#utility.yul\":3095:3118   */\n  swap1\n  pop\n    /* \"#utility.yul\":3071:3120   */\ntag_63:\n    /* \"#utility.yul\":3133:3213   */\n  tag_64\n    /* \"#utility.yul\":3189:3211   */\n  tag_65\n    /* \"#utility.yul\":3207:3210   */\n  dup6\n    /* \"#utility.yul\":3189:3211   */\n  tag_10\n  jump\t// in\ntag_65:\n    /* \"#utility.yul\":3179:3187   */\n  dup4\n    /* \"#utility.yul\":3175:3212   */\n  add\n    /* \"#utility.yul\":3162:3173   */\n  dup3\n    /* \"#utility.yul\":3133:3213   */\n  tag_20\n  jump\t// in\ntag_64:\n    /* \"#utility.yul\":2792:3223   */\n  pop\n  pop\n    /* \"#utility.yul\":2777:3223   */\ntag_60:\n    /* \"#utility.yul\":2687:3230   */\n  pop\n  pop\n  pop\n  jump\t// out\n    /* \"#utility.yul\":3236:3353   */\ntag_22:\n    /* \"#utility.yul\":3290:3298   */\n  0x00\n    /* \"#utility.yul\":3340:3345   */\n  dup3\n    /* \"#utility.yul\":3334:3338   */\n  dup3\n    /* \"#utility.yul\":3330:3346   */\n  shr\n    /* \"#utility.yul\":3309:3346   */\n  swap1\n  pop\n    /* \"#utility.yul\":3236:3353   */\n  swap3\n  swap2\n  pop\n  pop\n  jump\t// out\n    /* \"#utility.yul\":3359:3528   */\ntag_23:\n    /* \"#utility.yul\":3403:3409   */\n  0x00\n    /* \"#utility.yul\":3436:3487   */\n  tag_68\n    /* \"#utility.yul\":3484:3485   */\n  0x00\n    /* \"#utility.yul\":3480:3486   */\n  not\n    /* \"#utility.yul\":3472:3477   */\n  dup5\n    /* \"#utility.yul\":3469:3470   */\n  0x08\n    /* \"#utility.yul\":3465:3478   */\n  mul\n    /* \"#utility.yul\":3436:3487   */\n  tag_22\n  jump\t// in\ntag_68:\n    /* \"#utility.yul\":3432:3488   */\n  not\n    /* \"#utility.yul\":3517:3521   */\n  dup1\n    /* \"#utility.yul\":3511:3515   */\n  dup4\n    /* \"#utility.yul\":3507:3522   */\n  and\n    /* \"#utility.yul\":3497:3522   */\n  swap2\n  pop\n    /* \"#utility.yul\":3410:3528   */\n  pop\n    /* \"#utility.yul\":3359:3528   */\n  swap3\n  swap2\n  pop\n  pop\n  jump\t// out\n    /* \"#utility.yul\":3533:3828   */\ntag_24:\n    /* \"#utility.yul\":3609:3613   */\n  0x00\n    /* \"#utility.yul\":3755:3784   */\n  tag_70\n    /* \"#utility.yul\":3780:3783   */\n  dup4\n    /* \"#utility.yul\":3774:3778   */\n  dup4\n    /* \"#utility.yul\":3755:3784   */\n  tag_23\n  jump\t// in\ntag_70:\n    /* \"#utility.yul\":3747:3784   */\n  swap2\n  pop\n    /* \"#utility.yul\":3817:3820   */\n  dup3\n    /* \"#utility.yul\":3814:3815   */\n  0x02\n    /* \"#utility.yul\":3810:3821   */\n  mul\n    /* \"#utility.yul\":3804:3808   */\n  dup3\n    /* \"#utility.yul\":3801:3822   */\n  or\n    /* \"#utility.yul\":3793:3822   */\n  swap1\n  pop\n    /* \"#utility.yul\":3533:3828   */\n  swap3\n  swap2\n  pop\n  pop\n  jump\t// out\n    /* \"#utility.yul\":3833:5228   */\ntag_2:\n    /* \"#utility.yul\":3950:3987   */\n  tag_72\n    /* \"#utility.yul\":3983:3986   */\n  dup3\n    /* \"#utility.yul\":3950:3987   */\n  tag_5\n  jump\t// in\ntag_72:\n    /* \"#utility.yul\":4052:4070   */\n  0xffffffffffffffff\n    /* \"#utility.yul\":4044:4050   */\n  dup2\n    /* \"#utility.yul\":4041:4071   */\n  gt\n    /* \"#utility.yul\":4038:4094   */\n  iszero\n  tag_73\n  jumpi\n    /* \"#utility.yul\":4074:4092   */\n  tag_74\n  tag_6\n  jump\t// in\ntag_74:\n    /* \"#utility.yul\":4038:4094   */\ntag_73:\n    /* \"#utility.yul\":4118:4156   */\n  tag_75\n    /* \"#utility.yul\":4150:4154   */\n  dup3\n    /* \"#utility.yul\":4144:4155   */\n  sload\n    /* \"#utility.yul\":4118:4156   */\n  tag_8\n  jump\t// in\ntag_75:\n    /* \"#utility.yul\":4203:4270   */\n  tag_76\n    /* \"#utility.yul\":4263:4269   */\n  dup3\n    /* \"#utility.yul\":4255:4261   */\n  dup3\n    /* \"#utility.yul\":4249:4253   */\n  dup6\n    /* \"#utility.yul\":4203:4270   */\n  tag_21\n  jump\t// in\ntag_76:\n    /* \"#utility.yul\":4297:4298   */\n  0x00\n    /* \"#utility.yul\":4321:4325   */\n  0x20\n    /* \"#utility.yul\":4308:4325   */\n  swap1\n  pop\n    /* \"#utility.yul\":4353:4355   */\n  0x1f\n    /* \"#utility.yul\":4345:4351   */\n  dup4\n    /* \"#utility.yul\":4342:4356   */\n  gt\n    /* \"#utility.yul\":4370:4371   */\n  0x01\n    /* \"#utility.yul\":4365:4983   */\n  dup2\n  eq\n  tag_78\n  jumpi\n    /* \"#utility.yul\":5027:5028   */\n  0x00\n    /* \"#utility.yul\":5044:5050   */\n  dup5\n    /* \"#utility.yul\":5041:5118   */\n  iszero\n  tag_79\n  jumpi\n    /* \"#utility.yul\":5093:5102   */\n  dup3\n    /* \"#utility.yul\":5088:5091   */\n  dup8\n    /* \"#utility.yul\":5084:5103   */\n  add\n    /* \"#utility.yul\":5078:5104   */\n  mload\n    /* \"#utility.yul\":5069:5104   */\n  swap1\n  pop\n    /* \"#utility.yul\":5041:5118   */\ntag_79:\n    /* \"#utility.yul\":5144:5211   */\n  tag_80\n    /* \"#utility.yul\":5204:5210   */\n  dup6\n    /* \"#utility.yul\":5197:5202   */\n  dup3\n    /* \"#utility.yul\":5144:5211   */\n  tag_24\n  jump\t// in\ntag_80:\n    /* \"#utility.yul\":5138:5142   */\n  dup7\n    /* \"#utility.yul\":5131:5212   */\n  sstore\n    /* \"#utility.yul\":5000:5222   */\n  pop\n    /* \"#utility.yul\":4335:5222   */\n  jump(tag_77)\n    /* \"#utility.yul\":4365:4983   */\ntag_78:\n    /* \"#utility.yul\":4417:4421   */\n  0x1f\n    /* \"#utility.yul\":4413:4422   */\n  not\n    /* \"#utility.yul\":4405:4411   */\n  dup5\n    /* \"#utility.yul\":4401:4423   */\n  and\n    /* \"#utility.yul\":4451:4488   */\n  tag_81\n    /* \"#utility.yul\":4483:4487   */\n  dup7\n    /* \"#utility.yul\":4451:4488   */\n  tag_9\n  jump\t// in\ntag_81:\n    /* \"#utility.yul\":4510:4511   */\n  0x00\n    /* \"#utility.yul\":4524:4732   */\ntag_82:\n    /* \"#utility.yul\":4538:4545   */\n  dup3\n    /* \"#utility.yul\":4535:4536   */\n  dup2\n    /* \"#utility.yul\":4532:4546   */\n  lt\n    /* \"#utility.yul\":4524:4732   */\n  iszero\n  tag_84\n  jumpi\n    /* \"#utility.yul\":4617:4626   */\n  dup5\n    /* \"#utility.yul\":4612:4615   */\n  dup10\n    /* \"#utility.yul\":4608:4627   */\n  add\n    /* \"#utility.yul\":4602:4628   */\n  mload\n    /* \"#utility.yul\":4594:4600   */\n  dup3\n    /* \"#utility.yul\":4587:4629   */\n  sstore\n    /* \"#utility.yul\":4668:4669   */\n  0x01\n    /* \"#utility.yul\":4660:4666   */\n  dup3\n    /* \"#utility.yul\":4656:4670   */\n  add\n    /* \"#utility.yul\":4646:4670   */\n  swap2\n  pop\n    /* \"#utility.yul\":4715:4717   */\n  0x20\n    /* \"#utility.yul\":4704:4713   */\n  dup6\n    /* \"#utility.yul\":4700:4718   */\n  add\n    /* \"#utility.yul\":4687:4718   */\n  swap5\n  pop\n    /* \"#utility.yul\":4561:4565   */\n  0x20\n    /* \"#utility.yul\":4558:4559   */\n  dup2\n    /* \"#utility.yul\":4554:4566   */\n  add\n    /* \"#utility.yul\":4549:4566   */\n  swap1\n  pop\n    /* \"#utility.yul\":4524:4732   */\n  jump(tag_82)\ntag_84:\n    /* \"#utility.yul\":4760:4766   */\n  dup7\n    /* \"#utility.yul\":4751:4758   */\n  dup4\n    /* \"#utility.yul\":4748:4767   */\n  lt\n    /* \"#utility.yul\":4745:4924   */\n  iszero\n  tag_85\n  jumpi\n    /* \"#utility.yul\":4818:4827   */\n  dup5\n    /* \"#utility.yul\":4813:4816   */\n  dup10\n    /* \"#utility.yul\":4809:4828   */\n  add\n    /* \"#utility.yul\":4803:4829   */\n  mload\n    /* \"#utility.yul\":4861:4909   */\n  tag_86\n    /* \"#utility.yul\":4903:4907   */\n  0x1f\n    /* \"#utility.yul\":4895:4901   */\n  dup10\n    /* \"#utility.yul\":4891:4908   */\n  and\n    /* \"#utility.yul\":4880:4889   */\n  dup3\n    /* \"#utility.yul\":4861:4909   */\n  tag_23\n  jump\t// in\ntag_86:\n    /* \"#utility.yul\":4853:4859   */\n  dup4\n    /* \"#utility.yul\":4846:4910   */\n  sstore\n    /* \"#utility.yul\":4768:4924   */\n  pop\n    /* \"#utility.yul\":4745:4924   */\ntag_85:\n    /* \"#utility.yul\":4970:4971   */\n  0x01\n    /* \"#utility.yul\":4966:4967   */\n  0x02\n    /* \"#utility.yul\":4958:4964   */\n  dup9\n    /* \"#utility.yul\":4954:4968   */\n  mul\n    /* \"#utility.yul\":4950:4972   */\n  add\n    /* \"#utility.yul\":4944:4948   */\n  dup9\n    /* \"#utility.yul\":4937:4973   */\n  sstore\n    /* \"#utility.yul\":4372:4983   */\n  pop\n  pop\n  pop\n    /* \"#utility.yul\":4335:5222   */\ntag_77:\n  pop\n    /* \"#utility.yul\":3925:5228   */\n  pop\n  pop\n  pop\n    /* \"#utility.yul\":3833:5228   */\n  pop\n  pop\n  jump\t// out\n    /* \"basics/strings.sol\":62:580  contract string_contract... */\ntag_4:\n  dataSize(sub_0)\n  dup1\n  dataOffset(sub_0)\n  0x00\n  codecopy\n  0x00\n  return\nstop\n\nsub_0: assembly {\n        /* \"basics/strings.sol\":62:580  contract string_contract... */\n      mstore(0x40, 0x80)\n      callvalue\n      dup1\n      iszero\n      tag_1\n      jumpi\n      0x00\n      dup1\n      revert\n    tag_1:\n      pop\n      jumpi(tag_2, lt(calldatasize, 0x04))\n      shr(0xe0, calldataload(0x00))\n      dup1\n      0x38a18a8a\n      eq\n      tag_3\n      jumpi\n      dup1\n      0x9bc9164c\n      eq\n      tag_4\n      jumpi\n      dup1\n      0xc62409a4\n      eq\n      tag_5\n      jumpi\n    tag_2:\n      0x00\n      dup1\n      revert\n        /* \"basics/strings.sol\":231:575  function cmp_str(string memory my1_str)public view returns(bool)... */\n    tag_3:\n      tag_6\n      0x04\n      dup1\n      calldatasize\n      sub\n      dup2\n      add\n      swap1\n      tag_7\n      swap2\n      swap1\n      tag_8\n      jump\t// in\n    tag_7:\n      tag_9\n      jump\t// in\n    tag_6:\n      mload(0x40)\n      tag_10\n      swap2\n      swap1\n      tag_11\n      jump\t// in\n    tag_10:\n      mload(0x40)\n      dup1\n      swap2\n      sub\n      swap1\n      return\n        /* \"basics/strings.sol\":139:223  function str_func(string memory my_str)public... */\n    tag_4:\n      tag_12\n      0x04\n      dup1\n      calldatasize\n      sub\n      dup2\n      add\n      swap1\n      tag_13\n      swap2\n      swap1\n      tag_8\n      jump\t// in\n    tag_13:\n      tag_14\n      jump\t// in\n    tag_12:\n      stop\n        /* \"basics/strings.sol\":95:130  string public str_var=\"meta_miners\" */\n    tag_5:\n      tag_15\n      tag_16\n      jump\t// in\n    tag_15:\n      mload(0x40)\n      tag_17\n      swap2\n      swap1\n      tag_18\n      jump\t// in\n    tag_17:\n      mload(0x40)\n      dup1\n      swap2\n      sub\n      swap1\n      return\n        /* \"basics/strings.sol\":231:575  function cmp_str(string memory my1_str)public view returns(bool)... */\n    tag_9:\n        /* \"basics/strings.sol\":290:294  bool */\n      0x00\n        /* \"basics/strings.sol\":384:391  my1_str */\n      dup2\n        /* \"basics/strings.sol\":367:392  abi.encodePacked(my1_str) */\n      add(0x20, mload(0x40))\n      tag_20\n      swap2\n      swap1\n      tag_21\n      jump\t// in\n    tag_20:\n      mload(0x40)\n      0x20\n      dup2\n      dup4\n      sub\n      sub\n      dup2\n      mstore\n      swap1\n      0x40\n      mstore\n        /* \"basics/strings.sol\":357:393  keccak256(abi.encodePacked(my1_str)) */\n      dup1\n      mload\n      swap1\n      0x20\n      add\n      keccak256\n        /* \"basics/strings.sol\":346:353  str_var */\n      0x00\n        /* \"basics/strings.sol\":329:354  abi.encodePacked(str_var) */\n      add(0x20, mload(0x40))\n      tag_22\n      swap2\n      swap1\n      tag_23\n      jump\t// in\n    tag_22:\n      mload(0x40)\n      0x20\n      dup2\n      dup4\n      sub\n      sub\n      dup2\n      mstore\n      swap1\n      0x40\n      mstore\n        /* \"basics/strings.sol\":319:355  keccak256(abi.encodePacked(str_var)) */\n      dup1\n      mload\n      swap1\n      0x20\n      add\n      keccak256\n        /* \"basics/strings.sol\":319:393  keccak256(abi.encodePacked(str_var))==keccak256(abi.encodePacked(my1_str)) */\n      eq\n        /* \"basics/strings.sol\":312:393  return keccak256(abi.encodePacked(str_var))==keccak256(abi.encodePacked(my1_str)) */\n      swap1\n      pop\n        /* \"basics/strings.sol\":231:575  function cmp_str(string memory my1_str)public view returns(bool)... */\n      swap2\n      swap1\n      pop\n      jump\t// out\n        /* \"basics/strings.sol\":139:223  function str_func(string memory my_str)public... */\n    tag_14:\n        /* \"basics/strings.sol\":209:215  my_str */\n      dup1\n        /* \"basics/strings.sol\":201:208  str_var */\n      0x00\n        /* \"basics/strings.sol\":201:215  str_var=my_str */\n      swap1\n      dup2\n      tag_25\n      swap2\n      swap1\n      tag_26\n      jump\t// in\n    tag_25:\n      pop\n        /* \"basics/strings.sol\":139:223  function str_func(string memory my_str)public... */\n      pop\n      jump\t// out\n        /* \"basics/strings.sol\":95:130  string public str_var=\"meta_miners\" */\n    tag_16:\n      0x00\n      dup1\n      sload\n      tag_27\n      swap1\n      tag_28\n      jump\t// in\n    tag_27:\n      dup1\n      0x1f\n      add\n      0x20\n      dup1\n      swap2\n      div\n      mul\n      0x20\n      add\n      mload(0x40)\n      swap1\n      dup2\n      add\n      0x40\n      mstore\n      dup1\n      swap3\n      swap2\n      swap1\n      dup2\n      dup2\n      mstore\n      0x20\n      add\n      dup3\n      dup1\n      sload\n      tag_29\n      swap1\n      tag_28\n      jump\t// in\n    tag_29:\n      dup1\n      iszero\n      tag_30\n      jumpi\n      dup1\n      0x1f\n      lt\n      tag_31\n      jumpi\n      0x0100\n      dup1\n      dup4\n      sload\n      div\n      mul\n      dup4\n      mstore\n      swap2\n      0x20\n      add\n      swap2\n      jump(tag_30)\n    tag_31:\n      dup3\n      add\n      swap2\n      swap1\n      0x00\n      mstore\n      keccak256(0x00, 0x20)\n      swap1\n    tag_32:\n      dup2\n      sload\n      dup2\n      mstore\n      swap1\n      0x01\n      add\n      swap1\n      0x20\n      add\n      dup1\n      dup4\n      gt\n      tag_32\n      jumpi\n      dup3\n      swap1\n      sub\n      0x1f\n      and\n      dup3\n      add\n      swap2\n    tag_30:\n      pop\n      pop\n      pop\n      pop\n      pop\n      dup2\n      jump\t// out\n        /* \"#utility.yul\":7:82   */\n    tag_33:\n        /* \"#utility.yul\":40:46   */\n      0x00\n        /* \"#utility.yul\":73:75   */\n      0x40\n        /* \"#utility.yul\":67:76   */\n      mload\n        /* \"#utility.yul\":57:76   */\n      swap1\n      pop\n        /* \"#utility.yul\":7:82   */\n      swap1\n      jump\t// out\n        /* \"#utility.yul\":88:205   */\n    tag_34:\n        /* \"#utility.yul\":197:198   */\n      0x00\n        /* \"#utility.yul\":194:195   */\n      dup1\n        /* \"#utility.yul\":187:199   */\n      revert\n        /* \"#utility.yul\":211:328   */\n    tag_35:\n        /* \"#utility.yul\":320:321   */\n      0x00\n        /* \"#utility.yul\":317:318   */\n      dup1\n        /* \"#utility.yul\":310:322   */\n      revert\n        /* \"#utility.yul\":334:451   */\n    tag_36:\n        /* \"#utility.yul\":443:444   */\n      0x00\n        /* \"#utility.yul\":440:441   */\n      dup1\n        /* \"#utility.yul\":433:445   */\n      revert\n        /* \"#utility.yul\":457:574   */\n    tag_37:\n        /* \"#utility.yul\":566:567   */\n      0x00\n        /* \"#utility.yul\":563:564   */\n      dup1\n        /* \"#utility.yul\":556:568   */\n      revert\n        /* \"#utility.yul\":580:682   */\n    tag_38:\n        /* \"#utility.yul\":621:627   */\n      0x00\n        /* \"#utility.yul\":672:674   */\n      0x1f\n        /* \"#utility.yul\":668:675   */\n      not\n        /* \"#utility.yul\":663:665   */\n      0x1f\n        /* \"#utility.yul\":656:661   */\n      dup4\n        /* \"#utility.yul\":652:666   */\n      add\n        /* \"#utility.yul\":648:676   */\n      and\n        /* \"#utility.yul\":638:676   */\n      swap1\n      pop\n        /* \"#utility.yul\":580:682   */\n      swap2\n      swap1\n      pop\n      jump\t// out\n        /* \"#utility.yul\":688:868   */\n    tag_39:\n        /* \"#utility.yul\":736:813   */\n      0x4e487b7100000000000000000000000000000000000000000000000000000000\n        /* \"#utility.yul\":733:734   */\n      0x00\n        /* \"#utility.yul\":726:814   */\n      mstore\n        /* \"#utility.yul\":833:837   */\n      0x41\n        /* \"#utility.yul\":830:831   */\n      0x04\n        /* \"#utility.yul\":823:838   */\n      mstore\n        /* \"#utility.yul\":857:861   */\n      0x24\n        /* \"#utility.yul\":854:855   */\n      0x00\n        /* \"#utility.yul\":847:862   */\n      revert\n        /* \"#utility.yul\":874:1155   */\n    tag_40:\n        /* \"#utility.yul\":957:984   */\n      tag_81\n        /* \"#utility.yul\":979:983   */\n      dup3\n        /* \"#utility.yul\":957:984   */\n      tag_38\n      jump\t// in\n    tag_81:\n        /* \"#utility.yul\":949:955   */\n      dup2\n        /* \"#utility.yul\":945:985   */\n      add\n        /* \"#utility.yul\":1087:1093   */\n      dup2\n        /* \"#utility.yul\":1075:1085   */\n      dup2\n        /* \"#utility.yul\":1072:1094   */\n      lt\n        /* \"#utility.yul\":1051:1069   */\n      0xffffffffffffffff\n        /* \"#utility.yul\":1039:1049   */\n      dup3\n        /* \"#utility.yul\":1036:1070   */\n      gt\n        /* \"#utility.yul\":1033:1095   */\n      or\n        /* \"#utility.yul\":1030:1118   */\n      iszero\n      tag_82\n      jumpi\n        /* \"#utility.yul\":1098:1116   */\n      tag_83\n      tag_39\n      jump\t// in\n    tag_83:\n        /* \"#utility.yul\":1030:1118   */\n    tag_82:\n        /* \"#utility.yul\":1138:1148   */\n      dup1\n        /* \"#utility.yul\":1134:1136   */\n      0x40\n        /* \"#utility.yul\":1127:1149   */\n      mstore\n        /* \"#utility.yul\":917:1155   */\n      pop\n        /* \"#utility.yul\":874:1155   */\n      pop\n      pop\n      jump\t// out\n        /* \"#utility.yul\":1161:1290   */\n    tag_41:\n        /* \"#utility.yul\":1195:1201   */\n      0x00\n        /* \"#utility.yul\":1222:1242   */\n      tag_85\n      tag_33\n      jump\t// in\n    tag_85:\n        /* \"#utility.yul\":1212:1242   */\n      swap1\n      pop\n        /* \"#utility.yul\":1251:1284   */\n      tag_86\n        /* \"#utility.yul\":1279:1283   */\n      dup3\n        /* \"#utility.yul\":1271:1277   */\n      dup3\n        /* \"#utility.yul\":1251:1284   */\n      tag_40\n      jump\t// in\n    tag_86:\n        /* \"#utility.yul\":1161:1290   */\n      swap2\n      swap1\n      pop\n      jump\t// out\n        /* \"#utility.yul\":1296:1604   */\n    tag_42:\n        /* \"#utility.yul\":1358:1362   */\n      0x00\n        /* \"#utility.yul\":1448:1466   */\n      0xffffffffffffffff\n        /* \"#utility.yul\":1440:1446   */\n      dup3\n        /* \"#utility.yul\":1437:1467   */\n      gt\n        /* \"#utility.yul\":1434:1490   */\n      iszero\n      tag_88\n      jumpi\n        /* \"#utility.yul\":1470:1488   */\n      tag_89\n      tag_39\n      jump\t// in\n    tag_89:\n        /* \"#utility.yul\":1434:1490   */\n    tag_88:\n        /* \"#utility.yul\":1508:1537   */\n      tag_90\n        /* \"#utility.yul\":1530:1536   */\n      dup3\n        /* \"#utility.yul\":1508:1537   */\n      tag_38\n      jump\t// in\n    tag_90:\n        /* \"#utility.yul\":1500:1537   */\n      swap1\n      pop\n        /* \"#utility.yul\":1592:1596   */\n      0x20\n        /* \"#utility.yul\":1586:1590   */\n      dup2\n        /* \"#utility.yul\":1582:1597   */\n      add\n        /* \"#utility.yul\":1574:1597   */\n      swap1\n      pop\n        /* \"#utility.yul\":1296:1604   */\n      swap2\n      swap1\n      pop\n      jump\t// out\n        /* \"#utility.yul\":1610:1756   */\n    tag_43:\n        /* \"#utility.yul\":1707:1713   */\n      dup3\n        /* \"#utility.yul\":1702:1705   */\n      dup2\n        /* \"#utility.yul\":1697:1700   */\n      dup4\n        /* \"#utility.yul\":1684:1714   */\n      calldatacopy\n        /* \"#utility.yul\":1748:1749   */\n      0x00\n        /* \"#utility.yul\":1739:1745   */\n      dup4\n        /* \"#utility.yul\":1734:1737   */\n      dup4\n        /* \"#utility.yul\":1730:1746   */\n      add\n        /* \"#utility.yul\":1723:1750   */\n      mstore\n        /* \"#utility.yul\":1610:1756   */\n      pop\n      pop\n      pop\n      jump\t// out\n        /* \"#utility.yul\":1762:2187   */\n    tag_44:\n        /* \"#utility.yul\":1840:1845   */\n      0x00\n        /* \"#utility.yul\":1865:1931   */\n      tag_93\n        /* \"#utility.yul\":1881:1930   */\n      tag_94\n        /* \"#utility.yul\":1923:1929   */\n      dup5\n        /* \"#utility.yul\":1881:1930   */\n      tag_42\n      jump\t// in\n    tag_94:\n        /* \"#utility.yul\":1865:1931   */\n      tag_41\n      jump\t// in\n    tag_93:\n        /* \"#utility.yul\":1856:1931   */\n      swap1\n      pop\n        /* \"#utility.yul\":1954:1960   */\n      dup3\n        /* \"#utility.yul\":1947:1952   */\n      dup2\n        /* \"#utility.yul\":1940:1961   */\n      mstore\n        /* \"#utility.yul\":1992:1996   */\n      0x20\n        /* \"#utility.yul\":1985:1990   */\n      dup2\n        /* \"#utility.yul\":1981:1997   */\n      add\n        /* \"#utility.yul\":2030:2033   */\n      dup5\n        /* \"#utility.yul\":2021:2027   */\n      dup5\n        /* \"#utility.yul\":2016:2019   */\n      dup5\n        /* \"#utility.yul\":2012:2028   */\n      add\n        /* \"#utility.yul\":2009:2034   */\n      gt\n        /* \"#utility.yul\":2006:2118   */\n      iszero\n      tag_95\n      jumpi\n        /* \"#utility.yul\":2037:2116   */\n      tag_96\n      tag_37\n      jump\t// in\n    tag_96:\n        /* \"#utility.yul\":2006:2118   */\n    tag_95:\n        /* \"#utility.yul\":2127:2181   */\n      tag_97\n        /* \"#utility.yul\":2174:2180   */\n      dup5\n        /* \"#utility.yul\":2169:2172   */\n      dup3\n        /* \"#utility.yul\":2164:2167   */\n      dup6\n        /* \"#utility.yul\":2127:2181   */\n      tag_43\n      jump\t// in\n    tag_97:\n        /* \"#utility.yul\":1846:2187   */\n      pop\n        /* \"#utility.yul\":1762:2187   */\n      swap4\n      swap3\n      pop\n      pop\n      pop\n      jump\t// out\n        /* \"#utility.yul\":2207:2547   */\n    tag_45:\n        /* \"#utility.yul\":2263:2268   */\n      0x00\n        /* \"#utility.yul\":2312:2315   */\n      dup3\n        /* \"#utility.yul\":2305:2309   */\n      0x1f\n        /* \"#utility.yul\":2297:2303   */\n      dup4\n        /* \"#utility.yul\":2293:2310   */\n      add\n        /* \"#utility.yul\":2289:2316   */\n      slt\n        /* \"#utility.yul\":2279:2401   */\n      tag_99\n      jumpi\n        /* \"#utility.yul\":2320:2399   */\n      tag_100\n      tag_36\n      jump\t// in\n    tag_100:\n        /* \"#utility.yul\":2279:2401   */\n    tag_99:\n        /* \"#utility.yul\":2437:2443   */\n      dup2\n        /* \"#utility.yul\":2424:2444   */\n      calldataload\n        /* \"#utility.yul\":2462:2541   */\n      tag_101\n        /* \"#utility.yul\":2537:2540   */\n      dup5\n        /* \"#utility.yul\":2529:2535   */\n      dup3\n        /* \"#utility.yul\":2522:2526   */\n      0x20\n        /* \"#utility.yul\":2514:2520   */\n      dup7\n        /* \"#utility.yul\":2510:2527   */\n      add\n        /* \"#utility.yul\":2462:2541   */\n      tag_44\n      jump\t// in\n    tag_101:\n        /* \"#utility.yul\":2453:2541   */\n      swap2\n      pop\n        /* \"#utility.yul\":2269:2547   */\n      pop\n        /* \"#utility.yul\":2207:2547   */\n      swap3\n      swap2\n      pop\n      pop\n      jump\t// out\n        /* \"#utility.yul\":2553:3062   */\n    tag_8:\n        /* \"#utility.yul\":2622:2628   */\n      0x00\n        /* \"#utility.yul\":2671:2673   */\n      0x20\n        /* \"#utility.yul\":2659:2668   */\n      dup3\n        /* \"#utility.yul\":2650:2657   */\n      dup5\n        /* \"#utility.yul\":2646:2669   */\n      sub\n        /* \"#utility.yul\":2642:2674   */\n      slt\n        /* \"#utility.yul\":2639:2758   */\n      iszero\n      tag_103\n      jumpi\n        /* \"#utility.yul\":2677:2756   */\n      tag_104\n      tag_34\n      jump\t// in\n    tag_104:\n        /* \"#utility.yul\":2639:2758   */\n    tag_103:\n        /* \"#utility.yul\":2825:2826   */\n      0x00\n        /* \"#utility.yul\":2814:2823   */\n      dup3\n        /* \"#utility.yul\":2810:2827   */\n      add\n        /* \"#utility.yul\":2797:2828   */\n      calldataload\n        /* \"#utility.yul\":2855:2873   */\n      0xffffffffffffffff\n        /* \"#utility.yul\":2847:2853   */\n      dup2\n        /* \"#utility.yul\":2844:2874   */\n      gt\n        /* \"#utility.yul\":2841:2958   */\n      iszero\n      tag_105\n      jumpi\n        /* \"#utility.yul\":2877:2956   */\n      tag_106\n      tag_35\n      jump\t// in\n    tag_106:\n        /* \"#utility.yul\":2841:2958   */\n    tag_105:\n        /* \"#utility.yul\":2982:3045   */\n      tag_107\n        /* \"#utility.yul\":3037:3044   */\n      dup5\n        /* \"#utility.yul\":3028:3034   */\n      dup3\n        /* \"#utility.yul\":3017:3026   */\n      dup6\n        /* \"#utility.yul\":3013:3035   */\n      add\n        /* \"#utility.yul\":2982:3045   */\n      tag_45\n      jump\t// in\n    tag_107:\n        /* \"#utility.yul\":2972:3045   */\n      swap2\n      pop\n        /* \"#utility.yul\":2768:3055   */\n      pop\n        /* \"#utility.yul\":2553:3062   */\n      swap3\n      swap2\n      pop\n      pop\n      jump\t// out\n        /* \"#utility.yul\":3068:3158   */\n    tag_46:\n        /* \"#utility.yul\":3102:3109   */\n      0x00\n        /* \"#utility.yul\":3145:3150   */\n      dup2\n        /* \"#utility.yul\":3138:3151   */\n      iszero\n        /* \"#utility.yul\":3131:3152   */\n      iszero\n        /* \"#utility.yul\":3120:3152   */\n      swap1\n      pop\n        /* \"#utility.yul\":3068:3158   */\n      swap2\n      swap1\n      pop\n      jump\t// out\n        /* \"#utility.yul\":3164:3273   */\n    tag_47:\n        /* \"#utility.yul\":3245:3266   */\n      tag_110\n        /* \"#utility.yul\":3260:3265   */\n      dup2\n        /* \"#utility.yul\":3245:3266   */\n      tag_46\n      jump\t// in\n    tag_110:\n        /* \"#utility.yul\":3240:3243   */\n      dup3\n        /* \"#utility.yul\":3233:3267   */\n      mstore\n        /* \"#utility.yul\":3164:3273   */\n      pop\n      pop\n      jump\t// out\n        /* \"#utility.yul\":3279:3489   */\n    tag_11:\n        /* \"#utility.yul\":3366:3370   */\n      0x00\n        /* \"#utility.yul\":3404:3406   */\n      0x20\n        /* \"#utility.yul\":3393:3402   */\n      dup3\n        /* \"#utility.yul\":3389:3407   */\n      add\n        /* \"#utility.yul\":3381:3407   */\n      swap1\n      pop\n        /* \"#utility.yul\":3417:3482   */\n      tag_112\n        /* \"#utility.yul\":3479:3480   */\n      0x00\n        /* \"#utility.yul\":3468:3477   */\n      dup4\n        /* \"#utility.yul\":3464:3481   */\n      add\n        /* \"#utility.yul\":3455:3461   */\n      dup5\n        /* \"#utility.yul\":3417:3482   */\n      tag_47\n      jump\t// in\n    tag_112:\n        /* \"#utility.yul\":3279:3489   */\n      swap3\n      swap2\n      pop\n      pop\n      jump\t// out\n        /* \"#utility.yul\":3495:3594   */\n    tag_48:\n        /* \"#utility.yul\":3547:3553   */\n      0x00\n        /* \"#utility.yul\":3581:3586   */\n      dup2\n        /* \"#utility.yul\":3575:3587   */\n      mload\n        /* \"#utility.yul\":3565:3587   */\n      swap1\n      pop\n        /* \"#utility.yul\":3495:3594   */\n      swap2\n      swap1\n      pop\n      jump\t// out\n        /* \"#utility.yul\":3600:3769   */\n    tag_49:\n        /* \"#utility.yul\":3684:3695   */\n      0x00\n        /* \"#utility.yul\":3718:3724   */\n      dup3\n        /* \"#utility.yul\":3713:3716   */\n      dup3\n        /* \"#utility.yul\":3706:3725   */\n      mstore\n        /* \"#utility.yul\":3758:3762   */\n      0x20\n        /* \"#utility.yul\":3753:3756   */\n      dup3\n        /* \"#utility.yul\":3749:3763   */\n      add\n        /* \"#utility.yul\":3734:3763   */\n      swap1\n      pop\n        /* \"#utility.yul\":3600:3769   */\n      swap3\n      swap2\n      pop\n      pop\n      jump\t// out\n        /* \"#utility.yul\":3775:4021   */\n    tag_50:\n        /* \"#utility.yul\":3856:3857   */\n      0x00\n        /* \"#utility.yul\":3866:3979   */\n    tag_116:\n        /* \"#utility.yul\":3880:3886   */\n      dup4\n        /* \"#utility.yul\":3877:3878   */\n      dup2\n        /* \"#utility.yul\":3874:3887   */\n      lt\n        /* \"#utility.yul\":3866:3979   */\n      iszero\n      tag_118\n      jumpi\n        /* \"#utility.yul\":3965:3966   */\n      dup1\n        /* \"#utility.yul\":3960:3963   */\n      dup3\n        /* \"#utility.yul\":3956:3967   */\n      add\n        /* \"#utility.yul\":3950:3968   */\n      mload\n        /* \"#utility.yul\":3946:3947   */\n      dup2\n        /* \"#utility.yul\":3941:3944   */\n      dup5\n        /* \"#utility.yul\":3937:3948   */\n      add\n        /* \"#utility.yul\":3930:3969   */\n      mstore\n        /* \"#utility.yul\":3902:3904   */\n      0x20\n        /* \"#utility.yul\":3899:3900   */\n      dup2\n        /* \"#utility.yul\":3895:3905   */\n      add\n        /* \"#utility.yul\":3890:3905   */\n      swap1\n      pop\n        /* \"#utility.yul\":3866:3979   */\n      jump(tag_116)\n    tag_118:\n        /* \"#utility.yul\":4013:4014   */\n      0x00\n        /* \"#utility.yul\":4004:4010   */\n      dup5\n        /* \"#utility.yul\":3999:4002   */\n      dup5\n        /* \"#utility.yul\":3995:4011   */\n      add\n        /* \"#utility.yul\":3988:4015   */\n      mstore\n        /* \"#utility.yul\":3837:4021   */\n      pop\n        /* \"#utility.yul\":3775:4021   */\n      pop\n      pop\n      pop\n      jump\t// out\n        /* \"#utility.yul\":4027:4404   */\n    tag_51:\n        /* \"#utility.yul\":4115:4118   */\n      0x00\n        /* \"#utility.yul\":4143:4182   */\n      tag_120\n        /* \"#utility.yul\":4176:4181   */\n      dup3\n        /* \"#utility.yul\":4143:4182   */\n      tag_48\n      jump\t// in\n    tag_120:\n        /* \"#utility.yul\":4198:4269   */\n      tag_121\n        /* \"#utility.yul\":4262:4268   */\n      dup2\n        /* \"#utility.yul\":4257:4260   */\n      dup6\n        /* \"#utility.yul\":4198:4269   */\n      tag_49\n      jump\t// in\n    tag_121:\n        /* \"#utility.yul\":4191:4269   */\n      swap4\n      pop\n        /* \"#utility.yul\":4278:4343   */\n      tag_122\n        /* \"#utility.yul\":4336:4342   */\n      dup2\n        /* \"#utility.yul\":4331:4334   */\n      dup6\n        /* \"#utility.yul\":4324:4328   */\n      0x20\n        /* \"#utility.yul\":4317:4322   */\n      dup7\n        /* \"#utility.yul\":4313:4329   */\n      add\n        /* \"#utility.yul\":4278:4343   */\n      tag_50\n      jump\t// in\n    tag_122:\n        /* \"#utility.yul\":4368:4397   */\n      tag_123\n        /* \"#utility.yul\":4390:4396   */\n      dup2\n        /* \"#utility.yul\":4368:4397   */\n      tag_38\n      jump\t// in\n    tag_123:\n        /* \"#utility.yul\":4363:4366   */\n      dup5\n        /* \"#utility.yul\":4359:4398   */\n      add\n        /* \"#utility.yul\":4352:4398   */\n      swap2\n      pop\n        /* \"#utility.yul\":4119:4404   */\n      pop\n        /* \"#utility.yul\":4027:4404   */\n      swap3\n      swap2\n      pop\n      pop\n      jump\t// out\n        /* \"#utility.yul\":4410:4723   */\n    tag_18:\n        /* \"#utility.yul\":4523:4527   */\n      0x00\n        /* \"#utility.yul\":4561:4563   */\n      0x20\n        /* \"#utility.yul\":4550:4559   */\n      dup3\n        /* \"#utility.yul\":4546:4564   */\n      add\n        /* \"#utility.yul\":4538:4564   */\n      swap1\n      pop\n        /* \"#utility.yul\":4610:4619   */\n      dup2\n        /* \"#utility.yul\":4604:4608   */\n      dup2\n        /* \"#utility.yul\":4600:4620   */\n      sub\n        /* \"#utility.yul\":4596:4597   */\n      0x00\n        /* \"#utility.yul\":4585:4594   */\n      dup4\n        /* \"#utility.yul\":4581:4598   */\n      add\n        /* \"#utility.yul\":4574:4621   */\n      mstore\n        /* \"#utility.yul\":4638:4716   */\n      tag_125\n        /* \"#utility.yul\":4711:4715   */\n      dup2\n        /* \"#utility.yul\":4702:4708   */\n      dup5\n        /* \"#utility.yul\":4638:4716   */\n      tag_51\n      jump\t// in\n    tag_125:\n        /* \"#utility.yul\":4630:4716   */\n      swap1\n      pop\n        /* \"#utility.yul\":4410:4723   */\n      swap3\n      swap2\n      pop\n      pop\n      jump\t// out\n        /* \"#utility.yul\":4729:4877   */\n    tag_52:\n        /* \"#utility.yul\":4831:4842   */\n      0x00\n        /* \"#utility.yul\":4868:4871   */\n      dup2\n        /* \"#utility.yul\":4853:4871   */\n      swap1\n      pop\n        /* \"#utility.yul\":4729:4877   */\n      swap3\n      swap2\n      pop\n      pop\n      jump\t// out\n        /* \"#utility.yul\":4883:5273   */\n    tag_53:\n        /* \"#utility.yul\":4989:4992   */\n      0x00\n        /* \"#utility.yul\":5017:5056   */\n      tag_128\n        /* \"#utility.yul\":5050:5055   */\n      dup3\n        /* \"#utility.yul\":5017:5056   */\n      tag_48\n      jump\t// in\n    tag_128:\n        /* \"#utility.yul\":5072:5161   */\n      tag_129\n        /* \"#utility.yul\":5154:5160   */\n      dup2\n        /* \"#utility.yul\":5149:5152   */\n      dup6\n        /* \"#utility.yul\":5072:5161   */\n      tag_52\n      jump\t// in\n    tag_129:\n        /* \"#utility.yul\":5065:5161   */\n      swap4\n      pop\n        /* \"#utility.yul\":5170:5235   */\n      tag_130\n        /* \"#utility.yul\":5228:5234   */\n      dup2\n        /* \"#utility.yul\":5223:5226   */\n      dup6\n        /* \"#utility.yul\":5216:5220   */\n      0x20\n        /* \"#utility.yul\":5209:5214   */\n      dup7\n        /* \"#utility.yul\":5205:5221   */\n      add\n        /* \"#utility.yul\":5170:5235   */\n      tag_50\n      jump\t// in\n    tag_130:\n        /* \"#utility.yul\":5260:5266   */\n      dup1\n        /* \"#utility.yul\":5255:5258   */\n      dup5\n        /* \"#utility.yul\":5251:5267   */\n      add\n        /* \"#utility.yul\":5244:5267   */\n      swap2\n      pop\n        /* \"#utility.yul\":4993:5273   */\n      pop\n        /* \"#utility.yul\":4883:5273   */\n      swap3\n      swap2\n      pop\n      pop\n      jump\t// out\n        /* \"#utility.yul\":5279:5554   */\n    tag_21:\n        /* \"#utility.yul\":5411:5414   */\n      0x00\n        /* \"#utility.yul\":5433:5528   */\n      tag_132\n        /* \"#utility.yul\":5524:5527   */\n      dup3\n        /* \"#utility.yul\":5515:5521   */\n      dup5\n        /* \"#utility.yul\":5433:5528   */\n      tag_53\n      jump\t// in\n    tag_132:\n        /* \"#utility.yul\":5426:5528   */\n      swap2\n      pop\n        /* \"#utility.yul\":5545:5548   */\n      dup2\n        /* \"#utility.yul\":5538:5548   */\n      swap1\n      pop\n        /* \"#utility.yul\":5279:5554   */\n      swap3\n      swap2\n      pop\n      pop\n      jump\t// out\n        /* \"#utility.yul\":5560:5740   */\n    tag_54:\n        /* \"#utility.yul\":5608:5685   */\n      0x4e487b7100000000000000000000000000000000000000000000000000000000\n        /* \"#utility.yul\":5605:5606   */\n      0x00\n        /* \"#utility.yul\":5598:5686   */\n      mstore\n        /* \"#utility.yul\":5705:5709   */\n      0x22\n        /* \"#utility.yul\":5702:5703   */\n      0x04\n        /* \"#utility.yul\":5695:5710   */\n      mstore\n        /* \"#utility.yul\":5729:5733   */\n      0x24\n        /* \"#utility.yul\":5726:5727   */\n      0x00\n        /* \"#utility.yul\":5719:5734   */\n      revert\n        /* \"#utility.yul\":5746:6066   */\n    tag_28:\n        /* \"#utility.yul\":5790:5796   */\n      0x00\n        /* \"#utility.yul\":5827:5828   */\n      0x02\n        /* \"#utility.yul\":5821:5825   */\n      dup3\n        /* \"#utility.yul\":5817:5829   */\n      div\n        /* \"#utility.yul\":5807:5829   */\n      swap1\n      pop\n        /* \"#utility.yul\":5874:5875   */\n      0x01\n        /* \"#utility.yul\":5868:5872   */\n      dup3\n        /* \"#utility.yul\":5864:5876   */\n      and\n        /* \"#utility.yul\":5895:5913   */\n      dup1\n        /* \"#utility.yul\":5885:5966   */\n      tag_135\n      jumpi\n        /* \"#utility.yul\":5951:5955   */\n      0x7f\n        /* \"#utility.yul\":5943:5949   */\n      dup3\n        /* \"#utility.yul\":5939:5956   */\n      and\n        /* \"#utility.yul\":5929:5956   */\n      swap2\n      pop\n        /* \"#utility.yul\":5885:5966   */\n    tag_135:\n        /* \"#utility.yul\":6013:6015   */\n      0x20\n        /* \"#utility.yul\":6005:6011   */\n      dup3\n        /* \"#utility.yul\":6002:6016   */\n      lt\n        /* \"#utility.yul\":5982:6000   */\n      dup2\n        /* \"#utility.yul\":5979:6017   */\n      sub\n        /* \"#utility.yul\":5976:6060   */\n      tag_136\n      jumpi\n        /* \"#utility.yul\":6032:6050   */\n      tag_137\n      tag_54\n      jump\t// in\n    tag_137:\n        /* \"#utility.yul\":5976:6060   */\n    tag_136:\n        /* \"#utility.yul\":5797:6066   */\n      pop\n        /* \"#utility.yul\":5746:6066   */\n      swap2\n      swap1\n      pop\n      jump\t// out\n        /* \"#utility.yul\":6072:6213   */\n    tag_55:\n        /* \"#utility.yul\":6121:6125   */\n      0x00\n        /* \"#utility.yul\":6144:6147   */\n      dup2\n        /* \"#utility.yul\":6136:6147   */\n      swap1\n      pop\n        /* \"#utility.yul\":6167:6170   */\n      dup2\n        /* \"#utility.yul\":6164:6165   */\n      0x00\n        /* \"#utility.yul\":6157:6171   */\n      mstore\n        /* \"#utility.yul\":6201:6205   */\n      0x20\n        /* \"#utility.yul\":6198:6199   */\n      0x00\n        /* \"#utility.yul\":6188:6206   */\n      keccak256\n        /* \"#utility.yul\":6180:6206   */\n      swap1\n      pop\n        /* \"#utility.yul\":6072:6213   */\n      swap2\n      swap1\n      pop\n      jump\t// out\n        /* \"#utility.yul\":6243:7117   */\n    tag_56:\n        /* \"#utility.yul\":6346:6349   */\n      0x00\n        /* \"#utility.yul\":6383:6388   */\n      dup2\n        /* \"#utility.yul\":6377:6389   */\n      sload\n        /* \"#utility.yul\":6412:6448   */\n      tag_140\n        /* \"#utility.yul\":6438:6447   */\n      dup2\n        /* \"#utility.yul\":6412:6448   */\n      tag_28\n      jump\t// in\n    tag_140:\n        /* \"#utility.yul\":6464:6553   */\n      tag_141\n        /* \"#utility.yul\":6546:6552   */\n      dup2\n        /* \"#utility.yul\":6541:6544   */\n      dup7\n        /* \"#utility.yul\":6464:6553   */\n      tag_52\n      jump\t// in\n    tag_141:\n        /* \"#utility.yul\":6457:6553   */\n      swap5\n      pop\n        /* \"#utility.yul\":6584:6585   */\n      0x01\n        /* \"#utility.yul\":6573:6582   */\n      dup3\n        /* \"#utility.yul\":6569:6586   */\n      and\n        /* \"#utility.yul\":6600:6601   */\n      0x00\n        /* \"#utility.yul\":6595:6761   */\n      dup2\n      eq\n      tag_143\n      jumpi\n        /* \"#utility.yul\":6775:6776   */\n      0x01\n        /* \"#utility.yul\":6770:7111   */\n      dup2\n      eq\n      tag_144\n      jumpi\n        /* \"#utility.yul\":6562:7111   */\n      jump(tag_142)\n        /* \"#utility.yul\":6595:6761   */\n    tag_143:\n        /* \"#utility.yul\":6679:6683   */\n      0xff\n        /* \"#utility.yul\":6675:6684   */\n      not\n        /* \"#utility.yul\":6664:6673   */\n      dup4\n        /* \"#utility.yul\":6660:6685   */\n      and\n        /* \"#utility.yul\":6655:6658   */\n      dup7\n        /* \"#utility.yul\":6648:6686   */\n      mstore\n        /* \"#utility.yul\":6741:6747   */\n      dup2\n        /* \"#utility.yul\":6734:6748   */\n      iszero\n        /* \"#utility.yul\":6727:6749   */\n      iszero\n        /* \"#utility.yul\":6719:6725   */\n      dup3\n        /* \"#utility.yul\":6715:6750   */\n      mul\n        /* \"#utility.yul\":6710:6713   */\n      dup7\n        /* \"#utility.yul\":6706:6751   */\n      add\n        /* \"#utility.yul\":6699:6751   */\n      swap4\n      pop\n        /* \"#utility.yul\":6595:6761   */\n      jump(tag_142)\n        /* \"#utility.yul\":6770:7111   */\n    tag_144:\n        /* \"#utility.yul\":6837:6875   */\n      tag_145\n        /* \"#utility.yul\":6869:6874   */\n      dup6\n        /* \"#utility.yul\":6837:6875   */\n      tag_55\n      jump\t// in\n    tag_145:\n        /* \"#utility.yul\":6897:6898   */\n      0x00\n        /* \"#utility.yul\":6911:7065   */\n    tag_146:\n        /* \"#utility.yul\":6925:6931   */\n      dup4\n        /* \"#utility.yul\":6922:6923   */\n      dup2\n        /* \"#utility.yul\":6919:6932   */\n      lt\n        /* \"#utility.yul\":6911:7065   */\n      iszero\n      tag_148\n      jumpi\n        /* \"#utility.yul\":6999:7006   */\n      dup2\n        /* \"#utility.yul\":6993:7007   */\n      sload\n        /* \"#utility.yul\":6989:6990   */\n      dup2\n        /* \"#utility.yul\":6984:6987   */\n      dup10\n        /* \"#utility.yul\":6980:6991   */\n      add\n        /* \"#utility.yul\":6973:7008   */\n      mstore\n        /* \"#utility.yul\":7049:7050   */\n      0x01\n        /* \"#utility.yul\":7040:7047   */\n      dup3\n        /* \"#utility.yul\":7036:7051   */\n      add\n        /* \"#utility.yul\":7025:7051   */\n      swap2\n      pop\n        /* \"#utility.yul\":6947:6951   */\n      0x20\n        /* \"#utility.yul\":6944:6945   */\n      dup2\n        /* \"#utility.yul\":6940:6952   */\n      add\n        /* \"#utility.yul\":6935:6952   */\n      swap1\n      pop\n        /* \"#utility.yul\":6911:7065   */\n      jump(tag_146)\n    tag_148:\n        /* \"#utility.yul\":7094:7100   */\n      dup4\n        /* \"#utility.yul\":7089:7092   */\n      dup9\n        /* \"#utility.yul\":7085:7101   */\n      add\n        /* \"#utility.yul\":7078:7101   */\n      swap6\n      pop\n        /* \"#utility.yul\":6777:7111   */\n      pop\n      pop\n        /* \"#utility.yul\":6562:7111   */\n    tag_142:\n      pop\n        /* \"#utility.yul\":6350:7117   */\n      pop\n      pop\n        /* \"#utility.yul\":6243:7117   */\n      swap3\n      swap2\n      pop\n      pop\n      jump\t// out\n        /* \"#utility.yul\":7123:7392   */\n    tag_23:\n        /* \"#utility.yul\":7252:7255   */\n      0x00\n        /* \"#utility.yul\":7274:7366   */\n      tag_150\n        /* \"#utility.yul\":7362:7365   */\n      dup3\n        /* \"#utility.yul\":7353:7359   */\n      dup5\n        /* \"#utility.yul\":7274:7366   */\n      tag_56\n      jump\t// in\n    tag_150:\n        /* \"#utility.yul\":7267:7366   */\n      swap2\n      pop\n        /* \"#utility.yul\":7383:7386   */\n      dup2\n        /* \"#utility.yul\":7376:7386   */\n      swap1\n      pop\n        /* \"#utility.yul\":7123:7392   */\n      swap3\n      swap2\n      pop\n      pop\n      jump\t// out\n        /* \"#utility.yul\":7398:7491   */\n    tag_57:\n        /* \"#utility.yul\":7435:7441   */\n      0x00\n        /* \"#utility.yul\":7482:7484   */\n      0x20\n        /* \"#utility.yul\":7477:7479   */\n      0x1f\n        /* \"#utility.yul\":7470:7475   */\n      dup4\n        /* \"#utility.yul\":7466:7480   */\n      add\n        /* \"#utility.yul\":7462:7485   */\n      div\n        /* \"#utility.yul\":7452:7485   */\n      swap1\n      pop\n        /* \"#utility.yul\":7398:7491   */\n      swap2\n      swap1\n      pop\n      jump\t// out\n        /* \"#utility.yul\":7497:7604   */\n    tag_58:\n        /* \"#utility.yul\":7541:7549   */\n      0x00\n        /* \"#utility.yul\":7591:7596   */\n      dup3\n        /* \"#utility.yul\":7585:7589   */\n      dup3\n        /* \"#utility.yul\":7581:7597   */\n      shl\n        /* \"#utility.yul\":7560:7597   */\n      swap1\n      pop\n        /* \"#utility.yul\":7497:7604   */\n      swap3\n      swap2\n      pop\n      pop\n      jump\t// out\n        /* \"#utility.yul\":7610:8003   */\n    tag_59:\n        /* \"#utility.yul\":7679:7685   */\n      0x00\n        /* \"#utility.yul\":7729:7730   */\n      0x08\n        /* \"#utility.yul\":7717:7727   */\n      dup4\n        /* \"#utility.yul\":7713:7731   */\n      mul\n        /* \"#utility.yul\":7752:7849   */\n      tag_154\n        /* \"#utility.yul\":7782:7848   */\n      0xffffffffffffffffffffffffffffffffffffffffffffffffffffffffffffffff\n        /* \"#utility.yul\":7771:7780   */\n      dup3\n        /* \"#utility.yul\":7752:7849   */\n      tag_58\n      jump\t// in\n    tag_154:\n        /* \"#utility.yul\":7870:7909   */\n      tag_155\n        /* \"#utility.yul\":7900:7908   */\n      dup7\n        /* \"#utility.yul\":7889:7898   */\n      dup4\n        /* \"#utility.yul\":7870:7909   */\n      tag_58\n      jump\t// in\n    tag_155:\n        /* \"#utility.yul\":7858:7909   */\n      swap6\n      pop\n        /* \"#utility.yul\":7942:7946   */\n      dup1\n        /* \"#utility.yul\":7938:7947   */\n      not\n        /* \"#utility.yul\":7931:7936   */\n      dup5\n        /* \"#utility.yul\":7927:7948   */\n      and\n        /* \"#utility.yul\":7918:7948   */\n      swap4\n      pop\n        /* \"#utility.yul\":7991:7995   */\n      dup1\n        /* \"#utility.yul\":7981:7989   */\n      dup7\n        /* \"#utility.yul\":7977:7996   */\n      and\n        /* \"#utility.yul\":7970:7975   */\n      dup5\n        /* \"#utility.yul\":7967:7997   */\n      or\n        /* \"#utility.yul\":7957:7997   */\n      swap3\n      pop\n        /* \"#utility.yul\":7686:8003   */\n      pop\n      pop\n        /* \"#utility.yul\":7610:8003   */\n      swap4\n      swap3\n      pop\n      pop\n      pop\n      jump\t// out\n        /* \"#utility.yul\":8009:8086   */\n    tag_60:\n        /* \"#utility.yul\":8046:8053   */\n      0x00\n        /* \"#utility.yul\":8075:8080   */\n      dup2\n        /* \"#utility.yul\":8064:8080   */\n      swap1\n      pop\n        /* \"#utility.yul\":8009:8086   */\n      swap2\n      swap1\n      pop\n      jump\t// out\n        /* \"#utility.yul\":8092:8152   */\n    tag_61:\n        /* \"#utility.yul\":8120:8123   */\n      0x00\n        /* \"#utility.yul\":8141:8146   */\n      dup2\n        /* \"#utility.yul\":8134:8146   */\n      swap1\n      pop\n        /* \"#utility.yul\":8092:8152   */\n      swap2\n      swap1\n      pop\n      jump\t// out\n        /* \"#utility.yul\":8158:8300   */\n    tag_62:\n        /* \"#utility.yul\":8208:8217   */\n      0x00\n        /* \"#utility.yul\":8241:8294   */\n      tag_159\n        /* \"#utility.yul\":8259:8293   */\n      tag_160\n        /* \"#utility.yul\":8268:8292   */\n      tag_161\n        /* \"#utility.yul\":8286:8291   */\n      dup5\n        /* \"#utility.yul\":8268:8292   */\n      tag_60\n      jump\t// in\n    tag_161:\n        /* \"#utility.yul\":8259:8293   */\n      tag_61\n      jump\t// in\n    tag_160:\n        /* \"#utility.yul\":8241:8294   */\n      tag_60\n      jump\t// in\n    tag_159:\n        /* \"#utility.yul\":8228:8294   */\n      swap1\n      pop\n        /* \"#utility.yul\":8158:8300   */\n      swap2\n      swap1\n      pop\n      jump\t// out\n        /* \"#utility.yul\":8306:8381   */\n    tag_63:\n        /* \"#utility.yul\":8349:8352   */\n      0x00\n        /* \"#utility.yul\":8370:8375   */\n      dup2\n        /* \"#utility.yul\":8363:8375   */\n      swap1\n      pop\n        /* \"#utility.yul\":8306:8381   */\n      swap2\n      swap1\n      pop\n      jump\t// out\n        /* \"#utility.yul\":8387:8656   */\n    tag_64:\n        /* \"#utility.yul\":8497:8536   */\n      tag_164\n        /* \"#utility.yul\":8528:8535   */\n      dup4\n        /* \"#utility.yul\":8497:8536   */\n      tag_62\n      jump\t// in\n    tag_164:\n        /* \"#utility.yul\":8558:8649   */\n      tag_165\n        /* \"#utility.yul\":8607:8648   */\n      tag_166\n        /* \"#utility.yul\":8631:8647   */\n      dup3\n        /* \"#utility.yul\":8607:8648   */\n      tag_63\n      jump\t// in\n    tag_166:\n        /* \"#utility.yul\":8599:8605   */\n      dup5\n        /* \"#utility.yul\":8592:8596   */\n      dup5\n        /* \"#utility.yul\":8586:8597   */\n      sload\n        /* \"#utility.yul\":8558:8649   */\n      tag_59\n      jump\t// in\n    tag_165:\n        /* \"#utility.yul\":8552:8556   */\n      dup3\n        /* \"#utility.yul\":8545:8650   */\n      sstore\n        /* \"#utility.yul\":8463:8656   */\n      pop\n        /* \"#utility.yul\":8387:8656   */\n      pop\n      pop\n      pop\n      jump\t// out\n        /* \"#utility.yul\":8662:8735   */\n    tag_65:\n        /* \"#utility.yul\":8707:8710   */\n      0x00\n        /* \"#utility.yul\":8662:8735   */\n      swap1\n      jump\t// out\n        /* \"#utility.yul\":8741:8930   */\n    tag_66:\n        /* \"#utility.yul\":8818:8850   */\n      tag_169\n      tag_65\n      jump\t// in\n    tag_169:\n        /* \"#utility.yul\":8859:8924   */\n      tag_170\n        /* \"#utility.yul\":8917:8923   */\n      dup2\n        /* \"#utility.yul\":8909:8915   */\n      dup5\n        /* \"#utility.yul\":8903:8907   */\n      dup5\n        /* \"#utility.yul\":8859:8924   */\n      tag_64\n      jump\t// in\n    tag_170:\n        /* \"#utility.yul\":8794:8930   */\n      pop\n        /* \"#utility.yul\":8741:8930   */\n      pop\n      pop\n      jump\t// out\n        /* \"#utility.yul\":8936:9122   */\n    tag_67:\n        /* \"#utility.yul\":8996:9116   */\n    tag_172:\n        /* \"#utility.yul\":9013:9016   */\n      dup2\n        /* \"#utility.yul\":9006:9011   */\n      dup2\n        /* \"#utility.yul\":9003:9017   */\n      lt\n        /* \"#utility.yul\":8996:9116   */\n      iszero\n      tag_174\n      jumpi\n        /* \"#utility.yul\":9067:9106   */\n      tag_175\n        /* \"#utility.yul\":9104:9105   */\n      0x00\n        /* \"#utility.yul\":9097:9102   */\n      dup3\n        /* \"#utility.yul\":9067:9106   */\n      tag_66\n      jump\t// in\n    tag_175:\n        /* \"#utility.yul\":9040:9041   */\n      0x01\n        /* \"#utility.yul\":9033:9038   */\n      dup2\n        /* \"#utility.yul\":9029:9042   */\n      add\n        /* \"#utility.yul\":9020:9042   */\n      swap1\n      pop\n        /* \"#utility.yul\":8996:9116   */\n      jump(tag_172)\n    tag_174:\n        /* \"#utility.yul\":8936:9122   */\n      pop\n      pop\n      jump\t// out\n        /* \"#utility.yul\":9128:9671   */\n    tag_68:\n        /* \"#utility.yul\":9229:9231   */\n      0x1f\n        /* \"#utility.yul\":9224:9227   */\n      dup3\n        /* \"#utility.yul\":9221:9232   */\n      gt\n        /* \"#utility.yul\":9218:9664   */\n      iszero\n      tag_177\n      jumpi\n        /* \"#utility.yul\":9263:9301   */\n      tag_178\n        /* \"#utility.yul\":9295:9300   */\n      dup2\n        /* \"#utility.yul\":9263:9301   */\n      tag_55\n      jump\t// in\n    tag_178:\n        /* \"#utility.yul\":9347:9376   */\n      tag_179\n        /* \"#utility.yul\":9365:9375   */\n      dup5\n        /* \"#utility.yul\":9347:9376   */\n      tag_57\n      jump\t// in\n    tag_179:\n        /* \"#utility.yul\":9337:9345   */\n      dup2\n        /* \"#utility.yul\":9333:9377   */\n      add\n        /* \"#utility.yul\":9530:9532   */\n      0x20\n        /* \"#utility.yul\":9518:9528   */\n      dup6\n        /* \"#utility.yul\":9515:9533   */\n      lt\n        /* \"#utility.yul\":9512:9561   */\n      iszero\n      tag_180\n      jumpi\n        /* \"#utility.yul\":9551:9559   */\n      dup2\n        /* \"#utility.yul\":9536:9559   */\n      swap1\n      pop\n        /* \"#utility.yul\":9512:9561   */\n    tag_180:\n        /* \"#utility.yul\":9574:9654   */\n      tag_181\n        /* \"#utility.yul\":9630:9652   */\n      tag_182\n        /* \"#utility.yul\":9648:9651   */\n      dup6\n        /* \"#utility.yul\":9630:9652   */\n      tag_57\n      jump\t// in\n    tag_182:\n        /* \"#utility.yul\":9620:9628   */\n      dup4\n        /* \"#utility.yul\":9616:9653   */\n      add\n        /* \"#utility.yul\":9603:9614   */\n      dup3\n        /* \"#utility.yul\":9574:9654   */\n      tag_67\n      jump\t// in\n    tag_181:\n        /* \"#utility.yul\":9233:9664   */\n      pop\n      pop\n        /* \"#utility.yul\":9218:9664   */\n    tag_177:\n        /* \"#utility.yul\":9128:9671   */\n      pop\n      pop\n      pop\n      jump\t// out\n        /* \"#utility.yul\":9677:9794   */\n    tag_69:\n        /* \"#utility.yul\":9731:9739   */\n      0x00\n        /* \"#utility.yul\":9781:9786   */\n      dup3\n        /* \"#utility.yul\":9775:9779   */\n      dup3\n        /* \"#utility.yul\":9771:9787   */\n      shr\n        /* \"#utility.yul\":9750:9787   */\n      swap1\n      pop\n        /* \"#utility.yul\":9677:9794   */\n      swap3\n      swap2\n      pop\n      pop\n      jump\t// out\n        /* \"#utility.yul\":9800:9969   */\n    tag_70:\n        /* \"#utility.yul\":9844:9850   */\n      0x00\n        /* \"#utility.yul\":9877:9928   */\n      tag_185\n        /* \"#utility.yul\":9925:9926   */\n      0x00\n        /* \"#utility.yul\":9921:9927   */\n      not\n        /* \"#utility.yul\":9913:9918   */\n      dup5\n        /* \"#utility.yul\":9910:9911   */\n      0x08\n        /* \"#utility.yul\":9906:9919   */\n      mul\n        /* \"#utility.yul\":9877:9928   */\n      tag_69\n      jump\t// in\n    tag_185:\n        /* \"#utility.yul\":9873:9929   */\n      not\n        /* \"#utility.yul\":9958:9962   */\n      dup1\n        /* \"#utility.yul\":9952:9956   */\n      dup4\n        /* \"#utility.yul\":9948:9963   */\n      and\n        /* \"#utility.yul\":9938:9963   */\n      swap2\n      pop\n        /* \"#utility.yul\":9851:9969   */\n      pop\n        /* \"#utility.yul\":9800:9969   */\n      swap3\n      swap2\n      pop\n      pop\n      jump\t// out\n        /* \"#utility.yul\":9974:10269   */\n    tag_71:\n        /* \"#utility.yul\":10050:10054   */\n      0x00\n        /* \"#utility.yul\":10196:10225   */\n      tag_187\n        /* \"#utility.yul\":10221:10224   */\n      dup4\n        /* \"#utility.yul\":10215:10219   */\n      dup4\n        /* \"#utility.yul\":10196:10225   */\n      tag_70\n      jump\t// in\n    tag_187:\n        /* \"#utility.yul\":10188:10225   */\n      swap2\n      pop\n        /* \"#utility.yul\":10258:10261   */\n      dup3\n        /* \"#utility.yul\":10255:10256   */\n      0x02\n        /* \"#utility.yul\":10251:10262   */\n      mul\n        /* \"#utility.yul\":10245:10249   */\n      dup3\n        /* \"#utility.yul\":10242:10263   */\n      or\n        /* \"#utility.yul\":10234:10263   */\n      swap1\n      pop\n        /* \"#utility.yul\":9974:10269   */\n      swap3\n      swap2\n      pop\n      pop\n      jump\t// out\n        /* \"#utility.yul\":10274:11669   */\n    tag_26:\n        /* \"#utility.yul\":10391:10428   */\n      tag_189\n        /* \"#utility.yul\":10424:10427   */\n      dup3\n        /* \"#utility.yul\":10391:10428   */\n      tag_48\n      jump\t// in\n    tag_189:\n        /* \"#utility.yul\":10493:10511   */\n      0xffffffffffffffff\n        /* \"#utility.yul\":10485:10491   */\n      dup2\n        /* \"#utility.yul\":10482:10512   */\n      gt\n        /* \"#utility.yul\":10479:10535   */\n      iszero\n      tag_190\n      jumpi\n        /* \"#utility.yul\":10515:10533   */\n      tag_191\n      tag_39\n      jump\t// in\n    tag_191:\n        /* \"#utility.yul\":10479:10535   */\n    tag_190:\n        /* \"#utility.yul\":10559:10597   */\n      tag_192\n        /* \"#utility.yul\":10591:10595   */\n      dup3\n        /* \"#utility.yul\":10585:10596   */\n      sload\n        /* \"#utility.yul\":10559:10597   */\n      tag_28\n      jump\t// in\n    tag_192:\n        /* \"#utility.yul\":10644:10711   */\n      tag_193\n        /* \"#utility.yul\":10704:10710   */\n      dup3\n        /* \"#utility.yul\":10696:10702   */\n      dup3\n        /* \"#utility.yul\":10690:10694   */\n      dup6\n        /* \"#utility.yul\":10644:10711   */\n      tag_68\n      jump\t// in\n    tag_193:\n        /* \"#utility.yul\":10738:10739   */\n      0x00\n        /* \"#utility.yul\":10762:10766   */\n      0x20\n        /* \"#utility.yul\":10749:10766   */\n      swap1\n      pop\n        /* \"#utility.yul\":10794:10796   */\n      0x1f\n        /* \"#utility.yul\":10786:10792   */\n      dup4\n        /* \"#utility.yul\":10783:10797   */\n      gt\n        /* \"#utility.yul\":10811:10812   */\n      0x01\n        /* \"#utility.yul\":10806:11424   */\n      dup2\n      eq\n      tag_195\n      jumpi\n        /* \"#utility.yul\":11468:11469   */\n      0x00\n        /* \"#utility.yul\":11485:11491   */\n      dup5\n        /* \"#utility.yul\":11482:11559   */\n      iszero\n      tag_196\n      jumpi\n        /* \"#utility.yul\":11534:11543   */\n      dup3\n        /* \"#utility.yul\":11529:11532   */\n      dup8\n        /* \"#utility.yul\":11525:11544   */\n      add\n        /* \"#utility.yul\":11519:11545   */\n      mload\n        /* \"#utility.yul\":11510:11545   */\n      swap1\n      pop\n        /* \"#utility.yul\":11482:11559   */\n    tag_196:\n        /* \"#utility.yul\":11585:11652   */\n      tag_197\n        /* \"#utility.yul\":11645:11651   */\n      dup6\n        /* \"#utility.yul\":11638:11643   */\n      dup3\n        /* \"#utility.yul\":11585:11652   */\n      tag_71\n      jump\t// in\n    tag_197:\n        /* \"#utility.yul\":11579:11583   */\n      dup7\n        /* \"#utility.yul\":11572:11653   */\n      sstore\n        /* \"#utility.yul\":11441:11663   */\n      pop\n        /* \"#utility.yul\":10776:11663   */\n      jump(tag_194)\n        /* \"#utility.yul\":10806:11424   */\n    tag_195:\n        /* \"#utility.yul\":10858:10862   */\n      0x1f\n        /* \"#utility.yul\":10854:10863   */\n      not\n        /* \"#utility.yul\":10846:10852   */\n      dup5\n        /* \"#utility.yul\":10842:10864   */\n      and\n        /* \"#utility.yul\":10892:10929   */\n      tag_198\n        /* \"#utility.yul\":10924:10928   */\n      dup7\n        /* \"#utility.yul\":10892:10929   */\n      tag_55\n      jump\t// in\n    tag_198:\n        /* \"#utility.yul\":10951:10952   */\n      0x00\n        /* \"#utility.yul\":10965:11173   */\n    tag_199:\n        /* \"#utility.yul\":10979:10986   */\n      dup3\n        /* \"#utility.yul\":10976:10977   */\n      dup2\n        /* \"#utility.yul\":10973:10987   */\n      lt\n        /* \"#utility.yul\":10965:11173   */\n      iszero\n      tag_201\n      jumpi\n        /* \"#utility.yul\":11058:11067   */\n      dup5\n        /* \"#utility.yul\":11053:11056   */\n      dup10\n        /* \"#utility.yul\":11049:11068   */\n      add\n        /* \"#utility.yul\":11043:11069   */\n      mload\n        /* \"#utility.yul\":11035:11041   */\n      dup3\n        /* \"#utility.yul\":11028:11070   */\n      sstore\n        /* \"#utility.yul\":11109:11110   */\n      0x01\n        /* \"#utility.yul\":11101:11107   */\n      dup3\n        /* \"#utility.yul\":11097:11111   */\n      add\n        /* \"#utility.yul\":11087:11111   */\n      swap2\n      pop\n        /* \"#utility.yul\":11156:11158   */\n      0x20\n        /* \"#utility.yul\":11145:11154   */\n      dup6\n        /* \"#utility.yul\":11141:11159   */\n      add\n        /* \"#utility.yul\":11128:11159   */\n      swap5\n      pop\n        /* \"#utility.yul\":11002:11006   */\n      0x20\n        /* \"#utility.yul\":10999:11000   */\n      dup2\n        /* \"#utility.yul\":10995:11007   */\n      add\n        /* \"#utility.yul\":10990:11007   */\n      swap1\n      pop\n        /* \"#utility.yul\":10965:11173   */\n      jump(tag_199)\n    tag_201:\n        /* \"#utility.yul\":11201:11207   */\n      dup7\n        /* \"#utility.yul\":11192:11199   */\n      dup4\n        /* \"#utility.yul\":11189:11208   */\n      lt\n        /* \"#utility.yul\":11186:11365   */\n      iszero\n      tag_202\n      jumpi\n        /* \"#utility.yul\":11259:11268   */\n      dup5\n        /* \"#utility.yul\":11254:11257   */\n      dup10\n        /* \"#utility.yul\":11250:11269   */\n      add\n        /* \"#utility.yul\":11244:11270   */\n      mload\n        /* \"#utility.yul\":11302:11350   */\n      tag_203\n        /* \"#utility.yul\":11344:11348   */\n      0x1f\n        /* \"#utility.yul\":11336:11342   */\n      dup10\n        /* \"#utility.yul\":11332:11349   */\n      and\n        /* \"#utility.yul\":11321:11330   */\n      dup3\n        /* \"#utility.yul\":11302:11350   */\n      tag_70\n      jump\t// in\n    tag_203:\n        /* \"#utility.yul\":11294:11300   */\n      dup4\n        /* \"#utility.yul\":11287:11351   */\n      sstore\n        /* \"#utility.yul\":11209:11365   */\n      pop\n        /* \"#utility.yul\":11186:11365   */\n    tag_202:\n        /* \"#utility.yul\":11411:11412   */\n      0x01\n        /* \"#utility.yul\":11407:11408   */\n      0x02\n        /* \"#utility.yul\":11399:11405   */\n      dup9\n        /* \"#utility.yul\":11395:11409   */\n      mul\n        /* \"#utility.yul\":11391:11413   */\n      add\n        /* \"#utility.yul\":11385:11389   */\n      dup9\n        /* \"#utility.yul\":11378:11414   */\n      sstore\n        /* \"#utility.yul\":10813:11424   */\n      pop\n      pop\n      pop\n        /* \"#utility.yul\":10776:11663   */\n    tag_194:\n      pop\n        /* \"#utility.yul\":10366:11669   */\n      pop\n      pop\n      pop\n        /* \"#utility.yul\":10274:11669   */\n      pop\n      pop\n      jump\t// out\n\n    auxdata: 0xa2646970667358221220699db8c5f694b31ecbc7b818eb61860f2e773c6a96d4fadf01071913fa6c8e9c64736f6c63430008120033\n}\n",
				"bytecode": {
					"linkReferences": {},
					"object": "60806040526040518060400160405280600b81526020017f6d6574615f6d696e657273000000000000000000000000000000000000000000815250600090816200004a9190620002d9565b503480156200005857600080fd5b50620003c0565b600081519050919050565b7f4e487b7100000000000000000000000000000000000000000000000000000000600052604160045260246000fd5b7f4e487b7100000000000000000000000000000000000000000000000000000000600052602260045260246000fd5b60006002820490506001821680620000e157607f821691505b602082108103620000f757620000f662000099565b5b50919050565b60008190508160005260206000209050919050565b60006020601f8301049050919050565b600082821b905092915050565b600060088302620001617fffffffffffffffffffffffffffffffffffffffffffffffffffffffffffffffff8262000122565b6200016d868362000122565b95508019841693508086168417925050509392505050565b6000819050919050565b6000819050919050565b6000620001ba620001b4620001ae8462000185565b6200018f565b62000185565b9050919050565b6000819050919050565b620001d68362000199565b620001ee620001e582620001c1565b8484546200012f565b825550505050565b600090565b62000205620001f6565b62000212818484620001cb565b505050565b5b818110156200023a576200022e600082620001fb565b60018101905062000218565b5050565b601f82111562000289576200025381620000fd565b6200025e8462000112565b810160208510156200026e578190505b620002866200027d8562000112565b83018262000217565b50505b505050565b600082821c905092915050565b6000620002ae600019846008026200028e565b1980831691505092915050565b6000620002c983836200029b565b9150826002028217905092915050565b620002e4826200005f565b67ffffffffffffffff8111156200030057620002ff6200006a565b5b6200030c8254620000c8565b620003198282856200023e565b600060209050601f8311600181146200035157600084156200033c578287015190505b620003488582620002bb565b865550620003b8565b601f1984166200036186620000fd565b60005b828110156200038b5784890151825560018201915060208501945060208101905062000364565b86831015620003ab5784890151620003a7601f8916826200029b565b8355505b6001600288020188555050505b505050505050565b61082f80620003d06000396000f3fe608060405234801561001057600080fd5b50600436106100415760003560e01c806338a18a8a146100465780639bc9164c14610076578063c62409a414610092575b600080fd5b610060600480360381019061005b9190610304565b6100b0565b60405161006d9190610368565b60405180910390f35b610090600480360381019061008b9190610304565b610109565b005b61009a61011c565b6040516100a79190610402565b60405180910390f35b6000816040516020016100c39190610460565b6040516020818303038152906040528051906020012060006040516020016100eb919061056f565b60405160208183030381529060405280519060200120149050919050565b80600090816101189190610727565b5050565b60008054610129906104a6565b80601f0160208091040260200160405190810160405280929190818152602001828054610155906104a6565b80156101a25780601f10610177576101008083540402835291602001916101a2565b820191906000526020600020905b81548152906001019060200180831161018557829003601f168201915b505050505081565b6000604051905090565b600080fd5b600080fd5b600080fd5b600080fd5b6000601f19601f8301169050919050565b7f4e487b7100000000000000000000000000000000000000000000000000000000600052604160045260246000fd5b610211826101c8565b810181811067ffffffffffffffff821117156102305761022f6101d9565b5b80604052505050565b60006102436101aa565b905061024f8282610208565b919050565b600067ffffffffffffffff82111561026f5761026e6101d9565b5b610278826101c8565b9050602081019050919050565b82818337600083830152505050565b60006102a76102a284610254565b610239565b9050828152602081018484840111156102c3576102c26101c3565b5b6102ce848285610285565b509392505050565b600082601f8301126102eb576102ea6101be565b5b81356102fb848260208601610294565b91505092915050565b60006020828403121561031a576103196101b4565b5b600082013567ffffffffffffffff811115610338576103376101b9565b5b610344848285016102d6565b91505092915050565b60008115159050919050565b6103628161034d565b82525050565b600060208201905061037d6000830184610359565b92915050565b600081519050919050565b600082825260208201905092915050565b60005b838110156103bd5780820151818401526020810190506103a2565b60008484015250505050565b60006103d482610383565b6103de818561038e565b93506103ee81856020860161039f565b6103f7816101c8565b840191505092915050565b6000602082019050818103600083015261041c81846103c9565b905092915050565b600081905092915050565b600061043a82610383565b6104448185610424565b935061045481856020860161039f565b80840191505092915050565b600061046c828461042f565b915081905092915050565b7f4e487b7100000000000000000000000000000000000000000000000000000000600052602260045260246000fd5b600060028204905060018216806104be57607f821691505b6020821081036104d1576104d0610477565b5b50919050565b60008190508160005260206000209050919050565b600081546104f9816104a6565b6105038186610424565b9450600182166000811461051e576001811461053357610566565b60ff1983168652811515820286019350610566565b61053c856104d7565b60005b8381101561055e5781548189015260018201915060208101905061053f565b838801955050505b50505092915050565b600061057b82846104ec565b915081905092915050565b60006020601f8301049050919050565b600082821b905092915050565b6000600883026105d37fffffffffffffffffffffffffffffffffffffffffffffffffffffffffffffffff82610596565b6105dd8683610596565b95508019841693508086168417925050509392505050565b6000819050919050565b6000819050919050565b600061062461061f61061a846105f5565b6105ff565b6105f5565b9050919050565b6000819050919050565b61063e83610609565b61065261064a8261062b565b8484546105a3565b825550505050565b600090565b61066761065a565b610672818484610635565b505050565b5b818110156106965761068b60008261065f565b600181019050610678565b5050565b601f8211156106db576106ac816104d7565b6106b584610586565b810160208510156106c4578190505b6106d86106d085610586565b830182610677565b50505b505050565b600082821c905092915050565b60006106fe600019846008026106e0565b1980831691505092915050565b600061071783836106ed565b9150826002028217905092915050565b61073082610383565b67ffffffffffffffff811115610749576107486101d9565b5b61075382546104a6565b61075e82828561069a565b600060209050601f831160018114610791576000841561077f578287015190505b610789858261070b565b8655506107f1565b601f19841661079f866104d7565b60005b828110156107c7578489015182556001820191506020850194506020810190506107a2565b868310156107e457848901516107e0601f8916826106ed565b8355505b6001600288020188555050505b50505050505056fea2646970667358221220699db8c5f694b31ecbc7b818eb61860f2e773c6a96d4fadf01071913fa6c8e9c64736f6c63430008120033",
					"opcodes": "PUSH1 0x80 PUSH1 0x40 MSTORE PUSH1 0x40 MLOAD DUP1 PUSH1 0x40 ADD PUSH1 0x40 MSTORE DUP1 PUSH1 0xB DUP2 MSTORE PUSH1 0x20 ADD PUSH32 0x6D6574615F6D696E657273000000000000000000000000000000000000000000 DUP2 MSTORE POP PUSH1 0x0 SWAP1 DUP2 PUSH3 0x4A SWAP2 SWAP1 PUSH3 0x2D9 JUMP JUMPDEST POP CALLVALUE DUP1 ISZERO PUSH3 0x58 JUMPI PUSH1 0x0 DUP1 REVERT JUMPDEST POP PUSH3 0x3C0 JUMP JUMPDEST PUSH1 0x0 DUP2 MLOAD SWAP1 POP SWAP2 SWAP1 POP JUMP JUMPDEST PUSH32 0x4E487B7100000000000000000000000000000000000000000000000000000000 PUSH1 0x0 MSTORE PUSH1 0x41 PUSH1 0x4 MSTORE PUSH1 0x24 PUSH1 0x0 REVERT JUMPDEST PUSH32 0x4E487B7100000000000000000000000000000000000000000000000000000000 PUSH1 0x0 MSTORE PUSH1 0x22 PUSH1 0x4 MSTORE PUSH1 0x24 PUSH1 0x0 REVERT JUMPDEST PUSH1 0x0 PUSH1 0x2 DUP3 DIV SWAP1 POP PUSH1 0x1 DUP3 AND DUP1 PUSH3 0xE1 JUMPI PUSH1 0x7F DUP3 AND SWAP2 POP JUMPDEST PUSH1 0x20 DUP3 LT DUP2 SUB PUSH3 0xF7 JUMPI PUSH3 0xF6 PUSH3 0x99 JUMP JUMPDEST JUMPDEST POP SWAP2 SWAP1 POP JUMP JUMPDEST PUSH1 0x0 DUP2 SWAP1 POP DUP2 PUSH1 0x0 MSTORE PUSH1 0x20 PUSH1 0x0 KECCAK256 SWAP1 POP SWAP2 SWAP1 POP JUMP JUMPDEST PUSH1 0x0 PUSH1 0x20 PUSH1 0x1F DUP4 ADD DIV SWAP1 POP SWAP2 SWAP1 POP JUMP JUMPDEST PUSH1 0x0 DUP3 DUP3 SHL SWAP1 POP SWAP3 SWAP2 POP POP JUMP JUMPDEST PUSH1 0x0 PUSH1 0x8 DUP4 MUL PUSH3 0x161 PUSH32 0xFFFFFFFFFFFFFFFFFFFFFFFFFFFFFFFFFFFFFFFFFFFFFFFFFFFFFFFFFFFFFFFF DUP3 PUSH3 0x122 JUMP JUMPDEST PUSH3 0x16D DUP7 DUP4 PUSH3 0x122 JUMP JUMPDEST SWAP6 POP DUP1 NOT DUP5 AND SWAP4 POP DUP1 DUP7 AND DUP5 OR SWAP3 POP POP POP SWAP4 SWAP3 POP POP POP JUMP JUMPDEST PUSH1 0x0 DUP2 SWAP1 POP SWAP2 SWAP1 POP JUMP JUMPDEST PUSH1 0x0 DUP2 SWAP1 POP SWAP2 SWAP1 POP JUMP JUMPDEST PUSH1 0x0 PUSH3 0x1BA PUSH3 0x1B4 PUSH3 0x1AE DUP5 PUSH3 0x185 JUMP JUMPDEST PUSH3 0x18F JUMP JUMPDEST PUSH3 0x185 JUMP JUMPDEST SWAP1 POP SWAP2 SWAP1 POP JUMP JUMPDEST PUSH1 0x0 DUP2 SWAP1 POP SWAP2 SWAP1 POP JUMP JUMPDEST PUSH3 0x1D6 DUP4 PUSH3 0x199 JUMP JUMPDEST PUSH3 0x1EE PUSH3 0x1E5 DUP3 PUSH3 0x1C1 JUMP JUMPDEST DUP5 DUP5 SLOAD PUSH3 0x12F JUMP JUMPDEST DUP3 SSTORE POP POP POP POP JUMP JUMPDEST PUSH1 0x0 SWAP1 JUMP JUMPDEST PUSH3 0x205 PUSH3 0x1F6 JUMP JUMPDEST PUSH3 0x212 DUP2 DUP5 DUP5 PUSH3 0x1CB JUMP JUMPDEST POP POP POP JUMP JUMPDEST JUMPDEST DUP2 DUP2 LT ISZERO PUSH3 0x23A JUMPI PUSH3 0x22E PUSH1 0x0 DUP3 PUSH3 0x1FB JUMP JUMPDEST PUSH1 0x1 DUP2 ADD SWAP1 POP PUSH3 0x218 JUMP JUMPDEST POP POP JUMP JUMPDEST PUSH1 0x1F DUP3 GT ISZERO PUSH3 0x289 JUMPI PUSH3 0x253 DUP2 PUSH3 0xFD JUMP JUMPDEST PUSH3 0x25E DUP5 PUSH3 0x112 JUMP JUMPDEST DUP2 ADD PUSH1 0x20 DUP6 LT ISZERO PUSH3 0x26E JUMPI DUP2 SWAP1 POP JUMPDEST PUSH3 0x286 PUSH3 0x27D DUP6 PUSH3 0x112 JUMP JUMPDEST DUP4 ADD DUP3 PUSH3 0x217 JUMP JUMPDEST POP POP JUMPDEST POP POP POP JUMP JUMPDEST PUSH1 0x0 DUP3 DUP3 SHR SWAP1 POP SWAP3 SWAP2 POP POP JUMP JUMPDEST PUSH1 0x0 PUSH3 0x2AE PUSH1 0x0 NOT DUP5 PUSH1 0x8 MUL PUSH3 0x28E JUMP JUMPDEST NOT DUP1 DUP4 AND SWAP2 POP POP SWAP3 SWAP2 POP POP JUMP JUMPDEST PUSH1 0x0 PUSH3 0x2C9 DUP4 DUP4 PUSH3 0x29B JUMP JUMPDEST SWAP2 POP DUP3 PUSH1 0x2 MUL DUP3 OR SWAP1 POP SWAP3 SWAP2 POP POP JUMP JUMPDEST PUSH3 0x2E4 DUP3 PUSH3 0x5F JUMP JUMPDEST PUSH8 0xFFFFFFFFFFFFFFFF DUP2 GT ISZERO PUSH3 0x300 JUMPI PUSH3 0x2FF PUSH3 0x6A JUMP JUMPDEST JUMPDEST PUSH3 0x30C DUP3 SLOAD PUSH3 0xC8 JUMP JUMPDEST PUSH3 0x319 DUP3 DUP3 DUP6 PUSH3 0x23E JUMP JUMPDEST PUSH1 0x0 PUSH1 0x20 SWAP1 POP PUSH1 0x1F DUP4 GT PUSH1 0x1 DUP2 EQ PUSH3 0x351 JUMPI PUSH1 0x0 DUP5 ISZERO PUSH3 0x33C JUMPI DUP3 DUP8 ADD MLOAD SWAP1 POP JUMPDEST PUSH3 0x348 DUP6 DUP3 PUSH3 0x2BB JUMP JUMPDEST DUP7 SSTORE POP PUSH3 0x3B8 JUMP JUMPDEST PUSH1 0x1F NOT DUP5 AND PUSH3 0x361 DUP7 PUSH3 0xFD JUMP JUMPDEST PUSH1 0x0 JUMPDEST DUP3 DUP2 LT ISZERO PUSH3 0x38B JUMPI DUP5 DUP10 ADD MLOAD DUP3 SSTORE PUSH1 0x1 DUP3 ADD SWAP2 POP PUSH1 0x20 DUP6 ADD SWAP5 POP PUSH1 0x20 DUP2 ADD SWAP1 POP PUSH3 0x364 JUMP JUMPDEST DUP7 DUP4 LT ISZERO PUSH3 0x3AB JUMPI DUP5 DUP10 ADD MLOAD PUSH3 0x3A7 PUSH1 0x1F DUP10 AND DUP3 PUSH3 0x29B JUMP JUMPDEST DUP4 SSTORE POP JUMPDEST PUSH1 0x1 PUSH1 0x2 DUP9 MUL ADD DUP9 SSTORE POP POP POP JUMPDEST POP POP POP POP POP POP JUMP JUMPDEST PUSH2 0x82F DUP1 PUSH3 0x3D0 PUSH1 0x0 CODECOPY PUSH1 0x0 RETURN INVALID PUSH1 0x80 PUSH1 0x40 MSTORE CALLVALUE DUP1 ISZERO PUSH2 0x10 JUMPI PUSH1 0x0 DUP1 REVERT JUMPDEST POP PUSH1 0x4 CALLDATASIZE LT PUSH2 0x41 JUMPI PUSH1 0x0 CALLDATALOAD PUSH1 0xE0 SHR DUP1 PUSH4 0x38A18A8A EQ PUSH2 0x46 JUMPI DUP1 PUSH4 0x9BC9164C EQ PUSH2 0x76 JUMPI DUP1 PUSH4 0xC62409A4 EQ PUSH2 0x92 JUMPI JUMPDEST PUSH1 0x0 DUP1 REVERT JUMPDEST PUSH2 0x60 PUSH1 0x4 DUP1 CALLDATASIZE SUB DUP2 ADD SWAP1 PUSH2 0x5B SWAP2 SWAP1 PUSH2 0x304 JUMP JUMPDEST PUSH2 0xB0 JUMP JUMPDEST PUSH1 0x40 MLOAD PUSH2 0x6D SWAP2 SWAP1 PUSH2 0x368 JUMP JUMPDEST PUSH1 0x40 MLOAD DUP1 SWAP2 SUB SWAP1 RETURN JUMPDEST PUSH2 0x90 PUSH1 0x4 DUP1 CALLDATASIZE SUB DUP2 ADD SWAP1 PUSH2 0x8B SWAP2 SWAP1 PUSH2 0x304 JUMP JUMPDEST PUSH2 0x109 JUMP JUMPDEST STOP JUMPDEST PUSH2 0x9A PUSH2 0x11C JUMP JUMPDEST PUSH1 0x40 MLOAD PUSH2 0xA7 SWAP2 SWAP1 PUSH2 0x402 JUMP JUMPDEST PUSH1 0x40 MLOAD DUP1 SWAP2 SUB SWAP1 RETURN JUMPDEST PUSH1 0x0 DUP2 PUSH1 0x40 MLOAD PUSH1 0x20 ADD PUSH2 0xC3 SWAP2 SWAP1 PUSH2 0x460 JUMP JUMPDEST PUSH1 0x40 MLOAD PUSH1 0x20 DUP2 DUP4 SUB SUB DUP2 MSTORE SWAP1 PUSH1 0x40 MSTORE DUP1 MLOAD SWAP1 PUSH1 0x20 ADD KECCAK256 PUSH1 0x0 PUSH1 0x40 MLOAD PUSH1 0x20 ADD PUSH2 0xEB SWAP2 SWAP1 PUSH2 0x56F JUMP JUMPDEST PUSH1 0x40 MLOAD PUSH1 0x20 DUP2 DUP4 SUB SUB DUP2 MSTORE SWAP1 PUSH1 0x40 MSTORE DUP1 MLOAD SWAP1 PUSH1 0x20 ADD KECCAK256 EQ SWAP1 POP SWAP2 SWAP1 POP JUMP JUMPDEST DUP1 PUSH1 0x0 SWAP1 DUP2 PUSH2 0x118 SWAP2 SWAP1 PUSH2 0x727 JUMP JUMPDEST POP POP JUMP JUMPDEST PUSH1 0x0 DUP1 SLOAD PUSH2 0x129 SWAP1 PUSH2 0x4A6 JUMP JUMPDEST DUP1 PUSH1 0x1F ADD PUSH1 0x20 DUP1 SWAP2 DIV MUL PUSH1 0x20 ADD PUSH1 0x40 MLOAD SWAP1 DUP2 ADD PUSH1 0x40 MSTORE DUP1 SWAP3 SWAP2 SWAP1 DUP2 DUP2 MSTORE PUSH1 0x20 ADD DUP3 DUP1 SLOAD PUSH2 0x155 SWAP1 PUSH2 0x4A6 JUMP JUMPDEST DUP1 ISZERO PUSH2 0x1A2 JUMPI DUP1 PUSH1 0x1F LT PUSH2 0x177 JUMPI PUSH2 0x100 DUP1 DUP4 SLOAD DIV MUL DUP4 MSTORE SWAP2 PUSH1 0x20 ADD SWAP2 PUSH2 0x1A2 JUMP JUMPDEST DUP3 ADD SWAP2 SWAP1 PUSH1 0x0 MSTORE PUSH1 0x20 PUSH1 0x0 KECCAK256 SWAP1 JUMPDEST DUP2 SLOAD DUP2 MSTORE SWAP1 PUSH1 0x1 ADD SWAP1 PUSH1 0x20 ADD DUP1 DUP4 GT PUSH2 0x185 JUMPI DUP3 SWAP1 SUB PUSH1 0x1F AND DUP3 ADD SWAP2 JUMPDEST POP POP POP POP POP DUP2 JUMP JUMPDEST PUSH1 0x0 PUSH1 0x40 MLOAD SWAP1 POP SWAP1 JUMP JUMPDEST PUSH1 0x0 DUP1 REVERT JUMPDEST PUSH1 0x0 DUP1 REVERT JUMPDEST PUSH1 0x0 DUP1 REVERT JUMPDEST PUSH1 0x0 DUP1 REVERT JUMPDEST PUSH1 0x0 PUSH1 0x1F NOT PUSH1 0x1F DUP4 ADD AND SWAP1 POP SWAP2 SWAP1 POP JUMP JUMPDEST PUSH32 0x4E487B7100000000000000000000000000000000000000000000000000000000 PUSH1 0x0 MSTORE PUSH1 0x41 PUSH1 0x4 MSTORE PUSH1 0x24 PUSH1 0x0 REVERT JUMPDEST PUSH2 0x211 DUP3 PUSH2 0x1C8 JUMP JUMPDEST DUP2 ADD DUP2 DUP2 LT PUSH8 0xFFFFFFFFFFFFFFFF DUP3 GT OR ISZERO PUSH2 0x230 JUMPI PUSH2 0x22F PUSH2 0x1D9 JUMP JUMPDEST JUMPDEST DUP1 PUSH1 0x40 MSTORE POP POP POP JUMP JUMPDEST PUSH1 0x0 PUSH2 0x243 PUSH2 0x1AA JUMP JUMPDEST SWAP1 POP PUSH2 0x24F DUP3 DUP3 PUSH2 0x208 JUMP JUMPDEST SWAP2 SWAP1 POP JUMP JUMPDEST PUSH1 0x0 PUSH8 0xFFFFFFFFFFFFFFFF DUP3 GT ISZERO PUSH2 0x26F JUMPI PUSH2 0x26E PUSH2 0x1D9 JUMP JUMPDEST JUMPDEST PUSH2 0x278 DUP3 PUSH2 0x1C8 JUMP JUMPDEST SWAP1 POP PUSH1 0x20 DUP2 ADD SWAP1 POP SWAP2 SWAP1 POP JUMP JUMPDEST DUP3 DUP2 DUP4 CALLDATACOPY PUSH1 0x0 DUP4 DUP4 ADD MSTORE POP POP POP JUMP JUMPDEST PUSH1 0x0 PUSH2 0x2A7 PUSH2 0x2A2 DUP5 PUSH2 0x254 JUMP JUMPDEST PUSH2 0x239 JUMP JUMPDEST SWAP1 POP DUP3 DUP2 MSTORE PUSH1 0x20 DUP2 ADD DUP5 DUP5 DUP5 ADD GT ISZERO PUSH2 0x2C3 JUMPI PUSH2 0x2C2 PUSH2 0x1C3 JUMP JUMPDEST JUMPDEST PUSH2 0x2CE DUP5 DUP3 DUP6 PUSH2 0x285 JUMP JUMPDEST POP SWAP4 SWAP3 POP POP POP JUMP JUMPDEST PUSH1 0x0 DUP3 PUSH1 0x1F DUP4 ADD SLT PUSH2 0x2EB JUMPI PUSH2 0x2EA PUSH2 0x1BE JUMP JUMPDEST JUMPDEST DUP2 CALLDATALOAD PUSH2 0x2FB DUP5 DUP3 PUSH1 0x20 DUP7 ADD PUSH2 0x294 JUMP JUMPDEST SWAP2 POP POP SWAP3 SWAP2 POP POP JUMP JUMPDEST PUSH1 0x0 PUSH1 0x20 DUP3 DUP5 SUB SLT ISZERO PUSH2 0x31A JUMPI PUSH2 0x319 PUSH2 0x1B4 JUMP JUMPDEST JUMPDEST PUSH1 0x0 DUP3 ADD CALLDATALOAD PUSH8 0xFFFFFFFFFFFFFFFF DUP2 GT ISZERO PUSH2 0x338 JUMPI PUSH2 0x337 PUSH2 0x1B9 JUMP JUMPDEST JUMPDEST PUSH2 0x344 DUP5 DUP3 DUP6 ADD PUSH2 0x2D6 JUMP JUMPDEST SWAP2 POP POP SWAP3 SWAP2 POP POP JUMP JUMPDEST PUSH1 0x0 DUP2 ISZERO ISZERO SWAP1 POP SWAP2 SWAP1 POP JUMP JUMPDEST PUSH2 0x362 DUP2 PUSH2 0x34D JUMP JUMPDEST DUP3 MSTORE POP POP JUMP JUMPDEST PUSH1 0x0 PUSH1 0x20 DUP3 ADD SWAP1 POP PUSH2 0x37D PUSH1 0x0 DUP4 ADD DUP5 PUSH2 0x359 JUMP JUMPDEST SWAP3 SWAP2 POP POP JUMP JUMPDEST PUSH1 0x0 DUP2 MLOAD SWAP1 POP SWAP2 SWAP1 POP JUMP JUMPDEST PUSH1 0x0 DUP3 DUP3 MSTORE PUSH1 0x20 DUP3 ADD SWAP1 POP SWAP3 SWAP2 POP POP JUMP JUMPDEST PUSH1 0x0 JUMPDEST DUP4 DUP2 LT ISZERO PUSH2 0x3BD JUMPI DUP1 DUP3 ADD MLOAD DUP2 DUP5 ADD MSTORE PUSH1 0x20 DUP2 ADD SWAP1 POP PUSH2 0x3A2 JUMP JUMPDEST PUSH1 0x0 DUP5 DUP5 ADD MSTORE POP POP POP POP JUMP JUMPDEST PUSH1 0x0 PUSH2 0x3D4 DUP3 PUSH2 0x383 JUMP JUMPDEST PUSH2 0x3DE DUP2 DUP6 PUSH2 0x38E JUMP JUMPDEST SWAP4 POP PUSH2 0x3EE DUP2 DUP6 PUSH1 0x20 DUP7 ADD PUSH2 0x39F JUMP JUMPDEST PUSH2 0x3F7 DUP2 PUSH2 0x1C8 JUMP JUMPDEST DUP5 ADD SWAP2 POP POP SWAP3 SWAP2 POP POP JUMP JUMPDEST PUSH1 0x0 PUSH1 0x20 DUP3 ADD SWAP1 POP DUP2 DUP2 SUB PUSH1 0x0 DUP4 ADD MSTORE PUSH2 0x41C DUP2 DUP5 PUSH2 0x3C9 JUMP JUMPDEST SWAP1 POP SWAP3 SWAP2 POP POP JUMP JUMPDEST PUSH1 0x0 DUP2 SWAP1 POP SWAP3 SWAP2 POP POP JUMP JUMPDEST PUSH1 0x0 PUSH2 0x43A DUP3 PUSH2 0x383 JUMP JUMPDEST PUSH2 0x444 DUP2 DUP6 PUSH2 0x424 JUMP JUMPDEST SWAP4 POP PUSH2 0x454 DUP2 DUP6 PUSH1 0x20 DUP7 ADD PUSH2 0x39F JUMP JUMPDEST DUP1 DUP5 ADD SWAP2 POP POP SWAP3 SWAP2 POP POP JUMP JUMPDEST PUSH1 0x0 PUSH2 0x46C DUP3 DUP5 PUSH2 0x42F JUMP JUMPDEST SWAP2 POP DUP2 SWAP1 POP SWAP3 SWAP2 POP POP JUMP JUMPDEST PUSH32 0x4E487B7100000000000000000000000000000000000000000000000000000000 PUSH1 0x0 MSTORE PUSH1 0x22 PUSH1 0x4 MSTORE PUSH1 0x24 PUSH1 0x0 REVERT JUMPDEST PUSH1 0x0 PUSH1 0x2 DUP3 DIV SWAP1 POP PUSH1 0x1 DUP3 AND DUP1 PUSH2 0x4BE JUMPI PUSH1 0x7F DUP3 AND SWAP2 POP JUMPDEST PUSH1 0x20 DUP3 LT DUP2 SUB PUSH2 0x4D1 JUMPI PUSH2 0x4D0 PUSH2 0x477 JUMP JUMPDEST JUMPDEST POP SWAP2 SWAP1 POP JUMP JUMPDEST PUSH1 0x0 DUP2 SWAP1 POP DUP2 PUSH1 0x0 MSTORE PUSH1 0x20 PUSH1 0x0 KECCAK256 SWAP1 POP SWAP2 SWAP1 POP JUMP JUMPDEST PUSH1 0x0 DUP2 SLOAD PUSH2 0x4F9 DUP2 PUSH2 0x4A6 JUMP JUMPDEST PUSH2 0x503 DUP2 DUP7 PUSH2 0x424 JUMP JUMPDEST SWAP5 POP PUSH1 0x1 DUP3 AND PUSH1 0x0 DUP2 EQ PUSH2 0x51E JUMPI PUSH1 0x1 DUP2 EQ PUSH2 0x533 JUMPI PUSH2 0x566 JUMP JUMPDEST PUSH1 0xFF NOT DUP4 AND DUP7 MSTORE DUP2 ISZERO ISZERO DUP3 MUL DUP7 ADD SWAP4 POP PUSH2 0x566 JUMP JUMPDEST PUSH2 0x53C DUP6 PUSH2 0x4D7 JUMP JUMPDEST PUSH1 0x0 JUMPDEST DUP4 DUP2 LT ISZERO PUSH2 0x55E JUMPI DUP2 SLOAD DUP2 DUP10 ADD MSTORE PUSH1 0x1 DUP3 ADD SWAP2 POP PUSH1 0x20 DUP2 ADD SWAP1 POP PUSH2 0x53F JUMP JUMPDEST DUP4 DUP9 ADD SWAP6 POP POP POP JUMPDEST POP POP POP SWAP3 SWAP2 POP POP JUMP JUMPDEST PUSH1 0x0 PUSH2 0x57B DUP3 DUP5 PUSH2 0x4EC JUMP JUMPDEST SWAP2 POP DUP2 SWAP1 POP SWAP3 SWAP2 POP POP JUMP JUMPDEST PUSH1 0x0 PUSH1 0x20 PUSH1 0x1F DUP4 ADD DIV SWAP1 POP SWAP2 SWAP1 POP JUMP JUMPDEST PUSH1 0x0 DUP3 DUP3 SHL SWAP1 POP SWAP3 SWAP2 POP POP JUMP JUMPDEST PUSH1 0x0 PUSH1 0x8 DUP4 MUL PUSH2 0x5D3 PUSH32 0xFFFFFFFFFFFFFFFFFFFFFFFFFFFFFFFFFFFFFFFFFFFFFFFFFFFFFFFFFFFFFFFF DUP3 PUSH2 0x596 JUMP JUMPDEST PUSH2 0x5DD DUP7 DUP4 PUSH2 0x596 JUMP JUMPDEST SWAP6 POP DUP1 NOT DUP5 AND SWAP4 POP DUP1 DUP7 AND DUP5 OR SWAP3 POP POP POP SWAP4 SWAP3 POP POP POP JUMP JUMPDEST PUSH1 0x0 DUP2 SWAP1 POP SWAP2 SWAP1 POP JUMP JUMPDEST PUSH1 0x0 DUP2 SWAP1 POP SWAP2 SWAP1 POP JUMP JUMPDEST PUSH1 0x0 PUSH2 0x624 PUSH2 0x61F PUSH2 0x61A DUP5 PUSH2 0x5F5 JUMP JUMPDEST PUSH2 0x5FF JUMP JUMPDEST PUSH2 0x5F5 JUMP JUMPDEST SWAP1 POP SWAP2 SWAP1 POP JUMP JUMPDEST PUSH1 0x0 DUP2 SWAP1 POP SWAP2 SWAP1 POP JUMP JUMPDEST PUSH2 0x63E DUP4 PUSH2 0x609 JUMP JUMPDEST PUSH2 0x652 PUSH2 0x64A DUP3 PUSH2 0x62B JUMP JUMPDEST DUP5 DUP5 SLOAD PUSH2 0x5A3 JUMP JUMPDEST DUP3 SSTORE POP POP POP POP JUMP JUMPDEST PUSH1 0x0 SWAP1 JUMP JUMPDEST PUSH2 0x667 PUSH2 0x65A JUMP JUMPDEST PUSH2 0x672 DUP2 DUP5 DUP5 PUSH2 0x635 JUMP JUMPDEST POP POP POP JUMP JUMPDEST JUMPDEST DUP2 DUP2 LT ISZERO PUSH2 0x696 JUMPI PUSH2 0x68B PUSH1 0x0 DUP3 PUSH2 0x65F JUMP JUMPDEST PUSH1 0x1 DUP2 ADD SWAP1 POP PUSH2 0x678 JUMP JUMPDEST POP POP JUMP JUMPDEST PUSH1 0x1F DUP3 GT ISZERO PUSH2 0x6DB JUMPI PUSH2 0x6AC DUP2 PUSH2 0x4D7 JUMP JUMPDEST PUSH2 0x6B5 DUP5 PUSH2 0x586 JUMP JUMPDEST DUP2 ADD PUSH1 0x20 DUP6 LT ISZERO PUSH2 0x6C4 JUMPI DUP2 SWAP1 POP JUMPDEST PUSH2 0x6D8 PUSH2 0x6D0 DUP6 PUSH2 0x586 JUMP JUMPDEST DUP4 ADD DUP3 PUSH2 0x677 JUMP JUMPDEST POP POP JUMPDEST POP POP POP JUMP JUMPDEST PUSH1 0x0 DUP3 DUP3 SHR SWAP1 POP SWAP3 SWAP2 POP POP JUMP JUMPDEST PUSH1 0x0 PUSH2 0x6FE PUSH1 0x0 NOT DUP5 PUSH1 0x8 MUL PUSH2 0x6E0 JUMP JUMPDEST NOT DUP1 DUP4 AND SWAP2 POP POP SWAP3 SWAP2 POP POP JUMP JUMPDEST PUSH1 0x0 PUSH2 0x717 DUP4 DUP4 PUSH2 0x6ED JUMP JUMPDEST SWAP2 POP DUP3 PUSH1 0x2 MUL DUP3 OR SWAP1 POP SWAP3 SWAP2 POP POP JUMP JUMPDEST PUSH2 0x730 DUP3 PUSH2 0x383 JUMP JUMPDEST PUSH8 0xFFFFFFFFFFFFFFFF DUP2 GT ISZERO PUSH2 0x749 JUMPI PUSH2 0x748 PUSH2 0x1D9 JUMP JUMPDEST JUMPDEST PUSH2 0x753 DUP3 SLOAD PUSH2 0x4A6 JUMP JUMPDEST PUSH2 0x75E DUP3 DUP3 DUP6 PUSH2 0x69A JUMP JUMPDEST PUSH1 0x0 PUSH1 0x20 SWAP1 POP PUSH1 0x1F DUP4 GT PUSH1 0x1 DUP2 EQ PUSH2 0x791 JUMPI PUSH1 0x0 DUP5 ISZERO PUSH2 0x77F JUMPI DUP3 DUP8 ADD MLOAD SWAP1 POP JUMPDEST PUSH2 0x789 DUP6 DUP3 PUSH2 0x70B JUMP JUMPDEST DUP7 SSTORE POP PUSH2 0x7F1 JUMP JUMPDEST PUSH1 0x1F NOT DUP5 AND PUSH2 0x79F DUP7 PUSH2 0x4D7 JUMP JUMPDEST PUSH1 0x0 JUMPDEST DUP3 DUP2 LT ISZERO PUSH2 0x7C7 JUMPI DUP5 DUP10 ADD MLOAD DUP3 SSTORE PUSH1 0x1 DUP3 ADD SWAP2 POP PUSH1 0x20 DUP6 ADD SWAP5 POP PUSH1 0x20 DUP2 ADD SWAP1 POP PUSH2 0x7A2 JUMP JUMPDEST DUP7 DUP4 LT ISZERO PUSH2 0x7E4 JUMPI DUP5 DUP10 ADD MLOAD PUSH2 0x7E0 PUSH1 0x1F DUP10 AND DUP3 PUSH2 0x6ED JUMP JUMPDEST DUP4 SSTORE POP JUMPDEST PUSH1 0x1 PUSH1 0x2 DUP9 MUL ADD DUP9 SSTORE POP POP POP JUMPDEST POP POP POP POP POP POP JUMP INVALID LOG2 PUSH5 0x6970667358 0x22 SLT KECCAK256 PUSH10 0x9DB8C5F694B31ECBC7B8 XOR 0xEB PUSH2 0x860F 0x2E PUSH24 0x3C6A96D4FADF01071913FA6C8E9C64736F6C634300081200 CALLER "
				},
				"gasEstimates": {
					"creation": {
						"codeDepositCost": "419000",
						"executionCost": "infinite",
						"totalCost": "infinite"
					},
					"external": {
						"cmp_str(string)": "infinite",
						"str_func(string)": "infinite",
						"str_var()": "infinite"
					}
				},
				"methodIdentifiers": {
					"cmp_str(string)": "38a18a8a",
					"str_func(string)": "9bc9164c",
					"str_var()": "c62409a4"
				}
			},
			"storageLayout": {
				"storage": [
					{
						"astId": 4,
						"contract": "basics/strings.sol:string_contract",
						"label": "str_var",
						"offset": 0,
						"slot": "0",
						"type": "t_string_storage"
					}
				],
				"types": {
					"t_string_storage": {
						"encoding": "bytes",
						"label": "string",
						"numberOfBytes": "32"
					}
				}
			},
			"userdoc": {
				"kind": "user",
				"methods": {},
				"version": 1
			}
		}
	}
}